{
	"contracts/rcp.sol": {
		"rps": {
			"abi": [
				{
					"inputs": [],
					"stateMutability": "nonpayable",
					"type": "constructor"
				},
				{
					"anonymous": false,
					"inputs": [
						{
							"indexed": false,
							"internalType": "address",
							"name": "",
							"type": "address"
						}
					],
					"name": "GameFinished",
					"type": "event"
				},
				{
					"anonymous": false,
					"inputs": [
						{
							"indexed": false,
							"internalType": "address",
							"name": "",
							"type": "address"
						}
					],
					"name": "GameInitiated",
					"type": "event"
				},
				{
					"anonymous": false,
					"inputs": [
						{
							"indexed": false,
							"internalType": "enum rps.Stage",
							"name": "",
							"type": "uint8"
						}
					],
					"name": "PhaseChanged",
					"type": "event"
				},
				{
					"inputs": [
						{
							"internalType": "enum rps.Weapon",
							"name": "element",
							"type": "uint8"
						},
						{
							"internalType": "uint32",
							"name": "salt",
							"type": "uint32"
						}
					],
					"name": "concat",
					"outputs": [],
					"stateMutability": "nonpayable",
					"type": "function"
				},
				{
					"inputs": [],
					"name": "currentPhase",
					"outputs": [
						{
							"internalType": "enum rps.Stage",
							"name": "",
							"type": "uint8"
						}
					],
					"stateMutability": "view",
					"type": "function"
				},
				{
					"inputs": [],
					"name": "hash",
					"outputs": [
						{
							"internalType": "bytes32",
							"name": "",
							"type": "bytes32"
						}
					],
					"stateMutability": "view",
					"type": "function"
				},
				{
					"inputs": [
						{
							"internalType": "bytes32",
							"name": "move",
							"type": "bytes32"
						}
					],
					"name": "move",
					"outputs": [
						{
							"internalType": "bool",
							"name": "",
							"type": "bool"
						}
					],
					"stateMutability": "nonpayable",
					"type": "function"
				},
				{
					"inputs": [],
					"name": "newGame",
					"outputs": [],
					"stateMutability": "nonpayable",
					"type": "function"
				},
				{
					"inputs": [],
					"name": "player1",
					"outputs": [
						{
							"internalType": "address",
							"name": "",
							"type": "address"
						}
					],
					"stateMutability": "view",
					"type": "function"
				},
				{
					"inputs": [],
					"name": "player1Move",
					"outputs": [
						{
							"internalType": "enum rps.Weapon",
							"name": "",
							"type": "uint8"
						}
					],
					"stateMutability": "view",
					"type": "function"
				},
				{
					"inputs": [],
					"name": "player2",
					"outputs": [
						{
							"internalType": "address",
							"name": "",
							"type": "address"
						}
					],
					"stateMutability": "view",
					"type": "function"
				},
				{
					"inputs": [],
					"name": "player2Move",
					"outputs": [
						{
							"internalType": "enum rps.Weapon",
							"name": "",
							"type": "uint8"
						}
					],
					"stateMutability": "view",
					"type": "function"
				},
				{
					"inputs": [],
					"name": "registration",
					"outputs": [
						{
							"internalType": "uint256",
							"name": "",
							"type": "uint256"
						}
					],
					"stateMutability": "nonpayable",
					"type": "function"
				},
				{
					"inputs": [
						{
							"internalType": "enum rps.Weapon",
							"name": "element",
							"type": "uint8"
						},
						{
							"internalType": "uint32",
							"name": "salt",
							"type": "uint32"
						}
					],
					"name": "reveal",
					"outputs": [],
					"stateMutability": "nonpayable",
					"type": "function"
				},
				{
					"inputs": [],
					"name": "winner",
					"outputs": [
						{
							"internalType": "address",
							"name": "",
							"type": "address"
						}
					],
					"stateMutability": "view",
					"type": "function"
				}
			],
			"devdoc": {
				"kind": "dev",
				"methods": {},
				"version": 1
			},
			"evm": {
				"assembly": "    /* \"contracts/rcp.sol\":126:4674  contract rps {... */\n  mstore(0x40, 0x80)\n    /* \"contracts/rcp.sol\":647:776  constructor() {... */\n  callvalue\n  dup1\n  iszero\n  tag_1\n  jumpi\n  0x00\n  dup1\n  revert\ntag_1:\n  pop\n    /* \"contracts/rcp.sol\":689:692  0x0 */\n  0x00\n    /* \"contracts/rcp.sol\":671:678  player1 */\n  dup1\n  0x01\n    /* \"contracts/rcp.sol\":671:693  player1 = address(0x0) */\n  0x0100\n  exp\n  dup2\n  sload\n  dup2\n  0xffffffffffffffffffffffffffffffffffffffff\n  mul\n  not\n  and\n  swap1\n  dup4\n  0xffffffffffffffffffffffffffffffffffffffff\n  and\n  mul\n  or\n  swap1\n  sstore\n  pop\n    /* \"contracts/rcp.sol\":721:724  0x0 */\n  0x00\n    /* \"contracts/rcp.sol\":703:710  player2 */\n  0x01\n  0x00\n    /* \"contracts/rcp.sol\":703:725  player2 = address(0x0) */\n  0x0100\n  exp\n  dup2\n  sload\n  dup2\n  0xffffffffffffffffffffffffffffffffffffffff\n  mul\n  not\n  and\n  swap1\n  dup4\n  0xffffffffffffffffffffffffffffffffffffffff\n  and\n  mul\n  or\n  swap1\n  sstore\n  pop\n    /* \"contracts/rcp.sol\":736:769  changePhaseTo(Stage.Registration) */\n  tag_4\n    /* \"contracts/rcp.sol\":750:768  Stage.Registration */\n  0x00\n    /* \"contracts/rcp.sol\":736:749  changePhaseTo */\n  shl(0x20, tag_5)\n    /* \"contracts/rcp.sol\":736:769  changePhaseTo(Stage.Registration) */\n  0x20\n  shr\n  jump\t// in\ntag_4:\n    /* \"contracts/rcp.sol\":126:4674  contract rps {... */\n  jump(tag_6)\n    /* \"contracts/rcp.sol\":782:904  function changePhaseTo(Stage phase) private {... */\ntag_5:\n    /* \"contracts/rcp.sol\":851:856  phase */\n  dup1\n    /* \"contracts/rcp.sol\":836:848  currentPhase */\n  0x00\n  dup1\n    /* \"contracts/rcp.sol\":836:856  currentPhase = phase */\n  0x0100\n  exp\n  dup2\n  sload\n  dup2\n  0xff\n  mul\n  not\n  and\n  swap1\n  dup4\n  0x02\n  dup2\n  gt\n  iszero\n  tag_8\n  jumpi\n  tag_9\n  tag_10\n  jump\t// in\ntag_9:\ntag_8:\n  mul\n  or\n  swap1\n  sstore\n  pop\n    /* \"contracts/rcp.sol\":871:897  PhaseChanged(currentPhase) */\n  0xa6dcc92f45df25789d5639b7a0c97ba1edf3bb1c0b5dd3376fd96a0db87c4642\n    /* \"contracts/rcp.sol\":884:896  currentPhase */\n  0x00\n  dup1\n  sload\n  swap1\n  0x0100\n  exp\n  swap1\n  div\n  0xff\n  and\n    /* \"contracts/rcp.sol\":871:897  PhaseChanged(currentPhase) */\n  mload(0x40)\n  tag_11\n  swap2\n  swap1\n  tag_12\n  jump\t// in\ntag_11:\n  mload(0x40)\n  dup1\n  swap2\n  sub\n  swap1\n  log1\n    /* \"contracts/rcp.sol\":782:904  function changePhaseTo(Stage phase) private {... */\n  pop\n  jump\t// out\n    /* \"#utility.yul\":7:187   */\ntag_10:\n    /* \"#utility.yul\":55:132   */\n  0x4e487b7100000000000000000000000000000000000000000000000000000000\n    /* \"#utility.yul\":52:53   */\n  0x00\n    /* \"#utility.yul\":45:133   */\n  mstore\n    /* \"#utility.yul\":152:156   */\n  0x21\n    /* \"#utility.yul\":149:150   */\n  0x04\n    /* \"#utility.yul\":142:157   */\n  mstore\n    /* \"#utility.yul\":176:180   */\n  0x24\n    /* \"#utility.yul\":173:174   */\n  0x00\n    /* \"#utility.yul\":166:181   */\n  revert\n    /* \"#utility.yul\":193:308   */\ntag_13:\n    /* \"#utility.yul\":276:277   */\n  0x03\n    /* \"#utility.yul\":269:274   */\n  dup2\n    /* \"#utility.yul\":266:278   */\n  lt\n    /* \"#utility.yul\":256:302   */\n  tag_20\n  jumpi\n    /* \"#utility.yul\":282:300   */\n  tag_21\n  tag_10\n  jump\t// in\ntag_21:\n    /* \"#utility.yul\":256:302   */\ntag_20:\n    /* \"#utility.yul\":193:308   */\n  pop\n  jump\t// out\n    /* \"#utility.yul\":314:445   */\ntag_14:\n    /* \"#utility.yul\":361:368   */\n  0x00\n    /* \"#utility.yul\":390:395   */\n  dup2\n    /* \"#utility.yul\":379:395   */\n  swap1\n  pop\n    /* \"#utility.yul\":396:439   */\n  tag_23\n    /* \"#utility.yul\":433:438   */\n  dup3\n    /* \"#utility.yul\":396:439   */\n  tag_13\n  jump\t// in\ntag_23:\n    /* \"#utility.yul\":314:445   */\n  swap2\n  swap1\n  pop\n  jump\t// out\n    /* \"#utility.yul\":451:582   */\ntag_15:\n    /* \"#utility.yul\":509:518   */\n  0x00\n    /* \"#utility.yul\":542:576   */\n  tag_25\n    /* \"#utility.yul\":570:575   */\n  dup3\n    /* \"#utility.yul\":542:576   */\n  tag_14\n  jump\t// in\ntag_25:\n    /* \"#utility.yul\":529:576   */\n  swap1\n  pop\n    /* \"#utility.yul\":451:582   */\n  swap2\n  swap1\n  pop\n  jump\t// out\n    /* \"#utility.yul\":588:735   */\ntag_16:\n    /* \"#utility.yul\":683:728   */\n  tag_27\n    /* \"#utility.yul\":722:727   */\n  dup2\n    /* \"#utility.yul\":683:728   */\n  tag_15\n  jump\t// in\ntag_27:\n    /* \"#utility.yul\":678:681   */\n  dup3\n    /* \"#utility.yul\":671:729   */\n  mstore\n    /* \"#utility.yul\":588:735   */\n  pop\n  pop\n  jump\t// out\n    /* \"#utility.yul\":741:979   */\ntag_12:\n    /* \"#utility.yul\":842:846   */\n  0x00\n    /* \"#utility.yul\":880:882   */\n  0x20\n    /* \"#utility.yul\":869:878   */\n  dup3\n    /* \"#utility.yul\":865:883   */\n  add\n    /* \"#utility.yul\":857:883   */\n  swap1\n  pop\n    /* \"#utility.yul\":893:972   */\n  tag_29\n    /* \"#utility.yul\":969:970   */\n  0x00\n    /* \"#utility.yul\":958:967   */\n  dup4\n    /* \"#utility.yul\":954:971   */\n  add\n    /* \"#utility.yul\":945:951   */\n  dup5\n    /* \"#utility.yul\":893:972   */\n  tag_16\n  jump\t// in\ntag_29:\n    /* \"#utility.yul\":741:979   */\n  swap3\n  swap2\n  pop\n  pop\n  jump\t// out\n    /* \"contracts/rcp.sol\":126:4674  contract rps {... */\ntag_6:\n  dataSize(sub_0)\n  dup1\n  dataOffset(sub_0)\n  0x00\n  codecopy\n  0x00\n  return\nstop\n\nsub_0: assembly {\n        /* \"contracts/rcp.sol\":126:4674  contract rps {... */\n      mstore(0x40, 0x80)\n      callvalue\n      dup1\n      iszero\n      tag_1\n      jumpi\n      0x00\n      dup1\n      revert\n    tag_1:\n      pop\n      jumpi(tag_2, lt(calldatasize, 0x04))\n      shr(0xe0, calldataload(0x00))\n      dup1\n      0x8690fd71\n      gt\n      tag_15\n      jumpi\n      dup1\n      0x8690fd71\n      eq\n      tag_9\n      jumpi\n      dup1\n      0xab4a6be1\n      eq\n      tag_10\n      jumpi\n      dup1\n      0xc08092ae\n      eq\n      tag_11\n      jumpi\n      dup1\n      0xcefdbc84\n      eq\n      tag_12\n      jumpi\n      dup1\n      0xd30895e4\n      eq\n      tag_13\n      jumpi\n      dup1\n      0xdfbf53ae\n      eq\n      tag_14\n      jumpi\n      jump(tag_2)\n    tag_15:\n      dup1\n      0x055ad42e\n      eq\n      tag_3\n      jumpi\n      dup1\n      0x09bd5a60\n      eq\n      tag_4\n      jumpi\n      dup1\n      0x443bd1d0\n      eq\n      tag_5\n      jumpi\n      dup1\n      0x59a5f12d\n      eq\n      tag_6\n      jumpi\n      dup1\n      0x7685ef8e\n      eq\n      tag_7\n      jumpi\n      dup1\n      0x7d03f5f3\n      eq\n      tag_8\n      jumpi\n    tag_2:\n      0x00\n      dup1\n      revert\n        /* \"contracts/rcp.sol\":406:431  Stage public currentPhase */\n    tag_3:\n      tag_16\n      tag_17\n      jump\t// in\n    tag_16:\n      mload(0x40)\n      tag_18\n      swap2\n      swap1\n      tag_19\n      jump\t// in\n    tag_18:\n      mload(0x40)\n      dup1\n      swap2\n      sub\n      swap1\n      return\n        /* \"contracts/rcp.sol\":2772:2791  bytes32 public hash */\n    tag_4:\n      tag_20\n      tag_21\n      jump\t// in\n    tag_20:\n      mload(0x40)\n      tag_22\n      swap2\n      swap1\n      tag_23\n      jump\t// in\n    tag_22:\n      mload(0x40)\n      dup1\n      swap2\n      sub\n      swap1\n      return\n        /* \"contracts/rcp.sol\":1713:2231  function registration() public isRegistrationCorrect returns (uint256) {... */\n    tag_5:\n      tag_24\n      tag_25\n      jump\t// in\n    tag_24:\n      mload(0x40)\n      tag_26\n      swap2\n      swap1\n      tag_27\n      jump\t// in\n    tag_26:\n      mload(0x40)\n      dup1\n      swap2\n      sub\n      swap1\n      return\n        /* \"contracts/rcp.sol\":466:488  address public player2 */\n    tag_6:\n      tag_28\n      tag_29\n      jump\t// in\n    tag_28:\n      mload(0x40)\n      tag_30\n      swap2\n      swap1\n      tag_31\n      jump\t// in\n    tag_30:\n      mload(0x40)\n      dup1\n      swap2\n      sub\n      swap1\n      return\n        /* \"contracts/rcp.sol\":615:640  Weapon public player2Move */\n    tag_7:\n      tag_32\n      tag_33\n      jump\t// in\n    tag_32:\n      mload(0x40)\n      tag_34\n      swap2\n      swap1\n      tag_35\n      jump\t// in\n    tag_34:\n      mload(0x40)\n      dup1\n      swap2\n      sub\n      swap1\n      return\n        /* \"contracts/rcp.sol\":1368:1707  function newGame() public {... */\n    tag_8:\n      tag_36\n      tag_37\n      jump\t// in\n    tag_36:\n      stop\n        /* \"contracts/rcp.sol\":584:609  Weapon public player1Move */\n    tag_9:\n      tag_38\n      tag_39\n      jump\t// in\n    tag_38:\n      mload(0x40)\n      tag_40\n      swap2\n      swap1\n      tag_35\n      jump\t// in\n    tag_40:\n      mload(0x40)\n      dup1\n      swap2\n      sub\n      swap1\n      return\n        /* \"contracts/rcp.sol\":3042:4672  function reveal(Weapon element, uint32 salt) public isPlayerActive {... */\n    tag_10:\n      tag_41\n      0x04\n      dup1\n      calldatasize\n      sub\n      dup2\n      add\n      swap1\n      tag_42\n      swap2\n      swap1\n      tag_43\n      jump\t// in\n    tag_42:\n      tag_44\n      jump\t// in\n    tag_41:\n      stop\n        /* \"contracts/rcp.sol\":2798:3036  function concat(Weapon element, uint32 salt) public {... */\n    tag_11:\n      tag_45\n      0x04\n      dup1\n      calldatasize\n      sub\n      dup2\n      add\n      swap1\n      tag_46\n      swap2\n      swap1\n      tag_43\n      jump\t// in\n    tag_46:\n      tag_47\n      jump\t// in\n    tag_45:\n      stop\n        /* \"contracts/rcp.sol\":2237:2766  function move(bytes32 move) public isPlayerActive returns (bool) {... */\n    tag_12:\n      tag_48\n      0x04\n      dup1\n      calldatasize\n      sub\n      dup2\n      add\n      swap1\n      tag_49\n      swap2\n      swap1\n      tag_50\n      jump\t// in\n    tag_49:\n      tag_51\n      jump\t// in\n    tag_48:\n      mload(0x40)\n      tag_52\n      swap2\n      swap1\n      tag_53\n      jump\t// in\n    tag_52:\n      mload(0x40)\n      dup1\n      swap2\n      sub\n      swap1\n      return\n        /* \"contracts/rcp.sol\":438:460  address public player1 */\n    tag_13:\n      tag_54\n      tag_55\n      jump\t// in\n    tag_54:\n      mload(0x40)\n      tag_56\n      swap2\n      swap1\n      tag_31\n      jump\t// in\n    tag_56:\n      mload(0x40)\n      dup1\n      swap2\n      sub\n      swap1\n      return\n        /* \"contracts/rcp.sol\":495:516  address public winner */\n    tag_14:\n      tag_57\n      tag_58\n      jump\t// in\n    tag_57:\n      mload(0x40)\n      tag_59\n      swap2\n      swap1\n      tag_31\n      jump\t// in\n    tag_59:\n      mload(0x40)\n      dup1\n      swap2\n      sub\n      swap1\n      return\n        /* \"contracts/rcp.sol\":406:431  Stage public currentPhase */\n    tag_17:\n      0x00\n      dup1\n      sload\n      swap1\n      0x0100\n      exp\n      swap1\n      div\n      0xff\n      and\n      dup2\n      jump\t// out\n        /* \"contracts/rcp.sol\":2772:2791  bytes32 public hash */\n    tag_21:\n      sload(0x06)\n      dup2\n      jump\t// out\n        /* \"contracts/rcp.sol\":1713:2231  function registration() public isRegistrationCorrect returns (uint256) {... */\n    tag_25:\n        /* \"contracts/rcp.sol\":1775:1782  uint256 */\n      0x00\n        /* \"contracts/rcp.sol\":988:995  player1 */\n      dup1\n      0x01\n      swap1\n      sload\n      swap1\n      0x0100\n      exp\n      swap1\n      div\n      0xffffffffffffffffffffffffffffffffffffffff\n      and\n        /* \"contracts/rcp.sol\":974:995  msg.sender != player1 */\n      0xffffffffffffffffffffffffffffffffffffffff\n      and\n        /* \"contracts/rcp.sol\":974:984  msg.sender */\n      caller\n        /* \"contracts/rcp.sol\":974:995  msg.sender != player1 */\n      0xffffffffffffffffffffffffffffffffffffffff\n      and\n      eq\n      iszero\n        /* \"contracts/rcp.sol\":974:1036  msg.sender != player1 &&... */\n      dup1\n      iszero\n      tag_61\n      jumpi\n      pop\n        /* \"contracts/rcp.sol\":1029:1036  player2 */\n      0x01\n      0x00\n      swap1\n      sload\n      swap1\n      0x0100\n      exp\n      swap1\n      div\n      0xffffffffffffffffffffffffffffffffffffffff\n      and\n        /* \"contracts/rcp.sol\":1015:1036  msg.sender != player2 */\n      0xffffffffffffffffffffffffffffffffffffffff\n      and\n        /* \"contracts/rcp.sol\":1015:1025  msg.sender */\n      caller\n        /* \"contracts/rcp.sol\":1015:1036  msg.sender != player2 */\n      0xffffffffffffffffffffffffffffffffffffffff\n      and\n      eq\n      iszero\n        /* \"contracts/rcp.sol\":974:1036  msg.sender != player1 &&... */\n    tag_61:\n        /* \"contracts/rcp.sol\":953:1046  require(... */\n      tag_62\n      jumpi\n      0x00\n      dup1\n      revert\n    tag_62:\n        /* \"contracts/rcp.sol\":1818:1836  Stage.Registration */\n      0x00\n        /* \"contracts/rcp.sol\":1802:1836  currentPhase == Stage.Registration */\n      0x02\n      dup2\n      gt\n      iszero\n      tag_64\n      jumpi\n      tag_65\n      tag_66\n      jump\t// in\n    tag_65:\n    tag_64:\n        /* \"contracts/rcp.sol\":1802:1814  currentPhase */\n      0x00\n      dup1\n      sload\n      swap1\n      0x0100\n      exp\n      swap1\n      div\n      0xff\n      and\n        /* \"contracts/rcp.sol\":1802:1836  currentPhase == Stage.Registration */\n      0x02\n      dup2\n      gt\n      iszero\n      tag_67\n      jumpi\n      tag_68\n      tag_66\n      jump\t// in\n    tag_68:\n    tag_67:\n      eq\n        /* \"contracts/rcp.sol\":1794:1837  require(currentPhase == Stage.Registration) */\n      tag_69\n      jumpi\n      0x00\n      dup1\n      revert\n    tag_69:\n        /* \"contracts/rcp.sol\":1879:1882  0x0 */\n      0x00\n        /* \"contracts/rcp.sol\":1860:1883  player1 == address(0x0) */\n      0xffffffffffffffffffffffffffffffffffffffff\n      and\n        /* \"contracts/rcp.sol\":1860:1867  player1 */\n      0x00\n      0x01\n      swap1\n      sload\n      swap1\n      0x0100\n      exp\n      swap1\n      div\n      0xffffffffffffffffffffffffffffffffffffffff\n      and\n        /* \"contracts/rcp.sol\":1860:1883  player1 == address(0x0) */\n      0xffffffffffffffffffffffffffffffffffffffff\n      and\n      sub\n        /* \"contracts/rcp.sol\":1856:2005  if (player1 == address(0x0)) {... */\n      tag_70\n      jumpi\n        /* \"contracts/rcp.sol\":1904:1929  GameInitiated(msg.sender) */\n      0x603c5a81e8c5fe4832eec08a9ee50af4e484ca6d44db349bdd246858540aee9e\n        /* \"contracts/rcp.sol\":1918:1928  msg.sender */\n      caller\n        /* \"contracts/rcp.sol\":1904:1929  GameInitiated(msg.sender) */\n      mload(0x40)\n      tag_71\n      swap2\n      swap1\n      tag_31\n      jump\t// in\n    tag_71:\n      mload(0x40)\n      dup1\n      swap2\n      sub\n      swap1\n      log1\n        /* \"contracts/rcp.sol\":1961:1971  msg.sender */\n      caller\n        /* \"contracts/rcp.sol\":1943:1950  player1 */\n      0x00\n      0x01\n        /* \"contracts/rcp.sol\":1943:1972  player1 = address(msg.sender) */\n      0x0100\n      exp\n      dup2\n      sload\n      dup2\n      0xffffffffffffffffffffffffffffffffffffffff\n      mul\n      not\n      and\n      swap1\n      dup4\n      0xffffffffffffffffffffffffffffffffffffffff\n      and\n      mul\n      or\n      swap1\n      sstore\n      pop\n        /* \"contracts/rcp.sol\":1993:1994  1 */\n      0x01\n        /* \"contracts/rcp.sol\":1986:1994  return 1 */\n      swap1\n      pop\n      jump(tag_63)\n        /* \"contracts/rcp.sol\":1856:2005  if (player1 == address(0x0)) {... */\n    tag_70:\n        /* \"contracts/rcp.sol\":2038:2041  0x0 */\n      0x00\n        /* \"contracts/rcp.sol\":2019:2042  player2 == address(0x0) */\n      0xffffffffffffffffffffffffffffffffffffffff\n      and\n        /* \"contracts/rcp.sol\":2019:2026  player2 */\n      0x01\n      0x00\n      swap1\n      sload\n      swap1\n      0x0100\n      exp\n      swap1\n      div\n      0xffffffffffffffffffffffffffffffffffffffff\n      and\n        /* \"contracts/rcp.sol\":2019:2042  player2 == address(0x0) */\n      0xffffffffffffffffffffffffffffffffffffffff\n      and\n      sub\n        /* \"contracts/rcp.sol\":2015:2206  if (player2 == address(0x0)) {... */\n      tag_72\n      jumpi\n        /* \"contracts/rcp.sol\":2076:2086  msg.sender */\n      caller\n        /* \"contracts/rcp.sol\":2058:2065  player2 */\n      0x01\n      0x00\n        /* \"contracts/rcp.sol\":2058:2087  player2 = address(msg.sender) */\n      0x0100\n      exp\n      dup2\n      sload\n      dup2\n      0xffffffffffffffffffffffffffffffffffffffff\n      mul\n      not\n      and\n      swap1\n      dup4\n      0xffffffffffffffffffffffffffffffffffffffff\n      and\n      mul\n      or\n      swap1\n      sstore\n      pop\n        /* \"contracts/rcp.sol\":2116:2128  Stage.Commit */\n      0x01\n        /* \"contracts/rcp.sol\":2101:2113  currentPhase */\n      0x00\n      dup1\n        /* \"contracts/rcp.sol\":2101:2128  currentPhase = Stage.Commit */\n      0x0100\n      exp\n      dup2\n      sload\n      dup2\n      0xff\n      mul\n      not\n      and\n      swap1\n      dup4\n      0x02\n      dup2\n      gt\n      iszero\n      tag_73\n      jumpi\n      tag_74\n      tag_66\n      jump\t// in\n    tag_74:\n    tag_73:\n      mul\n      or\n      swap1\n      sstore\n      pop\n        /* \"contracts/rcp.sol\":2147:2173  PhaseChanged(Stage.Commit) */\n      0xa6dcc92f45df25789d5639b7a0c97ba1edf3bb1c0b5dd3376fd96a0db87c4642\n        /* \"contracts/rcp.sol\":2160:2172  Stage.Commit */\n      0x01\n        /* \"contracts/rcp.sol\":2147:2173  PhaseChanged(Stage.Commit) */\n      mload(0x40)\n      tag_75\n      swap2\n      swap1\n      tag_19\n      jump\t// in\n    tag_75:\n      mload(0x40)\n      dup1\n      swap2\n      sub\n      swap1\n      log1\n        /* \"contracts/rcp.sol\":2194:2195  2 */\n      0x02\n        /* \"contracts/rcp.sol\":2187:2195  return 2 */\n      swap1\n      pop\n      jump(tag_63)\n        /* \"contracts/rcp.sol\":2015:2206  if (player2 == address(0x0)) {... */\n    tag_72:\n        /* \"contracts/rcp.sol\":2223:2224  0 */\n      0x00\n        /* \"contracts/rcp.sol\":2216:2224  return 0 */\n      swap1\n      pop\n        /* \"contracts/rcp.sol\":1056:1057  _ */\n    tag_63:\n        /* \"contracts/rcp.sol\":1713:2231  function registration() public isRegistrationCorrect returns (uint256) {... */\n      swap1\n      jump\t// out\n        /* \"contracts/rcp.sol\":466:488  address public player2 */\n    tag_29:\n      0x01\n      0x00\n      swap1\n      sload\n      swap1\n      0x0100\n      exp\n      swap1\n      div\n      0xffffffffffffffffffffffffffffffffffffffff\n      and\n      dup2\n      jump\t// out\n        /* \"contracts/rcp.sol\":615:640  Weapon public player2Move */\n    tag_33:\n      0x05\n      0x01\n      swap1\n      sload\n      swap1\n      0x0100\n      exp\n      swap1\n      div\n      0xff\n      and\n      dup2\n      jump\t// out\n        /* \"contracts/rcp.sol\":1368:1707  function newGame() public {... */\n    tag_37:\n        /* \"contracts/rcp.sol\":1421:1424  0x0 */\n      0x00\n        /* \"contracts/rcp.sol\":1404:1410  winner */\n      0x02\n      0x00\n        /* \"contracts/rcp.sol\":1404:1425  winner = address(0x0) */\n      0x0100\n      exp\n      dup2\n      sload\n      dup2\n      0xffffffffffffffffffffffffffffffffffffffff\n      mul\n      not\n      and\n      swap1\n      dup4\n      0xffffffffffffffffffffffffffffffffffffffff\n      and\n      mul\n      or\n      swap1\n      sstore\n      pop\n        /* \"contracts/rcp.sol\":1453:1456  0x0 */\n      0x00\n        /* \"contracts/rcp.sol\":1435:1442  player1 */\n      dup1\n      0x01\n        /* \"contracts/rcp.sol\":1435:1457  player1 = address(0x0) */\n      0x0100\n      exp\n      dup2\n      sload\n      dup2\n      0xffffffffffffffffffffffffffffffffffffffff\n      mul\n      not\n      and\n      swap1\n      dup4\n      0xffffffffffffffffffffffffffffffffffffffff\n      and\n      mul\n      or\n      swap1\n      sstore\n      pop\n        /* \"contracts/rcp.sol\":1485:1488  0x0 */\n      0x00\n        /* \"contracts/rcp.sol\":1467:1474  player2 */\n      0x01\n      0x00\n        /* \"contracts/rcp.sol\":1467:1489  player2 = address(0x0) */\n      0x0100\n      exp\n      dup2\n      sload\n      dup2\n      0xffffffffffffffffffffffffffffffffffffffff\n      mul\n      not\n      and\n      swap1\n      dup4\n      0xffffffffffffffffffffffffffffffffffffffff\n      and\n      mul\n      or\n      swap1\n      sstore\n      pop\n        /* \"contracts/rcp.sol\":1511:1514  0x0 */\n      0x00\n        /* \"contracts/rcp.sol\":1500:1514  player1e = 0x0 */\n      dup1\n      shl\n        /* \"contracts/rcp.sol\":1500:1508  player1e */\n      0x03\n        /* \"contracts/rcp.sol\":1500:1514  player1e = 0x0 */\n      dup2\n      swap1\n      sstore\n      pop\n        /* \"contracts/rcp.sol\":1535:1538  0x0 */\n      0x00\n        /* \"contracts/rcp.sol\":1524:1538  player2e = 0x0 */\n      dup1\n      shl\n        /* \"contracts/rcp.sol\":1524:1532  player2e */\n      0x04\n        /* \"contracts/rcp.sol\":1524:1538  player2e = 0x0 */\n      dup2\n      swap1\n      sstore\n      pop\n        /* \"contracts/rcp.sol\":1563:1574  Weapon.None */\n      0x00\n        /* \"contracts/rcp.sol\":1549:1560  player1Move */\n      0x05\n      0x00\n        /* \"contracts/rcp.sol\":1549:1574  player1Move = Weapon.None */\n      0x0100\n      exp\n      dup2\n      sload\n      dup2\n      0xff\n      mul\n      not\n      and\n      swap1\n      dup4\n      0x03\n      dup2\n      gt\n      iszero\n      tag_77\n      jumpi\n      tag_78\n      tag_66\n      jump\t// in\n    tag_78:\n    tag_77:\n      mul\n      or\n      swap1\n      sstore\n      pop\n        /* \"contracts/rcp.sol\":1598:1609  Weapon.None */\n      0x00\n        /* \"contracts/rcp.sol\":1584:1595  player2Move */\n      0x05\n      0x01\n        /* \"contracts/rcp.sol\":1584:1609  player2Move = Weapon.None */\n      0x0100\n      exp\n      dup2\n      sload\n      dup2\n      0xff\n      mul\n      not\n      and\n      swap1\n      dup4\n      0x03\n      dup2\n      gt\n      iszero\n      tag_79\n      jumpi\n      tag_80\n      tag_66\n      jump\t// in\n    tag_80:\n    tag_79:\n      mul\n      or\n      swap1\n      sstore\n      pop\n        /* \"contracts/rcp.sol\":1635:1653  Stage.Registration */\n      0x00\n        /* \"contracts/rcp.sol\":1620:1632  currentPhase */\n      dup1\n      0x00\n        /* \"contracts/rcp.sol\":1620:1653  currentPhase = Stage.Registration */\n      0x0100\n      exp\n      dup2\n      sload\n      dup2\n      0xff\n      mul\n      not\n      and\n      swap1\n      dup4\n      0x02\n      dup2\n      gt\n      iszero\n      tag_81\n      jumpi\n      tag_82\n      tag_66\n      jump\t// in\n    tag_82:\n    tag_81:\n      mul\n      or\n      swap1\n      sstore\n      pop\n        /* \"contracts/rcp.sol\":1668:1700  PhaseChanged(Stage.Registration) */\n      0xa6dcc92f45df25789d5639b7a0c97ba1edf3bb1c0b5dd3376fd96a0db87c4642\n        /* \"contracts/rcp.sol\":1681:1699  Stage.Registration */\n      0x00\n        /* \"contracts/rcp.sol\":1668:1700  PhaseChanged(Stage.Registration) */\n      mload(0x40)\n      tag_83\n      swap2\n      swap1\n      tag_19\n      jump\t// in\n    tag_83:\n      mload(0x40)\n      dup1\n      swap2\n      sub\n      swap1\n      log1\n        /* \"contracts/rcp.sol\":1368:1707  function newGame() public {... */\n      jump\t// out\n        /* \"contracts/rcp.sol\":584:609  Weapon public player1Move */\n    tag_39:\n      0x05\n      0x00\n      swap1\n      sload\n      swap1\n      0x0100\n      exp\n      swap1\n      div\n      0xff\n      and\n      dup2\n      jump\t// out\n        /* \"contracts/rcp.sol\":3042:4672  function reveal(Weapon element, uint32 salt) public isPlayerActive {... */\n    tag_44:\n        /* \"contracts/rcp.sol\":1141:1148  player1 */\n      0x00\n      0x01\n      swap1\n      sload\n      swap1\n      0x0100\n      exp\n      swap1\n      div\n      0xffffffffffffffffffffffffffffffffffffffff\n      and\n        /* \"contracts/rcp.sol\":1127:1148  msg.sender == player1 */\n      0xffffffffffffffffffffffffffffffffffffffff\n      and\n        /* \"contracts/rcp.sol\":1127:1137  msg.sender */\n      caller\n        /* \"contracts/rcp.sol\":1127:1148  msg.sender == player1 */\n      0xffffffffffffffffffffffffffffffffffffffff\n      and\n      eq\n        /* \"contracts/rcp.sol\":1127:1189  msg.sender == player1 ||... */\n      dup1\n      tag_85\n      jumpi\n      pop\n        /* \"contracts/rcp.sol\":1182:1189  player2 */\n      0x01\n      0x00\n      swap1\n      sload\n      swap1\n      0x0100\n      exp\n      swap1\n      div\n      0xffffffffffffffffffffffffffffffffffffffff\n      and\n        /* \"contracts/rcp.sol\":1168:1189  msg.sender == player2 */\n      0xffffffffffffffffffffffffffffffffffffffff\n      and\n        /* \"contracts/rcp.sol\":1168:1178  msg.sender */\n      caller\n        /* \"contracts/rcp.sol\":1168:1189  msg.sender == player2 */\n      0xffffffffffffffffffffffffffffffffffffffff\n      and\n      eq\n        /* \"contracts/rcp.sol\":1127:1189  msg.sender == player1 ||... */\n    tag_85:\n        /* \"contracts/rcp.sol\":1106:1199  require(... */\n      tag_86\n      jumpi\n      0x00\n      dup1\n      revert\n    tag_86:\n        /* \"contracts/rcp.sol\":3143:3155  Stage.Reveal */\n      0x02\n        /* \"contracts/rcp.sol\":3127:3155  currentPhase == Stage.Reveal */\n      dup1\n      dup2\n      gt\n      iszero\n      tag_88\n      jumpi\n      tag_89\n      tag_66\n      jump\t// in\n    tag_89:\n    tag_88:\n        /* \"contracts/rcp.sol\":3127:3139  currentPhase */\n      0x00\n      dup1\n      sload\n      swap1\n      0x0100\n      exp\n      swap1\n      div\n      0xff\n      and\n        /* \"contracts/rcp.sol\":3127:3155  currentPhase == Stage.Reveal */\n      0x02\n      dup2\n      gt\n      iszero\n      tag_90\n      jumpi\n      tag_91\n      tag_66\n      jump\t// in\n    tag_91:\n    tag_90:\n      eq\n        /* \"contracts/rcp.sol\":3119:3156  require(currentPhase == Stage.Reveal) */\n      tag_92\n      jumpi\n      0x00\n      dup1\n      revert\n    tag_92:\n        /* \"contracts/rcp.sol\":3167:3183  bytes32 currMove */\n      0x00\n        /* \"contracts/rcp.sol\":3186:3348  sha256(... */\n      0x02\n        /* \"contracts/rcp.sol\":3242:3276  Strings.toString(uint256(element)) */\n      tag_93\n        /* \"contracts/rcp.sol\":3267:3274  element */\n      dup5\n        /* \"contracts/rcp.sol\":3259:3275  uint256(element) */\n      0x03\n      dup2\n      gt\n      iszero\n      tag_94\n      jumpi\n      tag_95\n      tag_66\n      jump\t// in\n    tag_95:\n    tag_94:\n        /* \"contracts/rcp.sol\":3242:3258  Strings.toString */\n      tag_96\n        /* \"contracts/rcp.sol\":3242:3276  Strings.toString(uint256(element)) */\n      jump\t// in\n    tag_93:\n        /* \"contracts/rcp.sol\":3301:3323  Strings.toString(salt) */\n      tag_97\n        /* \"contracts/rcp.sol\":3318:3322  salt */\n      dup5\n        /* \"contracts/rcp.sol\":3301:3323  Strings.toString(salt) */\n      0xffffffff\n      and\n        /* \"contracts/rcp.sol\":3301:3317  Strings.toString */\n      tag_96\n        /* \"contracts/rcp.sol\":3301:3323  Strings.toString(salt) */\n      jump\t// in\n    tag_97:\n        /* \"contracts/rcp.sol\":3206:3338  bytes.concat(... */\n      add(0x20, mload(0x40))\n      tag_98\n      swap3\n      swap2\n      swap1\n      tag_99\n      jump\t// in\n    tag_98:\n      mload(0x40)\n      0x20\n      dup2\n      dup4\n      sub\n      sub\n      dup2\n      mstore\n      swap1\n      0x40\n      mstore\n        /* \"contracts/rcp.sol\":3186:3348  sha256(... */\n      mload(0x40)\n      tag_100\n      swap2\n      swap1\n      tag_101\n      jump\t// in\n    tag_100:\n      0x20\n      mload(0x40)\n      dup1\n      dup4\n      sub\n      dup2\n      dup6\n      gas\n      staticcall\n      iszero\n      dup1\n      iszero\n      tag_103\n      jumpi\n      returndatasize\n      0x00\n      dup1\n      returndatacopy\n      revert(0x00, returndatasize)\n    tag_103:\n      pop\n      pop\n      pop\n      mload(0x40)\n      returndatasize\n      not(0x1f)\n      0x1f\n      dup3\n      add\n      and\n      dup3\n      add\n      dup1\n      0x40\n      mstore\n      pop\n      dup2\n      add\n      swap1\n      tag_104\n      swap2\n      swap1\n      tag_105\n      jump\t// in\n    tag_104:\n        /* \"contracts/rcp.sol\":3167:3348  bytes32 currMove = sha256(... */\n      swap1\n      pop\n        /* \"contracts/rcp.sol\":3374:3385  Weapon.None */\n      0x00\n        /* \"contracts/rcp.sol\":3363:3385  element == Weapon.None */\n      0x03\n      dup2\n      gt\n      iszero\n      tag_106\n      jumpi\n      tag_107\n      tag_66\n      jump\t// in\n    tag_107:\n    tag_106:\n        /* \"contracts/rcp.sol\":3363:3370  element */\n      dup4\n        /* \"contracts/rcp.sol\":3363:3385  element == Weapon.None */\n      0x03\n      dup2\n      gt\n      iszero\n      tag_108\n      jumpi\n      tag_109\n      tag_66\n      jump\t// in\n    tag_109:\n    tag_108:\n      sub\n        /* \"contracts/rcp.sol\":3359:3418  if (element == Weapon.None) {... */\n      tag_110\n      jumpi\n        /* \"contracts/rcp.sol\":3401:3408  return; */\n      pop\n      jump(tag_87)\n        /* \"contracts/rcp.sol\":3359:3418  if (element == Weapon.None) {... */\n    tag_110:\n        /* \"contracts/rcp.sol\":3446:3453  player1 */\n      0x00\n      0x01\n      swap1\n      sload\n      swap1\n      0x0100\n      exp\n      swap1\n      div\n      0xffffffffffffffffffffffffffffffffffffffff\n      and\n        /* \"contracts/rcp.sol\":3432:3453  msg.sender == player1 */\n      0xffffffffffffffffffffffffffffffffffffffff\n      and\n        /* \"contracts/rcp.sol\":3432:3442  msg.sender */\n      caller\n        /* \"contracts/rcp.sol\":3432:3453  msg.sender == player1 */\n      0xffffffffffffffffffffffffffffffffffffffff\n      and\n      eq\n        /* \"contracts/rcp.sol\":3432:3497  msg.sender == player1... */\n      dup1\n      iszero\n      tag_111\n      jumpi\n      pop\n        /* \"contracts/rcp.sol\":3489:3497  player1e */\n      sload(0x03)\n        /* \"contracts/rcp.sol\":3477:3485  currMove */\n      dup2\n        /* \"contracts/rcp.sol\":3477:3497  currMove == player1e */\n      eq\n        /* \"contracts/rcp.sol\":3432:3497  msg.sender == player1... */\n    tag_111:\n        /* \"contracts/rcp.sol\":3428:3705  if (msg.sender == player1... */\n      iszero\n      tag_112\n      jumpi\n        /* \"contracts/rcp.sol\":3527:3534  element */\n      dup3\n        /* \"contracts/rcp.sol\":3513:3524  player1Move */\n      0x05\n      0x00\n        /* \"contracts/rcp.sol\":3513:3534  player1Move = element */\n      0x0100\n      exp\n      dup2\n      sload\n      dup2\n      0xff\n      mul\n      not\n      and\n      swap1\n      dup4\n      0x03\n      dup2\n      gt\n      iszero\n      tag_113\n      jumpi\n      tag_114\n      tag_66\n      jump\t// in\n    tag_114:\n    tag_113:\n      mul\n      or\n      swap1\n      sstore\n      pop\n        /* \"contracts/rcp.sol\":3428:3705  if (msg.sender == player1... */\n      jump(tag_115)\n    tag_112:\n        /* \"contracts/rcp.sol\":3569:3576  player2 */\n      0x01\n      0x00\n      swap1\n      sload\n      swap1\n      0x0100\n      exp\n      swap1\n      div\n      0xffffffffffffffffffffffffffffffffffffffff\n      and\n        /* \"contracts/rcp.sol\":3555:3576  msg.sender == player2 */\n      0xffffffffffffffffffffffffffffffffffffffff\n      and\n        /* \"contracts/rcp.sol\":3555:3565  msg.sender */\n      caller\n        /* \"contracts/rcp.sol\":3555:3576  msg.sender == player2 */\n      0xffffffffffffffffffffffffffffffffffffffff\n      and\n      eq\n        /* \"contracts/rcp.sol\":3555:3620  msg.sender == player2... */\n      dup1\n      iszero\n      tag_116\n      jumpi\n      pop\n        /* \"contracts/rcp.sol\":3612:3620  player2e */\n      sload(0x04)\n        /* \"contracts/rcp.sol\":3600:3608  currMove */\n      dup2\n        /* \"contracts/rcp.sol\":3600:3620  currMove == player2e */\n      eq\n        /* \"contracts/rcp.sol\":3555:3620  msg.sender == player2... */\n    tag_116:\n        /* \"contracts/rcp.sol\":3551:3705  if (msg.sender == player2... */\n      iszero\n      tag_117\n      jumpi\n        /* \"contracts/rcp.sol\":3650:3657  element */\n      dup3\n        /* \"contracts/rcp.sol\":3636:3647  player2Move */\n      0x05\n      0x01\n        /* \"contracts/rcp.sol\":3636:3657  player2Move = element */\n      0x0100\n      exp\n      dup2\n      sload\n      dup2\n      0xff\n      mul\n      not\n      and\n      swap1\n      dup4\n      0x03\n      dup2\n      gt\n      iszero\n      tag_118\n      jumpi\n      tag_119\n      tag_66\n      jump\t// in\n    tag_119:\n    tag_118:\n      mul\n      or\n      swap1\n      sstore\n      pop\n        /* \"contracts/rcp.sol\":3551:3705  if (msg.sender == player2... */\n      jump(tag_120)\n    tag_117:\n        /* \"contracts/rcp.sol\":3688:3695  return; */\n      pop\n      jump(tag_87)\n        /* \"contracts/rcp.sol\":3551:3705  if (msg.sender == player2... */\n    tag_120:\n        /* \"contracts/rcp.sol\":3428:3705  if (msg.sender == player1... */\n    tag_115:\n        /* \"contracts/rcp.sol\":3734:3745  Weapon.None */\n      0x00\n        /* \"contracts/rcp.sol\":3719:3745  player1Move != Weapon.None */\n      0x03\n      dup2\n      gt\n      iszero\n      tag_121\n      jumpi\n      tag_122\n      tag_66\n      jump\t// in\n    tag_122:\n    tag_121:\n        /* \"contracts/rcp.sol\":3719:3730  player1Move */\n      0x05\n      0x00\n      swap1\n      sload\n      swap1\n      0x0100\n      exp\n      swap1\n      div\n      0xff\n      and\n        /* \"contracts/rcp.sol\":3719:3745  player1Move != Weapon.None */\n      0x03\n      dup2\n      gt\n      iszero\n      tag_123\n      jumpi\n      tag_124\n      tag_66\n      jump\t// in\n    tag_124:\n    tag_123:\n      eq\n      iszero\n        /* \"contracts/rcp.sol\":3719:3799  player1Move != Weapon.None... */\n      dup1\n      iszero\n      tag_125\n      jumpi\n      pop\n        /* \"contracts/rcp.sol\":3788:3799  Weapon.None */\n      0x00\n        /* \"contracts/rcp.sol\":3773:3799  player2Move != Weapon.None */\n      0x03\n      dup2\n      gt\n      iszero\n      tag_126\n      jumpi\n      tag_127\n      tag_66\n      jump\t// in\n    tag_127:\n    tag_126:\n        /* \"contracts/rcp.sol\":3773:3784  player2Move */\n      0x05\n      0x01\n      swap1\n      sload\n      swap1\n      0x0100\n      exp\n      swap1\n      div\n      0xff\n      and\n        /* \"contracts/rcp.sol\":3773:3799  player2Move != Weapon.None */\n      0x03\n      dup2\n      gt\n      iszero\n      tag_128\n      jumpi\n      tag_129\n      tag_66\n      jump\t// in\n    tag_129:\n    tag_128:\n      eq\n      iszero\n        /* \"contracts/rcp.sol\":3719:3799  player1Move != Weapon.None... */\n    tag_125:\n        /* \"contracts/rcp.sol\":3715:4666  if (player1Move != Weapon.None... */\n      iszero\n      tag_130\n      jumpi\n        /* \"contracts/rcp.sol\":3834:3845  player2Move */\n      0x05\n      0x01\n      swap1\n      sload\n      swap1\n      0x0100\n      exp\n      swap1\n      div\n      0xff\n      and\n        /* \"contracts/rcp.sol\":3819:3845  player1Move == player2Move */\n      0x03\n      dup2\n      gt\n      iszero\n      tag_131\n      jumpi\n      tag_132\n      tag_66\n      jump\t// in\n    tag_132:\n    tag_131:\n        /* \"contracts/rcp.sol\":3819:3830  player1Move */\n      0x05\n      0x00\n      swap1\n      sload\n      swap1\n      0x0100\n      exp\n      swap1\n      div\n      0xff\n      and\n        /* \"contracts/rcp.sol\":3819:3845  player1Move == player2Move */\n      0x03\n      dup2\n      gt\n      iszero\n      tag_133\n      jumpi\n      tag_134\n      tag_66\n      jump\t// in\n    tag_134:\n    tag_133:\n      sub\n        /* \"contracts/rcp.sol\":3815:3968  if (player1Move == player2Move) {... */\n      tag_135\n      jumpi\n        /* \"contracts/rcp.sol\":3882:3885  0x0 */\n      0x00\n        /* \"contracts/rcp.sol\":3865:3871  winner */\n      0x02\n      0x00\n        /* \"contracts/rcp.sol\":3865:3886  winner = address(0x0) */\n      0x0100\n      exp\n      dup2\n      sload\n      dup2\n      0xffffffffffffffffffffffffffffffffffffffff\n      mul\n      not\n      and\n      swap1\n      dup4\n      0xffffffffffffffffffffffffffffffffffffffff\n      and\n      mul\n      or\n      swap1\n      sstore\n      pop\n        /* \"contracts/rcp.sol\":3909:3929  GameFinished(winner) */\n      0x1728dd43546edd06fabfe796e5b641a151aa90998bfd1b1ec0ae98c6e7708459\n        /* \"contracts/rcp.sol\":3922:3928  winner */\n      0x02\n      0x00\n      swap1\n      sload\n      swap1\n      0x0100\n      exp\n      swap1\n      div\n      0xffffffffffffffffffffffffffffffffffffffff\n      and\n        /* \"contracts/rcp.sol\":3909:3929  GameFinished(winner) */\n      mload(0x40)\n      tag_136\n      swap2\n      swap1\n      tag_31\n      jump\t// in\n    tag_136:\n      mload(0x40)\n      dup1\n      swap2\n      sub\n      swap1\n      log1\n        /* \"contracts/rcp.sol\":3947:3954  return; */\n      pop\n      jump(tag_87)\n        /* \"contracts/rcp.sol\":3815:3968  if (player1Move == player2Move) {... */\n    tag_135:\n        /* \"contracts/rcp.sol\":4001:4012  Weapon.Rock */\n      0x01\n        /* \"contracts/rcp.sol\":3986:4012  player1Move == Weapon.Rock */\n      0x03\n      dup2\n      gt\n      iszero\n      tag_137\n      jumpi\n      tag_138\n      tag_66\n      jump\t// in\n    tag_138:\n    tag_137:\n        /* \"contracts/rcp.sol\":3986:3997  player1Move */\n      0x05\n      0x00\n      swap1\n      sload\n      swap1\n      0x0100\n      exp\n      swap1\n      div\n      0xff\n      and\n        /* \"contracts/rcp.sol\":3986:4012  player1Move == Weapon.Rock */\n      0x03\n      dup2\n      gt\n      iszero\n      tag_139\n      jumpi\n      tag_140\n      tag_66\n      jump\t// in\n    tag_140:\n    tag_139:\n      sub\n        /* \"contracts/rcp.sol\":3982:4616  if (player1Move == Weapon.Rock) {... */\n      tag_141\n      jumpi\n        /* \"contracts/rcp.sol\":4051:4063  Weapon.Paper */\n      0x02\n        /* \"contracts/rcp.sol\":4036:4063  player2Move == Weapon.Paper */\n      0x03\n      dup2\n      gt\n      iszero\n      tag_142\n      jumpi\n      tag_143\n      tag_66\n      jump\t// in\n    tag_143:\n    tag_142:\n        /* \"contracts/rcp.sol\":4036:4047  player2Move */\n      0x05\n      0x01\n      swap1\n      sload\n      swap1\n      0x0100\n      exp\n      swap1\n      div\n      0xff\n      and\n        /* \"contracts/rcp.sol\":4036:4063  player2Move == Weapon.Paper */\n      0x03\n      dup2\n      gt\n      iszero\n      tag_144\n      jumpi\n      tag_145\n      tag_66\n      jump\t// in\n    tag_145:\n    tag_144:\n      sub\n        /* \"contracts/rcp.sol\":4032:4185  if (player2Move == Weapon.Paper) {... */\n      tag_146\n      jumpi\n        /* \"contracts/rcp.sol\":4096:4103  player2 */\n      0x01\n      0x00\n      swap1\n      sload\n      swap1\n      0x0100\n      exp\n      swap1\n      div\n      0xffffffffffffffffffffffffffffffffffffffff\n      and\n        /* \"contracts/rcp.sol\":4087:4093  winner */\n      0x02\n      0x00\n        /* \"contracts/rcp.sol\":4087:4103  winner = player2 */\n      0x0100\n      exp\n      dup2\n      sload\n      dup2\n      0xffffffffffffffffffffffffffffffffffffffff\n      mul\n      not\n      and\n      swap1\n      dup4\n      0xffffffffffffffffffffffffffffffffffffffff\n      and\n      mul\n      or\n      swap1\n      sstore\n      pop\n        /* \"contracts/rcp.sol\":4032:4185  if (player2Move == Weapon.Paper) {... */\n      jump(tag_147)\n    tag_146:\n        /* \"contracts/rcp.sol\":4159:4166  player1 */\n      0x00\n      0x01\n      swap1\n      sload\n      swap1\n      0x0100\n      exp\n      swap1\n      div\n      0xffffffffffffffffffffffffffffffffffffffff\n      and\n        /* \"contracts/rcp.sol\":4150:4156  winner */\n      0x02\n      0x00\n        /* \"contracts/rcp.sol\":4150:4166  winner = player1 */\n      0x0100\n      exp\n      dup2\n      sload\n      dup2\n      0xffffffffffffffffffffffffffffffffffffffff\n      mul\n      not\n      and\n      swap1\n      dup4\n      0xffffffffffffffffffffffffffffffffffffffff\n      and\n      mul\n      or\n      swap1\n      sstore\n      pop\n        /* \"contracts/rcp.sol\":4032:4185  if (player2Move == Weapon.Paper) {... */\n    tag_147:\n        /* \"contracts/rcp.sol\":3982:4616  if (player1Move == Weapon.Rock) {... */\n      jump(tag_148)\n    tag_141:\n        /* \"contracts/rcp.sol\":4224:4236  Weapon.Paper */\n      0x02\n        /* \"contracts/rcp.sol\":4209:4236  player1Move == Weapon.Paper */\n      0x03\n      dup2\n      gt\n      iszero\n      tag_149\n      jumpi\n      tag_150\n      tag_66\n      jump\t// in\n    tag_150:\n    tag_149:\n        /* \"contracts/rcp.sol\":4209:4220  player1Move */\n      0x05\n      0x00\n      swap1\n      sload\n      swap1\n      0x0100\n      exp\n      swap1\n      div\n      0xff\n      and\n        /* \"contracts/rcp.sol\":4209:4236  player1Move == Weapon.Paper */\n      0x03\n      dup2\n      gt\n      iszero\n      tag_151\n      jumpi\n      tag_152\n      tag_66\n      jump\t// in\n    tag_152:\n    tag_151:\n      sub\n        /* \"contracts/rcp.sol\":4205:4616  if (player1Move == Weapon.Paper) {... */\n      tag_153\n      jumpi\n        /* \"contracts/rcp.sol\":4275:4290  Weapon.Scissors */\n      0x03\n        /* \"contracts/rcp.sol\":4260:4290  player2Move == Weapon.Scissors */\n      dup1\n      dup2\n      gt\n      iszero\n      tag_154\n      jumpi\n      tag_155\n      tag_66\n      jump\t// in\n    tag_155:\n    tag_154:\n        /* \"contracts/rcp.sol\":4260:4271  player2Move */\n      0x05\n      0x01\n      swap1\n      sload\n      swap1\n      0x0100\n      exp\n      swap1\n      div\n      0xff\n      and\n        /* \"contracts/rcp.sol\":4260:4290  player2Move == Weapon.Scissors */\n      0x03\n      dup2\n      gt\n      iszero\n      tag_156\n      jumpi\n      tag_157\n      tag_66\n      jump\t// in\n    tag_157:\n    tag_156:\n      sub\n        /* \"contracts/rcp.sol\":4256:4412  if (player2Move == Weapon.Scissors) {... */\n      tag_158\n      jumpi\n        /* \"contracts/rcp.sol\":4323:4330  player2 */\n      0x01\n      0x00\n      swap1\n      sload\n      swap1\n      0x0100\n      exp\n      swap1\n      div\n      0xffffffffffffffffffffffffffffffffffffffff\n      and\n        /* \"contracts/rcp.sol\":4314:4320  winner */\n      0x02\n      0x00\n        /* \"contracts/rcp.sol\":4314:4330  winner = player2 */\n      0x0100\n      exp\n      dup2\n      sload\n      dup2\n      0xffffffffffffffffffffffffffffffffffffffff\n      mul\n      not\n      and\n      swap1\n      dup4\n      0xffffffffffffffffffffffffffffffffffffffff\n      and\n      mul\n      or\n      swap1\n      sstore\n      pop\n        /* \"contracts/rcp.sol\":4256:4412  if (player2Move == Weapon.Scissors) {... */\n      jump(tag_159)\n    tag_158:\n        /* \"contracts/rcp.sol\":4386:4393  player1 */\n      0x00\n      0x01\n      swap1\n      sload\n      swap1\n      0x0100\n      exp\n      swap1\n      div\n      0xffffffffffffffffffffffffffffffffffffffff\n      and\n        /* \"contracts/rcp.sol\":4377:4383  winner */\n      0x02\n      0x00\n        /* \"contracts/rcp.sol\":4377:4393  winner = player1 */\n      0x0100\n      exp\n      dup2\n      sload\n      dup2\n      0xffffffffffffffffffffffffffffffffffffffff\n      mul\n      not\n      and\n      swap1\n      dup4\n      0xffffffffffffffffffffffffffffffffffffffff\n      and\n      mul\n      or\n      swap1\n      sstore\n      pop\n        /* \"contracts/rcp.sol\":4256:4412  if (player2Move == Weapon.Scissors) {... */\n    tag_159:\n        /* \"contracts/rcp.sol\":4205:4616  if (player1Move == Weapon.Paper) {... */\n      jump(tag_160)\n    tag_153:\n        /* \"contracts/rcp.sol\":4469:4480  Weapon.Rock */\n      0x01\n        /* \"contracts/rcp.sol\":4454:4480  player2Move == Weapon.Rock */\n      0x03\n      dup2\n      gt\n      iszero\n      tag_161\n      jumpi\n      tag_162\n      tag_66\n      jump\t// in\n    tag_162:\n    tag_161:\n        /* \"contracts/rcp.sol\":4454:4465  player2Move */\n      0x05\n      0x01\n      swap1\n      sload\n      swap1\n      0x0100\n      exp\n      swap1\n      div\n      0xff\n      and\n        /* \"contracts/rcp.sol\":4454:4480  player2Move == Weapon.Rock */\n      0x03\n      dup2\n      gt\n      iszero\n      tag_163\n      jumpi\n      tag_164\n      tag_66\n      jump\t// in\n    tag_164:\n    tag_163:\n      sub\n        /* \"contracts/rcp.sol\":4450:4602  if (player2Move == Weapon.Rock) {... */\n      tag_165\n      jumpi\n        /* \"contracts/rcp.sol\":4513:4520  player2 */\n      0x01\n      0x00\n      swap1\n      sload\n      swap1\n      0x0100\n      exp\n      swap1\n      div\n      0xffffffffffffffffffffffffffffffffffffffff\n      and\n        /* \"contracts/rcp.sol\":4504:4510  winner */\n      0x02\n      0x00\n        /* \"contracts/rcp.sol\":4504:4520  winner = player2 */\n      0x0100\n      exp\n      dup2\n      sload\n      dup2\n      0xffffffffffffffffffffffffffffffffffffffff\n      mul\n      not\n      and\n      swap1\n      dup4\n      0xffffffffffffffffffffffffffffffffffffffff\n      and\n      mul\n      or\n      swap1\n      sstore\n      pop\n        /* \"contracts/rcp.sol\":4450:4602  if (player2Move == Weapon.Rock) {... */\n      jump(tag_166)\n    tag_165:\n        /* \"contracts/rcp.sol\":4576:4583  player1 */\n      0x00\n      0x01\n      swap1\n      sload\n      swap1\n      0x0100\n      exp\n      swap1\n      div\n      0xffffffffffffffffffffffffffffffffffffffff\n      and\n        /* \"contracts/rcp.sol\":4567:4573  winner */\n      0x02\n      0x00\n        /* \"contracts/rcp.sol\":4567:4583  winner = player1 */\n      0x0100\n      exp\n      dup2\n      sload\n      dup2\n      0xffffffffffffffffffffffffffffffffffffffff\n      mul\n      not\n      and\n      swap1\n      dup4\n      0xffffffffffffffffffffffffffffffffffffffff\n      and\n      mul\n      or\n      swap1\n      sstore\n      pop\n        /* \"contracts/rcp.sol\":4450:4602  if (player2Move == Weapon.Rock) {... */\n    tag_166:\n        /* \"contracts/rcp.sol\":4205:4616  if (player1Move == Weapon.Paper) {... */\n    tag_160:\n        /* \"contracts/rcp.sol\":3982:4616  if (player1Move == Weapon.Rock) {... */\n    tag_148:\n        /* \"contracts/rcp.sol\":4635:4655  GameFinished(winner) */\n      0x1728dd43546edd06fabfe796e5b641a151aa90998bfd1b1ec0ae98c6e7708459\n        /* \"contracts/rcp.sol\":4648:4654  winner */\n      0x02\n      0x00\n      swap1\n      sload\n      swap1\n      0x0100\n      exp\n      swap1\n      div\n      0xffffffffffffffffffffffffffffffffffffffff\n      and\n        /* \"contracts/rcp.sol\":4635:4655  GameFinished(winner) */\n      mload(0x40)\n      tag_167\n      swap2\n      swap1\n      tag_31\n      jump\t// in\n    tag_167:\n      mload(0x40)\n      dup1\n      swap2\n      sub\n      swap1\n      log1\n        /* \"contracts/rcp.sol\":3715:4666  if (player1Move != Weapon.None... */\n    tag_130:\n        /* \"contracts/rcp.sol\":3109:4672  {... */\n      pop\n        /* \"contracts/rcp.sol\":1209:1210  _ */\n    tag_87:\n        /* \"contracts/rcp.sol\":3042:4672  function reveal(Weapon element, uint32 salt) public isPlayerActive {... */\n      pop\n      pop\n      jump\t// out\n        /* \"contracts/rcp.sol\":2798:3036  function concat(Weapon element, uint32 salt) public {... */\n    tag_47:\n        /* \"contracts/rcp.sol\":2867:3029  sha256(... */\n      0x02\n        /* \"contracts/rcp.sol\":2923:2957  Strings.toString(uint256(element)) */\n      tag_169\n        /* \"contracts/rcp.sol\":2948:2955  element */\n      dup4\n        /* \"contracts/rcp.sol\":2940:2956  uint256(element) */\n      0x03\n      dup2\n      gt\n      iszero\n      tag_170\n      jumpi\n      tag_171\n      tag_66\n      jump\t// in\n    tag_171:\n    tag_170:\n        /* \"contracts/rcp.sol\":2923:2939  Strings.toString */\n      tag_96\n        /* \"contracts/rcp.sol\":2923:2957  Strings.toString(uint256(element)) */\n      jump\t// in\n    tag_169:\n        /* \"contracts/rcp.sol\":2982:3004  Strings.toString(salt) */\n      tag_172\n        /* \"contracts/rcp.sol\":2999:3003  salt */\n      dup4\n        /* \"contracts/rcp.sol\":2982:3004  Strings.toString(salt) */\n      0xffffffff\n      and\n        /* \"contracts/rcp.sol\":2982:2998  Strings.toString */\n      tag_96\n        /* \"contracts/rcp.sol\":2982:3004  Strings.toString(salt) */\n      jump\t// in\n    tag_172:\n        /* \"contracts/rcp.sol\":2887:3019  bytes.concat(... */\n      add(0x20, mload(0x40))\n      tag_173\n      swap3\n      swap2\n      swap1\n      tag_99\n      jump\t// in\n    tag_173:\n      mload(0x40)\n      0x20\n      dup2\n      dup4\n      sub\n      sub\n      dup2\n      mstore\n      swap1\n      0x40\n      mstore\n        /* \"contracts/rcp.sol\":2867:3029  sha256(... */\n      mload(0x40)\n      tag_174\n      swap2\n      swap1\n      tag_101\n      jump\t// in\n    tag_174:\n      0x20\n      mload(0x40)\n      dup1\n      dup4\n      sub\n      dup2\n      dup6\n      gas\n      staticcall\n      iszero\n      dup1\n      iszero\n      tag_176\n      jumpi\n      returndatasize\n      0x00\n      dup1\n      returndatacopy\n      revert(0x00, returndatasize)\n    tag_176:\n      pop\n      pop\n      pop\n      mload(0x40)\n      returndatasize\n      not(0x1f)\n      0x1f\n      dup3\n      add\n      and\n      dup3\n      add\n      dup1\n      0x40\n      mstore\n      pop\n      dup2\n      add\n      swap1\n      tag_177\n      swap2\n      swap1\n      tag_105\n      jump\t// in\n    tag_177:\n        /* \"contracts/rcp.sol\":2860:2864  hash */\n      0x06\n        /* \"contracts/rcp.sol\":2860:3029  hash = sha256(... */\n      dup2\n      swap1\n      sstore\n      pop\n        /* \"contracts/rcp.sol\":2798:3036  function concat(Weapon element, uint32 salt) public {... */\n      pop\n      pop\n      jump\t// out\n        /* \"contracts/rcp.sol\":2237:2766  function move(bytes32 move) public isPlayerActive returns (bool) {... */\n    tag_51:\n        /* \"contracts/rcp.sol\":2296:2300  bool */\n      0x00\n        /* \"contracts/rcp.sol\":1141:1148  player1 */\n      dup1\n      0x01\n      swap1\n      sload\n      swap1\n      0x0100\n      exp\n      swap1\n      div\n      0xffffffffffffffffffffffffffffffffffffffff\n      and\n        /* \"contracts/rcp.sol\":1127:1148  msg.sender == player1 */\n      0xffffffffffffffffffffffffffffffffffffffff\n      and\n        /* \"contracts/rcp.sol\":1127:1137  msg.sender */\n      caller\n        /* \"contracts/rcp.sol\":1127:1148  msg.sender == player1 */\n      0xffffffffffffffffffffffffffffffffffffffff\n      and\n      eq\n        /* \"contracts/rcp.sol\":1127:1189  msg.sender == player1 ||... */\n      dup1\n      tag_179\n      jumpi\n      pop\n        /* \"contracts/rcp.sol\":1182:1189  player2 */\n      0x01\n      0x00\n      swap1\n      sload\n      swap1\n      0x0100\n      exp\n      swap1\n      div\n      0xffffffffffffffffffffffffffffffffffffffff\n      and\n        /* \"contracts/rcp.sol\":1168:1189  msg.sender == player2 */\n      0xffffffffffffffffffffffffffffffffffffffff\n      and\n        /* \"contracts/rcp.sol\":1168:1178  msg.sender */\n      caller\n        /* \"contracts/rcp.sol\":1168:1189  msg.sender == player2 */\n      0xffffffffffffffffffffffffffffffffffffffff\n      and\n      eq\n        /* \"contracts/rcp.sol\":1127:1189  msg.sender == player1 ||... */\n    tag_179:\n        /* \"contracts/rcp.sol\":1106:1199  require(... */\n      tag_180\n      jumpi\n      0x00\n      dup1\n      revert\n    tag_180:\n        /* \"contracts/rcp.sol\":2336:2348  Stage.Commit */\n      0x01\n        /* \"contracts/rcp.sol\":2320:2348  currentPhase == Stage.Commit */\n      0x02\n      dup2\n      gt\n      iszero\n      tag_182\n      jumpi\n      tag_183\n      tag_66\n      jump\t// in\n    tag_183:\n    tag_182:\n        /* \"contracts/rcp.sol\":2320:2332  currentPhase */\n      0x00\n      dup1\n      sload\n      swap1\n      0x0100\n      exp\n      swap1\n      div\n      0xff\n      and\n        /* \"contracts/rcp.sol\":2320:2348  currentPhase == Stage.Commit */\n      0x02\n      dup2\n      gt\n      iszero\n      tag_184\n      jumpi\n      tag_185\n      tag_66\n      jump\t// in\n    tag_185:\n    tag_184:\n      eq\n        /* \"contracts/rcp.sol\":2312:2349  require(currentPhase == Stage.Commit) */\n      tag_186\n      jumpi\n      0x00\n      dup1\n      revert\n    tag_186:\n        /* \"contracts/rcp.sol\":2378:2385  player1 */\n      0x00\n      0x01\n      swap1\n      sload\n      swap1\n      0x0100\n      exp\n      swap1\n      div\n      0xffffffffffffffffffffffffffffffffffffffff\n      and\n        /* \"contracts/rcp.sol\":2364:2385  msg.sender == player1 */\n      0xffffffffffffffffffffffffffffffffffffffff\n      and\n        /* \"contracts/rcp.sol\":2364:2374  msg.sender */\n      caller\n        /* \"contracts/rcp.sol\":2364:2385  msg.sender == player1 */\n      0xffffffffffffffffffffffffffffffffffffffff\n      and\n      eq\n        /* \"contracts/rcp.sol\":2364:2428  msg.sender == player1... */\n      dup1\n      iszero\n      tag_187\n      jumpi\n      pop\n        /* \"contracts/rcp.sol\":2425:2428  0x0 */\n      0x00\n        /* \"contracts/rcp.sol\":2413:2428  player1e == 0x0 */\n      dup1\n      shl\n        /* \"contracts/rcp.sol\":2413:2421  player1e */\n      sload(0x03)\n        /* \"contracts/rcp.sol\":2413:2428  player1e == 0x0 */\n      eq\n        /* \"contracts/rcp.sol\":2364:2428  msg.sender == player1... */\n    tag_187:\n        /* \"contracts/rcp.sol\":2360:2586  if (msg.sender == player1... */\n      iszero\n      tag_188\n      jumpi\n        /* \"contracts/rcp.sol\":2455:2459  move */\n      dup2\n        /* \"contracts/rcp.sol\":2444:2452  player1e */\n      0x03\n        /* \"contracts/rcp.sol\":2444:2459  player1e = move */\n      dup2\n      swap1\n      sstore\n      pop\n        /* \"contracts/rcp.sol\":2360:2586  if (msg.sender == player1... */\n      jump(tag_189)\n    tag_188:\n        /* \"contracts/rcp.sol\":2494:2501  player2 */\n      0x01\n      0x00\n      swap1\n      sload\n      swap1\n      0x0100\n      exp\n      swap1\n      div\n      0xffffffffffffffffffffffffffffffffffffffff\n      and\n        /* \"contracts/rcp.sol\":2480:2501  msg.sender == player2 */\n      0xffffffffffffffffffffffffffffffffffffffff\n      and\n        /* \"contracts/rcp.sol\":2480:2490  msg.sender */\n      caller\n        /* \"contracts/rcp.sol\":2480:2501  msg.sender == player2 */\n      0xffffffffffffffffffffffffffffffffffffffff\n      and\n      eq\n        /* \"contracts/rcp.sol\":2480:2544  msg.sender == player2... */\n      dup1\n      iszero\n      tag_190\n      jumpi\n      pop\n        /* \"contracts/rcp.sol\":2541:2544  0x0 */\n      0x00\n        /* \"contracts/rcp.sol\":2529:2544  player2e == 0x0 */\n      dup1\n      shl\n        /* \"contracts/rcp.sol\":2529:2537  player2e */\n      sload(0x04)\n        /* \"contracts/rcp.sol\":2529:2544  player2e == 0x0 */\n      eq\n        /* \"contracts/rcp.sol\":2480:2544  msg.sender == player2... */\n    tag_190:\n        /* \"contracts/rcp.sol\":2476:2586  if (msg.sender == player2... */\n      iszero\n      tag_191\n      jumpi\n        /* \"contracts/rcp.sol\":2571:2575  move */\n      dup2\n        /* \"contracts/rcp.sol\":2560:2568  player2e */\n      0x04\n        /* \"contracts/rcp.sol\":2560:2575  player2e = move */\n      dup2\n      swap1\n      sstore\n      pop\n        /* \"contracts/rcp.sol\":2476:2586  if (msg.sender == player2... */\n    tag_191:\n        /* \"contracts/rcp.sol\":2360:2586  if (msg.sender == player1... */\n    tag_189:\n        /* \"contracts/rcp.sol\":2612:2615  0x0 */\n      0x00\n        /* \"contracts/rcp.sol\":2600:2615  player1e != 0x0 */\n      dup1\n      shl\n        /* \"contracts/rcp.sol\":2600:2608  player1e */\n      sload(0x03)\n        /* \"contracts/rcp.sol\":2600:2615  player1e != 0x0 */\n      eq\n      iszero\n        /* \"contracts/rcp.sol\":2600:2658  player1e != 0x0... */\n      dup1\n      iszero\n      tag_192\n      jumpi\n      pop\n        /* \"contracts/rcp.sol\":2655:2658  0x0 */\n      0x00\n        /* \"contracts/rcp.sol\":2643:2658  player2e != 0x0 */\n      dup1\n      shl\n        /* \"contracts/rcp.sol\":2643:2651  player2e */\n      sload(0x04)\n        /* \"contracts/rcp.sol\":2643:2658  player2e != 0x0 */\n      eq\n      iszero\n        /* \"contracts/rcp.sol\":2600:2658  player1e != 0x0... */\n    tag_192:\n        /* \"contracts/rcp.sol\":2596:2737  if (player1e != 0x0... */\n      iszero\n      tag_193\n      jumpi\n        /* \"contracts/rcp.sol\":2674:2701  changePhaseTo(Stage.Reveal) */\n      tag_194\n        /* \"contracts/rcp.sol\":2688:2700  Stage.Reveal */\n      0x02\n        /* \"contracts/rcp.sol\":2674:2687  changePhaseTo */\n      tag_195\n        /* \"contracts/rcp.sol\":2674:2701  changePhaseTo(Stage.Reveal) */\n      jump\t// in\n    tag_194:\n        /* \"contracts/rcp.sol\":2722:2726  true */\n      0x01\n        /* \"contracts/rcp.sol\":2715:2726  return true */\n      swap1\n      pop\n      jump(tag_181)\n        /* \"contracts/rcp.sol\":2596:2737  if (player1e != 0x0... */\n    tag_193:\n        /* \"contracts/rcp.sol\":2754:2759  false */\n      0x00\n        /* \"contracts/rcp.sol\":2747:2759  return false */\n      swap1\n      pop\n        /* \"contracts/rcp.sol\":1209:1210  _ */\n    tag_181:\n        /* \"contracts/rcp.sol\":2237:2766  function move(bytes32 move) public isPlayerActive returns (bool) {... */\n      swap2\n      swap1\n      pop\n      jump\t// out\n        /* \"contracts/rcp.sol\":438:460  address public player1 */\n    tag_55:\n      0x00\n      0x01\n      swap1\n      sload\n      swap1\n      0x0100\n      exp\n      swap1\n      div\n      0xffffffffffffffffffffffffffffffffffffffff\n      and\n      dup2\n      jump\t// out\n        /* \"contracts/rcp.sol\":495:516  address public winner */\n    tag_58:\n      0x02\n      0x00\n      swap1\n      sload\n      swap1\n      0x0100\n      exp\n      swap1\n      div\n      0xffffffffffffffffffffffffffffffffffffffff\n      and\n      dup2\n      jump\t// out\n        /* \"@openzeppelin/contracts/utils/Strings.sol\":415:1111  function toString(uint256 value) internal pure returns (string memory) {... */\n    tag_96:\n        /* \"@openzeppelin/contracts/utils/Strings.sol\":471:484  string memory */\n      0x60\n        /* \"@openzeppelin/contracts/utils/Strings.sol\":520:534  uint256 length */\n      0x00\n        /* \"@openzeppelin/contracts/utils/Strings.sol\":557:558  1 */\n      0x01\n        /* \"@openzeppelin/contracts/utils/Strings.sol\":537:554  Math.log10(value) */\n      tag_197\n        /* \"@openzeppelin/contracts/utils/Strings.sol\":548:553  value */\n      dup5\n        /* \"@openzeppelin/contracts/utils/Strings.sol\":537:547  Math.log10 */\n      tag_198\n        /* \"@openzeppelin/contracts/utils/Strings.sol\":537:554  Math.log10(value) */\n      jump\t// in\n    tag_197:\n        /* \"@openzeppelin/contracts/utils/Strings.sol\":537:558  Math.log10(value) + 1 */\n      add\n        /* \"@openzeppelin/contracts/utils/Strings.sol\":520:558  uint256 length = Math.log10(value) + 1 */\n      swap1\n      pop\n        /* \"@openzeppelin/contracts/utils/Strings.sol\":572:592  string memory buffer */\n      0x00\n        /* \"@openzeppelin/contracts/utils/Strings.sol\":606:612  length */\n      dup2\n        /* \"@openzeppelin/contracts/utils/Strings.sol\":595:613  new string(length) */\n      0xffffffffffffffff\n      dup2\n      gt\n      iszero\n      tag_199\n      jumpi\n      tag_200\n      tag_201\n      jump\t// in\n    tag_200:\n    tag_199:\n      mload(0x40)\n      swap1\n      dup1\n      dup3\n      mstore\n      dup1\n      0x1f\n      add\n      not(0x1f)\n      and\n      0x20\n      add\n      dup3\n      add\n      0x40\n      mstore\n      dup1\n      iszero\n      tag_202\n      jumpi\n      dup2\n      0x20\n      add\n      0x01\n      dup3\n      mul\n      dup1\n      calldatasize\n      dup4\n      calldatacopy\n      dup1\n      dup3\n      add\n      swap2\n      pop\n      pop\n      swap1\n      pop\n    tag_202:\n      pop\n        /* \"@openzeppelin/contracts/utils/Strings.sol\":572:613  string memory buffer = new string(length) */\n      swap1\n      pop\n        /* \"@openzeppelin/contracts/utils/Strings.sol\":627:638  uint256 ptr */\n      0x00\n        /* \"@openzeppelin/contracts/utils/Strings.sol\":753:759  length */\n      dup3\n        /* \"@openzeppelin/contracts/utils/Strings.sol\":749:751  32 */\n      0x20\n        /* \"@openzeppelin/contracts/utils/Strings.sol\":745:760  add(32, length) */\n      add\n        /* \"@openzeppelin/contracts/utils/Strings.sol\":737:743  buffer */\n      dup3\n        /* \"@openzeppelin/contracts/utils/Strings.sol\":733:761  add(buffer, add(32, length)) */\n      add\n        /* \"@openzeppelin/contracts/utils/Strings.sol\":726:761  ptr := add(buffer, add(32, length)) */\n      swap1\n      pop\n        /* \"@openzeppelin/contracts/utils/Strings.sol\":788:1068  while (true) {... */\n    tag_203:\n        /* \"@openzeppelin/contracts/utils/Strings.sol\":795:799  true */\n      0x01\n        /* \"@openzeppelin/contracts/utils/Strings.sol\":788:1068  while (true) {... */\n      iszero\n      tag_204\n      jumpi\n        /* \"@openzeppelin/contracts/utils/Strings.sol\":819:824  ptr-- */\n      dup1\n      dup1\n      0x01\n      swap1\n      sub\n      swap2\n      pop\n      pop\n        /* \"@openzeppelin/contracts/utils/Strings.sol\":958:966  _SYMBOLS */\n      0x3031323334353637383961626364656600000000000000000000000000000000\n        /* \"@openzeppelin/contracts/utils/Strings.sol\":953:955  10 */\n      0x0a\n        /* \"@openzeppelin/contracts/utils/Strings.sol\":946:951  value */\n      dup7\n        /* \"@openzeppelin/contracts/utils/Strings.sol\":942:956  mod(value, 10) */\n      mod\n        /* \"@openzeppelin/contracts/utils/Strings.sol\":937:967  byte(mod(value, 10), _SYMBOLS) */\n      byte\n        /* \"@openzeppelin/contracts/utils/Strings.sol\":932:935  ptr */\n      dup2\n        /* \"@openzeppelin/contracts/utils/Strings.sol\":924:968  mstore8(ptr, byte(mod(value, 10), _SYMBOLS)) */\n      mstore8\n        /* \"@openzeppelin/contracts/utils/Strings.sol\":1012:1014  10 */\n      0x0a\n        /* \"@openzeppelin/contracts/utils/Strings.sol\":1003:1014  value /= 10 */\n      dup6\n      dup2\n      tag_205\n      jumpi\n      tag_206\n      tag_207\n      jump\t// in\n    tag_206:\n    tag_205:\n      div\n      swap5\n      pop\n        /* \"@openzeppelin/contracts/utils/Strings.sol\":1045:1046  0 */\n      0x00\n        /* \"@openzeppelin/contracts/utils/Strings.sol\":1036:1041  value */\n      dup6\n        /* \"@openzeppelin/contracts/utils/Strings.sol\":1036:1046  value == 0 */\n      sub\n        /* \"@openzeppelin/contracts/utils/Strings.sol\":788:1068  while (true) {... */\n      tag_203\n        /* \"@openzeppelin/contracts/utils/Strings.sol\":1032:1053  if (value == 0) break */\n      jumpi\n        /* \"@openzeppelin/contracts/utils/Strings.sol\":788:1068  while (true) {... */\n    tag_204:\n        /* \"@openzeppelin/contracts/utils/Strings.sol\":1088:1094  buffer */\n      dup2\n        /* \"@openzeppelin/contracts/utils/Strings.sol\":1081:1094  return buffer */\n      swap4\n      pop\n      pop\n      pop\n      pop\n        /* \"@openzeppelin/contracts/utils/Strings.sol\":415:1111  function toString(uint256 value) internal pure returns (string memory) {... */\n      swap2\n      swap1\n      pop\n      jump\t// out\n        /* \"contracts/rcp.sol\":782:904  function changePhaseTo(Stage phase) private {... */\n    tag_195:\n        /* \"contracts/rcp.sol\":851:856  phase */\n      dup1\n        /* \"contracts/rcp.sol\":836:848  currentPhase */\n      0x00\n      dup1\n        /* \"contracts/rcp.sol\":836:856  currentPhase = phase */\n      0x0100\n      exp\n      dup2\n      sload\n      dup2\n      0xff\n      mul\n      not\n      and\n      swap1\n      dup4\n      0x02\n      dup2\n      gt\n      iszero\n      tag_210\n      jumpi\n      tag_211\n      tag_66\n      jump\t// in\n    tag_211:\n    tag_210:\n      mul\n      or\n      swap1\n      sstore\n      pop\n        /* \"contracts/rcp.sol\":871:897  PhaseChanged(currentPhase) */\n      0xa6dcc92f45df25789d5639b7a0c97ba1edf3bb1c0b5dd3376fd96a0db87c4642\n        /* \"contracts/rcp.sol\":884:896  currentPhase */\n      0x00\n      dup1\n      sload\n      swap1\n      0x0100\n      exp\n      swap1\n      div\n      0xff\n      and\n        /* \"contracts/rcp.sol\":871:897  PhaseChanged(currentPhase) */\n      mload(0x40)\n      tag_212\n      swap2\n      swap1\n      tag_19\n      jump\t// in\n    tag_212:\n      mload(0x40)\n      dup1\n      swap2\n      sub\n      swap1\n      log1\n        /* \"contracts/rcp.sol\":782:904  function changePhaseTo(Stage phase) private {... */\n      pop\n      jump\t// out\n        /* \"@openzeppelin/contracts/utils/math/Math.sol\":9889:10779  function log10(uint256 value) internal pure returns (uint256) {... */\n    tag_198:\n        /* \"@openzeppelin/contracts/utils/math/Math.sol\":9942:9949  uint256 */\n      0x00\n        /* \"@openzeppelin/contracts/utils/math/Math.sol\":9961:9975  uint256 result */\n      dup1\n        /* \"@openzeppelin/contracts/utils/math/Math.sol\":9978:9979  0 */\n      0x00\n        /* \"@openzeppelin/contracts/utils/math/Math.sol\":9961:9979  uint256 result = 0 */\n      swap1\n      pop\n        /* \"@openzeppelin/contracts/utils/math/Math.sol\":10026:10032  10**64 */\n      0x184f03e93ff9f4daa797ed6e38ed64bf6a1f010000000000000000\n        /* \"@openzeppelin/contracts/utils/math/Math.sol\":10017:10022  value */\n      dup4\n        /* \"@openzeppelin/contracts/utils/math/Math.sol\":10017:10032  value >= 10**64 */\n      lt\n        /* \"@openzeppelin/contracts/utils/math/Math.sol\":10013:10112  if (value >= 10**64) {... */\n      tag_214\n      jumpi\n        /* \"@openzeppelin/contracts/utils/math/Math.sol\":10061:10067  10**64 */\n      0x184f03e93ff9f4daa797ed6e38ed64bf6a1f010000000000000000\n        /* \"@openzeppelin/contracts/utils/math/Math.sol\":10052:10067  value /= 10**64 */\n      dup4\n      dup2\n      tag_215\n      jumpi\n      tag_216\n      tag_207\n      jump\t// in\n    tag_216:\n    tag_215:\n      div\n      swap3\n      pop\n        /* \"@openzeppelin/contracts/utils/math/Math.sol\":10095:10097  64 */\n      0x40\n        /* \"@openzeppelin/contracts/utils/math/Math.sol\":10085:10097  result += 64 */\n      dup2\n      add\n      swap1\n      pop\n        /* \"@openzeppelin/contracts/utils/math/Math.sol\":10013:10112  if (value >= 10**64) {... */\n    tag_214:\n        /* \"@openzeppelin/contracts/utils/math/Math.sol\":10138:10144  10**32 */\n      0x04ee2d6d415b85acef8100000000\n        /* \"@openzeppelin/contracts/utils/math/Math.sol\":10129:10134  value */\n      dup4\n        /* \"@openzeppelin/contracts/utils/math/Math.sol\":10129:10144  value >= 10**32 */\n      lt\n        /* \"@openzeppelin/contracts/utils/math/Math.sol\":10125:10224  if (value >= 10**32) {... */\n      tag_217\n      jumpi\n        /* \"@openzeppelin/contracts/utils/math/Math.sol\":10173:10179  10**32 */\n      0x04ee2d6d415b85acef8100000000\n        /* \"@openzeppelin/contracts/utils/math/Math.sol\":10164:10179  value /= 10**32 */\n      dup4\n      dup2\n      tag_218\n      jumpi\n      tag_219\n      tag_207\n      jump\t// in\n    tag_219:\n    tag_218:\n      div\n      swap3\n      pop\n        /* \"@openzeppelin/contracts/utils/math/Math.sol\":10207:10209  32 */\n      0x20\n        /* \"@openzeppelin/contracts/utils/math/Math.sol\":10197:10209  result += 32 */\n      dup2\n      add\n      swap1\n      pop\n        /* \"@openzeppelin/contracts/utils/math/Math.sol\":10125:10224  if (value >= 10**32) {... */\n    tag_217:\n        /* \"@openzeppelin/contracts/utils/math/Math.sol\":10250:10256  10**16 */\n      0x2386f26fc10000\n        /* \"@openzeppelin/contracts/utils/math/Math.sol\":10241:10246  value */\n      dup4\n        /* \"@openzeppelin/contracts/utils/math/Math.sol\":10241:10256  value >= 10**16 */\n      lt\n        /* \"@openzeppelin/contracts/utils/math/Math.sol\":10237:10336  if (value >= 10**16) {... */\n      tag_220\n      jumpi\n        /* \"@openzeppelin/contracts/utils/math/Math.sol\":10285:10291  10**16 */\n      0x2386f26fc10000\n        /* \"@openzeppelin/contracts/utils/math/Math.sol\":10276:10291  value /= 10**16 */\n      dup4\n      dup2\n      tag_221\n      jumpi\n      tag_222\n      tag_207\n      jump\t// in\n    tag_222:\n    tag_221:\n      div\n      swap3\n      pop\n        /* \"@openzeppelin/contracts/utils/math/Math.sol\":10319:10321  16 */\n      0x10\n        /* \"@openzeppelin/contracts/utils/math/Math.sol\":10309:10321  result += 16 */\n      dup2\n      add\n      swap1\n      pop\n        /* \"@openzeppelin/contracts/utils/math/Math.sol\":10237:10336  if (value >= 10**16) {... */\n    tag_220:\n        /* \"@openzeppelin/contracts/utils/math/Math.sol\":10362:10367  10**8 */\n      0x05f5e100\n        /* \"@openzeppelin/contracts/utils/math/Math.sol\":10353:10358  value */\n      dup4\n        /* \"@openzeppelin/contracts/utils/math/Math.sol\":10353:10367  value >= 10**8 */\n      lt\n        /* \"@openzeppelin/contracts/utils/math/Math.sol\":10349:10445  if (value >= 10**8) {... */\n      tag_223\n      jumpi\n        /* \"@openzeppelin/contracts/utils/math/Math.sol\":10396:10401  10**8 */\n      0x05f5e100\n        /* \"@openzeppelin/contracts/utils/math/Math.sol\":10387:10401  value /= 10**8 */\n      dup4\n      dup2\n      tag_224\n      jumpi\n      tag_225\n      tag_207\n      jump\t// in\n    tag_225:\n    tag_224:\n      div\n      swap3\n      pop\n        /* \"@openzeppelin/contracts/utils/math/Math.sol\":10429:10430  8 */\n      0x08\n        /* \"@openzeppelin/contracts/utils/math/Math.sol\":10419:10430  result += 8 */\n      dup2\n      add\n      swap1\n      pop\n        /* \"@openzeppelin/contracts/utils/math/Math.sol\":10349:10445  if (value >= 10**8) {... */\n    tag_223:\n        /* \"@openzeppelin/contracts/utils/math/Math.sol\":10471:10476  10**4 */\n      0x2710\n        /* \"@openzeppelin/contracts/utils/math/Math.sol\":10462:10467  value */\n      dup4\n        /* \"@openzeppelin/contracts/utils/math/Math.sol\":10462:10476  value >= 10**4 */\n      lt\n        /* \"@openzeppelin/contracts/utils/math/Math.sol\":10458:10554  if (value >= 10**4) {... */\n      tag_226\n      jumpi\n        /* \"@openzeppelin/contracts/utils/math/Math.sol\":10505:10510  10**4 */\n      0x2710\n        /* \"@openzeppelin/contracts/utils/math/Math.sol\":10496:10510  value /= 10**4 */\n      dup4\n      dup2\n      tag_227\n      jumpi\n      tag_228\n      tag_207\n      jump\t// in\n    tag_228:\n    tag_227:\n      div\n      swap3\n      pop\n        /* \"@openzeppelin/contracts/utils/math/Math.sol\":10538:10539  4 */\n      0x04\n        /* \"@openzeppelin/contracts/utils/math/Math.sol\":10528:10539  result += 4 */\n      dup2\n      add\n      swap1\n      pop\n        /* \"@openzeppelin/contracts/utils/math/Math.sol\":10458:10554  if (value >= 10**4) {... */\n    tag_226:\n        /* \"@openzeppelin/contracts/utils/math/Math.sol\":10580:10585  10**2 */\n      0x64\n        /* \"@openzeppelin/contracts/utils/math/Math.sol\":10571:10576  value */\n      dup4\n        /* \"@openzeppelin/contracts/utils/math/Math.sol\":10571:10585  value >= 10**2 */\n      lt\n        /* \"@openzeppelin/contracts/utils/math/Math.sol\":10567:10663  if (value >= 10**2) {... */\n      tag_229\n      jumpi\n        /* \"@openzeppelin/contracts/utils/math/Math.sol\":10614:10619  10**2 */\n      0x64\n        /* \"@openzeppelin/contracts/utils/math/Math.sol\":10605:10619  value /= 10**2 */\n      dup4\n      dup2\n      tag_230\n      jumpi\n      tag_231\n      tag_207\n      jump\t// in\n    tag_231:\n    tag_230:\n      div\n      swap3\n      pop\n        /* \"@openzeppelin/contracts/utils/math/Math.sol\":10647:10648  2 */\n      0x02\n        /* \"@openzeppelin/contracts/utils/math/Math.sol\":10637:10648  result += 2 */\n      dup2\n      add\n      swap1\n      pop\n        /* \"@openzeppelin/contracts/utils/math/Math.sol\":10567:10663  if (value >= 10**2) {... */\n    tag_229:\n        /* \"@openzeppelin/contracts/utils/math/Math.sol\":10689:10694  10**1 */\n      0x0a\n        /* \"@openzeppelin/contracts/utils/math/Math.sol\":10680:10685  value */\n      dup4\n        /* \"@openzeppelin/contracts/utils/math/Math.sol\":10680:10694  value >= 10**1 */\n      lt\n        /* \"@openzeppelin/contracts/utils/math/Math.sol\":10676:10740  if (value >= 10**1) {... */\n      tag_232\n      jumpi\n        /* \"@openzeppelin/contracts/utils/math/Math.sol\":10724:10725  1 */\n      0x01\n        /* \"@openzeppelin/contracts/utils/math/Math.sol\":10714:10725  result += 1 */\n      dup2\n      add\n      swap1\n      pop\n        /* \"@openzeppelin/contracts/utils/math/Math.sol\":10676:10740  if (value >= 10**1) {... */\n    tag_232:\n        /* \"@openzeppelin/contracts/utils/math/Math.sol\":10766:10772  result */\n      dup1\n        /* \"@openzeppelin/contracts/utils/math/Math.sol\":10759:10772  return result */\n      swap2\n      pop\n      pop\n        /* \"@openzeppelin/contracts/utils/math/Math.sol\":9889:10779  function log10(uint256 value) internal pure returns (uint256) {... */\n      swap2\n      swap1\n      pop\n      jump\t// out\n        /* \"#utility.yul\":7:187   */\n    tag_66:\n        /* \"#utility.yul\":55:132   */\n      0x4e487b7100000000000000000000000000000000000000000000000000000000\n        /* \"#utility.yul\":52:53   */\n      0x00\n        /* \"#utility.yul\":45:133   */\n      mstore\n        /* \"#utility.yul\":152:156   */\n      0x21\n        /* \"#utility.yul\":149:150   */\n      0x04\n        /* \"#utility.yul\":142:157   */\n      mstore\n        /* \"#utility.yul\":176:180   */\n      0x24\n        /* \"#utility.yul\":173:174   */\n      0x00\n        /* \"#utility.yul\":166:181   */\n      revert\n        /* \"#utility.yul\":193:308   */\n    tag_233:\n        /* \"#utility.yul\":276:277   */\n      0x03\n        /* \"#utility.yul\":269:274   */\n      dup2\n        /* \"#utility.yul\":266:278   */\n      lt\n        /* \"#utility.yul\":256:302   */\n      tag_268\n      jumpi\n        /* \"#utility.yul\":282:300   */\n      tag_269\n      tag_66\n      jump\t// in\n    tag_269:\n        /* \"#utility.yul\":256:302   */\n    tag_268:\n        /* \"#utility.yul\":193:308   */\n      pop\n      jump\t// out\n        /* \"#utility.yul\":314:445   */\n    tag_234:\n        /* \"#utility.yul\":361:368   */\n      0x00\n        /* \"#utility.yul\":390:395   */\n      dup2\n        /* \"#utility.yul\":379:395   */\n      swap1\n      pop\n        /* \"#utility.yul\":396:439   */\n      tag_271\n        /* \"#utility.yul\":433:438   */\n      dup3\n        /* \"#utility.yul\":396:439   */\n      tag_233\n      jump\t// in\n    tag_271:\n        /* \"#utility.yul\":314:445   */\n      swap2\n      swap1\n      pop\n      jump\t// out\n        /* \"#utility.yul\":451:582   */\n    tag_235:\n        /* \"#utility.yul\":509:518   */\n      0x00\n        /* \"#utility.yul\":542:576   */\n      tag_273\n        /* \"#utility.yul\":570:575   */\n      dup3\n        /* \"#utility.yul\":542:576   */\n      tag_234\n      jump\t// in\n    tag_273:\n        /* \"#utility.yul\":529:576   */\n      swap1\n      pop\n        /* \"#utility.yul\":451:582   */\n      swap2\n      swap1\n      pop\n      jump\t// out\n        /* \"#utility.yul\":588:735   */\n    tag_236:\n        /* \"#utility.yul\":683:728   */\n      tag_275\n        /* \"#utility.yul\":722:727   */\n      dup2\n        /* \"#utility.yul\":683:728   */\n      tag_235\n      jump\t// in\n    tag_275:\n        /* \"#utility.yul\":678:681   */\n      dup3\n        /* \"#utility.yul\":671:729   */\n      mstore\n        /* \"#utility.yul\":588:735   */\n      pop\n      pop\n      jump\t// out\n        /* \"#utility.yul\":741:979   */\n    tag_19:\n        /* \"#utility.yul\":842:846   */\n      0x00\n        /* \"#utility.yul\":880:882   */\n      0x20\n        /* \"#utility.yul\":869:878   */\n      dup3\n        /* \"#utility.yul\":865:883   */\n      add\n        /* \"#utility.yul\":857:883   */\n      swap1\n      pop\n        /* \"#utility.yul\":893:972   */\n      tag_277\n        /* \"#utility.yul\":969:970   */\n      0x00\n        /* \"#utility.yul\":958:967   */\n      dup4\n        /* \"#utility.yul\":954:971   */\n      add\n        /* \"#utility.yul\":945:951   */\n      dup5\n        /* \"#utility.yul\":893:972   */\n      tag_236\n      jump\t// in\n    tag_277:\n        /* \"#utility.yul\":741:979   */\n      swap3\n      swap2\n      pop\n      pop\n      jump\t// out\n        /* \"#utility.yul\":985:1062   */\n    tag_237:\n        /* \"#utility.yul\":1022:1029   */\n      0x00\n        /* \"#utility.yul\":1051:1056   */\n      dup2\n        /* \"#utility.yul\":1040:1056   */\n      swap1\n      pop\n        /* \"#utility.yul\":985:1062   */\n      swap2\n      swap1\n      pop\n      jump\t// out\n        /* \"#utility.yul\":1068:1186   */\n    tag_238:\n        /* \"#utility.yul\":1155:1179   */\n      tag_280\n        /* \"#utility.yul\":1173:1178   */\n      dup2\n        /* \"#utility.yul\":1155:1179   */\n      tag_237\n      jump\t// in\n    tag_280:\n        /* \"#utility.yul\":1150:1153   */\n      dup3\n        /* \"#utility.yul\":1143:1180   */\n      mstore\n        /* \"#utility.yul\":1068:1186   */\n      pop\n      pop\n      jump\t// out\n        /* \"#utility.yul\":1192:1414   */\n    tag_23:\n        /* \"#utility.yul\":1285:1289   */\n      0x00\n        /* \"#utility.yul\":1323:1325   */\n      0x20\n        /* \"#utility.yul\":1312:1321   */\n      dup3\n        /* \"#utility.yul\":1308:1326   */\n      add\n        /* \"#utility.yul\":1300:1326   */\n      swap1\n      pop\n        /* \"#utility.yul\":1336:1407   */\n      tag_282\n        /* \"#utility.yul\":1404:1405   */\n      0x00\n        /* \"#utility.yul\":1393:1402   */\n      dup4\n        /* \"#utility.yul\":1389:1406   */\n      add\n        /* \"#utility.yul\":1380:1386   */\n      dup5\n        /* \"#utility.yul\":1336:1407   */\n      tag_238\n      jump\t// in\n    tag_282:\n        /* \"#utility.yul\":1192:1414   */\n      swap3\n      swap2\n      pop\n      pop\n      jump\t// out\n        /* \"#utility.yul\":1420:1497   */\n    tag_239:\n        /* \"#utility.yul\":1457:1464   */\n      0x00\n        /* \"#utility.yul\":1486:1491   */\n      dup2\n        /* \"#utility.yul\":1475:1491   */\n      swap1\n      pop\n        /* \"#utility.yul\":1420:1497   */\n      swap2\n      swap1\n      pop\n      jump\t// out\n        /* \"#utility.yul\":1503:1621   */\n    tag_240:\n        /* \"#utility.yul\":1590:1614   */\n      tag_285\n        /* \"#utility.yul\":1608:1613   */\n      dup2\n        /* \"#utility.yul\":1590:1614   */\n      tag_239\n      jump\t// in\n    tag_285:\n        /* \"#utility.yul\":1585:1588   */\n      dup3\n        /* \"#utility.yul\":1578:1615   */\n      mstore\n        /* \"#utility.yul\":1503:1621   */\n      pop\n      pop\n      jump\t// out\n        /* \"#utility.yul\":1627:1849   */\n    tag_27:\n        /* \"#utility.yul\":1720:1724   */\n      0x00\n        /* \"#utility.yul\":1758:1760   */\n      0x20\n        /* \"#utility.yul\":1747:1756   */\n      dup3\n        /* \"#utility.yul\":1743:1761   */\n      add\n        /* \"#utility.yul\":1735:1761   */\n      swap1\n      pop\n        /* \"#utility.yul\":1771:1842   */\n      tag_287\n        /* \"#utility.yul\":1839:1840   */\n      0x00\n        /* \"#utility.yul\":1828:1837   */\n      dup4\n        /* \"#utility.yul\":1824:1841   */\n      add\n        /* \"#utility.yul\":1815:1821   */\n      dup5\n        /* \"#utility.yul\":1771:1842   */\n      tag_240\n      jump\t// in\n    tag_287:\n        /* \"#utility.yul\":1627:1849   */\n      swap3\n      swap2\n      pop\n      pop\n      jump\t// out\n        /* \"#utility.yul\":1855:1981   */\n    tag_241:\n        /* \"#utility.yul\":1892:1899   */\n      0x00\n        /* \"#utility.yul\":1932:1974   */\n      0xffffffffffffffffffffffffffffffffffffffff\n        /* \"#utility.yul\":1925:1930   */\n      dup3\n        /* \"#utility.yul\":1921:1975   */\n      and\n        /* \"#utility.yul\":1910:1975   */\n      swap1\n      pop\n        /* \"#utility.yul\":1855:1981   */\n      swap2\n      swap1\n      pop\n      jump\t// out\n        /* \"#utility.yul\":1987:2083   */\n    tag_242:\n        /* \"#utility.yul\":2024:2031   */\n      0x00\n        /* \"#utility.yul\":2053:2077   */\n      tag_290\n        /* \"#utility.yul\":2071:2076   */\n      dup3\n        /* \"#utility.yul\":2053:2077   */\n      tag_241\n      jump\t// in\n    tag_290:\n        /* \"#utility.yul\":2042:2077   */\n      swap1\n      pop\n        /* \"#utility.yul\":1987:2083   */\n      swap2\n      swap1\n      pop\n      jump\t// out\n        /* \"#utility.yul\":2089:2207   */\n    tag_243:\n        /* \"#utility.yul\":2176:2200   */\n      tag_292\n        /* \"#utility.yul\":2194:2199   */\n      dup2\n        /* \"#utility.yul\":2176:2200   */\n      tag_242\n      jump\t// in\n    tag_292:\n        /* \"#utility.yul\":2171:2174   */\n      dup3\n        /* \"#utility.yul\":2164:2201   */\n      mstore\n        /* \"#utility.yul\":2089:2207   */\n      pop\n      pop\n      jump\t// out\n        /* \"#utility.yul\":2213:2435   */\n    tag_31:\n        /* \"#utility.yul\":2306:2310   */\n      0x00\n        /* \"#utility.yul\":2344:2346   */\n      0x20\n        /* \"#utility.yul\":2333:2342   */\n      dup3\n        /* \"#utility.yul\":2329:2347   */\n      add\n        /* \"#utility.yul\":2321:2347   */\n      swap1\n      pop\n        /* \"#utility.yul\":2357:2428   */\n      tag_294\n        /* \"#utility.yul\":2425:2426   */\n      0x00\n        /* \"#utility.yul\":2414:2423   */\n      dup4\n        /* \"#utility.yul\":2410:2427   */\n      add\n        /* \"#utility.yul\":2401:2407   */\n      dup5\n        /* \"#utility.yul\":2357:2428   */\n      tag_243\n      jump\t// in\n    tag_294:\n        /* \"#utility.yul\":2213:2435   */\n      swap3\n      swap2\n      pop\n      pop\n      jump\t// out\n        /* \"#utility.yul\":2441:2557   */\n    tag_244:\n        /* \"#utility.yul\":2525:2526   */\n      0x04\n        /* \"#utility.yul\":2518:2523   */\n      dup2\n        /* \"#utility.yul\":2515:2527   */\n      lt\n        /* \"#utility.yul\":2505:2551   */\n      tag_296\n      jumpi\n        /* \"#utility.yul\":2531:2549   */\n      tag_297\n      tag_66\n      jump\t// in\n    tag_297:\n        /* \"#utility.yul\":2505:2551   */\n    tag_296:\n        /* \"#utility.yul\":2441:2557   */\n      pop\n      jump\t// out\n        /* \"#utility.yul\":2563:2696   */\n    tag_245:\n        /* \"#utility.yul\":2611:2618   */\n      0x00\n        /* \"#utility.yul\":2640:2645   */\n      dup2\n        /* \"#utility.yul\":2629:2645   */\n      swap1\n      pop\n        /* \"#utility.yul\":2646:2690   */\n      tag_299\n        /* \"#utility.yul\":2684:2689   */\n      dup3\n        /* \"#utility.yul\":2646:2690   */\n      tag_244\n      jump\t// in\n    tag_299:\n        /* \"#utility.yul\":2563:2696   */\n      swap2\n      swap1\n      pop\n      jump\t// out\n        /* \"#utility.yul\":2702:2835   */\n    tag_246:\n        /* \"#utility.yul\":2761:2770   */\n      0x00\n        /* \"#utility.yul\":2794:2829   */\n      tag_301\n        /* \"#utility.yul\":2823:2828   */\n      dup3\n        /* \"#utility.yul\":2794:2829   */\n      tag_245\n      jump\t// in\n    tag_301:\n        /* \"#utility.yul\":2781:2829   */\n      swap1\n      pop\n        /* \"#utility.yul\":2702:2835   */\n      swap2\n      swap1\n      pop\n      jump\t// out\n        /* \"#utility.yul\":2841:2990   */\n    tag_247:\n        /* \"#utility.yul\":2937:2983   */\n      tag_303\n        /* \"#utility.yul\":2977:2982   */\n      dup2\n        /* \"#utility.yul\":2937:2983   */\n      tag_246\n      jump\t// in\n    tag_303:\n        /* \"#utility.yul\":2932:2935   */\n      dup3\n        /* \"#utility.yul\":2925:2984   */\n      mstore\n        /* \"#utility.yul\":2841:2990   */\n      pop\n      pop\n      jump\t// out\n        /* \"#utility.yul\":2996:3236   */\n    tag_35:\n        /* \"#utility.yul\":3098:3102   */\n      0x00\n        /* \"#utility.yul\":3136:3138   */\n      0x20\n        /* \"#utility.yul\":3125:3134   */\n      dup3\n        /* \"#utility.yul\":3121:3139   */\n      add\n        /* \"#utility.yul\":3113:3139   */\n      swap1\n      pop\n        /* \"#utility.yul\":3149:3229   */\n      tag_305\n        /* \"#utility.yul\":3226:3227   */\n      0x00\n        /* \"#utility.yul\":3215:3224   */\n      dup4\n        /* \"#utility.yul\":3211:3228   */\n      add\n        /* \"#utility.yul\":3202:3208   */\n      dup5\n        /* \"#utility.yul\":3149:3229   */\n      tag_247\n      jump\t// in\n    tag_305:\n        /* \"#utility.yul\":2996:3236   */\n      swap3\n      swap2\n      pop\n      pop\n      jump\t// out\n        /* \"#utility.yul\":3323:3440   */\n    tag_249:\n        /* \"#utility.yul\":3432:3433   */\n      0x00\n        /* \"#utility.yul\":3429:3430   */\n      dup1\n        /* \"#utility.yul\":3422:3434   */\n      revert\n        /* \"#utility.yul\":3569:3679   */\n    tag_251:\n        /* \"#utility.yul\":3653:3654   */\n      0x04\n        /* \"#utility.yul\":3646:3651   */\n      dup2\n        /* \"#utility.yul\":3643:3655   */\n      lt\n        /* \"#utility.yul\":3633:3673   */\n      tag_310\n      jumpi\n        /* \"#utility.yul\":3669:3670   */\n      0x00\n        /* \"#utility.yul\":3666:3667   */\n      dup1\n        /* \"#utility.yul\":3659:3671   */\n      revert\n        /* \"#utility.yul\":3633:3673   */\n    tag_310:\n        /* \"#utility.yul\":3569:3679   */\n      pop\n      jump\t// out\n        /* \"#utility.yul\":3685:3846   */\n    tag_252:\n        /* \"#utility.yul\":3742:3747   */\n      0x00\n        /* \"#utility.yul\":3780:3786   */\n      dup2\n        /* \"#utility.yul\":3767:3787   */\n      calldataload\n        /* \"#utility.yul\":3758:3787   */\n      swap1\n      pop\n        /* \"#utility.yul\":3796:3840   */\n      tag_312\n        /* \"#utility.yul\":3834:3839   */\n      dup2\n        /* \"#utility.yul\":3796:3840   */\n      tag_251\n      jump\t// in\n    tag_312:\n        /* \"#utility.yul\":3685:3846   */\n      swap3\n      swap2\n      pop\n      pop\n      jump\t// out\n        /* \"#utility.yul\":3852:3945   */\n    tag_253:\n        /* \"#utility.yul\":3888:3895   */\n      0x00\n        /* \"#utility.yul\":3928:3938   */\n      0xffffffff\n        /* \"#utility.yul\":3921:3926   */\n      dup3\n        /* \"#utility.yul\":3917:3939   */\n      and\n        /* \"#utility.yul\":3906:3939   */\n      swap1\n      pop\n        /* \"#utility.yul\":3852:3945   */\n      swap2\n      swap1\n      pop\n      jump\t// out\n        /* \"#utility.yul\":3951:4071   */\n    tag_254:\n        /* \"#utility.yul\":4023:4046   */\n      tag_315\n        /* \"#utility.yul\":4040:4045   */\n      dup2\n        /* \"#utility.yul\":4023:4046   */\n      tag_253\n      jump\t// in\n    tag_315:\n        /* \"#utility.yul\":4016:4021   */\n      dup2\n        /* \"#utility.yul\":4013:4047   */\n      eq\n        /* \"#utility.yul\":4003:4065   */\n      tag_316\n      jumpi\n        /* \"#utility.yul\":4061:4062   */\n      0x00\n        /* \"#utility.yul\":4058:4059   */\n      dup1\n        /* \"#utility.yul\":4051:4063   */\n      revert\n        /* \"#utility.yul\":4003:4065   */\n    tag_316:\n        /* \"#utility.yul\":3951:4071   */\n      pop\n      jump\t// out\n        /* \"#utility.yul\":4077:4214   */\n    tag_255:\n        /* \"#utility.yul\":4122:4127   */\n      0x00\n        /* \"#utility.yul\":4160:4166   */\n      dup2\n        /* \"#utility.yul\":4147:4167   */\n      calldataload\n        /* \"#utility.yul\":4138:4167   */\n      swap1\n      pop\n        /* \"#utility.yul\":4176:4208   */\n      tag_318\n        /* \"#utility.yul\":4202:4207   */\n      dup2\n        /* \"#utility.yul\":4176:4208   */\n      tag_254\n      jump\t// in\n    tag_318:\n        /* \"#utility.yul\":4077:4214   */\n      swap3\n      swap2\n      pop\n      pop\n      jump\t// out\n        /* \"#utility.yul\":4220:4714   */\n    tag_43:\n        /* \"#utility.yul\":4298:4304   */\n      0x00\n        /* \"#utility.yul\":4306:4312   */\n      dup1\n        /* \"#utility.yul\":4355:4357   */\n      0x40\n        /* \"#utility.yul\":4343:4352   */\n      dup4\n        /* \"#utility.yul\":4334:4341   */\n      dup6\n        /* \"#utility.yul\":4330:4353   */\n      sub\n        /* \"#utility.yul\":4326:4358   */\n      slt\n        /* \"#utility.yul\":4323:4442   */\n      iszero\n      tag_320\n      jumpi\n        /* \"#utility.yul\":4361:4440   */\n      tag_321\n      tag_249\n      jump\t// in\n    tag_321:\n        /* \"#utility.yul\":4323:4442   */\n    tag_320:\n        /* \"#utility.yul\":4481:4482   */\n      0x00\n        /* \"#utility.yul\":4506:4570   */\n      tag_322\n        /* \"#utility.yul\":4562:4569   */\n      dup6\n        /* \"#utility.yul\":4553:4559   */\n      dup3\n        /* \"#utility.yul\":4542:4551   */\n      dup7\n        /* \"#utility.yul\":4538:4560   */\n      add\n        /* \"#utility.yul\":4506:4570   */\n      tag_252\n      jump\t// in\n    tag_322:\n        /* \"#utility.yul\":4496:4570   */\n      swap3\n      pop\n        /* \"#utility.yul\":4452:4580   */\n      pop\n        /* \"#utility.yul\":4619:4621   */\n      0x20\n        /* \"#utility.yul\":4645:4697   */\n      tag_323\n        /* \"#utility.yul\":4689:4696   */\n      dup6\n        /* \"#utility.yul\":4680:4686   */\n      dup3\n        /* \"#utility.yul\":4669:4678   */\n      dup7\n        /* \"#utility.yul\":4665:4687   */\n      add\n        /* \"#utility.yul\":4645:4697   */\n      tag_255\n      jump\t// in\n    tag_323:\n        /* \"#utility.yul\":4635:4697   */\n      swap2\n      pop\n        /* \"#utility.yul\":4590:4707   */\n      pop\n        /* \"#utility.yul\":4220:4714   */\n      swap3\n      pop\n      swap3\n      swap1\n      pop\n      jump\t// out\n        /* \"#utility.yul\":4720:4842   */\n    tag_256:\n        /* \"#utility.yul\":4793:4817   */\n      tag_325\n        /* \"#utility.yul\":4811:4816   */\n      dup2\n        /* \"#utility.yul\":4793:4817   */\n      tag_237\n      jump\t// in\n    tag_325:\n        /* \"#utility.yul\":4786:4791   */\n      dup2\n        /* \"#utility.yul\":4783:4818   */\n      eq\n        /* \"#utility.yul\":4773:4836   */\n      tag_326\n      jumpi\n        /* \"#utility.yul\":4832:4833   */\n      0x00\n        /* \"#utility.yul\":4829:4830   */\n      dup1\n        /* \"#utility.yul\":4822:4834   */\n      revert\n        /* \"#utility.yul\":4773:4836   */\n    tag_326:\n        /* \"#utility.yul\":4720:4842   */\n      pop\n      jump\t// out\n        /* \"#utility.yul\":4848:4987   */\n    tag_257:\n        /* \"#utility.yul\":4894:4899   */\n      0x00\n        /* \"#utility.yul\":4932:4938   */\n      dup2\n        /* \"#utility.yul\":4919:4939   */\n      calldataload\n        /* \"#utility.yul\":4910:4939   */\n      swap1\n      pop\n        /* \"#utility.yul\":4948:4981   */\n      tag_328\n        /* \"#utility.yul\":4975:4980   */\n      dup2\n        /* \"#utility.yul\":4948:4981   */\n      tag_256\n      jump\t// in\n    tag_328:\n        /* \"#utility.yul\":4848:4987   */\n      swap3\n      swap2\n      pop\n      pop\n      jump\t// out\n        /* \"#utility.yul\":4993:5322   */\n    tag_50:\n        /* \"#utility.yul\":5052:5058   */\n      0x00\n        /* \"#utility.yul\":5101:5103   */\n      0x20\n        /* \"#utility.yul\":5089:5098   */\n      dup3\n        /* \"#utility.yul\":5080:5087   */\n      dup5\n        /* \"#utility.yul\":5076:5099   */\n      sub\n        /* \"#utility.yul\":5072:5104   */\n      slt\n        /* \"#utility.yul\":5069:5188   */\n      iszero\n      tag_330\n      jumpi\n        /* \"#utility.yul\":5107:5186   */\n      tag_331\n      tag_249\n      jump\t// in\n    tag_331:\n        /* \"#utility.yul\":5069:5188   */\n    tag_330:\n        /* \"#utility.yul\":5227:5228   */\n      0x00\n        /* \"#utility.yul\":5252:5305   */\n      tag_332\n        /* \"#utility.yul\":5297:5304   */\n      dup5\n        /* \"#utility.yul\":5288:5294   */\n      dup3\n        /* \"#utility.yul\":5277:5286   */\n      dup6\n        /* \"#utility.yul\":5273:5295   */\n      add\n        /* \"#utility.yul\":5252:5305   */\n      tag_257\n      jump\t// in\n    tag_332:\n        /* \"#utility.yul\":5242:5305   */\n      swap2\n      pop\n        /* \"#utility.yul\":5198:5315   */\n      pop\n        /* \"#utility.yul\":4993:5322   */\n      swap3\n      swap2\n      pop\n      pop\n      jump\t// out\n        /* \"#utility.yul\":5328:5418   */\n    tag_258:\n        /* \"#utility.yul\":5362:5369   */\n      0x00\n        /* \"#utility.yul\":5405:5410   */\n      dup2\n        /* \"#utility.yul\":5398:5411   */\n      iszero\n        /* \"#utility.yul\":5391:5412   */\n      iszero\n        /* \"#utility.yul\":5380:5412   */\n      swap1\n      pop\n        /* \"#utility.yul\":5328:5418   */\n      swap2\n      swap1\n      pop\n      jump\t// out\n        /* \"#utility.yul\":5424:5533   */\n    tag_259:\n        /* \"#utility.yul\":5505:5526   */\n      tag_335\n        /* \"#utility.yul\":5520:5525   */\n      dup2\n        /* \"#utility.yul\":5505:5526   */\n      tag_258\n      jump\t// in\n    tag_335:\n        /* \"#utility.yul\":5500:5503   */\n      dup3\n        /* \"#utility.yul\":5493:5527   */\n      mstore\n        /* \"#utility.yul\":5424:5533   */\n      pop\n      pop\n      jump\t// out\n        /* \"#utility.yul\":5539:5749   */\n    tag_53:\n        /* \"#utility.yul\":5626:5630   */\n      0x00\n        /* \"#utility.yul\":5664:5666   */\n      0x20\n        /* \"#utility.yul\":5653:5662   */\n      dup3\n        /* \"#utility.yul\":5649:5667   */\n      add\n        /* \"#utility.yul\":5641:5667   */\n      swap1\n      pop\n        /* \"#utility.yul\":5677:5742   */\n      tag_337\n        /* \"#utility.yul\":5739:5740   */\n      0x00\n        /* \"#utility.yul\":5728:5737   */\n      dup4\n        /* \"#utility.yul\":5724:5741   */\n      add\n        /* \"#utility.yul\":5715:5721   */\n      dup5\n        /* \"#utility.yul\":5677:5742   */\n      tag_259\n      jump\t// in\n    tag_337:\n        /* \"#utility.yul\":5539:5749   */\n      swap3\n      swap2\n      pop\n      pop\n      jump\t// out\n        /* \"#utility.yul\":5755:5853   */\n    tag_260:\n        /* \"#utility.yul\":5806:5812   */\n      0x00\n        /* \"#utility.yul\":5840:5845   */\n      dup2\n        /* \"#utility.yul\":5834:5846   */\n      mload\n        /* \"#utility.yul\":5824:5846   */\n      swap1\n      pop\n        /* \"#utility.yul\":5755:5853   */\n      swap2\n      swap1\n      pop\n      jump\t// out\n        /* \"#utility.yul\":5859:6006   */\n    tag_261:\n        /* \"#utility.yul\":5960:5971   */\n      0x00\n        /* \"#utility.yul\":5997:6000   */\n      dup2\n        /* \"#utility.yul\":5982:6000   */\n      swap1\n      pop\n        /* \"#utility.yul\":5859:6006   */\n      swap3\n      swap2\n      pop\n      pop\n      jump\t// out\n        /* \"#utility.yul\":6012:6258   */\n    tag_262:\n        /* \"#utility.yul\":6093:6094   */\n      0x00\n        /* \"#utility.yul\":6103:6216   */\n    tag_341:\n        /* \"#utility.yul\":6117:6123   */\n      dup4\n        /* \"#utility.yul\":6114:6115   */\n      dup2\n        /* \"#utility.yul\":6111:6124   */\n      lt\n        /* \"#utility.yul\":6103:6216   */\n      iszero\n      tag_343\n      jumpi\n        /* \"#utility.yul\":6202:6203   */\n      dup1\n        /* \"#utility.yul\":6197:6200   */\n      dup3\n        /* \"#utility.yul\":6193:6204   */\n      add\n        /* \"#utility.yul\":6187:6205   */\n      mload\n        /* \"#utility.yul\":6183:6184   */\n      dup2\n        /* \"#utility.yul\":6178:6181   */\n      dup5\n        /* \"#utility.yul\":6174:6185   */\n      add\n        /* \"#utility.yul\":6167:6206   */\n      mstore\n        /* \"#utility.yul\":6139:6141   */\n      0x20\n        /* \"#utility.yul\":6136:6137   */\n      dup2\n        /* \"#utility.yul\":6132:6142   */\n      add\n        /* \"#utility.yul\":6127:6142   */\n      swap1\n      pop\n        /* \"#utility.yul\":6103:6216   */\n      jump(tag_341)\n    tag_343:\n        /* \"#utility.yul\":6250:6251   */\n      0x00\n        /* \"#utility.yul\":6241:6247   */\n      dup5\n        /* \"#utility.yul\":6236:6239   */\n      dup5\n        /* \"#utility.yul\":6232:6248   */\n      add\n        /* \"#utility.yul\":6225:6252   */\n      mstore\n        /* \"#utility.yul\":6074:6258   */\n      pop\n        /* \"#utility.yul\":6012:6258   */\n      pop\n      pop\n      pop\n      jump\t// out\n        /* \"#utility.yul\":6264:6650   */\n    tag_263:\n        /* \"#utility.yul\":6368:6371   */\n      0x00\n        /* \"#utility.yul\":6396:6434   */\n      tag_345\n        /* \"#utility.yul\":6428:6433   */\n      dup3\n        /* \"#utility.yul\":6396:6434   */\n      tag_260\n      jump\t// in\n    tag_345:\n        /* \"#utility.yul\":6450:6538   */\n      tag_346\n        /* \"#utility.yul\":6531:6537   */\n      dup2\n        /* \"#utility.yul\":6526:6529   */\n      dup6\n        /* \"#utility.yul\":6450:6538   */\n      tag_261\n      jump\t// in\n    tag_346:\n        /* \"#utility.yul\":6443:6538   */\n      swap4\n      pop\n        /* \"#utility.yul\":6547:6612   */\n      tag_347\n        /* \"#utility.yul\":6605:6611   */\n      dup2\n        /* \"#utility.yul\":6600:6603   */\n      dup6\n        /* \"#utility.yul\":6593:6597   */\n      0x20\n        /* \"#utility.yul\":6586:6591   */\n      dup7\n        /* \"#utility.yul\":6582:6598   */\n      add\n        /* \"#utility.yul\":6547:6612   */\n      tag_262\n      jump\t// in\n    tag_347:\n        /* \"#utility.yul\":6637:6643   */\n      dup1\n        /* \"#utility.yul\":6632:6635   */\n      dup5\n        /* \"#utility.yul\":6628:6644   */\n      add\n        /* \"#utility.yul\":6621:6644   */\n      swap2\n      pop\n        /* \"#utility.yul\":6372:6650   */\n      pop\n        /* \"#utility.yul\":6264:6650   */\n      swap3\n      swap2\n      pop\n      pop\n      jump\t// out\n        /* \"#utility.yul\":6656:7083   */\n    tag_99:\n        /* \"#utility.yul\":6832:6835   */\n      0x00\n        /* \"#utility.yul\":6854:6947   */\n      tag_349\n        /* \"#utility.yul\":6943:6946   */\n      dup3\n        /* \"#utility.yul\":6934:6940   */\n      dup6\n        /* \"#utility.yul\":6854:6947   */\n      tag_263\n      jump\t// in\n    tag_349:\n        /* \"#utility.yul\":6847:6947   */\n      swap2\n      pop\n        /* \"#utility.yul\":6964:7057   */\n      tag_350\n        /* \"#utility.yul\":7053:7056   */\n      dup3\n        /* \"#utility.yul\":7044:7050   */\n      dup5\n        /* \"#utility.yul\":6964:7057   */\n      tag_263\n      jump\t// in\n    tag_350:\n        /* \"#utility.yul\":6957:7057   */\n      swap2\n      pop\n        /* \"#utility.yul\":7074:7077   */\n      dup2\n        /* \"#utility.yul\":7067:7077   */\n      swap1\n      pop\n        /* \"#utility.yul\":6656:7083   */\n      swap4\n      swap3\n      pop\n      pop\n      pop\n      jump\t// out\n        /* \"#utility.yul\":7089:7360   */\n    tag_101:\n        /* \"#utility.yul\":7219:7222   */\n      0x00\n        /* \"#utility.yul\":7241:7334   */\n      tag_352\n        /* \"#utility.yul\":7330:7333   */\n      dup3\n        /* \"#utility.yul\":7321:7327   */\n      dup5\n        /* \"#utility.yul\":7241:7334   */\n      tag_263\n      jump\t// in\n    tag_352:\n        /* \"#utility.yul\":7234:7334   */\n      swap2\n      pop\n        /* \"#utility.yul\":7351:7354   */\n      dup2\n        /* \"#utility.yul\":7344:7354   */\n      swap1\n      pop\n        /* \"#utility.yul\":7089:7360   */\n      swap3\n      swap2\n      pop\n      pop\n      jump\t// out\n        /* \"#utility.yul\":7366:7509   */\n    tag_264:\n        /* \"#utility.yul\":7423:7428   */\n      0x00\n        /* \"#utility.yul\":7454:7460   */\n      dup2\n        /* \"#utility.yul\":7448:7461   */\n      mload\n        /* \"#utility.yul\":7439:7461   */\n      swap1\n      pop\n        /* \"#utility.yul\":7470:7503   */\n      tag_354\n        /* \"#utility.yul\":7497:7502   */\n      dup2\n        /* \"#utility.yul\":7470:7503   */\n      tag_256\n      jump\t// in\n    tag_354:\n        /* \"#utility.yul\":7366:7509   */\n      swap3\n      swap2\n      pop\n      pop\n      jump\t// out\n        /* \"#utility.yul\":7515:7866   */\n    tag_105:\n        /* \"#utility.yul\":7585:7591   */\n      0x00\n        /* \"#utility.yul\":7634:7636   */\n      0x20\n        /* \"#utility.yul\":7622:7631   */\n      dup3\n        /* \"#utility.yul\":7613:7620   */\n      dup5\n        /* \"#utility.yul\":7609:7632   */\n      sub\n        /* \"#utility.yul\":7605:7637   */\n      slt\n        /* \"#utility.yul\":7602:7721   */\n      iszero\n      tag_356\n      jumpi\n        /* \"#utility.yul\":7640:7719   */\n      tag_357\n      tag_249\n      jump\t// in\n    tag_357:\n        /* \"#utility.yul\":7602:7721   */\n    tag_356:\n        /* \"#utility.yul\":7760:7761   */\n      0x00\n        /* \"#utility.yul\":7785:7849   */\n      tag_358\n        /* \"#utility.yul\":7841:7848   */\n      dup5\n        /* \"#utility.yul\":7832:7838   */\n      dup3\n        /* \"#utility.yul\":7821:7830   */\n      dup6\n        /* \"#utility.yul\":7817:7839   */\n      add\n        /* \"#utility.yul\":7785:7849   */\n      tag_264\n      jump\t// in\n    tag_358:\n        /* \"#utility.yul\":7775:7849   */\n      swap2\n      pop\n        /* \"#utility.yul\":7731:7859   */\n      pop\n        /* \"#utility.yul\":7515:7866   */\n      swap3\n      swap2\n      pop\n      pop\n      jump\t// out\n        /* \"#utility.yul\":7872:8052   */\n    tag_201:\n        /* \"#utility.yul\":7920:7997   */\n      0x4e487b7100000000000000000000000000000000000000000000000000000000\n        /* \"#utility.yul\":7917:7918   */\n      0x00\n        /* \"#utility.yul\":7910:7998   */\n      mstore\n        /* \"#utility.yul\":8017:8021   */\n      0x41\n        /* \"#utility.yul\":8014:8015   */\n      0x04\n        /* \"#utility.yul\":8007:8022   */\n      mstore\n        /* \"#utility.yul\":8041:8045   */\n      0x24\n        /* \"#utility.yul\":8038:8039   */\n      0x00\n        /* \"#utility.yul\":8031:8046   */\n      revert\n        /* \"#utility.yul\":8058:8238   */\n    tag_207:\n        /* \"#utility.yul\":8106:8183   */\n      0x4e487b7100000000000000000000000000000000000000000000000000000000\n        /* \"#utility.yul\":8103:8104   */\n      0x00\n        /* \"#utility.yul\":8096:8184   */\n      mstore\n        /* \"#utility.yul\":8203:8207   */\n      0x12\n        /* \"#utility.yul\":8200:8201   */\n      0x04\n        /* \"#utility.yul\":8193:8208   */\n      mstore\n        /* \"#utility.yul\":8227:8231   */\n      0x24\n        /* \"#utility.yul\":8224:8225   */\n      0x00\n        /* \"#utility.yul\":8217:8232   */\n      revert\n\n    auxdata: 0xa264697066735822122095431a7a3997110d98fedfd0a51995761d37b1c1f208fc0f7fd9491fcc66bea164736f6c63430008110033\n}\n",
				"bytecode": {
					"linkReferences": {},
					"object": "60806040523480156200001157600080fd5b5060008060016101000a81548173ffffffffffffffffffffffffffffffffffffffff021916908373ffffffffffffffffffffffffffffffffffffffff1602179055506000600160006101000a81548173ffffffffffffffffffffffffffffffffffffffff021916908373ffffffffffffffffffffffffffffffffffffffff160217905550620000a76000620000ad60201b60201c565b620001bf565b806000806101000a81548160ff02191690836002811115620000d457620000d362000122565b5b02179055507fa6dcc92f45df25789d5639b7a0c97ba1edf3bb1c0b5dd3376fd96a0db87c464260008054906101000a900460ff16604051620001179190620001a2565b60405180910390a150565b7f4e487b7100000000000000000000000000000000000000000000000000000000600052602160045260246000fd5b6003811062000165576200016462000122565b5b50565b6000819050620001788262000151565b919050565b60006200018a8262000168565b9050919050565b6200019c816200017d565b82525050565b6000602082019050620001b9600083018462000191565b92915050565b61192a80620001cf6000396000f3fe608060405234801561001057600080fd5b50600436106100b45760003560e01c80638690fd71116100715780638690fd7114610159578063ab4a6be114610177578063c08092ae14610193578063cefdbc84146101af578063d30895e4146101df578063dfbf53ae146101fd576100b4565b8063055ad42e146100b957806309bd5a60146100d7578063443bd1d0146100f557806359a5f12d146101135780637685ef8e146101315780637d03f5f31461014f575b600080fd5b6100c161021b565b6040516100ce9190611531565b60405180910390f35b6100df61022c565b6040516100ec9190611565565b60405180910390f35b6100fd610232565b60405161010a9190611599565b60405180910390f35b61011b610507565b60405161012891906115f5565b60405180910390f35b61013961052d565b6040516101469190611658565b60405180910390f35b610157610540565b005b6101616106d3565b60405161016e9190611658565b60405180910390f35b610191600480360381019061018c91906116d9565b6106e6565b005b6101ad60048036038101906101a891906116d9565b610f2c565b005b6101c960048036038101906101c49190611745565b610fcf565b6040516101d6919061178d565b60405180910390f35b6101e76111dd565b6040516101f491906115f5565b60405180910390f35b610205611203565b60405161021291906115f5565b60405180910390f35b60008054906101000a900460ff1681565b60065481565b60008060019054906101000a900473ffffffffffffffffffffffffffffffffffffffff1673ffffffffffffffffffffffffffffffffffffffff163373ffffffffffffffffffffffffffffffffffffffff16141580156102df5750600160009054906101000a900473ffffffffffffffffffffffffffffffffffffffff1673ffffffffffffffffffffffffffffffffffffffff163373ffffffffffffffffffffffffffffffffffffffff1614155b6102e857600080fd5b600060028111156102fc576102fb6114ba565b5b60008054906101000a900460ff16600281111561031c5761031b6114ba565b5b1461032657600080fd5b600073ffffffffffffffffffffffffffffffffffffffff16600060019054906101000a900473ffffffffffffffffffffffffffffffffffffffff1673ffffffffffffffffffffffffffffffffffffffff16036103fd577f603c5a81e8c5fe4832eec08a9ee50af4e484ca6d44db349bdd246858540aee9e336040516103ab91906115f5565b60405180910390a133600060016101000a81548173ffffffffffffffffffffffffffffffffffffffff021916908373ffffffffffffffffffffffffffffffffffffffff16021790555060019050610504565b600073ffffffffffffffffffffffffffffffffffffffff16600160009054906101000a900473ffffffffffffffffffffffffffffffffffffffff1673ffffffffffffffffffffffffffffffffffffffff16036104ff5733600160006101000a81548173ffffffffffffffffffffffffffffffffffffffff021916908373ffffffffffffffffffffffffffffffffffffffff16021790555060016000806101000a81548160ff021916908360028111156104b9576104b86114ba565b5b02179055507fa6dcc92f45df25789d5639b7a0c97ba1edf3bb1c0b5dd3376fd96a0db87c464260016040516104ee9190611531565b60405180910390a160029050610504565b600090505b90565b600160009054906101000a900473ffffffffffffffffffffffffffffffffffffffff1681565b600560019054906101000a900460ff1681565b6000600260006101000a81548173ffffffffffffffffffffffffffffffffffffffff021916908373ffffffffffffffffffffffffffffffffffffffff16021790555060008060016101000a81548173ffffffffffffffffffffffffffffffffffffffff021916908373ffffffffffffffffffffffffffffffffffffffff1602179055506000600160006101000a81548173ffffffffffffffffffffffffffffffffffffffff021916908373ffffffffffffffffffffffffffffffffffffffff1602179055506000801b6003819055506000801b6004819055506000600560006101000a81548160ff0219169083600381111561063f5761063e6114ba565b5b02179055506000600560016101000a81548160ff0219169083600381111561066a576106696114ba565b5b021790555060008060006101000a81548160ff02191690836002811115610694576106936114ba565b5b02179055507fa6dcc92f45df25789d5639b7a0c97ba1edf3bb1c0b5dd3376fd96a0db87c464260006040516106c99190611531565b60405180910390a1565b600560009054906101000a900460ff1681565b600060019054906101000a900473ffffffffffffffffffffffffffffffffffffffff1673ffffffffffffffffffffffffffffffffffffffff163373ffffffffffffffffffffffffffffffffffffffff16148061078f5750600160009054906101000a900473ffffffffffffffffffffffffffffffffffffffff1673ffffffffffffffffffffffffffffffffffffffff163373ffffffffffffffffffffffffffffffffffffffff16145b61079857600080fd5b6002808111156107ab576107aa6114ba565b5b60008054906101000a900460ff1660028111156107cb576107ca6114ba565b5b146107d557600080fd5b600060026107f48460038111156107ef576107ee6114ba565b5b611229565b6108038463ffffffff16611229565b604051602001610814929190611819565b604051602081830303815290604052604051610830919061183d565b602060405180830381855afa15801561084d573d6000803e3d6000fd5b5050506040513d601f19601f820116820180604052508101906108709190611869565b905060006003811115610886576108856114ba565b5b836003811115610899576108986114ba565b5b036108a45750610f28565b600060019054906101000a900473ffffffffffffffffffffffffffffffffffffffff1673ffffffffffffffffffffffffffffffffffffffff163373ffffffffffffffffffffffffffffffffffffffff16148015610902575060035481145b156109365782600560006101000a81548160ff0219169083600381111561092c5761092b6114ba565b5b02179055506109cf565b600160009054906101000a900473ffffffffffffffffffffffffffffffffffffffff1673ffffffffffffffffffffffffffffffffffffffff163373ffffffffffffffffffffffffffffffffffffffff16148015610994575060045481145b156109c85782600560016101000a81548160ff021916908360038111156109be576109bd6114ba565b5b02179055506109ce565b50610f28565b5b600060038111156109e3576109e26114ba565b5b600560009054906101000a900460ff166003811115610a0557610a046114ba565b5b14158015610a47575060006003811115610a2257610a216114ba565b5b600560019054906101000a900460ff166003811115610a4457610a436114ba565b5b14155b15610f2657600560019054906101000a900460ff166003811115610a6e57610a6d6114ba565b5b600560009054906101000a900460ff166003811115610a9057610a8f6114ba565b5b03610b36576000600260006101000a81548173ffffffffffffffffffffffffffffffffffffffff021916908373ffffffffffffffffffffffffffffffffffffffff1602179055507f1728dd43546edd06fabfe796e5b641a151aa90998bfd1b1ec0ae98c6e7708459600260009054906101000a900473ffffffffffffffffffffffffffffffffffffffff16604051610b2891906115f5565b60405180910390a150610f28565b60016003811115610b4a57610b496114ba565b5b600560009054906101000a900460ff166003811115610b6c57610b6b6114ba565b5b03610c7d5760026003811115610b8557610b846114ba565b5b600560019054906101000a900460ff166003811115610ba757610ba66114ba565b5b03610c1457600160009054906101000a900473ffffffffffffffffffffffffffffffffffffffff16600260006101000a81548173ffffffffffffffffffffffffffffffffffffffff021916908373ffffffffffffffffffffffffffffffffffffffff160217905550610c78565b600060019054906101000a900473ffffffffffffffffffffffffffffffffffffffff16600260006101000a81548173ffffffffffffffffffffffffffffffffffffffff021916908373ffffffffffffffffffffffffffffffffffffffff1602179055505b610ecc565b60026003811115610c9157610c906114ba565b5b600560009054906101000a900460ff166003811115610cb357610cb26114ba565b5b03610dc357600380811115610ccb57610cca6114ba565b5b600560019054906101000a900460ff166003811115610ced57610cec6114ba565b5b03610d5a57600160009054906101000a900473ffffffffffffffffffffffffffffffffffffffff16600260006101000a81548173ffffffffffffffffffffffffffffffffffffffff021916908373ffffffffffffffffffffffffffffffffffffffff160217905550610dbe565b600060019054906101000a900473ffffffffffffffffffffffffffffffffffffffff16600260006101000a81548173ffffffffffffffffffffffffffffffffffffffff021916908373ffffffffffffffffffffffffffffffffffffffff1602179055505b610ecb565b60016003811115610dd757610dd66114ba565b5b600560019054906101000a900460ff166003811115610df957610df86114ba565b5b03610e6657600160009054906101000a900473ffffffffffffffffffffffffffffffffffffffff16600260006101000a81548173ffffffffffffffffffffffffffffffffffffffff021916908373ffffffffffffffffffffffffffffffffffffffff160217905550610eca565b600060019054906101000a900473ffffffffffffffffffffffffffffffffffffffff16600260006101000a81548173ffffffffffffffffffffffffffffffffffffffff021916908373ffffffffffffffffffffffffffffffffffffffff1602179055505b5b5b7f1728dd43546edd06fabfe796e5b641a151aa90998bfd1b1ec0ae98c6e7708459600260009054906101000a900473ffffffffffffffffffffffffffffffffffffffff16604051610f1d91906115f5565b60405180910390a15b505b5050565b6002610f49836003811115610f4457610f436114ba565b5b611229565b610f588363ffffffff16611229565b604051602001610f69929190611819565b604051602081830303815290604052604051610f85919061183d565b602060405180830381855afa158015610fa2573d6000803e3d6000fd5b5050506040513d601f19601f82011682018060405250810190610fc59190611869565b6006819055505050565b60008060019054906101000a900473ffffffffffffffffffffffffffffffffffffffff1673ffffffffffffffffffffffffffffffffffffffff163373ffffffffffffffffffffffffffffffffffffffff1614806110795750600160009054906101000a900473ffffffffffffffffffffffffffffffffffffffff1673ffffffffffffffffffffffffffffffffffffffff163373ffffffffffffffffffffffffffffffffffffffff16145b61108257600080fd5b60016002811115611096576110956114ba565b5b60008054906101000a900460ff1660028111156110b6576110b56114ba565b5b146110c057600080fd5b600060019054906101000a900473ffffffffffffffffffffffffffffffffffffffff1673ffffffffffffffffffffffffffffffffffffffff163373ffffffffffffffffffffffffffffffffffffffff1614801561112157506000801b600354145b1561113257816003819055506111a1565b600160009054906101000a900473ffffffffffffffffffffffffffffffffffffffff1673ffffffffffffffffffffffffffffffffffffffff163373ffffffffffffffffffffffffffffffffffffffff1614801561119357506000801b600454145b156111a057816004819055505b5b6000801b600354141580156111bb57506000801b60045414155b156111d3576111ca60026112f7565b600190506111d8565b600090505b919050565b600060019054906101000a900473ffffffffffffffffffffffffffffffffffffffff1681565b600260009054906101000a900473ffffffffffffffffffffffffffffffffffffffff1681565b60606000600161123884611367565b01905060008167ffffffffffffffff81111561125757611256611896565b5b6040519080825280601f01601f1916602001820160405280156112895781602001600182028036833780820191505090505b509050600082602001820190505b6001156112ec578080600190039150507f3031323334353637383961626364656600000000000000000000000000000000600a86061a8153600a85816112e0576112df6118c5565b5b04945060008503611297575b819350505050919050565b806000806101000a81548160ff0219169083600281111561131b5761131a6114ba565b5b02179055507fa6dcc92f45df25789d5639b7a0c97ba1edf3bb1c0b5dd3376fd96a0db87c464260008054906101000a900460ff1660405161135c9190611531565b60405180910390a150565b600080600090507a184f03e93ff9f4daa797ed6e38ed64bf6a1f01000000000000000083106113c5577a184f03e93ff9f4daa797ed6e38ed64bf6a1f01000000000000000083816113bb576113ba6118c5565b5b0492506040810190505b6d04ee2d6d415b85acef81000000008310611402576d04ee2d6d415b85acef810000000083816113f8576113f76118c5565b5b0492506020810190505b662386f26fc10000831061143157662386f26fc100008381611427576114266118c5565b5b0492506010810190505b6305f5e100831061145a576305f5e10083816114505761144f6118c5565b5b0492506008810190505b612710831061147f576127108381611475576114746118c5565b5b0492506004810190505b606483106114a25760648381611498576114976118c5565b5b0492506002810190505b600a83106114b1576001810190505b80915050919050565b7f4e487b7100000000000000000000000000000000000000000000000000000000600052602160045260246000fd5b600381106114fa576114f96114ba565b5b50565b600081905061150b826114e9565b919050565b600061151b826114fd565b9050919050565b61152b81611510565b82525050565b60006020820190506115466000830184611522565b92915050565b6000819050919050565b61155f8161154c565b82525050565b600060208201905061157a6000830184611556565b92915050565b6000819050919050565b61159381611580565b82525050565b60006020820190506115ae600083018461158a565b92915050565b600073ffffffffffffffffffffffffffffffffffffffff82169050919050565b60006115df826115b4565b9050919050565b6115ef816115d4565b82525050565b600060208201905061160a60008301846115e6565b92915050565b60048110611621576116206114ba565b5b50565b600081905061163282611610565b919050565b600061164282611624565b9050919050565b61165281611637565b82525050565b600060208201905061166d6000830184611649565b92915050565b600080fd5b6004811061168557600080fd5b50565b60008135905061169781611678565b92915050565b600063ffffffff82169050919050565b6116b68161169d565b81146116c157600080fd5b50565b6000813590506116d3816116ad565b92915050565b600080604083850312156116f0576116ef611673565b5b60006116fe85828601611688565b925050602061170f858286016116c4565b9150509250929050565b6117228161154c565b811461172d57600080fd5b50565b60008135905061173f81611719565b92915050565b60006020828403121561175b5761175a611673565b5b600061176984828501611730565b91505092915050565b60008115159050919050565b61178781611772565b82525050565b60006020820190506117a2600083018461177e565b92915050565b600081519050919050565b600081905092915050565b60005b838110156117dc5780820151818401526020810190506117c1565b60008484015250505050565b60006117f3826117a8565b6117fd81856117b3565b935061180d8185602086016117be565b80840191505092915050565b600061182582856117e8565b915061183182846117e8565b91508190509392505050565b600061184982846117e8565b915081905092915050565b60008151905061186381611719565b92915050565b60006020828403121561187f5761187e611673565b5b600061188d84828501611854565b91505092915050565b7f4e487b7100000000000000000000000000000000000000000000000000000000600052604160045260246000fd5b7f4e487b7100000000000000000000000000000000000000000000000000000000600052601260045260246000fdfea264697066735822122095431a7a3997110d98fedfd0a51995761d37b1c1f208fc0f7fd9491fcc66bea164736f6c63430008110033",
					"opcodes": "PUSH1 0x80 PUSH1 0x40 MSTORE CALLVALUE DUP1 ISZERO PUSH3 0x11 JUMPI PUSH1 0x0 DUP1 REVERT JUMPDEST POP PUSH1 0x0 DUP1 PUSH1 0x1 PUSH2 0x100 EXP DUP2 SLOAD DUP2 PUSH20 0xFFFFFFFFFFFFFFFFFFFFFFFFFFFFFFFFFFFFFFFF MUL NOT AND SWAP1 DUP4 PUSH20 0xFFFFFFFFFFFFFFFFFFFFFFFFFFFFFFFFFFFFFFFF AND MUL OR SWAP1 SSTORE POP PUSH1 0x0 PUSH1 0x1 PUSH1 0x0 PUSH2 0x100 EXP DUP2 SLOAD DUP2 PUSH20 0xFFFFFFFFFFFFFFFFFFFFFFFFFFFFFFFFFFFFFFFF MUL NOT AND SWAP1 DUP4 PUSH20 0xFFFFFFFFFFFFFFFFFFFFFFFFFFFFFFFFFFFFFFFF AND MUL OR SWAP1 SSTORE POP PUSH3 0xA7 PUSH1 0x0 PUSH3 0xAD PUSH1 0x20 SHL PUSH1 0x20 SHR JUMP JUMPDEST PUSH3 0x1BF JUMP JUMPDEST DUP1 PUSH1 0x0 DUP1 PUSH2 0x100 EXP DUP2 SLOAD DUP2 PUSH1 0xFF MUL NOT AND SWAP1 DUP4 PUSH1 0x2 DUP2 GT ISZERO PUSH3 0xD4 JUMPI PUSH3 0xD3 PUSH3 0x122 JUMP JUMPDEST JUMPDEST MUL OR SWAP1 SSTORE POP PUSH32 0xA6DCC92F45DF25789D5639B7A0C97BA1EDF3BB1C0B5DD3376FD96A0DB87C4642 PUSH1 0x0 DUP1 SLOAD SWAP1 PUSH2 0x100 EXP SWAP1 DIV PUSH1 0xFF AND PUSH1 0x40 MLOAD PUSH3 0x117 SWAP2 SWAP1 PUSH3 0x1A2 JUMP JUMPDEST PUSH1 0x40 MLOAD DUP1 SWAP2 SUB SWAP1 LOG1 POP JUMP JUMPDEST PUSH32 0x4E487B7100000000000000000000000000000000000000000000000000000000 PUSH1 0x0 MSTORE PUSH1 0x21 PUSH1 0x4 MSTORE PUSH1 0x24 PUSH1 0x0 REVERT JUMPDEST PUSH1 0x3 DUP2 LT PUSH3 0x165 JUMPI PUSH3 0x164 PUSH3 0x122 JUMP JUMPDEST JUMPDEST POP JUMP JUMPDEST PUSH1 0x0 DUP2 SWAP1 POP PUSH3 0x178 DUP3 PUSH3 0x151 JUMP JUMPDEST SWAP2 SWAP1 POP JUMP JUMPDEST PUSH1 0x0 PUSH3 0x18A DUP3 PUSH3 0x168 JUMP JUMPDEST SWAP1 POP SWAP2 SWAP1 POP JUMP JUMPDEST PUSH3 0x19C DUP2 PUSH3 0x17D JUMP JUMPDEST DUP3 MSTORE POP POP JUMP JUMPDEST PUSH1 0x0 PUSH1 0x20 DUP3 ADD SWAP1 POP PUSH3 0x1B9 PUSH1 0x0 DUP4 ADD DUP5 PUSH3 0x191 JUMP JUMPDEST SWAP3 SWAP2 POP POP JUMP JUMPDEST PUSH2 0x192A DUP1 PUSH3 0x1CF PUSH1 0x0 CODECOPY PUSH1 0x0 RETURN INVALID PUSH1 0x80 PUSH1 0x40 MSTORE CALLVALUE DUP1 ISZERO PUSH2 0x10 JUMPI PUSH1 0x0 DUP1 REVERT JUMPDEST POP PUSH1 0x4 CALLDATASIZE LT PUSH2 0xB4 JUMPI PUSH1 0x0 CALLDATALOAD PUSH1 0xE0 SHR DUP1 PUSH4 0x8690FD71 GT PUSH2 0x71 JUMPI DUP1 PUSH4 0x8690FD71 EQ PUSH2 0x159 JUMPI DUP1 PUSH4 0xAB4A6BE1 EQ PUSH2 0x177 JUMPI DUP1 PUSH4 0xC08092AE EQ PUSH2 0x193 JUMPI DUP1 PUSH4 0xCEFDBC84 EQ PUSH2 0x1AF JUMPI DUP1 PUSH4 0xD30895E4 EQ PUSH2 0x1DF JUMPI DUP1 PUSH4 0xDFBF53AE EQ PUSH2 0x1FD JUMPI PUSH2 0xB4 JUMP JUMPDEST DUP1 PUSH4 0x55AD42E EQ PUSH2 0xB9 JUMPI DUP1 PUSH4 0x9BD5A60 EQ PUSH2 0xD7 JUMPI DUP1 PUSH4 0x443BD1D0 EQ PUSH2 0xF5 JUMPI DUP1 PUSH4 0x59A5F12D EQ PUSH2 0x113 JUMPI DUP1 PUSH4 0x7685EF8E EQ PUSH2 0x131 JUMPI DUP1 PUSH4 0x7D03F5F3 EQ PUSH2 0x14F JUMPI JUMPDEST PUSH1 0x0 DUP1 REVERT JUMPDEST PUSH2 0xC1 PUSH2 0x21B JUMP JUMPDEST PUSH1 0x40 MLOAD PUSH2 0xCE SWAP2 SWAP1 PUSH2 0x1531 JUMP JUMPDEST PUSH1 0x40 MLOAD DUP1 SWAP2 SUB SWAP1 RETURN JUMPDEST PUSH2 0xDF PUSH2 0x22C JUMP JUMPDEST PUSH1 0x40 MLOAD PUSH2 0xEC SWAP2 SWAP1 PUSH2 0x1565 JUMP JUMPDEST PUSH1 0x40 MLOAD DUP1 SWAP2 SUB SWAP1 RETURN JUMPDEST PUSH2 0xFD PUSH2 0x232 JUMP JUMPDEST PUSH1 0x40 MLOAD PUSH2 0x10A SWAP2 SWAP1 PUSH2 0x1599 JUMP JUMPDEST PUSH1 0x40 MLOAD DUP1 SWAP2 SUB SWAP1 RETURN JUMPDEST PUSH2 0x11B PUSH2 0x507 JUMP JUMPDEST PUSH1 0x40 MLOAD PUSH2 0x128 SWAP2 SWAP1 PUSH2 0x15F5 JUMP JUMPDEST PUSH1 0x40 MLOAD DUP1 SWAP2 SUB SWAP1 RETURN JUMPDEST PUSH2 0x139 PUSH2 0x52D JUMP JUMPDEST PUSH1 0x40 MLOAD PUSH2 0x146 SWAP2 SWAP1 PUSH2 0x1658 JUMP JUMPDEST PUSH1 0x40 MLOAD DUP1 SWAP2 SUB SWAP1 RETURN JUMPDEST PUSH2 0x157 PUSH2 0x540 JUMP JUMPDEST STOP JUMPDEST PUSH2 0x161 PUSH2 0x6D3 JUMP JUMPDEST PUSH1 0x40 MLOAD PUSH2 0x16E SWAP2 SWAP1 PUSH2 0x1658 JUMP JUMPDEST PUSH1 0x40 MLOAD DUP1 SWAP2 SUB SWAP1 RETURN JUMPDEST PUSH2 0x191 PUSH1 0x4 DUP1 CALLDATASIZE SUB DUP2 ADD SWAP1 PUSH2 0x18C SWAP2 SWAP1 PUSH2 0x16D9 JUMP JUMPDEST PUSH2 0x6E6 JUMP JUMPDEST STOP JUMPDEST PUSH2 0x1AD PUSH1 0x4 DUP1 CALLDATASIZE SUB DUP2 ADD SWAP1 PUSH2 0x1A8 SWAP2 SWAP1 PUSH2 0x16D9 JUMP JUMPDEST PUSH2 0xF2C JUMP JUMPDEST STOP JUMPDEST PUSH2 0x1C9 PUSH1 0x4 DUP1 CALLDATASIZE SUB DUP2 ADD SWAP1 PUSH2 0x1C4 SWAP2 SWAP1 PUSH2 0x1745 JUMP JUMPDEST PUSH2 0xFCF JUMP JUMPDEST PUSH1 0x40 MLOAD PUSH2 0x1D6 SWAP2 SWAP1 PUSH2 0x178D JUMP JUMPDEST PUSH1 0x40 MLOAD DUP1 SWAP2 SUB SWAP1 RETURN JUMPDEST PUSH2 0x1E7 PUSH2 0x11DD JUMP JUMPDEST PUSH1 0x40 MLOAD PUSH2 0x1F4 SWAP2 SWAP1 PUSH2 0x15F5 JUMP JUMPDEST PUSH1 0x40 MLOAD DUP1 SWAP2 SUB SWAP1 RETURN JUMPDEST PUSH2 0x205 PUSH2 0x1203 JUMP JUMPDEST PUSH1 0x40 MLOAD PUSH2 0x212 SWAP2 SWAP1 PUSH2 0x15F5 JUMP JUMPDEST PUSH1 0x40 MLOAD DUP1 SWAP2 SUB SWAP1 RETURN JUMPDEST PUSH1 0x0 DUP1 SLOAD SWAP1 PUSH2 0x100 EXP SWAP1 DIV PUSH1 0xFF AND DUP2 JUMP JUMPDEST PUSH1 0x6 SLOAD DUP2 JUMP JUMPDEST PUSH1 0x0 DUP1 PUSH1 0x1 SWAP1 SLOAD SWAP1 PUSH2 0x100 EXP SWAP1 DIV PUSH20 0xFFFFFFFFFFFFFFFFFFFFFFFFFFFFFFFFFFFFFFFF AND PUSH20 0xFFFFFFFFFFFFFFFFFFFFFFFFFFFFFFFFFFFFFFFF AND CALLER PUSH20 0xFFFFFFFFFFFFFFFFFFFFFFFFFFFFFFFFFFFFFFFF AND EQ ISZERO DUP1 ISZERO PUSH2 0x2DF JUMPI POP PUSH1 0x1 PUSH1 0x0 SWAP1 SLOAD SWAP1 PUSH2 0x100 EXP SWAP1 DIV PUSH20 0xFFFFFFFFFFFFFFFFFFFFFFFFFFFFFFFFFFFFFFFF AND PUSH20 0xFFFFFFFFFFFFFFFFFFFFFFFFFFFFFFFFFFFFFFFF AND CALLER PUSH20 0xFFFFFFFFFFFFFFFFFFFFFFFFFFFFFFFFFFFFFFFF AND EQ ISZERO JUMPDEST PUSH2 0x2E8 JUMPI PUSH1 0x0 DUP1 REVERT JUMPDEST PUSH1 0x0 PUSH1 0x2 DUP2 GT ISZERO PUSH2 0x2FC JUMPI PUSH2 0x2FB PUSH2 0x14BA JUMP JUMPDEST JUMPDEST PUSH1 0x0 DUP1 SLOAD SWAP1 PUSH2 0x100 EXP SWAP1 DIV PUSH1 0xFF AND PUSH1 0x2 DUP2 GT ISZERO PUSH2 0x31C JUMPI PUSH2 0x31B PUSH2 0x14BA JUMP JUMPDEST JUMPDEST EQ PUSH2 0x326 JUMPI PUSH1 0x0 DUP1 REVERT JUMPDEST PUSH1 0x0 PUSH20 0xFFFFFFFFFFFFFFFFFFFFFFFFFFFFFFFFFFFFFFFF AND PUSH1 0x0 PUSH1 0x1 SWAP1 SLOAD SWAP1 PUSH2 0x100 EXP SWAP1 DIV PUSH20 0xFFFFFFFFFFFFFFFFFFFFFFFFFFFFFFFFFFFFFFFF AND PUSH20 0xFFFFFFFFFFFFFFFFFFFFFFFFFFFFFFFFFFFFFFFF AND SUB PUSH2 0x3FD JUMPI PUSH32 0x603C5A81E8C5FE4832EEC08A9EE50AF4E484CA6D44DB349BDD246858540AEE9E CALLER PUSH1 0x40 MLOAD PUSH2 0x3AB SWAP2 SWAP1 PUSH2 0x15F5 JUMP JUMPDEST PUSH1 0x40 MLOAD DUP1 SWAP2 SUB SWAP1 LOG1 CALLER PUSH1 0x0 PUSH1 0x1 PUSH2 0x100 EXP DUP2 SLOAD DUP2 PUSH20 0xFFFFFFFFFFFFFFFFFFFFFFFFFFFFFFFFFFFFFFFF MUL NOT AND SWAP1 DUP4 PUSH20 0xFFFFFFFFFFFFFFFFFFFFFFFFFFFFFFFFFFFFFFFF AND MUL OR SWAP1 SSTORE POP PUSH1 0x1 SWAP1 POP PUSH2 0x504 JUMP JUMPDEST PUSH1 0x0 PUSH20 0xFFFFFFFFFFFFFFFFFFFFFFFFFFFFFFFFFFFFFFFF AND PUSH1 0x1 PUSH1 0x0 SWAP1 SLOAD SWAP1 PUSH2 0x100 EXP SWAP1 DIV PUSH20 0xFFFFFFFFFFFFFFFFFFFFFFFFFFFFFFFFFFFFFFFF AND PUSH20 0xFFFFFFFFFFFFFFFFFFFFFFFFFFFFFFFFFFFFFFFF AND SUB PUSH2 0x4FF JUMPI CALLER PUSH1 0x1 PUSH1 0x0 PUSH2 0x100 EXP DUP2 SLOAD DUP2 PUSH20 0xFFFFFFFFFFFFFFFFFFFFFFFFFFFFFFFFFFFFFFFF MUL NOT AND SWAP1 DUP4 PUSH20 0xFFFFFFFFFFFFFFFFFFFFFFFFFFFFFFFFFFFFFFFF AND MUL OR SWAP1 SSTORE POP PUSH1 0x1 PUSH1 0x0 DUP1 PUSH2 0x100 EXP DUP2 SLOAD DUP2 PUSH1 0xFF MUL NOT AND SWAP1 DUP4 PUSH1 0x2 DUP2 GT ISZERO PUSH2 0x4B9 JUMPI PUSH2 0x4B8 PUSH2 0x14BA JUMP JUMPDEST JUMPDEST MUL OR SWAP1 SSTORE POP PUSH32 0xA6DCC92F45DF25789D5639B7A0C97BA1EDF3BB1C0B5DD3376FD96A0DB87C4642 PUSH1 0x1 PUSH1 0x40 MLOAD PUSH2 0x4EE SWAP2 SWAP1 PUSH2 0x1531 JUMP JUMPDEST PUSH1 0x40 MLOAD DUP1 SWAP2 SUB SWAP1 LOG1 PUSH1 0x2 SWAP1 POP PUSH2 0x504 JUMP JUMPDEST PUSH1 0x0 SWAP1 POP JUMPDEST SWAP1 JUMP JUMPDEST PUSH1 0x1 PUSH1 0x0 SWAP1 SLOAD SWAP1 PUSH2 0x100 EXP SWAP1 DIV PUSH20 0xFFFFFFFFFFFFFFFFFFFFFFFFFFFFFFFFFFFFFFFF AND DUP2 JUMP JUMPDEST PUSH1 0x5 PUSH1 0x1 SWAP1 SLOAD SWAP1 PUSH2 0x100 EXP SWAP1 DIV PUSH1 0xFF AND DUP2 JUMP JUMPDEST PUSH1 0x0 PUSH1 0x2 PUSH1 0x0 PUSH2 0x100 EXP DUP2 SLOAD DUP2 PUSH20 0xFFFFFFFFFFFFFFFFFFFFFFFFFFFFFFFFFFFFFFFF MUL NOT AND SWAP1 DUP4 PUSH20 0xFFFFFFFFFFFFFFFFFFFFFFFFFFFFFFFFFFFFFFFF AND MUL OR SWAP1 SSTORE POP PUSH1 0x0 DUP1 PUSH1 0x1 PUSH2 0x100 EXP DUP2 SLOAD DUP2 PUSH20 0xFFFFFFFFFFFFFFFFFFFFFFFFFFFFFFFFFFFFFFFF MUL NOT AND SWAP1 DUP4 PUSH20 0xFFFFFFFFFFFFFFFFFFFFFFFFFFFFFFFFFFFFFFFF AND MUL OR SWAP1 SSTORE POP PUSH1 0x0 PUSH1 0x1 PUSH1 0x0 PUSH2 0x100 EXP DUP2 SLOAD DUP2 PUSH20 0xFFFFFFFFFFFFFFFFFFFFFFFFFFFFFFFFFFFFFFFF MUL NOT AND SWAP1 DUP4 PUSH20 0xFFFFFFFFFFFFFFFFFFFFFFFFFFFFFFFFFFFFFFFF AND MUL OR SWAP1 SSTORE POP PUSH1 0x0 DUP1 SHL PUSH1 0x3 DUP2 SWAP1 SSTORE POP PUSH1 0x0 DUP1 SHL PUSH1 0x4 DUP2 SWAP1 SSTORE POP PUSH1 0x0 PUSH1 0x5 PUSH1 0x0 PUSH2 0x100 EXP DUP2 SLOAD DUP2 PUSH1 0xFF MUL NOT AND SWAP1 DUP4 PUSH1 0x3 DUP2 GT ISZERO PUSH2 0x63F JUMPI PUSH2 0x63E PUSH2 0x14BA JUMP JUMPDEST JUMPDEST MUL OR SWAP1 SSTORE POP PUSH1 0x0 PUSH1 0x5 PUSH1 0x1 PUSH2 0x100 EXP DUP2 SLOAD DUP2 PUSH1 0xFF MUL NOT AND SWAP1 DUP4 PUSH1 0x3 DUP2 GT ISZERO PUSH2 0x66A JUMPI PUSH2 0x669 PUSH2 0x14BA JUMP JUMPDEST JUMPDEST MUL OR SWAP1 SSTORE POP PUSH1 0x0 DUP1 PUSH1 0x0 PUSH2 0x100 EXP DUP2 SLOAD DUP2 PUSH1 0xFF MUL NOT AND SWAP1 DUP4 PUSH1 0x2 DUP2 GT ISZERO PUSH2 0x694 JUMPI PUSH2 0x693 PUSH2 0x14BA JUMP JUMPDEST JUMPDEST MUL OR SWAP1 SSTORE POP PUSH32 0xA6DCC92F45DF25789D5639B7A0C97BA1EDF3BB1C0B5DD3376FD96A0DB87C4642 PUSH1 0x0 PUSH1 0x40 MLOAD PUSH2 0x6C9 SWAP2 SWAP1 PUSH2 0x1531 JUMP JUMPDEST PUSH1 0x40 MLOAD DUP1 SWAP2 SUB SWAP1 LOG1 JUMP JUMPDEST PUSH1 0x5 PUSH1 0x0 SWAP1 SLOAD SWAP1 PUSH2 0x100 EXP SWAP1 DIV PUSH1 0xFF AND DUP2 JUMP JUMPDEST PUSH1 0x0 PUSH1 0x1 SWAP1 SLOAD SWAP1 PUSH2 0x100 EXP SWAP1 DIV PUSH20 0xFFFFFFFFFFFFFFFFFFFFFFFFFFFFFFFFFFFFFFFF AND PUSH20 0xFFFFFFFFFFFFFFFFFFFFFFFFFFFFFFFFFFFFFFFF AND CALLER PUSH20 0xFFFFFFFFFFFFFFFFFFFFFFFFFFFFFFFFFFFFFFFF AND EQ DUP1 PUSH2 0x78F JUMPI POP PUSH1 0x1 PUSH1 0x0 SWAP1 SLOAD SWAP1 PUSH2 0x100 EXP SWAP1 DIV PUSH20 0xFFFFFFFFFFFFFFFFFFFFFFFFFFFFFFFFFFFFFFFF AND PUSH20 0xFFFFFFFFFFFFFFFFFFFFFFFFFFFFFFFFFFFFFFFF AND CALLER PUSH20 0xFFFFFFFFFFFFFFFFFFFFFFFFFFFFFFFFFFFFFFFF AND EQ JUMPDEST PUSH2 0x798 JUMPI PUSH1 0x0 DUP1 REVERT JUMPDEST PUSH1 0x2 DUP1 DUP2 GT ISZERO PUSH2 0x7AB JUMPI PUSH2 0x7AA PUSH2 0x14BA JUMP JUMPDEST JUMPDEST PUSH1 0x0 DUP1 SLOAD SWAP1 PUSH2 0x100 EXP SWAP1 DIV PUSH1 0xFF AND PUSH1 0x2 DUP2 GT ISZERO PUSH2 0x7CB JUMPI PUSH2 0x7CA PUSH2 0x14BA JUMP JUMPDEST JUMPDEST EQ PUSH2 0x7D5 JUMPI PUSH1 0x0 DUP1 REVERT JUMPDEST PUSH1 0x0 PUSH1 0x2 PUSH2 0x7F4 DUP5 PUSH1 0x3 DUP2 GT ISZERO PUSH2 0x7EF JUMPI PUSH2 0x7EE PUSH2 0x14BA JUMP JUMPDEST JUMPDEST PUSH2 0x1229 JUMP JUMPDEST PUSH2 0x803 DUP5 PUSH4 0xFFFFFFFF AND PUSH2 0x1229 JUMP JUMPDEST PUSH1 0x40 MLOAD PUSH1 0x20 ADD PUSH2 0x814 SWAP3 SWAP2 SWAP1 PUSH2 0x1819 JUMP JUMPDEST PUSH1 0x40 MLOAD PUSH1 0x20 DUP2 DUP4 SUB SUB DUP2 MSTORE SWAP1 PUSH1 0x40 MSTORE PUSH1 0x40 MLOAD PUSH2 0x830 SWAP2 SWAP1 PUSH2 0x183D JUMP JUMPDEST PUSH1 0x20 PUSH1 0x40 MLOAD DUP1 DUP4 SUB DUP2 DUP6 GAS STATICCALL ISZERO DUP1 ISZERO PUSH2 0x84D JUMPI RETURNDATASIZE PUSH1 0x0 DUP1 RETURNDATACOPY RETURNDATASIZE PUSH1 0x0 REVERT JUMPDEST POP POP POP PUSH1 0x40 MLOAD RETURNDATASIZE PUSH1 0x1F NOT PUSH1 0x1F DUP3 ADD AND DUP3 ADD DUP1 PUSH1 0x40 MSTORE POP DUP2 ADD SWAP1 PUSH2 0x870 SWAP2 SWAP1 PUSH2 0x1869 JUMP JUMPDEST SWAP1 POP PUSH1 0x0 PUSH1 0x3 DUP2 GT ISZERO PUSH2 0x886 JUMPI PUSH2 0x885 PUSH2 0x14BA JUMP JUMPDEST JUMPDEST DUP4 PUSH1 0x3 DUP2 GT ISZERO PUSH2 0x899 JUMPI PUSH2 0x898 PUSH2 0x14BA JUMP JUMPDEST JUMPDEST SUB PUSH2 0x8A4 JUMPI POP PUSH2 0xF28 JUMP JUMPDEST PUSH1 0x0 PUSH1 0x1 SWAP1 SLOAD SWAP1 PUSH2 0x100 EXP SWAP1 DIV PUSH20 0xFFFFFFFFFFFFFFFFFFFFFFFFFFFFFFFFFFFFFFFF AND PUSH20 0xFFFFFFFFFFFFFFFFFFFFFFFFFFFFFFFFFFFFFFFF AND CALLER PUSH20 0xFFFFFFFFFFFFFFFFFFFFFFFFFFFFFFFFFFFFFFFF AND EQ DUP1 ISZERO PUSH2 0x902 JUMPI POP PUSH1 0x3 SLOAD DUP2 EQ JUMPDEST ISZERO PUSH2 0x936 JUMPI DUP3 PUSH1 0x5 PUSH1 0x0 PUSH2 0x100 EXP DUP2 SLOAD DUP2 PUSH1 0xFF MUL NOT AND SWAP1 DUP4 PUSH1 0x3 DUP2 GT ISZERO PUSH2 0x92C JUMPI PUSH2 0x92B PUSH2 0x14BA JUMP JUMPDEST JUMPDEST MUL OR SWAP1 SSTORE POP PUSH2 0x9CF JUMP JUMPDEST PUSH1 0x1 PUSH1 0x0 SWAP1 SLOAD SWAP1 PUSH2 0x100 EXP SWAP1 DIV PUSH20 0xFFFFFFFFFFFFFFFFFFFFFFFFFFFFFFFFFFFFFFFF AND PUSH20 0xFFFFFFFFFFFFFFFFFFFFFFFFFFFFFFFFFFFFFFFF AND CALLER PUSH20 0xFFFFFFFFFFFFFFFFFFFFFFFFFFFFFFFFFFFFFFFF AND EQ DUP1 ISZERO PUSH2 0x994 JUMPI POP PUSH1 0x4 SLOAD DUP2 EQ JUMPDEST ISZERO PUSH2 0x9C8 JUMPI DUP3 PUSH1 0x5 PUSH1 0x1 PUSH2 0x100 EXP DUP2 SLOAD DUP2 PUSH1 0xFF MUL NOT AND SWAP1 DUP4 PUSH1 0x3 DUP2 GT ISZERO PUSH2 0x9BE JUMPI PUSH2 0x9BD PUSH2 0x14BA JUMP JUMPDEST JUMPDEST MUL OR SWAP1 SSTORE POP PUSH2 0x9CE JUMP JUMPDEST POP PUSH2 0xF28 JUMP JUMPDEST JUMPDEST PUSH1 0x0 PUSH1 0x3 DUP2 GT ISZERO PUSH2 0x9E3 JUMPI PUSH2 0x9E2 PUSH2 0x14BA JUMP JUMPDEST JUMPDEST PUSH1 0x5 PUSH1 0x0 SWAP1 SLOAD SWAP1 PUSH2 0x100 EXP SWAP1 DIV PUSH1 0xFF AND PUSH1 0x3 DUP2 GT ISZERO PUSH2 0xA05 JUMPI PUSH2 0xA04 PUSH2 0x14BA JUMP JUMPDEST JUMPDEST EQ ISZERO DUP1 ISZERO PUSH2 0xA47 JUMPI POP PUSH1 0x0 PUSH1 0x3 DUP2 GT ISZERO PUSH2 0xA22 JUMPI PUSH2 0xA21 PUSH2 0x14BA JUMP JUMPDEST JUMPDEST PUSH1 0x5 PUSH1 0x1 SWAP1 SLOAD SWAP1 PUSH2 0x100 EXP SWAP1 DIV PUSH1 0xFF AND PUSH1 0x3 DUP2 GT ISZERO PUSH2 0xA44 JUMPI PUSH2 0xA43 PUSH2 0x14BA JUMP JUMPDEST JUMPDEST EQ ISZERO JUMPDEST ISZERO PUSH2 0xF26 JUMPI PUSH1 0x5 PUSH1 0x1 SWAP1 SLOAD SWAP1 PUSH2 0x100 EXP SWAP1 DIV PUSH1 0xFF AND PUSH1 0x3 DUP2 GT ISZERO PUSH2 0xA6E JUMPI PUSH2 0xA6D PUSH2 0x14BA JUMP JUMPDEST JUMPDEST PUSH1 0x5 PUSH1 0x0 SWAP1 SLOAD SWAP1 PUSH2 0x100 EXP SWAP1 DIV PUSH1 0xFF AND PUSH1 0x3 DUP2 GT ISZERO PUSH2 0xA90 JUMPI PUSH2 0xA8F PUSH2 0x14BA JUMP JUMPDEST JUMPDEST SUB PUSH2 0xB36 JUMPI PUSH1 0x0 PUSH1 0x2 PUSH1 0x0 PUSH2 0x100 EXP DUP2 SLOAD DUP2 PUSH20 0xFFFFFFFFFFFFFFFFFFFFFFFFFFFFFFFFFFFFFFFF MUL NOT AND SWAP1 DUP4 PUSH20 0xFFFFFFFFFFFFFFFFFFFFFFFFFFFFFFFFFFFFFFFF AND MUL OR SWAP1 SSTORE POP PUSH32 0x1728DD43546EDD06FABFE796E5B641A151AA90998BFD1B1EC0AE98C6E7708459 PUSH1 0x2 PUSH1 0x0 SWAP1 SLOAD SWAP1 PUSH2 0x100 EXP SWAP1 DIV PUSH20 0xFFFFFFFFFFFFFFFFFFFFFFFFFFFFFFFFFFFFFFFF AND PUSH1 0x40 MLOAD PUSH2 0xB28 SWAP2 SWAP1 PUSH2 0x15F5 JUMP JUMPDEST PUSH1 0x40 MLOAD DUP1 SWAP2 SUB SWAP1 LOG1 POP PUSH2 0xF28 JUMP JUMPDEST PUSH1 0x1 PUSH1 0x3 DUP2 GT ISZERO PUSH2 0xB4A JUMPI PUSH2 0xB49 PUSH2 0x14BA JUMP JUMPDEST JUMPDEST PUSH1 0x5 PUSH1 0x0 SWAP1 SLOAD SWAP1 PUSH2 0x100 EXP SWAP1 DIV PUSH1 0xFF AND PUSH1 0x3 DUP2 GT ISZERO PUSH2 0xB6C JUMPI PUSH2 0xB6B PUSH2 0x14BA JUMP JUMPDEST JUMPDEST SUB PUSH2 0xC7D JUMPI PUSH1 0x2 PUSH1 0x3 DUP2 GT ISZERO PUSH2 0xB85 JUMPI PUSH2 0xB84 PUSH2 0x14BA JUMP JUMPDEST JUMPDEST PUSH1 0x5 PUSH1 0x1 SWAP1 SLOAD SWAP1 PUSH2 0x100 EXP SWAP1 DIV PUSH1 0xFF AND PUSH1 0x3 DUP2 GT ISZERO PUSH2 0xBA7 JUMPI PUSH2 0xBA6 PUSH2 0x14BA JUMP JUMPDEST JUMPDEST SUB PUSH2 0xC14 JUMPI PUSH1 0x1 PUSH1 0x0 SWAP1 SLOAD SWAP1 PUSH2 0x100 EXP SWAP1 DIV PUSH20 0xFFFFFFFFFFFFFFFFFFFFFFFFFFFFFFFFFFFFFFFF AND PUSH1 0x2 PUSH1 0x0 PUSH2 0x100 EXP DUP2 SLOAD DUP2 PUSH20 0xFFFFFFFFFFFFFFFFFFFFFFFFFFFFFFFFFFFFFFFF MUL NOT AND SWAP1 DUP4 PUSH20 0xFFFFFFFFFFFFFFFFFFFFFFFFFFFFFFFFFFFFFFFF AND MUL OR SWAP1 SSTORE POP PUSH2 0xC78 JUMP JUMPDEST PUSH1 0x0 PUSH1 0x1 SWAP1 SLOAD SWAP1 PUSH2 0x100 EXP SWAP1 DIV PUSH20 0xFFFFFFFFFFFFFFFFFFFFFFFFFFFFFFFFFFFFFFFF AND PUSH1 0x2 PUSH1 0x0 PUSH2 0x100 EXP DUP2 SLOAD DUP2 PUSH20 0xFFFFFFFFFFFFFFFFFFFFFFFFFFFFFFFFFFFFFFFF MUL NOT AND SWAP1 DUP4 PUSH20 0xFFFFFFFFFFFFFFFFFFFFFFFFFFFFFFFFFFFFFFFF AND MUL OR SWAP1 SSTORE POP JUMPDEST PUSH2 0xECC JUMP JUMPDEST PUSH1 0x2 PUSH1 0x3 DUP2 GT ISZERO PUSH2 0xC91 JUMPI PUSH2 0xC90 PUSH2 0x14BA JUMP JUMPDEST JUMPDEST PUSH1 0x5 PUSH1 0x0 SWAP1 SLOAD SWAP1 PUSH2 0x100 EXP SWAP1 DIV PUSH1 0xFF AND PUSH1 0x3 DUP2 GT ISZERO PUSH2 0xCB3 JUMPI PUSH2 0xCB2 PUSH2 0x14BA JUMP JUMPDEST JUMPDEST SUB PUSH2 0xDC3 JUMPI PUSH1 0x3 DUP1 DUP2 GT ISZERO PUSH2 0xCCB JUMPI PUSH2 0xCCA PUSH2 0x14BA JUMP JUMPDEST JUMPDEST PUSH1 0x5 PUSH1 0x1 SWAP1 SLOAD SWAP1 PUSH2 0x100 EXP SWAP1 DIV PUSH1 0xFF AND PUSH1 0x3 DUP2 GT ISZERO PUSH2 0xCED JUMPI PUSH2 0xCEC PUSH2 0x14BA JUMP JUMPDEST JUMPDEST SUB PUSH2 0xD5A JUMPI PUSH1 0x1 PUSH1 0x0 SWAP1 SLOAD SWAP1 PUSH2 0x100 EXP SWAP1 DIV PUSH20 0xFFFFFFFFFFFFFFFFFFFFFFFFFFFFFFFFFFFFFFFF AND PUSH1 0x2 PUSH1 0x0 PUSH2 0x100 EXP DUP2 SLOAD DUP2 PUSH20 0xFFFFFFFFFFFFFFFFFFFFFFFFFFFFFFFFFFFFFFFF MUL NOT AND SWAP1 DUP4 PUSH20 0xFFFFFFFFFFFFFFFFFFFFFFFFFFFFFFFFFFFFFFFF AND MUL OR SWAP1 SSTORE POP PUSH2 0xDBE JUMP JUMPDEST PUSH1 0x0 PUSH1 0x1 SWAP1 SLOAD SWAP1 PUSH2 0x100 EXP SWAP1 DIV PUSH20 0xFFFFFFFFFFFFFFFFFFFFFFFFFFFFFFFFFFFFFFFF AND PUSH1 0x2 PUSH1 0x0 PUSH2 0x100 EXP DUP2 SLOAD DUP2 PUSH20 0xFFFFFFFFFFFFFFFFFFFFFFFFFFFFFFFFFFFFFFFF MUL NOT AND SWAP1 DUP4 PUSH20 0xFFFFFFFFFFFFFFFFFFFFFFFFFFFFFFFFFFFFFFFF AND MUL OR SWAP1 SSTORE POP JUMPDEST PUSH2 0xECB JUMP JUMPDEST PUSH1 0x1 PUSH1 0x3 DUP2 GT ISZERO PUSH2 0xDD7 JUMPI PUSH2 0xDD6 PUSH2 0x14BA JUMP JUMPDEST JUMPDEST PUSH1 0x5 PUSH1 0x1 SWAP1 SLOAD SWAP1 PUSH2 0x100 EXP SWAP1 DIV PUSH1 0xFF AND PUSH1 0x3 DUP2 GT ISZERO PUSH2 0xDF9 JUMPI PUSH2 0xDF8 PUSH2 0x14BA JUMP JUMPDEST JUMPDEST SUB PUSH2 0xE66 JUMPI PUSH1 0x1 PUSH1 0x0 SWAP1 SLOAD SWAP1 PUSH2 0x100 EXP SWAP1 DIV PUSH20 0xFFFFFFFFFFFFFFFFFFFFFFFFFFFFFFFFFFFFFFFF AND PUSH1 0x2 PUSH1 0x0 PUSH2 0x100 EXP DUP2 SLOAD DUP2 PUSH20 0xFFFFFFFFFFFFFFFFFFFFFFFFFFFFFFFFFFFFFFFF MUL NOT AND SWAP1 DUP4 PUSH20 0xFFFFFFFFFFFFFFFFFFFFFFFFFFFFFFFFFFFFFFFF AND MUL OR SWAP1 SSTORE POP PUSH2 0xECA JUMP JUMPDEST PUSH1 0x0 PUSH1 0x1 SWAP1 SLOAD SWAP1 PUSH2 0x100 EXP SWAP1 DIV PUSH20 0xFFFFFFFFFFFFFFFFFFFFFFFFFFFFFFFFFFFFFFFF AND PUSH1 0x2 PUSH1 0x0 PUSH2 0x100 EXP DUP2 SLOAD DUP2 PUSH20 0xFFFFFFFFFFFFFFFFFFFFFFFFFFFFFFFFFFFFFFFF MUL NOT AND SWAP1 DUP4 PUSH20 0xFFFFFFFFFFFFFFFFFFFFFFFFFFFFFFFFFFFFFFFF AND MUL OR SWAP1 SSTORE POP JUMPDEST JUMPDEST JUMPDEST PUSH32 0x1728DD43546EDD06FABFE796E5B641A151AA90998BFD1B1EC0AE98C6E7708459 PUSH1 0x2 PUSH1 0x0 SWAP1 SLOAD SWAP1 PUSH2 0x100 EXP SWAP1 DIV PUSH20 0xFFFFFFFFFFFFFFFFFFFFFFFFFFFFFFFFFFFFFFFF AND PUSH1 0x40 MLOAD PUSH2 0xF1D SWAP2 SWAP1 PUSH2 0x15F5 JUMP JUMPDEST PUSH1 0x40 MLOAD DUP1 SWAP2 SUB SWAP1 LOG1 JUMPDEST POP JUMPDEST POP POP JUMP JUMPDEST PUSH1 0x2 PUSH2 0xF49 DUP4 PUSH1 0x3 DUP2 GT ISZERO PUSH2 0xF44 JUMPI PUSH2 0xF43 PUSH2 0x14BA JUMP JUMPDEST JUMPDEST PUSH2 0x1229 JUMP JUMPDEST PUSH2 0xF58 DUP4 PUSH4 0xFFFFFFFF AND PUSH2 0x1229 JUMP JUMPDEST PUSH1 0x40 MLOAD PUSH1 0x20 ADD PUSH2 0xF69 SWAP3 SWAP2 SWAP1 PUSH2 0x1819 JUMP JUMPDEST PUSH1 0x40 MLOAD PUSH1 0x20 DUP2 DUP4 SUB SUB DUP2 MSTORE SWAP1 PUSH1 0x40 MSTORE PUSH1 0x40 MLOAD PUSH2 0xF85 SWAP2 SWAP1 PUSH2 0x183D JUMP JUMPDEST PUSH1 0x20 PUSH1 0x40 MLOAD DUP1 DUP4 SUB DUP2 DUP6 GAS STATICCALL ISZERO DUP1 ISZERO PUSH2 0xFA2 JUMPI RETURNDATASIZE PUSH1 0x0 DUP1 RETURNDATACOPY RETURNDATASIZE PUSH1 0x0 REVERT JUMPDEST POP POP POP PUSH1 0x40 MLOAD RETURNDATASIZE PUSH1 0x1F NOT PUSH1 0x1F DUP3 ADD AND DUP3 ADD DUP1 PUSH1 0x40 MSTORE POP DUP2 ADD SWAP1 PUSH2 0xFC5 SWAP2 SWAP1 PUSH2 0x1869 JUMP JUMPDEST PUSH1 0x6 DUP2 SWAP1 SSTORE POP POP POP JUMP JUMPDEST PUSH1 0x0 DUP1 PUSH1 0x1 SWAP1 SLOAD SWAP1 PUSH2 0x100 EXP SWAP1 DIV PUSH20 0xFFFFFFFFFFFFFFFFFFFFFFFFFFFFFFFFFFFFFFFF AND PUSH20 0xFFFFFFFFFFFFFFFFFFFFFFFFFFFFFFFFFFFFFFFF AND CALLER PUSH20 0xFFFFFFFFFFFFFFFFFFFFFFFFFFFFFFFFFFFFFFFF AND EQ DUP1 PUSH2 0x1079 JUMPI POP PUSH1 0x1 PUSH1 0x0 SWAP1 SLOAD SWAP1 PUSH2 0x100 EXP SWAP1 DIV PUSH20 0xFFFFFFFFFFFFFFFFFFFFFFFFFFFFFFFFFFFFFFFF AND PUSH20 0xFFFFFFFFFFFFFFFFFFFFFFFFFFFFFFFFFFFFFFFF AND CALLER PUSH20 0xFFFFFFFFFFFFFFFFFFFFFFFFFFFFFFFFFFFFFFFF AND EQ JUMPDEST PUSH2 0x1082 JUMPI PUSH1 0x0 DUP1 REVERT JUMPDEST PUSH1 0x1 PUSH1 0x2 DUP2 GT ISZERO PUSH2 0x1096 JUMPI PUSH2 0x1095 PUSH2 0x14BA JUMP JUMPDEST JUMPDEST PUSH1 0x0 DUP1 SLOAD SWAP1 PUSH2 0x100 EXP SWAP1 DIV PUSH1 0xFF AND PUSH1 0x2 DUP2 GT ISZERO PUSH2 0x10B6 JUMPI PUSH2 0x10B5 PUSH2 0x14BA JUMP JUMPDEST JUMPDEST EQ PUSH2 0x10C0 JUMPI PUSH1 0x0 DUP1 REVERT JUMPDEST PUSH1 0x0 PUSH1 0x1 SWAP1 SLOAD SWAP1 PUSH2 0x100 EXP SWAP1 DIV PUSH20 0xFFFFFFFFFFFFFFFFFFFFFFFFFFFFFFFFFFFFFFFF AND PUSH20 0xFFFFFFFFFFFFFFFFFFFFFFFFFFFFFFFFFFFFFFFF AND CALLER PUSH20 0xFFFFFFFFFFFFFFFFFFFFFFFFFFFFFFFFFFFFFFFF AND EQ DUP1 ISZERO PUSH2 0x1121 JUMPI POP PUSH1 0x0 DUP1 SHL PUSH1 0x3 SLOAD EQ JUMPDEST ISZERO PUSH2 0x1132 JUMPI DUP2 PUSH1 0x3 DUP2 SWAP1 SSTORE POP PUSH2 0x11A1 JUMP JUMPDEST PUSH1 0x1 PUSH1 0x0 SWAP1 SLOAD SWAP1 PUSH2 0x100 EXP SWAP1 DIV PUSH20 0xFFFFFFFFFFFFFFFFFFFFFFFFFFFFFFFFFFFFFFFF AND PUSH20 0xFFFFFFFFFFFFFFFFFFFFFFFFFFFFFFFFFFFFFFFF AND CALLER PUSH20 0xFFFFFFFFFFFFFFFFFFFFFFFFFFFFFFFFFFFFFFFF AND EQ DUP1 ISZERO PUSH2 0x1193 JUMPI POP PUSH1 0x0 DUP1 SHL PUSH1 0x4 SLOAD EQ JUMPDEST ISZERO PUSH2 0x11A0 JUMPI DUP2 PUSH1 0x4 DUP2 SWAP1 SSTORE POP JUMPDEST JUMPDEST PUSH1 0x0 DUP1 SHL PUSH1 0x3 SLOAD EQ ISZERO DUP1 ISZERO PUSH2 0x11BB JUMPI POP PUSH1 0x0 DUP1 SHL PUSH1 0x4 SLOAD EQ ISZERO JUMPDEST ISZERO PUSH2 0x11D3 JUMPI PUSH2 0x11CA PUSH1 0x2 PUSH2 0x12F7 JUMP JUMPDEST PUSH1 0x1 SWAP1 POP PUSH2 0x11D8 JUMP JUMPDEST PUSH1 0x0 SWAP1 POP JUMPDEST SWAP2 SWAP1 POP JUMP JUMPDEST PUSH1 0x0 PUSH1 0x1 SWAP1 SLOAD SWAP1 PUSH2 0x100 EXP SWAP1 DIV PUSH20 0xFFFFFFFFFFFFFFFFFFFFFFFFFFFFFFFFFFFFFFFF AND DUP2 JUMP JUMPDEST PUSH1 0x2 PUSH1 0x0 SWAP1 SLOAD SWAP1 PUSH2 0x100 EXP SWAP1 DIV PUSH20 0xFFFFFFFFFFFFFFFFFFFFFFFFFFFFFFFFFFFFFFFF AND DUP2 JUMP JUMPDEST PUSH1 0x60 PUSH1 0x0 PUSH1 0x1 PUSH2 0x1238 DUP5 PUSH2 0x1367 JUMP JUMPDEST ADD SWAP1 POP PUSH1 0x0 DUP2 PUSH8 0xFFFFFFFFFFFFFFFF DUP2 GT ISZERO PUSH2 0x1257 JUMPI PUSH2 0x1256 PUSH2 0x1896 JUMP JUMPDEST JUMPDEST PUSH1 0x40 MLOAD SWAP1 DUP1 DUP3 MSTORE DUP1 PUSH1 0x1F ADD PUSH1 0x1F NOT AND PUSH1 0x20 ADD DUP3 ADD PUSH1 0x40 MSTORE DUP1 ISZERO PUSH2 0x1289 JUMPI DUP2 PUSH1 0x20 ADD PUSH1 0x1 DUP3 MUL DUP1 CALLDATASIZE DUP4 CALLDATACOPY DUP1 DUP3 ADD SWAP2 POP POP SWAP1 POP JUMPDEST POP SWAP1 POP PUSH1 0x0 DUP3 PUSH1 0x20 ADD DUP3 ADD SWAP1 POP JUMPDEST PUSH1 0x1 ISZERO PUSH2 0x12EC JUMPI DUP1 DUP1 PUSH1 0x1 SWAP1 SUB SWAP2 POP POP PUSH32 0x3031323334353637383961626364656600000000000000000000000000000000 PUSH1 0xA DUP7 MOD BYTE DUP2 MSTORE8 PUSH1 0xA DUP6 DUP2 PUSH2 0x12E0 JUMPI PUSH2 0x12DF PUSH2 0x18C5 JUMP JUMPDEST JUMPDEST DIV SWAP5 POP PUSH1 0x0 DUP6 SUB PUSH2 0x1297 JUMPI JUMPDEST DUP2 SWAP4 POP POP POP POP SWAP2 SWAP1 POP JUMP JUMPDEST DUP1 PUSH1 0x0 DUP1 PUSH2 0x100 EXP DUP2 SLOAD DUP2 PUSH1 0xFF MUL NOT AND SWAP1 DUP4 PUSH1 0x2 DUP2 GT ISZERO PUSH2 0x131B JUMPI PUSH2 0x131A PUSH2 0x14BA JUMP JUMPDEST JUMPDEST MUL OR SWAP1 SSTORE POP PUSH32 0xA6DCC92F45DF25789D5639B7A0C97BA1EDF3BB1C0B5DD3376FD96A0DB87C4642 PUSH1 0x0 DUP1 SLOAD SWAP1 PUSH2 0x100 EXP SWAP1 DIV PUSH1 0xFF AND PUSH1 0x40 MLOAD PUSH2 0x135C SWAP2 SWAP1 PUSH2 0x1531 JUMP JUMPDEST PUSH1 0x40 MLOAD DUP1 SWAP2 SUB SWAP1 LOG1 POP JUMP JUMPDEST PUSH1 0x0 DUP1 PUSH1 0x0 SWAP1 POP PUSH27 0x184F03E93FF9F4DAA797ED6E38ED64BF6A1F010000000000000000 DUP4 LT PUSH2 0x13C5 JUMPI PUSH27 0x184F03E93FF9F4DAA797ED6E38ED64BF6A1F010000000000000000 DUP4 DUP2 PUSH2 0x13BB JUMPI PUSH2 0x13BA PUSH2 0x18C5 JUMP JUMPDEST JUMPDEST DIV SWAP3 POP PUSH1 0x40 DUP2 ADD SWAP1 POP JUMPDEST PUSH14 0x4EE2D6D415B85ACEF8100000000 DUP4 LT PUSH2 0x1402 JUMPI PUSH14 0x4EE2D6D415B85ACEF8100000000 DUP4 DUP2 PUSH2 0x13F8 JUMPI PUSH2 0x13F7 PUSH2 0x18C5 JUMP JUMPDEST JUMPDEST DIV SWAP3 POP PUSH1 0x20 DUP2 ADD SWAP1 POP JUMPDEST PUSH7 0x2386F26FC10000 DUP4 LT PUSH2 0x1431 JUMPI PUSH7 0x2386F26FC10000 DUP4 DUP2 PUSH2 0x1427 JUMPI PUSH2 0x1426 PUSH2 0x18C5 JUMP JUMPDEST JUMPDEST DIV SWAP3 POP PUSH1 0x10 DUP2 ADD SWAP1 POP JUMPDEST PUSH4 0x5F5E100 DUP4 LT PUSH2 0x145A JUMPI PUSH4 0x5F5E100 DUP4 DUP2 PUSH2 0x1450 JUMPI PUSH2 0x144F PUSH2 0x18C5 JUMP JUMPDEST JUMPDEST DIV SWAP3 POP PUSH1 0x8 DUP2 ADD SWAP1 POP JUMPDEST PUSH2 0x2710 DUP4 LT PUSH2 0x147F JUMPI PUSH2 0x2710 DUP4 DUP2 PUSH2 0x1475 JUMPI PUSH2 0x1474 PUSH2 0x18C5 JUMP JUMPDEST JUMPDEST DIV SWAP3 POP PUSH1 0x4 DUP2 ADD SWAP1 POP JUMPDEST PUSH1 0x64 DUP4 LT PUSH2 0x14A2 JUMPI PUSH1 0x64 DUP4 DUP2 PUSH2 0x1498 JUMPI PUSH2 0x1497 PUSH2 0x18C5 JUMP JUMPDEST JUMPDEST DIV SWAP3 POP PUSH1 0x2 DUP2 ADD SWAP1 POP JUMPDEST PUSH1 0xA DUP4 LT PUSH2 0x14B1 JUMPI PUSH1 0x1 DUP2 ADD SWAP1 POP JUMPDEST DUP1 SWAP2 POP POP SWAP2 SWAP1 POP JUMP JUMPDEST PUSH32 0x4E487B7100000000000000000000000000000000000000000000000000000000 PUSH1 0x0 MSTORE PUSH1 0x21 PUSH1 0x4 MSTORE PUSH1 0x24 PUSH1 0x0 REVERT JUMPDEST PUSH1 0x3 DUP2 LT PUSH2 0x14FA JUMPI PUSH2 0x14F9 PUSH2 0x14BA JUMP JUMPDEST JUMPDEST POP JUMP JUMPDEST PUSH1 0x0 DUP2 SWAP1 POP PUSH2 0x150B DUP3 PUSH2 0x14E9 JUMP JUMPDEST SWAP2 SWAP1 POP JUMP JUMPDEST PUSH1 0x0 PUSH2 0x151B DUP3 PUSH2 0x14FD JUMP JUMPDEST SWAP1 POP SWAP2 SWAP1 POP JUMP JUMPDEST PUSH2 0x152B DUP2 PUSH2 0x1510 JUMP JUMPDEST DUP3 MSTORE POP POP JUMP JUMPDEST PUSH1 0x0 PUSH1 0x20 DUP3 ADD SWAP1 POP PUSH2 0x1546 PUSH1 0x0 DUP4 ADD DUP5 PUSH2 0x1522 JUMP JUMPDEST SWAP3 SWAP2 POP POP JUMP JUMPDEST PUSH1 0x0 DUP2 SWAP1 POP SWAP2 SWAP1 POP JUMP JUMPDEST PUSH2 0x155F DUP2 PUSH2 0x154C JUMP JUMPDEST DUP3 MSTORE POP POP JUMP JUMPDEST PUSH1 0x0 PUSH1 0x20 DUP3 ADD SWAP1 POP PUSH2 0x157A PUSH1 0x0 DUP4 ADD DUP5 PUSH2 0x1556 JUMP JUMPDEST SWAP3 SWAP2 POP POP JUMP JUMPDEST PUSH1 0x0 DUP2 SWAP1 POP SWAP2 SWAP1 POP JUMP JUMPDEST PUSH2 0x1593 DUP2 PUSH2 0x1580 JUMP JUMPDEST DUP3 MSTORE POP POP JUMP JUMPDEST PUSH1 0x0 PUSH1 0x20 DUP3 ADD SWAP1 POP PUSH2 0x15AE PUSH1 0x0 DUP4 ADD DUP5 PUSH2 0x158A JUMP JUMPDEST SWAP3 SWAP2 POP POP JUMP JUMPDEST PUSH1 0x0 PUSH20 0xFFFFFFFFFFFFFFFFFFFFFFFFFFFFFFFFFFFFFFFF DUP3 AND SWAP1 POP SWAP2 SWAP1 POP JUMP JUMPDEST PUSH1 0x0 PUSH2 0x15DF DUP3 PUSH2 0x15B4 JUMP JUMPDEST SWAP1 POP SWAP2 SWAP1 POP JUMP JUMPDEST PUSH2 0x15EF DUP2 PUSH2 0x15D4 JUMP JUMPDEST DUP3 MSTORE POP POP JUMP JUMPDEST PUSH1 0x0 PUSH1 0x20 DUP3 ADD SWAP1 POP PUSH2 0x160A PUSH1 0x0 DUP4 ADD DUP5 PUSH2 0x15E6 JUMP JUMPDEST SWAP3 SWAP2 POP POP JUMP JUMPDEST PUSH1 0x4 DUP2 LT PUSH2 0x1621 JUMPI PUSH2 0x1620 PUSH2 0x14BA JUMP JUMPDEST JUMPDEST POP JUMP JUMPDEST PUSH1 0x0 DUP2 SWAP1 POP PUSH2 0x1632 DUP3 PUSH2 0x1610 JUMP JUMPDEST SWAP2 SWAP1 POP JUMP JUMPDEST PUSH1 0x0 PUSH2 0x1642 DUP3 PUSH2 0x1624 JUMP JUMPDEST SWAP1 POP SWAP2 SWAP1 POP JUMP JUMPDEST PUSH2 0x1652 DUP2 PUSH2 0x1637 JUMP JUMPDEST DUP3 MSTORE POP POP JUMP JUMPDEST PUSH1 0x0 PUSH1 0x20 DUP3 ADD SWAP1 POP PUSH2 0x166D PUSH1 0x0 DUP4 ADD DUP5 PUSH2 0x1649 JUMP JUMPDEST SWAP3 SWAP2 POP POP JUMP JUMPDEST PUSH1 0x0 DUP1 REVERT JUMPDEST PUSH1 0x4 DUP2 LT PUSH2 0x1685 JUMPI PUSH1 0x0 DUP1 REVERT JUMPDEST POP JUMP JUMPDEST PUSH1 0x0 DUP2 CALLDATALOAD SWAP1 POP PUSH2 0x1697 DUP2 PUSH2 0x1678 JUMP JUMPDEST SWAP3 SWAP2 POP POP JUMP JUMPDEST PUSH1 0x0 PUSH4 0xFFFFFFFF DUP3 AND SWAP1 POP SWAP2 SWAP1 POP JUMP JUMPDEST PUSH2 0x16B6 DUP2 PUSH2 0x169D JUMP JUMPDEST DUP2 EQ PUSH2 0x16C1 JUMPI PUSH1 0x0 DUP1 REVERT JUMPDEST POP JUMP JUMPDEST PUSH1 0x0 DUP2 CALLDATALOAD SWAP1 POP PUSH2 0x16D3 DUP2 PUSH2 0x16AD JUMP JUMPDEST SWAP3 SWAP2 POP POP JUMP JUMPDEST PUSH1 0x0 DUP1 PUSH1 0x40 DUP4 DUP6 SUB SLT ISZERO PUSH2 0x16F0 JUMPI PUSH2 0x16EF PUSH2 0x1673 JUMP JUMPDEST JUMPDEST PUSH1 0x0 PUSH2 0x16FE DUP6 DUP3 DUP7 ADD PUSH2 0x1688 JUMP JUMPDEST SWAP3 POP POP PUSH1 0x20 PUSH2 0x170F DUP6 DUP3 DUP7 ADD PUSH2 0x16C4 JUMP JUMPDEST SWAP2 POP POP SWAP3 POP SWAP3 SWAP1 POP JUMP JUMPDEST PUSH2 0x1722 DUP2 PUSH2 0x154C JUMP JUMPDEST DUP2 EQ PUSH2 0x172D JUMPI PUSH1 0x0 DUP1 REVERT JUMPDEST POP JUMP JUMPDEST PUSH1 0x0 DUP2 CALLDATALOAD SWAP1 POP PUSH2 0x173F DUP2 PUSH2 0x1719 JUMP JUMPDEST SWAP3 SWAP2 POP POP JUMP JUMPDEST PUSH1 0x0 PUSH1 0x20 DUP3 DUP5 SUB SLT ISZERO PUSH2 0x175B JUMPI PUSH2 0x175A PUSH2 0x1673 JUMP JUMPDEST JUMPDEST PUSH1 0x0 PUSH2 0x1769 DUP5 DUP3 DUP6 ADD PUSH2 0x1730 JUMP JUMPDEST SWAP2 POP POP SWAP3 SWAP2 POP POP JUMP JUMPDEST PUSH1 0x0 DUP2 ISZERO ISZERO SWAP1 POP SWAP2 SWAP1 POP JUMP JUMPDEST PUSH2 0x1787 DUP2 PUSH2 0x1772 JUMP JUMPDEST DUP3 MSTORE POP POP JUMP JUMPDEST PUSH1 0x0 PUSH1 0x20 DUP3 ADD SWAP1 POP PUSH2 0x17A2 PUSH1 0x0 DUP4 ADD DUP5 PUSH2 0x177E JUMP JUMPDEST SWAP3 SWAP2 POP POP JUMP JUMPDEST PUSH1 0x0 DUP2 MLOAD SWAP1 POP SWAP2 SWAP1 POP JUMP JUMPDEST PUSH1 0x0 DUP2 SWAP1 POP SWAP3 SWAP2 POP POP JUMP JUMPDEST PUSH1 0x0 JUMPDEST DUP4 DUP2 LT ISZERO PUSH2 0x17DC JUMPI DUP1 DUP3 ADD MLOAD DUP2 DUP5 ADD MSTORE PUSH1 0x20 DUP2 ADD SWAP1 POP PUSH2 0x17C1 JUMP JUMPDEST PUSH1 0x0 DUP5 DUP5 ADD MSTORE POP POP POP POP JUMP JUMPDEST PUSH1 0x0 PUSH2 0x17F3 DUP3 PUSH2 0x17A8 JUMP JUMPDEST PUSH2 0x17FD DUP2 DUP6 PUSH2 0x17B3 JUMP JUMPDEST SWAP4 POP PUSH2 0x180D DUP2 DUP6 PUSH1 0x20 DUP7 ADD PUSH2 0x17BE JUMP JUMPDEST DUP1 DUP5 ADD SWAP2 POP POP SWAP3 SWAP2 POP POP JUMP JUMPDEST PUSH1 0x0 PUSH2 0x1825 DUP3 DUP6 PUSH2 0x17E8 JUMP JUMPDEST SWAP2 POP PUSH2 0x1831 DUP3 DUP5 PUSH2 0x17E8 JUMP JUMPDEST SWAP2 POP DUP2 SWAP1 POP SWAP4 SWAP3 POP POP POP JUMP JUMPDEST PUSH1 0x0 PUSH2 0x1849 DUP3 DUP5 PUSH2 0x17E8 JUMP JUMPDEST SWAP2 POP DUP2 SWAP1 POP SWAP3 SWAP2 POP POP JUMP JUMPDEST PUSH1 0x0 DUP2 MLOAD SWAP1 POP PUSH2 0x1863 DUP2 PUSH2 0x1719 JUMP JUMPDEST SWAP3 SWAP2 POP POP JUMP JUMPDEST PUSH1 0x0 PUSH1 0x20 DUP3 DUP5 SUB SLT ISZERO PUSH2 0x187F JUMPI PUSH2 0x187E PUSH2 0x1673 JUMP JUMPDEST JUMPDEST PUSH1 0x0 PUSH2 0x188D DUP5 DUP3 DUP6 ADD PUSH2 0x1854 JUMP JUMPDEST SWAP2 POP POP SWAP3 SWAP2 POP POP JUMP JUMPDEST PUSH32 0x4E487B7100000000000000000000000000000000000000000000000000000000 PUSH1 0x0 MSTORE PUSH1 0x41 PUSH1 0x4 MSTORE PUSH1 0x24 PUSH1 0x0 REVERT JUMPDEST PUSH32 0x4E487B7100000000000000000000000000000000000000000000000000000000 PUSH1 0x0 MSTORE PUSH1 0x12 PUSH1 0x4 MSTORE PUSH1 0x24 PUSH1 0x0 REVERT INVALID LOG2 PUSH5 0x6970667358 0x22 SLT KECCAK256 SWAP6 NUMBER BYTE PUSH27 0x3997110D98FEDFD0A51995761D37B1C1F208FC0F7FD9491FCC66BE LOG1 PUSH5 0x736F6C6343 STOP ADDMOD GT STOP CALLER "
				},
				"gasEstimates": {
					"creation": {
						"codeDepositCost": "1288400",
						"executionCost": "infinite",
						"totalCost": "infinite"
					},
					"external": {
						"concat(uint8,uint32)": "infinite",
						"currentPhase()": "2558",
						"hash()": "2452",
						"move(bytes32)": "70077",
						"newGame()": "157343",
						"player1()": "2652",
						"player1Move()": "2560",
						"player2()": "2581",
						"player2Move()": "2699",
						"registration()": "61230",
						"reveal(uint8,uint32)": "infinite",
						"winner()": "2624"
					},
					"internal": {
						"changePhaseTo(enum rps.Stage)": "infinite"
					}
				},
				"methodIdentifiers": {
					"concat(uint8,uint32)": "c08092ae",
					"currentPhase()": "055ad42e",
					"hash()": "09bd5a60",
					"move(bytes32)": "cefdbc84",
					"newGame()": "7d03f5f3",
					"player1()": "d30895e4",
					"player1Move()": "8690fd71",
					"player2()": "59a5f12d",
					"player2Move()": "7685ef8e",
					"registration()": "443bd1d0",
					"reveal(uint8,uint32)": "ab4a6be1",
					"winner()": "dfbf53ae"
				}
			},
			"storageLayout": {
				"storage": [
					{
						"astId": 1067,
						"contract": "contracts/rcp.sol:rps",
						"label": "currentPhase",
						"offset": 0,
						"slot": "0",
						"type": "t_enum(Stage)1064"
					},
					{
						"astId": 1069,
						"contract": "contracts/rcp.sol:rps",
						"label": "player1",
						"offset": 1,
						"slot": "0",
						"type": "t_address"
					},
					{
						"astId": 1071,
						"contract": "contracts/rcp.sol:rps",
						"label": "player2",
						"offset": 0,
						"slot": "1",
						"type": "t_address"
					},
					{
						"astId": 1073,
						"contract": "contracts/rcp.sol:rps",
						"label": "winner",
						"offset": 0,
						"slot": "2",
						"type": "t_address"
					},
					{
						"astId": 1075,
						"contract": "contracts/rcp.sol:rps",
						"label": "player1e",
						"offset": 0,
						"slot": "3",
						"type": "t_bytes32"
					},
					{
						"astId": 1077,
						"contract": "contracts/rcp.sol:rps",
						"label": "player2e",
						"offset": 0,
						"slot": "4",
						"type": "t_bytes32"
					},
					{
						"astId": 1080,
						"contract": "contracts/rcp.sol:rps",
						"label": "player1Move",
						"offset": 0,
						"slot": "5",
						"type": "t_enum(Weapon)1060"
					},
					{
						"astId": 1083,
						"contract": "contracts/rcp.sol:rps",
						"label": "player2Move",
						"offset": 1,
						"slot": "5",
						"type": "t_enum(Weapon)1060"
					},
					{
						"astId": 1353,
						"contract": "contracts/rcp.sol:rps",
						"label": "hash",
						"offset": 0,
						"slot": "6",
						"type": "t_bytes32"
					}
				],
				"types": {
					"t_address": {
						"encoding": "inplace",
						"label": "address",
						"numberOfBytes": "20"
					},
					"t_bytes32": {
						"encoding": "inplace",
						"label": "bytes32",
						"numberOfBytes": "32"
					},
					"t_enum(Stage)1064": {
						"encoding": "inplace",
						"label": "enum rps.Stage",
						"numberOfBytes": "1"
					},
					"t_enum(Weapon)1060": {
						"encoding": "inplace",
						"label": "enum rps.Weapon",
						"numberOfBytes": "1"
					}
				}
			},
			"userdoc": {
				"kind": "user",
				"methods": {},
				"version": 1
			}
		}
	}
}