{
	"contracts/MyToken.sol": {
		"RPS": {
			"abi": [
				{
					"inputs": [],
					"stateMutability": "nonpayable",
					"type": "constructor"
				},
				{
					"anonymous": false,
					"inputs": [
						{
							"indexed": false,
							"internalType": "address",
							"name": "player",
							"type": "address"
						}
					],
					"name": "Commit",
					"type": "event"
				},
				{
					"anonymous": false,
					"inputs": [
						{
							"indexed": false,
							"internalType": "address",
							"name": "player",
							"type": "address"
						},
						{
							"indexed": false,
							"internalType": "enum RPS.Weapon",
							"name": "weapon",
							"type": "uint8"
						}
					],
					"name": "Reveal",
					"type": "event"
				},
				{
					"inputs": [],
					"name": "endgame",
					"outputs": [],
					"stateMutability": "nonpayable",
					"type": "function"
				},
				{
					"inputs": [],
					"name": "join",
					"outputs": [],
					"stateMutability": "nonpayable",
					"type": "function"
				},
				{
					"inputs": [
						{
							"internalType": "bytes32",
							"name": "hash",
							"type": "bytes32"
						}
					],
					"name": "makeChoice",
					"outputs": [],
					"stateMutability": "nonpayable",
					"type": "function"
				},
				{
					"inputs": [],
					"name": "newGame",
					"outputs": [],
					"stateMutability": "nonpayable",
					"type": "function"
				},
				{
					"inputs": [],
					"name": "player1",
					"outputs": [
						{
							"internalType": "address",
							"name": "",
							"type": "address"
						}
					],
					"stateMutability": "view",
					"type": "function"
				},
				{
					"inputs": [],
					"name": "player1Hash",
					"outputs": [
						{
							"internalType": "bytes32",
							"name": "",
							"type": "bytes32"
						}
					],
					"stateMutability": "view",
					"type": "function"
				},
				{
					"inputs": [],
					"name": "player2",
					"outputs": [
						{
							"internalType": "address",
							"name": "",
							"type": "address"
						}
					],
					"stateMutability": "view",
					"type": "function"
				},
				{
					"inputs": [],
					"name": "player2Hash",
					"outputs": [
						{
							"internalType": "bytes32",
							"name": "",
							"type": "bytes32"
						}
					],
					"stateMutability": "view",
					"type": "function"
				},
				{
					"inputs": [
						{
							"internalType": "enum RPS.Weapon",
							"name": "weapon",
							"type": "uint8"
						},
						{
							"internalType": "uint32",
							"name": "salt",
							"type": "uint32"
						}
					],
					"name": "reveal",
					"outputs": [],
					"stateMutability": "nonpayable",
					"type": "function"
				},
				{
					"inputs": [],
					"name": "stage",
					"outputs": [
						{
							"internalType": "enum RPS.Stage",
							"name": "",
							"type": "uint8"
						}
					],
					"stateMutability": "view",
					"type": "function"
				},
				{
					"inputs": [],
					"name": "weaponOfPlayer1",
					"outputs": [
						{
							"internalType": "enum RPS.Weapon",
							"name": "",
							"type": "uint8"
						}
					],
					"stateMutability": "view",
					"type": "function"
				},
				{
					"inputs": [],
					"name": "weaponOfPlayer2",
					"outputs": [
						{
							"internalType": "enum RPS.Weapon",
							"name": "",
							"type": "uint8"
						}
					],
					"stateMutability": "view",
					"type": "function"
				},
				{
					"inputs": [],
					"name": "winner",
					"outputs": [
						{
							"internalType": "address",
							"name": "",
							"type": "address"
						}
					],
					"stateMutability": "view",
					"type": "function"
				}
			],
			"devdoc": {
				"kind": "dev",
				"methods": {},
				"version": 1
			},
			"evm": {
				"assembly": "    /* \"contracts/MyToken.sol\":126:4352  contract RPS {... */\n  mstore(0x40, 0x80)\n    /* \"contracts/MyToken.sol\":684:701  Stage.FirstCommit */\n  0x00\n    /* \"contracts/MyToken.sol\":663:701  Stage public stage = Stage.FirstCommit */\n  0x04\n  exp(0x0100, 0x14)\n  dup2\n  sload\n  dup2\n  0xff\n  mul\n  not\n  and\n  swap1\n  dup4\n  0x04\n  dup2\n  gt\n  iszero\n  tag_1\n  jumpi\n  tag_2\n  tag_3\n  jump\t// in\ntag_2:\ntag_1:\n  mul\n  or\n  swap1\n  sstore\n  pop\n    /* \"contracts/MyToken.sol\":774:1232  constructor() {... */\n  callvalue\n  dup1\n  iszero\n  tag_4\n  jumpi\n  0x00\n  dup1\n  revert\ntag_4:\n  pop\n    /* \"contracts/MyToken.sol\":830:831  0 */\n  0x00\n    /* \"contracts/MyToken.sol\":798:801  map */\n  0x05\n    /* \"contracts/MyToken.sol\":798:814  map[Weapon.Rock] */\n  0x00\n    /* \"contracts/MyToken.sol\":802:813  Weapon.Rock */\n  0x01\n    /* \"contracts/MyToken.sol\":798:814  map[Weapon.Rock] */\n  0x03\n  dup2\n  gt\n  iszero\n  tag_7\n  jumpi\n  tag_8\n  tag_3\n  jump\t// in\ntag_8:\ntag_7:\n  0x03\n  dup2\n  gt\n  iszero\n  tag_9\n  jumpi\n  tag_10\n  tag_3\n  jump\t// in\ntag_10:\ntag_9:\n  dup2\n  mstore\n  0x20\n  add\n  swap1\n  dup2\n  mstore\n  0x20\n  add\n  0x00\n  keccak256\n    /* \"contracts/MyToken.sol\":798:827  map[Weapon.Rock][Weapon.Rock] */\n  0x00\n    /* \"contracts/MyToken.sol\":815:826  Weapon.Rock */\n  0x01\n    /* \"contracts/MyToken.sol\":798:827  map[Weapon.Rock][Weapon.Rock] */\n  0x03\n  dup2\n  gt\n  iszero\n  tag_11\n  jumpi\n  tag_12\n  tag_3\n  jump\t// in\ntag_12:\ntag_11:\n  0x03\n  dup2\n  gt\n  iszero\n  tag_13\n  jumpi\n  tag_14\n  tag_3\n  jump\t// in\ntag_14:\ntag_13:\n  dup2\n  mstore\n  0x20\n  add\n  swap1\n  dup2\n  mstore\n  0x20\n  add\n  0x00\n  keccak256\n  0x00\n    /* \"contracts/MyToken.sol\":798:831  map[Weapon.Rock][Weapon.Rock] = 0 */\n  0x0100\n  exp\n  dup2\n  sload\n  dup2\n  0xff\n  mul\n  not\n  and\n  swap1\n  dup4\n  0xff\n  and\n  mul\n  or\n  swap1\n  sstore\n  pop\n    /* \"contracts/MyToken.sol\":881:882  0 */\n  0x00\n    /* \"contracts/MyToken.sol\":841:844  map */\n  0x05\n    /* \"contracts/MyToken.sol\":841:861  map[Weapon.Scissors] */\n  0x00\n    /* \"contracts/MyToken.sol\":845:860  Weapon.Scissors */\n  0x03\n    /* \"contracts/MyToken.sol\":841:861  map[Weapon.Scissors] */\n  dup1\n  dup2\n  gt\n  iszero\n  tag_15\n  jumpi\n  tag_16\n  tag_3\n  jump\t// in\ntag_16:\ntag_15:\n  0x03\n  dup2\n  gt\n  iszero\n  tag_17\n  jumpi\n  tag_18\n  tag_3\n  jump\t// in\ntag_18:\ntag_17:\n  dup2\n  mstore\n  0x20\n  add\n  swap1\n  dup2\n  mstore\n  0x20\n  add\n  0x00\n  keccak256\n    /* \"contracts/MyToken.sol\":841:878  map[Weapon.Scissors][Weapon.Scissors] */\n  0x00\n    /* \"contracts/MyToken.sol\":862:877  Weapon.Scissors */\n  0x03\n    /* \"contracts/MyToken.sol\":841:878  map[Weapon.Scissors][Weapon.Scissors] */\n  dup1\n  dup2\n  gt\n  iszero\n  tag_19\n  jumpi\n  tag_20\n  tag_3\n  jump\t// in\ntag_20:\ntag_19:\n  0x03\n  dup2\n  gt\n  iszero\n  tag_21\n  jumpi\n  tag_22\n  tag_3\n  jump\t// in\ntag_22:\ntag_21:\n  dup2\n  mstore\n  0x20\n  add\n  swap1\n  dup2\n  mstore\n  0x20\n  add\n  0x00\n  keccak256\n  0x00\n    /* \"contracts/MyToken.sol\":841:882  map[Weapon.Scissors][Weapon.Scissors] = 0 */\n  0x0100\n  exp\n  dup2\n  sload\n  dup2\n  0xff\n  mul\n  not\n  and\n  swap1\n  dup4\n  0xff\n  and\n  mul\n  or\n  swap1\n  sstore\n  pop\n    /* \"contracts/MyToken.sol\":926:927  0 */\n  0x00\n    /* \"contracts/MyToken.sol\":892:895  map */\n  0x05\n    /* \"contracts/MyToken.sol\":892:909  map[Weapon.Paper] */\n  0x00\n    /* \"contracts/MyToken.sol\":896:908  Weapon.Paper */\n  0x02\n    /* \"contracts/MyToken.sol\":892:909  map[Weapon.Paper] */\n  0x03\n  dup2\n  gt\n  iszero\n  tag_23\n  jumpi\n  tag_24\n  tag_3\n  jump\t// in\ntag_24:\ntag_23:\n  0x03\n  dup2\n  gt\n  iszero\n  tag_25\n  jumpi\n  tag_26\n  tag_3\n  jump\t// in\ntag_26:\ntag_25:\n  dup2\n  mstore\n  0x20\n  add\n  swap1\n  dup2\n  mstore\n  0x20\n  add\n  0x00\n  keccak256\n    /* \"contracts/MyToken.sol\":892:923  map[Weapon.Paper][Weapon.Paper] */\n  0x00\n    /* \"contracts/MyToken.sol\":910:922  Weapon.Paper */\n  0x02\n    /* \"contracts/MyToken.sol\":892:923  map[Weapon.Paper][Weapon.Paper] */\n  0x03\n  dup2\n  gt\n  iszero\n  tag_27\n  jumpi\n  tag_28\n  tag_3\n  jump\t// in\ntag_28:\ntag_27:\n  0x03\n  dup2\n  gt\n  iszero\n  tag_29\n  jumpi\n  tag_30\n  tag_3\n  jump\t// in\ntag_30:\ntag_29:\n  dup2\n  mstore\n  0x20\n  add\n  swap1\n  dup2\n  mstore\n  0x20\n  add\n  0x00\n  keccak256\n  0x00\n    /* \"contracts/MyToken.sol\":892:927  map[Weapon.Paper][Weapon.Paper] = 0 */\n  0x0100\n  exp\n  dup2\n  sload\n  dup2\n  0xff\n  mul\n  not\n  and\n  swap1\n  dup4\n  0xff\n  and\n  mul\n  or\n  swap1\n  sstore\n  pop\n    /* \"contracts/MyToken.sol\":973:974  1 */\n  0x01\n    /* \"contracts/MyToken.sol\":937:940  map */\n  0x05\n    /* \"contracts/MyToken.sol\":937:953  map[Weapon.Rock] */\n  0x00\n    /* \"contracts/MyToken.sol\":941:952  Weapon.Rock */\n  0x01\n    /* \"contracts/MyToken.sol\":937:953  map[Weapon.Rock] */\n  0x03\n  dup2\n  gt\n  iszero\n  tag_31\n  jumpi\n  tag_32\n  tag_3\n  jump\t// in\ntag_32:\ntag_31:\n  0x03\n  dup2\n  gt\n  iszero\n  tag_33\n  jumpi\n  tag_34\n  tag_3\n  jump\t// in\ntag_34:\ntag_33:\n  dup2\n  mstore\n  0x20\n  add\n  swap1\n  dup2\n  mstore\n  0x20\n  add\n  0x00\n  keccak256\n    /* \"contracts/MyToken.sol\":937:970  map[Weapon.Rock][Weapon.Scissors] */\n  0x00\n    /* \"contracts/MyToken.sol\":954:969  Weapon.Scissors */\n  0x03\n    /* \"contracts/MyToken.sol\":937:970  map[Weapon.Rock][Weapon.Scissors] */\n  dup1\n  dup2\n  gt\n  iszero\n  tag_35\n  jumpi\n  tag_36\n  tag_3\n  jump\t// in\ntag_36:\ntag_35:\n  0x03\n  dup2\n  gt\n  iszero\n  tag_37\n  jumpi\n  tag_38\n  tag_3\n  jump\t// in\ntag_38:\ntag_37:\n  dup2\n  mstore\n  0x20\n  add\n  swap1\n  dup2\n  mstore\n  0x20\n  add\n  0x00\n  keccak256\n  0x00\n    /* \"contracts/MyToken.sol\":937:974  map[Weapon.Rock][Weapon.Scissors] = 1 */\n  0x0100\n  exp\n  dup2\n  sload\n  dup2\n  0xff\n  mul\n  not\n  and\n  swap1\n  dup4\n  0xff\n  and\n  mul\n  or\n  swap1\n  sstore\n  pop\n    /* \"contracts/MyToken.sol\":1017:1018  1 */\n  0x01\n    /* \"contracts/MyToken.sol\":984:987  map */\n  0x05\n    /* \"contracts/MyToken.sol\":984:1001  map[Weapon.Paper] */\n  0x00\n    /* \"contracts/MyToken.sol\":988:1000  Weapon.Paper */\n  0x02\n    /* \"contracts/MyToken.sol\":984:1001  map[Weapon.Paper] */\n  0x03\n  dup2\n  gt\n  iszero\n  tag_39\n  jumpi\n  tag_40\n  tag_3\n  jump\t// in\ntag_40:\ntag_39:\n  0x03\n  dup2\n  gt\n  iszero\n  tag_41\n  jumpi\n  tag_42\n  tag_3\n  jump\t// in\ntag_42:\ntag_41:\n  dup2\n  mstore\n  0x20\n  add\n  swap1\n  dup2\n  mstore\n  0x20\n  add\n  0x00\n  keccak256\n    /* \"contracts/MyToken.sol\":984:1014  map[Weapon.Paper][Weapon.Rock] */\n  0x00\n    /* \"contracts/MyToken.sol\":1002:1013  Weapon.Rock */\n  0x01\n    /* \"contracts/MyToken.sol\":984:1014  map[Weapon.Paper][Weapon.Rock] */\n  0x03\n  dup2\n  gt\n  iszero\n  tag_43\n  jumpi\n  tag_44\n  tag_3\n  jump\t// in\ntag_44:\ntag_43:\n  0x03\n  dup2\n  gt\n  iszero\n  tag_45\n  jumpi\n  tag_46\n  tag_3\n  jump\t// in\ntag_46:\ntag_45:\n  dup2\n  mstore\n  0x20\n  add\n  swap1\n  dup2\n  mstore\n  0x20\n  add\n  0x00\n  keccak256\n  0x00\n    /* \"contracts/MyToken.sol\":984:1018  map[Weapon.Paper][Weapon.Rock] = 1 */\n  0x0100\n  exp\n  dup2\n  sload\n  dup2\n  0xff\n  mul\n  not\n  and\n  swap1\n  dup4\n  0xff\n  and\n  mul\n  or\n  swap1\n  sstore\n  pop\n    /* \"contracts/MyToken.sol\":1065:1066  1 */\n  0x01\n    /* \"contracts/MyToken.sol\":1028:1031  map */\n  0x05\n    /* \"contracts/MyToken.sol\":1028:1048  map[Weapon.Scissors] */\n  0x00\n    /* \"contracts/MyToken.sol\":1032:1047  Weapon.Scissors */\n  0x03\n    /* \"contracts/MyToken.sol\":1028:1048  map[Weapon.Scissors] */\n  dup1\n  dup2\n  gt\n  iszero\n  tag_47\n  jumpi\n  tag_48\n  tag_3\n  jump\t// in\ntag_48:\ntag_47:\n  0x03\n  dup2\n  gt\n  iszero\n  tag_49\n  jumpi\n  tag_50\n  tag_3\n  jump\t// in\ntag_50:\ntag_49:\n  dup2\n  mstore\n  0x20\n  add\n  swap1\n  dup2\n  mstore\n  0x20\n  add\n  0x00\n  keccak256\n    /* \"contracts/MyToken.sol\":1028:1062  map[Weapon.Scissors][Weapon.Paper] */\n  0x00\n    /* \"contracts/MyToken.sol\":1049:1061  Weapon.Paper */\n  0x02\n    /* \"contracts/MyToken.sol\":1028:1062  map[Weapon.Scissors][Weapon.Paper] */\n  0x03\n  dup2\n  gt\n  iszero\n  tag_51\n  jumpi\n  tag_52\n  tag_3\n  jump\t// in\ntag_52:\ntag_51:\n  0x03\n  dup2\n  gt\n  iszero\n  tag_53\n  jumpi\n  tag_54\n  tag_3\n  jump\t// in\ntag_54:\ntag_53:\n  dup2\n  mstore\n  0x20\n  add\n  swap1\n  dup2\n  mstore\n  0x20\n  add\n  0x00\n  keccak256\n  0x00\n    /* \"contracts/MyToken.sol\":1028:1066  map[Weapon.Scissors][Weapon.Paper] = 1 */\n  0x0100\n  exp\n  dup2\n  sload\n  dup2\n  0xff\n  mul\n  not\n  and\n  swap1\n  dup4\n  0xff\n  and\n  mul\n  or\n  swap1\n  sstore\n  pop\n    /* \"contracts/MyToken.sol\":1109:1110  2 */\n  0x02\n    /* \"contracts/MyToken.sol\":1076:1079  map */\n  0x05\n    /* \"contracts/MyToken.sol\":1076:1092  map[Weapon.Rock] */\n  0x00\n    /* \"contracts/MyToken.sol\":1080:1091  Weapon.Rock */\n  0x01\n    /* \"contracts/MyToken.sol\":1076:1092  map[Weapon.Rock] */\n  0x03\n  dup2\n  gt\n  iszero\n  tag_55\n  jumpi\n  tag_56\n  tag_3\n  jump\t// in\ntag_56:\ntag_55:\n  0x03\n  dup2\n  gt\n  iszero\n  tag_57\n  jumpi\n  tag_58\n  tag_3\n  jump\t// in\ntag_58:\ntag_57:\n  dup2\n  mstore\n  0x20\n  add\n  swap1\n  dup2\n  mstore\n  0x20\n  add\n  0x00\n  keccak256\n    /* \"contracts/MyToken.sol\":1076:1106  map[Weapon.Rock][Weapon.Paper] */\n  0x00\n    /* \"contracts/MyToken.sol\":1093:1105  Weapon.Paper */\n  0x02\n    /* \"contracts/MyToken.sol\":1076:1106  map[Weapon.Rock][Weapon.Paper] */\n  0x03\n  dup2\n  gt\n  iszero\n  tag_59\n  jumpi\n  tag_60\n  tag_3\n  jump\t// in\ntag_60:\ntag_59:\n  0x03\n  dup2\n  gt\n  iszero\n  tag_61\n  jumpi\n  tag_62\n  tag_3\n  jump\t// in\ntag_62:\ntag_61:\n  dup2\n  mstore\n  0x20\n  add\n  swap1\n  dup2\n  mstore\n  0x20\n  add\n  0x00\n  keccak256\n  0x00\n    /* \"contracts/MyToken.sol\":1076:1110  map[Weapon.Rock][Weapon.Paper] = 2 */\n  0x0100\n  exp\n  dup2\n  sload\n  dup2\n  0xff\n  mul\n  not\n  and\n  swap1\n  dup4\n  0xff\n  and\n  mul\n  or\n  swap1\n  sstore\n  pop\n    /* \"contracts/MyToken.sol\":1157:1158  2 */\n  0x02\n    /* \"contracts/MyToken.sol\":1120:1123  map */\n  0x05\n    /* \"contracts/MyToken.sol\":1120:1137  map[Weapon.Paper] */\n  0x00\n    /* \"contracts/MyToken.sol\":1124:1136  Weapon.Paper */\n  0x02\n    /* \"contracts/MyToken.sol\":1120:1137  map[Weapon.Paper] */\n  0x03\n  dup2\n  gt\n  iszero\n  tag_63\n  jumpi\n  tag_64\n  tag_3\n  jump\t// in\ntag_64:\ntag_63:\n  0x03\n  dup2\n  gt\n  iszero\n  tag_65\n  jumpi\n  tag_66\n  tag_3\n  jump\t// in\ntag_66:\ntag_65:\n  dup2\n  mstore\n  0x20\n  add\n  swap1\n  dup2\n  mstore\n  0x20\n  add\n  0x00\n  keccak256\n    /* \"contracts/MyToken.sol\":1120:1154  map[Weapon.Paper][Weapon.Scissors] */\n  0x00\n    /* \"contracts/MyToken.sol\":1138:1153  Weapon.Scissors */\n  0x03\n    /* \"contracts/MyToken.sol\":1120:1154  map[Weapon.Paper][Weapon.Scissors] */\n  dup1\n  dup2\n  gt\n  iszero\n  tag_67\n  jumpi\n  tag_68\n  tag_3\n  jump\t// in\ntag_68:\ntag_67:\n  0x03\n  dup2\n  gt\n  iszero\n  tag_69\n  jumpi\n  tag_70\n  tag_3\n  jump\t// in\ntag_70:\ntag_69:\n  dup2\n  mstore\n  0x20\n  add\n  swap1\n  dup2\n  mstore\n  0x20\n  add\n  0x00\n  keccak256\n  0x00\n    /* \"contracts/MyToken.sol\":1120:1158  map[Weapon.Paper][Weapon.Scissors] = 2 */\n  0x0100\n  exp\n  dup2\n  sload\n  dup2\n  0xff\n  mul\n  not\n  and\n  swap1\n  dup4\n  0xff\n  and\n  mul\n  or\n  swap1\n  sstore\n  pop\n    /* \"contracts/MyToken.sol\":1204:1205  2 */\n  0x02\n    /* \"contracts/MyToken.sol\":1168:1171  map */\n  0x05\n    /* \"contracts/MyToken.sol\":1168:1188  map[Weapon.Scissors] */\n  0x00\n    /* \"contracts/MyToken.sol\":1172:1187  Weapon.Scissors */\n  0x03\n    /* \"contracts/MyToken.sol\":1168:1188  map[Weapon.Scissors] */\n  dup1\n  dup2\n  gt\n  iszero\n  tag_71\n  jumpi\n  tag_72\n  tag_3\n  jump\t// in\ntag_72:\ntag_71:\n  0x03\n  dup2\n  gt\n  iszero\n  tag_73\n  jumpi\n  tag_74\n  tag_3\n  jump\t// in\ntag_74:\ntag_73:\n  dup2\n  mstore\n  0x20\n  add\n  swap1\n  dup2\n  mstore\n  0x20\n  add\n  0x00\n  keccak256\n    /* \"contracts/MyToken.sol\":1168:1201  map[Weapon.Scissors][Weapon.Rock] */\n  0x00\n    /* \"contracts/MyToken.sol\":1189:1200  Weapon.Rock */\n  0x01\n    /* \"contracts/MyToken.sol\":1168:1201  map[Weapon.Scissors][Weapon.Rock] */\n  0x03\n  dup2\n  gt\n  iszero\n  tag_75\n  jumpi\n  tag_76\n  tag_3\n  jump\t// in\ntag_76:\ntag_75:\n  0x03\n  dup2\n  gt\n  iszero\n  tag_77\n  jumpi\n  tag_78\n  tag_3\n  jump\t// in\ntag_78:\ntag_77:\n  dup2\n  mstore\n  0x20\n  add\n  swap1\n  dup2\n  mstore\n  0x20\n  add\n  0x00\n  keccak256\n  0x00\n    /* \"contracts/MyToken.sol\":1168:1205  map[Weapon.Scissors][Weapon.Rock] = 2 */\n  0x0100\n  exp\n  dup2\n  sload\n  dup2\n  0xff\n  mul\n  not\n  and\n  swap1\n  dup4\n  0xff\n  and\n  mul\n  or\n  swap1\n  sstore\n  pop\n    /* \"contracts/MyToken.sol\":1216:1225  newGame() */\n  tag_79\n    /* \"contracts/MyToken.sol\":1216:1223  newGame */\n  shl(0x20, tag_80)\n    /* \"contracts/MyToken.sol\":1216:1225  newGame() */\n  0x20\n  shr\n  jump\t// in\ntag_79:\n    /* \"contracts/MyToken.sol\":126:4352  contract RPS {... */\n  jump(tag_81)\n    /* \"contracts/MyToken.sol\":1238:1536  function newGame() public {... */\ntag_80:\n    /* \"contracts/MyToken.sol\":1291:1294  0x0 */\n  0x00\n    /* \"contracts/MyToken.sol\":1274:1280  winner */\n  0x04\n  0x00\n    /* \"contracts/MyToken.sol\":1274:1295  winner = address(0x0) */\n  0x0100\n  exp\n  dup2\n  sload\n  dup2\n  0xffffffffffffffffffffffffffffffffffffffff\n  mul\n  not\n  and\n  swap1\n  dup4\n  0xffffffffffffffffffffffffffffffffffffffff\n  and\n  mul\n  or\n  swap1\n  sstore\n  pop\n    /* \"contracts/MyToken.sol\":1323:1326  0x0 */\n  0x00\n    /* \"contracts/MyToken.sol\":1305:1312  player1 */\n  dup1\n  0x00\n    /* \"contracts/MyToken.sol\":1305:1327  player1 = address(0x0) */\n  0x0100\n  exp\n  dup2\n  sload\n  dup2\n  0xffffffffffffffffffffffffffffffffffffffff\n  mul\n  not\n  and\n  swap1\n  dup4\n  0xffffffffffffffffffffffffffffffffffffffff\n  and\n  mul\n  or\n  swap1\n  sstore\n  pop\n    /* \"contracts/MyToken.sol\":1355:1358  0x0 */\n  0x00\n    /* \"contracts/MyToken.sol\":1337:1344  player2 */\n  0x01\n  0x00\n    /* \"contracts/MyToken.sol\":1337:1359  player2 = address(0x0) */\n  0x0100\n  exp\n  dup2\n  sload\n  dup2\n  0xffffffffffffffffffffffffffffffffffffffff\n  mul\n  not\n  and\n  swap1\n  dup4\n  0xffffffffffffffffffffffffffffffffffffffff\n  and\n  mul\n  or\n  swap1\n  sstore\n  pop\n    /* \"contracts/MyToken.sol\":1384:1387  0x0 */\n  0x00\n    /* \"contracts/MyToken.sol\":1370:1387  player1Hash = 0x0 */\n  dup1\n  shl\n    /* \"contracts/MyToken.sol\":1370:1381  player1Hash */\n  0x02\n    /* \"contracts/MyToken.sol\":1370:1387  player1Hash = 0x0 */\n  dup2\n  swap1\n  sstore\n  pop\n    /* \"contracts/MyToken.sol\":1411:1414  0x0 */\n  0x00\n    /* \"contracts/MyToken.sol\":1397:1414  player2Hash = 0x0 */\n  dup1\n  shl\n    /* \"contracts/MyToken.sol\":1397:1408  player2Hash */\n  0x03\n    /* \"contracts/MyToken.sol\":1397:1414  player2Hash = 0x0 */\n  dup2\n  swap1\n  sstore\n  pop\n    /* \"contracts/MyToken.sol\":1443:1454  Weapon.None */\n  0x00\n    /* \"contracts/MyToken.sol\":1425:1440  weaponOfPlayer1 */\n  0x01\n  0x14\n    /* \"contracts/MyToken.sol\":1425:1454  weaponOfPlayer1 = Weapon.None */\n  0x0100\n  exp\n  dup2\n  sload\n  dup2\n  0xff\n  mul\n  not\n  and\n  swap1\n  dup4\n  0x03\n  dup2\n  gt\n  iszero\n  tag_83\n  jumpi\n  tag_84\n  tag_3\n  jump\t// in\ntag_84:\ntag_83:\n  mul\n  or\n  swap1\n  sstore\n  pop\n    /* \"contracts/MyToken.sol\":1482:1493  Weapon.None */\n  0x00\n    /* \"contracts/MyToken.sol\":1464:1479  weaponOfPlayer2 */\n  0x01\n  0x15\n    /* \"contracts/MyToken.sol\":1464:1493  weaponOfPlayer2 = Weapon.None */\n  0x0100\n  exp\n  dup2\n  sload\n  dup2\n  0xff\n  mul\n  not\n  and\n  swap1\n  dup4\n  0x03\n  dup2\n  gt\n  iszero\n  tag_85\n  jumpi\n  tag_86\n  tag_3\n  jump\t// in\ntag_86:\ntag_85:\n  mul\n  or\n  swap1\n  sstore\n  pop\n    /* \"contracts/MyToken.sol\":1512:1529  Stage.FirstCommit */\n  0x00\n    /* \"contracts/MyToken.sol\":1504:1509  stage */\n  0x04\n  0x14\n    /* \"contracts/MyToken.sol\":1504:1529  stage = Stage.FirstCommit */\n  0x0100\n  exp\n  dup2\n  sload\n  dup2\n  0xff\n  mul\n  not\n  and\n  swap1\n  dup4\n  0x04\n  dup2\n  gt\n  iszero\n  tag_87\n  jumpi\n  tag_88\n  tag_3\n  jump\t// in\ntag_88:\ntag_87:\n  mul\n  or\n  swap1\n  sstore\n  pop\n    /* \"contracts/MyToken.sol\":1238:1536  function newGame() public {... */\n  jump\t// out\n    /* \"#utility.yul\":7:187   */\ntag_3:\n    /* \"#utility.yul\":55:132   */\n  0x4e487b7100000000000000000000000000000000000000000000000000000000\n    /* \"#utility.yul\":52:53   */\n  0x00\n    /* \"#utility.yul\":45:133   */\n  mstore\n    /* \"#utility.yul\":152:156   */\n  0x21\n    /* \"#utility.yul\":149:150   */\n  0x04\n    /* \"#utility.yul\":142:157   */\n  mstore\n    /* \"#utility.yul\":176:180   */\n  0x24\n    /* \"#utility.yul\":173:174   */\n  0x00\n    /* \"#utility.yul\":166:181   */\n  revert\n    /* \"contracts/MyToken.sol\":126:4352  contract RPS {... */\ntag_81:\n  dataSize(sub_0)\n  dup1\n  dataOffset(sub_0)\n  0x00\n  codecopy\n  0x00\n  return\nstop\n\nsub_0: assembly {\n        /* \"contracts/MyToken.sol\":126:4352  contract RPS {... */\n      mstore(0x40, 0x80)\n      callvalue\n      dup1\n      iszero\n      tag_1\n      jumpi\n      0x00\n      dup1\n      revert\n    tag_1:\n      pop\n      jumpi(tag_2, lt(calldatasize, 0x04))\n      shr(0xe0, calldataload(0x00))\n      dup1\n      0xb688a363\n      gt\n      tag_16\n      jumpi\n      dup1\n      0xd8c4d9da\n      gt\n      tag_17\n      jumpi\n      dup1\n      0xd8c4d9da\n      eq\n      tag_12\n      jumpi\n      dup1\n      0xdfbf53ae\n      eq\n      tag_13\n      jumpi\n      dup1\n      0xfb93247f\n      eq\n      tag_14\n      jumpi\n      dup1\n      0xfce55812\n      eq\n      tag_15\n      jumpi\n      jump(tag_2)\n    tag_17:\n      dup1\n      0xb688a363\n      eq\n      tag_9\n      jumpi\n      dup1\n      0xc040e6b8\n      eq\n      tag_10\n      jumpi\n      dup1\n      0xd30895e4\n      eq\n      tag_11\n      jumpi\n      jump(tag_2)\n    tag_16:\n      dup1\n      0x1884824c\n      eq\n      tag_3\n      jumpi\n      dup1\n      0x59a5f12d\n      eq\n      tag_4\n      jumpi\n      dup1\n      0x7d03f5f3\n      eq\n      tag_5\n      jumpi\n      dup1\n      0x9dd63d6b\n      eq\n      tag_6\n      jumpi\n      dup1\n      0xa45332a7\n      eq\n      tag_7\n      jumpi\n      dup1\n      0xab4a6be1\n      eq\n      tag_8\n      jumpi\n    tag_2:\n      0x00\n      dup1\n      revert\n        /* \"contracts/MyToken.sol\":535:564  Weapon public weaponOfPlayer2 */\n    tag_3:\n      tag_18\n      tag_19\n      jump\t// in\n    tag_18:\n      mload(0x40)\n      tag_20\n      swap2\n      swap1\n      tag_21\n      jump\t// in\n    tag_20:\n      mload(0x40)\n      dup1\n      swap2\n      sub\n      swap1\n      return\n        /* \"contracts/MyToken.sol\":472:494  address public player2 */\n    tag_4:\n      tag_22\n      tag_23\n      jump\t// in\n    tag_22:\n      mload(0x40)\n      tag_24\n      swap2\n      swap1\n      tag_25\n      jump\t// in\n    tag_24:\n      mload(0x40)\n      dup1\n      swap2\n      sub\n      swap1\n      return\n        /* \"contracts/MyToken.sol\":1238:1536  function newGame() public {... */\n    tag_5:\n      tag_26\n      tag_27\n      jump\t// in\n    tag_26:\n      stop\n        /* \"contracts/MyToken.sol\":4039:4350  function endgame() public isPlayer {... */\n    tag_6:\n      tag_28\n      tag_29\n      jump\t// in\n    tag_28:\n      stop\n        /* \"contracts/MyToken.sol\":570:596  bytes32 public player1Hash */\n    tag_7:\n      tag_30\n      tag_31\n      jump\t// in\n    tag_30:\n      mload(0x40)\n      tag_32\n      swap2\n      swap1\n      tag_33\n      jump\t// in\n    tag_32:\n      mload(0x40)\n      dup1\n      swap2\n      sub\n      swap1\n      return\n        /* \"contracts/MyToken.sol\":3045:4029  function reveal(Weapon weapon, uint32 salt) isPlayer public  ... */\n    tag_8:\n      tag_34\n      0x04\n      dup1\n      calldatasize\n      sub\n      dup2\n      add\n      swap1\n      tag_35\n      swap2\n      swap1\n      tag_36\n      jump\t// in\n    tag_35:\n      tag_37\n      jump\t// in\n    tag_34:\n      stop\n        /* \"contracts/MyToken.sol\":2233:2435  function join() isAlreadyIn external... */\n    tag_9:\n      tag_38\n      tag_39\n      jump\t// in\n    tag_38:\n      stop\n        /* \"contracts/MyToken.sol\":663:701  Stage public stage = Stage.FirstCommit */\n    tag_10:\n      tag_40\n      tag_41\n      jump\t// in\n    tag_40:\n      mload(0x40)\n      tag_42\n      swap2\n      swap1\n      tag_43\n      jump\t// in\n    tag_42:\n      mload(0x40)\n      dup1\n      swap2\n      sub\n      swap1\n      return\n        /* \"contracts/MyToken.sol\":444:466  address public player1 */\n    tag_11:\n      tag_44\n      tag_45\n      jump\t// in\n    tag_44:\n      mload(0x40)\n      tag_46\n      swap2\n      swap1\n      tag_25\n      jump\t// in\n    tag_46:\n      mload(0x40)\n      dup1\n      swap2\n      sub\n      swap1\n      return\n        /* \"contracts/MyToken.sol\":500:529  Weapon public weaponOfPlayer1 */\n    tag_12:\n      tag_47\n      tag_48\n      jump\t// in\n    tag_47:\n      mload(0x40)\n      tag_49\n      swap2\n      swap1\n      tag_21\n      jump\t// in\n    tag_49:\n      mload(0x40)\n      dup1\n      swap2\n      sub\n      swap1\n      return\n        /* \"contracts/MyToken.sol\":635:656  address public winner */\n    tag_13:\n      tag_50\n      tag_51\n      jump\t// in\n    tag_50:\n      mload(0x40)\n      tag_52\n      swap2\n      swap1\n      tag_25\n      jump\t// in\n    tag_52:\n      mload(0x40)\n      dup1\n      swap2\n      sub\n      swap1\n      return\n        /* \"contracts/MyToken.sol\":602:628  bytes32 public player2Hash */\n    tag_14:\n      tag_53\n      tag_54\n      jump\t// in\n    tag_53:\n      mload(0x40)\n      tag_55\n      swap2\n      swap1\n      tag_33\n      jump\t// in\n    tag_55:\n      mload(0x40)\n      dup1\n      swap2\n      sub\n      swap1\n      return\n        /* \"contracts/MyToken.sol\":2445:3039  function makeChoice(bytes32 hash) isPlayer public {... */\n    tag_15:\n      tag_56\n      0x04\n      dup1\n      calldatasize\n      sub\n      dup2\n      add\n      swap1\n      tag_57\n      swap2\n      swap1\n      tag_58\n      jump\t// in\n    tag_57:\n      tag_59\n      jump\t// in\n    tag_56:\n      stop\n        /* \"contracts/MyToken.sol\":535:564  Weapon public weaponOfPlayer2 */\n    tag_19:\n      0x01\n      0x15\n      swap1\n      sload\n      swap1\n      0x0100\n      exp\n      swap1\n      div\n      0xff\n      and\n      dup2\n      jump\t// out\n        /* \"contracts/MyToken.sol\":472:494  address public player2 */\n    tag_23:\n      0x01\n      0x00\n      swap1\n      sload\n      swap1\n      0x0100\n      exp\n      swap1\n      div\n      0xffffffffffffffffffffffffffffffffffffffff\n      and\n      dup2\n      jump\t// out\n        /* \"contracts/MyToken.sol\":1238:1536  function newGame() public {... */\n    tag_27:\n        /* \"contracts/MyToken.sol\":1291:1294  0x0 */\n      0x00\n        /* \"contracts/MyToken.sol\":1274:1280  winner */\n      0x04\n      0x00\n        /* \"contracts/MyToken.sol\":1274:1295  winner = address(0x0) */\n      0x0100\n      exp\n      dup2\n      sload\n      dup2\n      0xffffffffffffffffffffffffffffffffffffffff\n      mul\n      not\n      and\n      swap1\n      dup4\n      0xffffffffffffffffffffffffffffffffffffffff\n      and\n      mul\n      or\n      swap1\n      sstore\n      pop\n        /* \"contracts/MyToken.sol\":1323:1326  0x0 */\n      0x00\n        /* \"contracts/MyToken.sol\":1305:1312  player1 */\n      dup1\n      0x00\n        /* \"contracts/MyToken.sol\":1305:1327  player1 = address(0x0) */\n      0x0100\n      exp\n      dup2\n      sload\n      dup2\n      0xffffffffffffffffffffffffffffffffffffffff\n      mul\n      not\n      and\n      swap1\n      dup4\n      0xffffffffffffffffffffffffffffffffffffffff\n      and\n      mul\n      or\n      swap1\n      sstore\n      pop\n        /* \"contracts/MyToken.sol\":1355:1358  0x0 */\n      0x00\n        /* \"contracts/MyToken.sol\":1337:1344  player2 */\n      0x01\n      0x00\n        /* \"contracts/MyToken.sol\":1337:1359  player2 = address(0x0) */\n      0x0100\n      exp\n      dup2\n      sload\n      dup2\n      0xffffffffffffffffffffffffffffffffffffffff\n      mul\n      not\n      and\n      swap1\n      dup4\n      0xffffffffffffffffffffffffffffffffffffffff\n      and\n      mul\n      or\n      swap1\n      sstore\n      pop\n        /* \"contracts/MyToken.sol\":1384:1387  0x0 */\n      0x00\n        /* \"contracts/MyToken.sol\":1370:1387  player1Hash = 0x0 */\n      dup1\n      shl\n        /* \"contracts/MyToken.sol\":1370:1381  player1Hash */\n      0x02\n        /* \"contracts/MyToken.sol\":1370:1387  player1Hash = 0x0 */\n      dup2\n      swap1\n      sstore\n      pop\n        /* \"contracts/MyToken.sol\":1411:1414  0x0 */\n      0x00\n        /* \"contracts/MyToken.sol\":1397:1414  player2Hash = 0x0 */\n      dup1\n      shl\n        /* \"contracts/MyToken.sol\":1397:1408  player2Hash */\n      0x03\n        /* \"contracts/MyToken.sol\":1397:1414  player2Hash = 0x0 */\n      dup2\n      swap1\n      sstore\n      pop\n        /* \"contracts/MyToken.sol\":1443:1454  Weapon.None */\n      0x00\n        /* \"contracts/MyToken.sol\":1425:1440  weaponOfPlayer1 */\n      0x01\n      0x14\n        /* \"contracts/MyToken.sol\":1425:1454  weaponOfPlayer1 = Weapon.None */\n      0x0100\n      exp\n      dup2\n      sload\n      dup2\n      0xff\n      mul\n      not\n      and\n      swap1\n      dup4\n      0x03\n      dup2\n      gt\n      iszero\n      tag_61\n      jumpi\n      tag_62\n      tag_63\n      jump\t// in\n    tag_62:\n    tag_61:\n      mul\n      or\n      swap1\n      sstore\n      pop\n        /* \"contracts/MyToken.sol\":1482:1493  Weapon.None */\n      0x00\n        /* \"contracts/MyToken.sol\":1464:1479  weaponOfPlayer2 */\n      0x01\n      0x15\n        /* \"contracts/MyToken.sol\":1464:1493  weaponOfPlayer2 = Weapon.None */\n      0x0100\n      exp\n      dup2\n      sload\n      dup2\n      0xff\n      mul\n      not\n      and\n      swap1\n      dup4\n      0x03\n      dup2\n      gt\n      iszero\n      tag_64\n      jumpi\n      tag_65\n      tag_63\n      jump\t// in\n    tag_65:\n    tag_64:\n      mul\n      or\n      swap1\n      sstore\n      pop\n        /* \"contracts/MyToken.sol\":1512:1529  Stage.FirstCommit */\n      0x00\n        /* \"contracts/MyToken.sol\":1504:1509  stage */\n      0x04\n      0x14\n        /* \"contracts/MyToken.sol\":1504:1529  stage = Stage.FirstCommit */\n      0x0100\n      exp\n      dup2\n      sload\n      dup2\n      0xff\n      mul\n      not\n      and\n      swap1\n      dup4\n      0x04\n      dup2\n      gt\n      iszero\n      tag_66\n      jumpi\n      tag_67\n      tag_63\n      jump\t// in\n    tag_67:\n    tag_66:\n      mul\n      or\n      swap1\n      sstore\n      pop\n        /* \"contracts/MyToken.sol\":1238:1536  function newGame() public {... */\n      jump\t// out\n        /* \"contracts/MyToken.sol\":4039:4350  function endgame() public isPlayer {... */\n    tag_29:\n        /* \"contracts/MyToken.sol\":1759:1766  player1 */\n      0x00\n      dup1\n      sload\n      swap1\n      0x0100\n      exp\n      swap1\n      div\n      0xffffffffffffffffffffffffffffffffffffffff\n      and\n        /* \"contracts/MyToken.sol\":1745:1766  msg.sender == player1 */\n      0xffffffffffffffffffffffffffffffffffffffff\n      and\n        /* \"contracts/MyToken.sol\":1745:1755  msg.sender */\n      caller\n        /* \"contracts/MyToken.sol\":1745:1766  msg.sender == player1 */\n      0xffffffffffffffffffffffffffffffffffffffff\n      and\n      eq\n        /* \"contracts/MyToken.sol\":1745:1791  msg.sender == player1 || msg.sender == player2 */\n      dup1\n      tag_69\n      jumpi\n      pop\n        /* \"contracts/MyToken.sol\":1784:1791  player2 */\n      0x01\n      0x00\n      swap1\n      sload\n      swap1\n      0x0100\n      exp\n      swap1\n      div\n      0xffffffffffffffffffffffffffffffffffffffff\n      and\n        /* \"contracts/MyToken.sol\":1770:1791  msg.sender == player2 */\n      0xffffffffffffffffffffffffffffffffffffffff\n      and\n        /* \"contracts/MyToken.sol\":1770:1780  msg.sender */\n      caller\n        /* \"contracts/MyToken.sol\":1770:1791  msg.sender == player2 */\n      0xffffffffffffffffffffffffffffffffffffffff\n      and\n      eq\n        /* \"contracts/MyToken.sol\":1745:1791  msg.sender == player1 || msg.sender == player2 */\n    tag_69:\n        /* \"contracts/MyToken.sol\":1737:1851  require(msg.sender == player1 || msg.sender == player2,... */\n      tag_70\n      jumpi\n      mload(0x40)\n      0x08c379a000000000000000000000000000000000000000000000000000000000\n      dup2\n      mstore\n      0x04\n      add\n      tag_71\n      swap1\n      tag_72\n      jump\t// in\n    tag_71:\n      mload(0x40)\n      dup1\n      swap2\n      sub\n      swap1\n      revert\n    tag_70:\n        /* \"contracts/MyToken.sol\":4101:4117  Stage.FinishGame */\n      0x04\n        /* \"contracts/MyToken.sol\":4092:4117  stage == Stage.FinishGame */\n      dup1\n      dup2\n      gt\n      iszero\n      tag_74\n      jumpi\n      tag_75\n      tag_63\n      jump\t// in\n    tag_75:\n    tag_74:\n        /* \"contracts/MyToken.sol\":4092:4097  stage */\n      0x04\n      0x14\n      swap1\n      sload\n      swap1\n      0x0100\n      exp\n      swap1\n      div\n      0xff\n      and\n        /* \"contracts/MyToken.sol\":4092:4117  stage == Stage.FinishGame */\n      0x04\n      dup2\n      gt\n      iszero\n      tag_76\n      jumpi\n      tag_77\n      tag_63\n      jump\t// in\n    tag_77:\n    tag_76:\n      eq\n        /* \"contracts/MyToken.sol\":4084:4137  require(stage == Stage.FinishGame, \"incorrect stage\") */\n      tag_78\n      jumpi\n      mload(0x40)\n      0x08c379a000000000000000000000000000000000000000000000000000000000\n      dup2\n      mstore\n      0x04\n      add\n      tag_79\n      swap1\n      tag_80\n      jump\t// in\n    tag_79:\n      mload(0x40)\n      dup1\n      swap2\n      sub\n      swap1\n      revert\n    tag_78:\n        /* \"contracts/MyToken.sol\":4148:4159  int8 result */\n      0x00\n        /* \"contracts/MyToken.sol\":4167:4170  map */\n      0x05\n        /* \"contracts/MyToken.sol\":4167:4187  map[weaponOfPlayer1] */\n      0x00\n        /* \"contracts/MyToken.sol\":4171:4186  weaponOfPlayer1 */\n      0x01\n      0x14\n      swap1\n      sload\n      swap1\n      0x0100\n      exp\n      swap1\n      div\n      0xff\n      and\n        /* \"contracts/MyToken.sol\":4167:4187  map[weaponOfPlayer1] */\n      0x03\n      dup2\n      gt\n      iszero\n      tag_81\n      jumpi\n      tag_82\n      tag_63\n      jump\t// in\n    tag_82:\n    tag_81:\n      0x03\n      dup2\n      gt\n      iszero\n      tag_83\n      jumpi\n      tag_84\n      tag_63\n      jump\t// in\n    tag_84:\n    tag_83:\n      dup2\n      mstore\n      0x20\n      add\n      swap1\n      dup2\n      mstore\n      0x20\n      add\n      0x00\n      keccak256\n        /* \"contracts/MyToken.sol\":4167:4204  map[weaponOfPlayer1][weaponOfPlayer2] */\n      0x00\n        /* \"contracts/MyToken.sol\":4188:4203  weaponOfPlayer2 */\n      0x01\n      0x15\n      swap1\n      sload\n      swap1\n      0x0100\n      exp\n      swap1\n      div\n      0xff\n      and\n        /* \"contracts/MyToken.sol\":4167:4204  map[weaponOfPlayer1][weaponOfPlayer2] */\n      0x03\n      dup2\n      gt\n      iszero\n      tag_85\n      jumpi\n      tag_86\n      tag_63\n      jump\t// in\n    tag_86:\n    tag_85:\n      0x03\n      dup2\n      gt\n      iszero\n      tag_87\n      jumpi\n      tag_88\n      tag_63\n      jump\t// in\n    tag_88:\n    tag_87:\n      dup2\n      mstore\n      0x20\n      add\n      swap1\n      dup2\n      mstore\n      0x20\n      add\n      0x00\n      keccak256\n      0x00\n      swap1\n      sload\n      swap1\n      0x0100\n      exp\n      swap1\n      div\n      0xff\n      and\n        /* \"contracts/MyToken.sol\":4148:4205  int8 result = int8(map[weaponOfPlayer1][weaponOfPlayer2]) */\n      swap1\n      pop\n        /* \"contracts/MyToken.sol\":4238:4239  0 */\n      0x00\n        /* \"contracts/MyToken.sol\":4228:4234  result */\n      dup2\n        /* \"contracts/MyToken.sol\":4228:4239  result == 0 */\n      0x00\n      signextend\n      eq\n        /* \"contracts/MyToken.sol\":4228:4254  result == 0 || result == 1 */\n      dup1\n      tag_89\n      jumpi\n      pop\n        /* \"contracts/MyToken.sol\":4253:4254  1 */\n      0x01\n        /* \"contracts/MyToken.sol\":4243:4249  result */\n      dup2\n        /* \"contracts/MyToken.sol\":4243:4254  result == 1 */\n      0x00\n      signextend\n      eq\n        /* \"contracts/MyToken.sol\":4228:4254  result == 0 || result == 1 */\n    tag_89:\n        /* \"contracts/MyToken.sol\":4224:4344  if (result == 0 || result == 1) {... */\n      iszero\n      tag_90\n      jumpi\n        /* \"contracts/MyToken.sol\":4279:4286  player1 */\n      0x00\n      dup1\n      sload\n      swap1\n      0x0100\n      exp\n      swap1\n      div\n      0xffffffffffffffffffffffffffffffffffffffff\n      and\n        /* \"contracts/MyToken.sol\":4270:4276  winner */\n      0x04\n      0x00\n        /* \"contracts/MyToken.sol\":4270:4286  winner = player1 */\n      0x0100\n      exp\n      dup2\n      sload\n      dup2\n      0xffffffffffffffffffffffffffffffffffffffff\n      mul\n      not\n      and\n      swap1\n      dup4\n      0xffffffffffffffffffffffffffffffffffffffff\n      and\n      mul\n      or\n      swap1\n      sstore\n      pop\n        /* \"contracts/MyToken.sol\":4224:4344  if (result == 0 || result == 1) {... */\n      jump(tag_91)\n    tag_90:\n        /* \"contracts/MyToken.sol\":4326:4333  player2 */\n      0x01\n      0x00\n      swap1\n      sload\n      swap1\n      0x0100\n      exp\n      swap1\n      div\n      0xffffffffffffffffffffffffffffffffffffffff\n      and\n        /* \"contracts/MyToken.sol\":4317:4323  winner */\n      0x04\n      0x00\n        /* \"contracts/MyToken.sol\":4317:4333  winner = player2 */\n      0x0100\n      exp\n      dup2\n      sload\n      dup2\n      0xffffffffffffffffffffffffffffffffffffffff\n      mul\n      not\n      and\n      swap1\n      dup4\n      0xffffffffffffffffffffffffffffffffffffffff\n      and\n      mul\n      or\n      swap1\n      sstore\n      pop\n        /* \"contracts/MyToken.sol\":4224:4344  if (result == 0 || result == 1) {... */\n    tag_91:\n        /* \"contracts/MyToken.sol\":4074:4350  {... */\n      pop\n        /* \"contracts/MyToken.sol\":4039:4350  function endgame() public isPlayer {... */\n      jump\t// out\n        /* \"contracts/MyToken.sol\":570:596  bytes32 public player1Hash */\n    tag_31:\n      sload(0x02)\n      dup2\n      jump\t// out\n        /* \"contracts/MyToken.sol\":3045:4029  function reveal(Weapon weapon, uint32 salt) isPlayer public  ... */\n    tag_37:\n        /* \"contracts/MyToken.sol\":1759:1766  player1 */\n      0x00\n      dup1\n      sload\n      swap1\n      0x0100\n      exp\n      swap1\n      div\n      0xffffffffffffffffffffffffffffffffffffffff\n      and\n        /* \"contracts/MyToken.sol\":1745:1766  msg.sender == player1 */\n      0xffffffffffffffffffffffffffffffffffffffff\n      and\n        /* \"contracts/MyToken.sol\":1745:1755  msg.sender */\n      caller\n        /* \"contracts/MyToken.sol\":1745:1766  msg.sender == player1 */\n      0xffffffffffffffffffffffffffffffffffffffff\n      and\n      eq\n        /* \"contracts/MyToken.sol\":1745:1791  msg.sender == player1 || msg.sender == player2 */\n      dup1\n      tag_93\n      jumpi\n      pop\n        /* \"contracts/MyToken.sol\":1784:1791  player2 */\n      0x01\n      0x00\n      swap1\n      sload\n      swap1\n      0x0100\n      exp\n      swap1\n      div\n      0xffffffffffffffffffffffffffffffffffffffff\n      and\n        /* \"contracts/MyToken.sol\":1770:1791  msg.sender == player2 */\n      0xffffffffffffffffffffffffffffffffffffffff\n      and\n        /* \"contracts/MyToken.sol\":1770:1780  msg.sender */\n      caller\n        /* \"contracts/MyToken.sol\":1770:1791  msg.sender == player2 */\n      0xffffffffffffffffffffffffffffffffffffffff\n      and\n      eq\n        /* \"contracts/MyToken.sol\":1745:1791  msg.sender == player1 || msg.sender == player2 */\n    tag_93:\n        /* \"contracts/MyToken.sol\":1737:1851  require(msg.sender == player1 || msg.sender == player2,... */\n      tag_94\n      jumpi\n      mload(0x40)\n      0x08c379a000000000000000000000000000000000000000000000000000000000\n      dup2\n      mstore\n      0x04\n      add\n      tag_95\n      swap1\n      tag_72\n      jump\t// in\n    tag_95:\n      mload(0x40)\n      dup1\n      swap2\n      sub\n      swap1\n      revert\n    tag_94:\n        /* \"contracts/MyToken.sol\":3131:3137  weapon */\n      dup2\n        /* \"contracts/MyToken.sol\":1947:1958  Weapon.Rock */\n      0x01\n        /* \"contracts/MyToken.sol\":1937:1958  weapon == Weapon.Rock */\n      0x03\n      dup2\n      gt\n      iszero\n      tag_97\n      jumpi\n      tag_98\n      tag_63\n      jump\t// in\n    tag_98:\n    tag_97:\n        /* \"contracts/MyToken.sol\":1937:1943  weapon */\n      dup2\n        /* \"contracts/MyToken.sol\":1937:1958  weapon == Weapon.Rock */\n      0x03\n      dup2\n      gt\n      iszero\n      tag_99\n      jumpi\n      tag_100\n      tag_63\n      jump\t// in\n    tag_100:\n    tag_99:\n      eq\n        /* \"contracts/MyToken.sol\":1937:1984  weapon == Weapon.Rock || weapon == Weapon.Paper */\n      dup1\n      tag_101\n      jumpi\n      pop\n        /* \"contracts/MyToken.sol\":1972:1984  Weapon.Paper */\n      0x02\n        /* \"contracts/MyToken.sol\":1962:1984  weapon == Weapon.Paper */\n      0x03\n      dup2\n      gt\n      iszero\n      tag_102\n      jumpi\n      tag_103\n      tag_63\n      jump\t// in\n    tag_103:\n    tag_102:\n        /* \"contracts/MyToken.sol\":1962:1968  weapon */\n      dup2\n        /* \"contracts/MyToken.sol\":1962:1984  weapon == Weapon.Paper */\n      0x03\n      dup2\n      gt\n      iszero\n      tag_104\n      jumpi\n      tag_105\n      tag_63\n      jump\t// in\n    tag_105:\n    tag_104:\n      eq\n        /* \"contracts/MyToken.sol\":1937:1984  weapon == Weapon.Rock || weapon == Weapon.Paper */\n    tag_101:\n        /* \"contracts/MyToken.sol\":1937:2013  weapon == Weapon.Rock || weapon == Weapon.Paper || weapon == Weapon.Scissors */\n      dup1\n      tag_106\n      jumpi\n      pop\n        /* \"contracts/MyToken.sol\":1998:2013  Weapon.Scissors */\n      0x03\n        /* \"contracts/MyToken.sol\":1988:2013  weapon == Weapon.Scissors */\n      dup1\n      dup2\n      gt\n      iszero\n      tag_107\n      jumpi\n      tag_108\n      tag_63\n      jump\t// in\n    tag_108:\n    tag_107:\n        /* \"contracts/MyToken.sol\":1988:1994  weapon */\n      dup2\n        /* \"contracts/MyToken.sol\":1988:2013  weapon == Weapon.Scissors */\n      0x03\n      dup2\n      gt\n      iszero\n      tag_109\n      jumpi\n      tag_110\n      tag_63\n      jump\t// in\n    tag_110:\n    tag_109:\n      eq\n        /* \"contracts/MyToken.sol\":1937:2013  weapon == Weapon.Rock || weapon == Weapon.Paper || weapon == Weapon.Scissors */\n    tag_106:\n        /* \"contracts/MyToken.sol\":1929:2032  require(weapon == Weapon.Rock || weapon == Weapon.Paper || weapon == Weapon.Scissors, \"invalid weapon\") */\n      tag_111\n      jumpi\n      mload(0x40)\n      0x08c379a000000000000000000000000000000000000000000000000000000000\n      dup2\n      mstore\n      0x04\n      add\n      tag_112\n      swap1\n      tag_113\n      jump\t// in\n    tag_112:\n      mload(0x40)\n      dup1\n      swap2\n      sub\n      swap1\n      revert\n    tag_111:\n        /* \"contracts/MyToken.sol\":3170:3187  Stage.FirstReveal */\n      0x02\n        /* \"contracts/MyToken.sol\":3161:3187  stage == Stage.FirstReveal */\n      0x04\n      dup2\n      gt\n      iszero\n      tag_115\n      jumpi\n      tag_116\n      tag_63\n      jump\t// in\n    tag_116:\n    tag_115:\n        /* \"contracts/MyToken.sol\":3161:3166  stage */\n      0x04\n      0x14\n      swap1\n      sload\n      swap1\n      0x0100\n      exp\n      swap1\n      div\n      0xff\n      and\n        /* \"contracts/MyToken.sol\":3161:3187  stage == Stage.FirstReveal */\n      0x04\n      dup2\n      gt\n      iszero\n      tag_117\n      jumpi\n      tag_118\n      tag_63\n      jump\t// in\n    tag_118:\n    tag_117:\n      eq\n        /* \"contracts/MyToken.sol\":3161:3218  stage == Stage.FirstReveal || stage == Stage.SecondReveal */\n      dup1\n      tag_119\n      jumpi\n      pop\n        /* \"contracts/MyToken.sol\":3200:3218  Stage.SecondReveal */\n      0x03\n        /* \"contracts/MyToken.sol\":3191:3218  stage == Stage.SecondReveal */\n      0x04\n      dup2\n      gt\n      iszero\n      tag_120\n      jumpi\n      tag_121\n      tag_63\n      jump\t// in\n    tag_121:\n    tag_120:\n        /* \"contracts/MyToken.sol\":3191:3196  stage */\n      0x04\n      0x14\n      swap1\n      sload\n      swap1\n      0x0100\n      exp\n      swap1\n      div\n      0xff\n      and\n        /* \"contracts/MyToken.sol\":3191:3218  stage == Stage.SecondReveal */\n      0x04\n      dup2\n      gt\n      iszero\n      tag_122\n      jumpi\n      tag_123\n      tag_63\n      jump\t// in\n    tag_123:\n    tag_122:\n      eq\n        /* \"contracts/MyToken.sol\":3161:3218  stage == Stage.FirstReveal || stage == Stage.SecondReveal */\n    tag_119:\n        /* \"contracts/MyToken.sol\":3153:3238  require(stage == Stage.FirstReveal || stage == Stage.SecondReveal, \"incorrect stage\") */\n      tag_124\n      jumpi\n      mload(0x40)\n      0x08c379a000000000000000000000000000000000000000000000000000000000\n      dup2\n      mstore\n      0x04\n      add\n      tag_125\n      swap1\n      tag_80\n      jump\t// in\n    tag_125:\n      mload(0x40)\n      dup1\n      swap2\n      sub\n      swap1\n      revert\n    tag_124:\n        /* \"contracts/MyToken.sol\":3249:3271  bytes32 calculatedHash */\n      0x00\n        /* \"contracts/MyToken.sol\":3274:3435  sha256(... */\n      0x02\n        /* \"contracts/MyToken.sol\":3330:3363  Strings.toString(uint256(weapon)) */\n      tag_126\n        /* \"contracts/MyToken.sol\":3355:3361  weapon */\n      dup6\n        /* \"contracts/MyToken.sol\":3347:3362  uint256(weapon) */\n      0x03\n      dup2\n      gt\n      iszero\n      tag_127\n      jumpi\n      tag_128\n      tag_63\n      jump\t// in\n    tag_128:\n    tag_127:\n        /* \"contracts/MyToken.sol\":3330:3346  Strings.toString */\n      tag_129\n        /* \"contracts/MyToken.sol\":3330:3363  Strings.toString(uint256(weapon)) */\n      jump\t// in\n    tag_126:\n        /* \"contracts/MyToken.sol\":3388:3410  Strings.toString(salt) */\n      tag_130\n        /* \"contracts/MyToken.sol\":3405:3409  salt */\n      dup6\n        /* \"contracts/MyToken.sol\":3388:3410  Strings.toString(salt) */\n      0xffffffff\n      and\n        /* \"contracts/MyToken.sol\":3388:3404  Strings.toString */\n      tag_129\n        /* \"contracts/MyToken.sol\":3388:3410  Strings.toString(salt) */\n      jump\t// in\n    tag_130:\n        /* \"contracts/MyToken.sol\":3294:3425  bytes.concat(... */\n      add(0x20, mload(0x40))\n      tag_131\n      swap3\n      swap2\n      swap1\n      tag_132\n      jump\t// in\n    tag_131:\n      mload(0x40)\n      0x20\n      dup2\n      dup4\n      sub\n      sub\n      dup2\n      mstore\n      swap1\n      0x40\n      mstore\n        /* \"contracts/MyToken.sol\":3274:3435  sha256(... */\n      mload(0x40)\n      tag_133\n      swap2\n      swap1\n      tag_134\n      jump\t// in\n    tag_133:\n      0x20\n      mload(0x40)\n      dup1\n      dup4\n      sub\n      dup2\n      dup6\n      gas\n      staticcall\n      iszero\n      dup1\n      iszero\n      tag_136\n      jumpi\n      returndatasize\n      0x00\n      dup1\n      returndatacopy\n      revert(0x00, returndatasize)\n    tag_136:\n      pop\n      pop\n      pop\n      mload(0x40)\n      returndatasize\n      not(0x1f)\n      0x1f\n      dup3\n      add\n      and\n      dup3\n      add\n      dup1\n      0x40\n      mstore\n      pop\n      dup2\n      add\n      swap1\n      tag_137\n      swap2\n      swap1\n      tag_138\n      jump\t// in\n    tag_137:\n        /* \"contracts/MyToken.sol\":3249:3435  bytes32 calculatedHash = sha256(... */\n      swap1\n      pop\n        /* \"contracts/MyToken.sol\":3460:3471  Weapon.None */\n      0x00\n        /* \"contracts/MyToken.sol\":3450:3471  weapon == Weapon.None */\n      0x03\n      dup2\n      gt\n      iszero\n      tag_139\n      jumpi\n      tag_140\n      tag_63\n      jump\t// in\n    tag_140:\n    tag_139:\n        /* \"contracts/MyToken.sol\":3450:3456  weapon */\n      dup5\n        /* \"contracts/MyToken.sol\":3450:3471  weapon == Weapon.None */\n      0x03\n      dup2\n      gt\n      iszero\n      tag_141\n      jumpi\n      tag_142\n      tag_63\n      jump\t// in\n    tag_142:\n    tag_141:\n      sub\n        /* \"contracts/MyToken.sol\":3446:3524  if (weapon == Weapon.None) {... */\n      tag_143\n      jumpi\n        /* \"contracts/MyToken.sol\":3487:3513  revert(\"incorrect weapon\") */\n      mload(0x40)\n      0x08c379a000000000000000000000000000000000000000000000000000000000\n      dup2\n      mstore\n      0x04\n      add\n      tag_144\n      swap1\n      tag_145\n      jump\t// in\n    tag_144:\n      mload(0x40)\n      dup1\n      swap2\n      sub\n      swap1\n      revert\n        /* \"contracts/MyToken.sol\":3446:3524  if (weapon == Weapon.None) {... */\n    tag_143:\n        /* \"contracts/MyToken.sol\":3552:3559  player1 */\n      0x00\n      dup1\n      sload\n      swap1\n      0x0100\n      exp\n      swap1\n      div\n      0xffffffffffffffffffffffffffffffffffffffff\n      and\n        /* \"contracts/MyToken.sol\":3538:3559  msg.sender == player1 */\n      0xffffffffffffffffffffffffffffffffffffffff\n      and\n        /* \"contracts/MyToken.sol\":3538:3548  msg.sender */\n      caller\n        /* \"contracts/MyToken.sol\":3538:3559  msg.sender == player1 */\n      0xffffffffffffffffffffffffffffffffffffffff\n      and\n      eq\n        /* \"contracts/MyToken.sol\":3538:3612  msg.sender == player1... */\n      dup1\n      iszero\n      tag_146\n      jumpi\n      pop\n        /* \"contracts/MyToken.sol\":3601:3612  player1Hash */\n      sload(0x02)\n        /* \"contracts/MyToken.sol\":3583:3597  calculatedHash */\n      dup2\n        /* \"contracts/MyToken.sol\":3583:3612  calculatedHash == player1Hash */\n      eq\n        /* \"contracts/MyToken.sol\":3538:3612  msg.sender == player1... */\n    tag_146:\n        /* \"contracts/MyToken.sol\":3534:4023  if (msg.sender == player1... */\n      iszero\n      tag_147\n      jumpi\n        /* \"contracts/MyToken.sol\":3646:3652  weapon */\n      dup4\n        /* \"contracts/MyToken.sol\":3628:3643  weaponOfPlayer1 */\n      0x01\n      0x14\n        /* \"contracts/MyToken.sol\":3628:3652  weaponOfPlayer1 = weapon */\n      0x0100\n      exp\n      dup2\n      sload\n      dup2\n      0xff\n      mul\n      not\n      and\n      swap1\n      dup4\n      0x03\n      dup2\n      gt\n      iszero\n      tag_148\n      jumpi\n      tag_149\n      tag_63\n      jump\t// in\n    tag_149:\n    tag_148:\n      mul\n      or\n      swap1\n      sstore\n      pop\n        /* \"contracts/MyToken.sol\":3671:3697  Reveal(msg.sender, weapon) */\n      0x79a7276ba83fef4fe13f88df855c8420d094de7d84d1d4a3bc10554a841bd80b\n        /* \"contracts/MyToken.sol\":3678:3688  msg.sender */\n      caller\n        /* \"contracts/MyToken.sol\":3690:3696  weapon */\n      dup6\n        /* \"contracts/MyToken.sol\":3671:3697  Reveal(msg.sender, weapon) */\n      mload(0x40)\n      tag_150\n      swap3\n      swap2\n      swap1\n      tag_151\n      jump\t// in\n    tag_150:\n      mload(0x40)\n      dup1\n      swap2\n      sub\n      swap1\n      log1\n        /* \"contracts/MyToken.sol\":3719:3737  Stage.SecondReveal */\n      0x03\n        /* \"contracts/MyToken.sol\":3711:3716  stage */\n      0x04\n      0x14\n        /* \"contracts/MyToken.sol\":3711:3737  stage = Stage.SecondReveal */\n      0x0100\n      exp\n      dup2\n      sload\n      dup2\n      0xff\n      mul\n      not\n      and\n      swap1\n      dup4\n      0x04\n      dup2\n      gt\n      iszero\n      tag_152\n      jumpi\n      tag_153\n      tag_63\n      jump\t// in\n    tag_153:\n    tag_152:\n      mul\n      or\n      swap1\n      sstore\n      pop\n        /* \"contracts/MyToken.sol\":3534:4023  if (msg.sender == player1... */\n      jump(tag_154)\n    tag_147:\n        /* \"contracts/MyToken.sol\":3772:3779  player2 */\n      0x01\n      0x00\n      swap1\n      sload\n      swap1\n      0x0100\n      exp\n      swap1\n      div\n      0xffffffffffffffffffffffffffffffffffffffff\n      and\n        /* \"contracts/MyToken.sol\":3758:3779  msg.sender == player2 */\n      0xffffffffffffffffffffffffffffffffffffffff\n      and\n        /* \"contracts/MyToken.sol\":3758:3768  msg.sender */\n      caller\n        /* \"contracts/MyToken.sol\":3758:3779  msg.sender == player2 */\n      0xffffffffffffffffffffffffffffffffffffffff\n      and\n      eq\n        /* \"contracts/MyToken.sol\":3758:3832  msg.sender == player2... */\n      dup1\n      iszero\n      tag_155\n      jumpi\n      pop\n        /* \"contracts/MyToken.sol\":3821:3832  player2Hash */\n      sload(0x03)\n        /* \"contracts/MyToken.sol\":3803:3817  calculatedHash */\n      dup2\n        /* \"contracts/MyToken.sol\":3803:3832  calculatedHash == player2Hash */\n      eq\n        /* \"contracts/MyToken.sol\":3758:3832  msg.sender == player2... */\n    tag_155:\n        /* \"contracts/MyToken.sol\":3754:4023  if (msg.sender == player2... */\n      iszero\n      tag_156\n      jumpi\n        /* \"contracts/MyToken.sol\":3866:3872  weapon */\n      dup4\n        /* \"contracts/MyToken.sol\":3848:3863  weaponOfPlayer2 */\n      0x01\n      0x15\n        /* \"contracts/MyToken.sol\":3848:3872  weaponOfPlayer2 = weapon */\n      0x0100\n      exp\n      dup2\n      sload\n      dup2\n      0xff\n      mul\n      not\n      and\n      swap1\n      dup4\n      0x03\n      dup2\n      gt\n      iszero\n      tag_157\n      jumpi\n      tag_158\n      tag_63\n      jump\t// in\n    tag_158:\n    tag_157:\n      mul\n      or\n      swap1\n      sstore\n      pop\n        /* \"contracts/MyToken.sol\":3891:3917  Reveal(msg.sender, weapon) */\n      0x79a7276ba83fef4fe13f88df855c8420d094de7d84d1d4a3bc10554a841bd80b\n        /* \"contracts/MyToken.sol\":3898:3908  msg.sender */\n      caller\n        /* \"contracts/MyToken.sol\":3910:3916  weapon */\n      dup6\n        /* \"contracts/MyToken.sol\":3891:3917  Reveal(msg.sender, weapon) */\n      mload(0x40)\n      tag_159\n      swap3\n      swap2\n      swap1\n      tag_151\n      jump\t// in\n    tag_159:\n      mload(0x40)\n      dup1\n      swap2\n      sub\n      swap1\n      log1\n        /* \"contracts/MyToken.sol\":3939:3955  Stage.FinishGame */\n      0x04\n        /* \"contracts/MyToken.sol\":3931:3936  stage */\n      dup1\n      0x14\n        /* \"contracts/MyToken.sol\":3931:3955  stage = Stage.FinishGame */\n      0x0100\n      exp\n      dup2\n      sload\n      dup2\n      0xff\n      mul\n      not\n      and\n      swap1\n      dup4\n      0x04\n      dup2\n      gt\n      iszero\n      tag_160\n      jumpi\n      tag_161\n      tag_63\n      jump\t// in\n    tag_161:\n    tag_160:\n      mul\n      or\n      swap1\n      sstore\n      pop\n        /* \"contracts/MyToken.sol\":3754:4023  if (msg.sender == player2... */\n      jump(tag_162)\n    tag_156:\n        /* \"contracts/MyToken.sol\":3986:4012  revert(\"incorrect weapon\") */\n      mload(0x40)\n      0x08c379a000000000000000000000000000000000000000000000000000000000\n      dup2\n      mstore\n      0x04\n      add\n      tag_163\n      swap1\n      tag_145\n      jump\t// in\n    tag_163:\n      mload(0x40)\n      dup1\n      swap2\n      sub\n      swap1\n      revert\n        /* \"contracts/MyToken.sol\":3754:4023  if (msg.sender == player2... */\n    tag_162:\n        /* \"contracts/MyToken.sol\":3534:4023  if (msg.sender == player1... */\n    tag_154:\n        /* \"contracts/MyToken.sol\":3143:4029  {... */\n      pop\n        /* \"contracts/MyToken.sol\":1861:1862  _ */\n      pop\n        /* \"contracts/MyToken.sol\":3045:4029  function reveal(Weapon weapon, uint32 salt) isPlayer public  ... */\n      pop\n      pop\n      jump\t// out\n        /* \"contracts/MyToken.sol\":2233:2435  function join() isAlreadyIn external... */\n    tag_39:\n        /* \"contracts/MyToken.sol\":2124:2131  player1 */\n      0x00\n      dup1\n      sload\n      swap1\n      0x0100\n      exp\n      swap1\n      div\n      0xffffffffffffffffffffffffffffffffffffffff\n      and\n        /* \"contracts/MyToken.sol\":2110:2131  msg.sender != player1 */\n      0xffffffffffffffffffffffffffffffffffffffff\n      and\n        /* \"contracts/MyToken.sol\":2110:2120  msg.sender */\n      caller\n        /* \"contracts/MyToken.sol\":2110:2131  msg.sender != player1 */\n      0xffffffffffffffffffffffffffffffffffffffff\n      and\n      eq\n      iszero\n        /* \"contracts/MyToken.sol\":2110:2172  msg.sender != player1 &&... */\n      dup1\n      iszero\n      tag_165\n      jumpi\n      pop\n        /* \"contracts/MyToken.sol\":2165:2172  player2 */\n      0x01\n      0x00\n      swap1\n      sload\n      swap1\n      0x0100\n      exp\n      swap1\n      div\n      0xffffffffffffffffffffffffffffffffffffffff\n      and\n        /* \"contracts/MyToken.sol\":2151:2172  msg.sender != player2 */\n      0xffffffffffffffffffffffffffffffffffffffff\n      and\n        /* \"contracts/MyToken.sol\":2151:2161  msg.sender */\n      caller\n        /* \"contracts/MyToken.sol\":2151:2172  msg.sender != player2 */\n      0xffffffffffffffffffffffffffffffffffffffff\n      and\n      eq\n      iszero\n        /* \"contracts/MyToken.sol\":2110:2172  msg.sender != player1 &&... */\n    tag_165:\n        /* \"contracts/MyToken.sol\":2089:2182  require(... */\n      tag_166\n      jumpi\n      0x00\n      dup1\n      revert\n    tag_166:\n        /* \"contracts/MyToken.sol\":1605:1606  0 */\n      0x00\n        /* \"contracts/MyToken.sol\":1586:1607  player1 == address(0) */\n      0xffffffffffffffffffffffffffffffffffffffff\n      and\n        /* \"contracts/MyToken.sol\":1586:1593  player1 */\n      0x00\n      dup1\n      sload\n      swap1\n      0x0100\n      exp\n      swap1\n      div\n      0xffffffffffffffffffffffffffffffffffffffff\n      and\n        /* \"contracts/MyToken.sol\":1586:1607  player1 == address(0) */\n      0xffffffffffffffffffffffffffffffffffffffff\n      and\n      eq\n        /* \"contracts/MyToken.sol\":1586:1632  player1 == address(0) || player2 == address(0) */\n      dup1\n      tag_168\n      jumpi\n      pop\n        /* \"contracts/MyToken.sol\":1630:1631  0 */\n      0x00\n        /* \"contracts/MyToken.sol\":1611:1632  player2 == address(0) */\n      0xffffffffffffffffffffffffffffffffffffffff\n      and\n        /* \"contracts/MyToken.sol\":1611:1618  player2 */\n      0x01\n      0x00\n      swap1\n      sload\n      swap1\n      0x0100\n      exp\n      swap1\n      div\n      0xffffffffffffffffffffffffffffffffffffffff\n      and\n        /* \"contracts/MyToken.sol\":1611:1632  player2 == address(0) */\n      0xffffffffffffffffffffffffffffffffffffffff\n      and\n      eq\n        /* \"contracts/MyToken.sol\":1586:1632  player1 == address(0) || player2 == address(0) */\n    tag_168:\n        /* \"contracts/MyToken.sol\":1578:1679  require(player1 == address(0) || player2 == address(0),... */\n      tag_169\n      jumpi\n      mload(0x40)\n      0x08c379a000000000000000000000000000000000000000000000000000000000\n      dup2\n      mstore\n      0x04\n      add\n      tag_170\n      swap1\n      tag_171\n      jump\t// in\n    tag_170:\n      mload(0x40)\n      dup1\n      swap2\n      sub\n      swap1\n      revert\n    tag_169:\n        /* \"contracts/MyToken.sol\":2328:2329  0 */\n      0x00\n        /* \"contracts/MyToken.sol\":2309:2330  player1 == address(0) */\n      0xffffffffffffffffffffffffffffffffffffffff\n      and\n        /* \"contracts/MyToken.sol\":2309:2316  player1 */\n      0x00\n      dup1\n      sload\n      swap1\n      0x0100\n      exp\n      swap1\n      div\n      0xffffffffffffffffffffffffffffffffffffffff\n      and\n        /* \"contracts/MyToken.sol\":2309:2330  player1 == address(0) */\n      0xffffffffffffffffffffffffffffffffffffffff\n      and\n      sub\n        /* \"contracts/MyToken.sol\":2305:2428  if (player1 == address(0)) {... */\n      tag_173\n      jumpi\n        /* \"contracts/MyToken.sol\":2356:2366  msg.sender */\n      caller\n        /* \"contracts/MyToken.sol\":2346:2353  player1 */\n      0x00\n      dup1\n        /* \"contracts/MyToken.sol\":2346:2366  player1 = msg.sender */\n      0x0100\n      exp\n      dup2\n      sload\n      dup2\n      0xffffffffffffffffffffffffffffffffffffffff\n      mul\n      not\n      and\n      swap1\n      dup4\n      0xffffffffffffffffffffffffffffffffffffffff\n      and\n      mul\n      or\n      swap1\n      sstore\n      pop\n        /* \"contracts/MyToken.sol\":2305:2428  if (player1 == address(0)) {... */\n      jump(tag_174)\n    tag_173:\n        /* \"contracts/MyToken.sol\":2418:2428  msg.sender */\n      caller\n        /* \"contracts/MyToken.sol\":2408:2415  player2 */\n      0x01\n      0x00\n        /* \"contracts/MyToken.sol\":2408:2428  player2 = msg.sender */\n      0x0100\n      exp\n      dup2\n      sload\n      dup2\n      0xffffffffffffffffffffffffffffffffffffffff\n      mul\n      not\n      and\n      swap1\n      dup4\n      0xffffffffffffffffffffffffffffffffffffffff\n      and\n      mul\n      or\n      swap1\n      sstore\n      pop\n        /* \"contracts/MyToken.sol\":2305:2428  if (player1 == address(0)) {... */\n    tag_174:\n        /* \"contracts/MyToken.sol\":2233:2435  function join() isAlreadyIn external... */\n      jump\t// out\n        /* \"contracts/MyToken.sol\":663:701  Stage public stage = Stage.FirstCommit */\n    tag_41:\n      0x04\n      0x14\n      swap1\n      sload\n      swap1\n      0x0100\n      exp\n      swap1\n      div\n      0xff\n      and\n      dup2\n      jump\t// out\n        /* \"contracts/MyToken.sol\":444:466  address public player1 */\n    tag_45:\n      0x00\n      dup1\n      sload\n      swap1\n      0x0100\n      exp\n      swap1\n      div\n      0xffffffffffffffffffffffffffffffffffffffff\n      and\n      dup2\n      jump\t// out\n        /* \"contracts/MyToken.sol\":500:529  Weapon public weaponOfPlayer1 */\n    tag_48:\n      0x01\n      0x14\n      swap1\n      sload\n      swap1\n      0x0100\n      exp\n      swap1\n      div\n      0xff\n      and\n      dup2\n      jump\t// out\n        /* \"contracts/MyToken.sol\":635:656  address public winner */\n    tag_51:\n      0x04\n      0x00\n      swap1\n      sload\n      swap1\n      0x0100\n      exp\n      swap1\n      div\n      0xffffffffffffffffffffffffffffffffffffffff\n      and\n      dup2\n      jump\t// out\n        /* \"contracts/MyToken.sol\":602:628  bytes32 public player2Hash */\n    tag_54:\n      sload(0x03)\n      dup2\n      jump\t// out\n        /* \"contracts/MyToken.sol\":2445:3039  function makeChoice(bytes32 hash) isPlayer public {... */\n    tag_59:\n        /* \"contracts/MyToken.sol\":1759:1766  player1 */\n      0x00\n      dup1\n      sload\n      swap1\n      0x0100\n      exp\n      swap1\n      div\n      0xffffffffffffffffffffffffffffffffffffffff\n      and\n        /* \"contracts/MyToken.sol\":1745:1766  msg.sender == player1 */\n      0xffffffffffffffffffffffffffffffffffffffff\n      and\n        /* \"contracts/MyToken.sol\":1745:1755  msg.sender */\n      caller\n        /* \"contracts/MyToken.sol\":1745:1766  msg.sender == player1 */\n      0xffffffffffffffffffffffffffffffffffffffff\n      and\n      eq\n        /* \"contracts/MyToken.sol\":1745:1791  msg.sender == player1 || msg.sender == player2 */\n      dup1\n      tag_176\n      jumpi\n      pop\n        /* \"contracts/MyToken.sol\":1784:1791  player2 */\n      0x01\n      0x00\n      swap1\n      sload\n      swap1\n      0x0100\n      exp\n      swap1\n      div\n      0xffffffffffffffffffffffffffffffffffffffff\n      and\n        /* \"contracts/MyToken.sol\":1770:1791  msg.sender == player2 */\n      0xffffffffffffffffffffffffffffffffffffffff\n      and\n        /* \"contracts/MyToken.sol\":1770:1780  msg.sender */\n      caller\n        /* \"contracts/MyToken.sol\":1770:1791  msg.sender == player2 */\n      0xffffffffffffffffffffffffffffffffffffffff\n      and\n      eq\n        /* \"contracts/MyToken.sol\":1745:1791  msg.sender == player1 || msg.sender == player2 */\n    tag_176:\n        /* \"contracts/MyToken.sol\":1737:1851  require(msg.sender == player1 || msg.sender == player2,... */\n      tag_177\n      jumpi\n      mload(0x40)\n      0x08c379a000000000000000000000000000000000000000000000000000000000\n      dup2\n      mstore\n      0x04\n      add\n      tag_178\n      swap1\n      tag_72\n      jump\t// in\n    tag_178:\n      mload(0x40)\n      dup1\n      swap2\n      sub\n      swap1\n      revert\n    tag_177:\n        /* \"contracts/MyToken.sol\":2522:2539  Stage.FirstCommit */\n      0x00\n        /* \"contracts/MyToken.sol\":2513:2539  stage == Stage.FirstCommit */\n      0x04\n      dup2\n      gt\n      iszero\n      tag_180\n      jumpi\n      tag_181\n      tag_63\n      jump\t// in\n    tag_181:\n    tag_180:\n        /* \"contracts/MyToken.sol\":2513:2518  stage */\n      0x04\n      0x14\n      swap1\n      sload\n      swap1\n      0x0100\n      exp\n      swap1\n      div\n      0xff\n      and\n        /* \"contracts/MyToken.sol\":2513:2539  stage == Stage.FirstCommit */\n      0x04\n      dup2\n      gt\n      iszero\n      tag_182\n      jumpi\n      tag_183\n      tag_63\n      jump\t// in\n    tag_183:\n    tag_182:\n      eq\n        /* \"contracts/MyToken.sol\":2513:2570  stage == Stage.FirstCommit || stage == Stage.SecondCommit */\n      dup1\n      tag_184\n      jumpi\n      pop\n        /* \"contracts/MyToken.sol\":2552:2570  Stage.SecondCommit */\n      0x01\n        /* \"contracts/MyToken.sol\":2543:2570  stage == Stage.SecondCommit */\n      0x04\n      dup2\n      gt\n      iszero\n      tag_185\n      jumpi\n      tag_186\n      tag_63\n      jump\t// in\n    tag_186:\n    tag_185:\n        /* \"contracts/MyToken.sol\":2543:2548  stage */\n      0x04\n      0x14\n      swap1\n      sload\n      swap1\n      0x0100\n      exp\n      swap1\n      div\n      0xff\n      and\n        /* \"contracts/MyToken.sol\":2543:2570  stage == Stage.SecondCommit */\n      0x04\n      dup2\n      gt\n      iszero\n      tag_187\n      jumpi\n      tag_188\n      tag_63\n      jump\t// in\n    tag_188:\n    tag_187:\n      eq\n        /* \"contracts/MyToken.sol\":2513:2570  stage == Stage.FirstCommit || stage == Stage.SecondCommit */\n    tag_184:\n        /* \"contracts/MyToken.sol\":2505:2571  require(stage == Stage.FirstCommit || stage == Stage.SecondCommit) */\n      tag_189\n      jumpi\n      0x00\n      dup1\n      revert\n    tag_189:\n        /* \"contracts/MyToken.sol\":2600:2607  player1 */\n      0x00\n      dup1\n      sload\n      swap1\n      0x0100\n      exp\n      swap1\n      div\n      0xffffffffffffffffffffffffffffffffffffffff\n      and\n        /* \"contracts/MyToken.sol\":2586:2607  msg.sender == player1 */\n      0xffffffffffffffffffffffffffffffffffffffff\n      and\n        /* \"contracts/MyToken.sol\":2586:2596  msg.sender */\n      caller\n        /* \"contracts/MyToken.sol\":2586:2607  msg.sender == player1 */\n      0xffffffffffffffffffffffffffffffffffffffff\n      and\n      eq\n        /* \"contracts/MyToken.sol\":2586:2653  msg.sender == player1... */\n      dup1\n      iszero\n      tag_190\n      jumpi\n      pop\n        /* \"contracts/MyToken.sol\":2650:2653  0x0 */\n      0x00\n        /* \"contracts/MyToken.sol\":2635:2653  player1Hash == 0x0 */\n      dup1\n      shl\n        /* \"contracts/MyToken.sol\":2635:2646  player1Hash */\n      sload(0x02)\n        /* \"contracts/MyToken.sol\":2635:2653  player1Hash == 0x0 */\n      eq\n        /* \"contracts/MyToken.sol\":2586:2653  msg.sender == player1... */\n    tag_190:\n        /* \"contracts/MyToken.sol\":2582:2890  if (msg.sender == player1... */\n      iszero\n      tag_191\n      jumpi\n        /* \"contracts/MyToken.sol\":2683:2687  hash */\n      dup1\n        /* \"contracts/MyToken.sol\":2669:2680  player1Hash */\n      0x02\n        /* \"contracts/MyToken.sol\":2669:2687  player1Hash = hash */\n      dup2\n      swap1\n      sstore\n      pop\n        /* \"contracts/MyToken.sol\":2582:2890  if (msg.sender == player1... */\n      jump(tag_192)\n    tag_191:\n        /* \"contracts/MyToken.sol\":2722:2729  player2 */\n      0x01\n      0x00\n      swap1\n      sload\n      swap1\n      0x0100\n      exp\n      swap1\n      div\n      0xffffffffffffffffffffffffffffffffffffffff\n      and\n        /* \"contracts/MyToken.sol\":2708:2729  msg.sender == player2 */\n      0xffffffffffffffffffffffffffffffffffffffff\n      and\n        /* \"contracts/MyToken.sol\":2708:2718  msg.sender */\n      caller\n        /* \"contracts/MyToken.sol\":2708:2729  msg.sender == player2 */\n      0xffffffffffffffffffffffffffffffffffffffff\n      and\n      eq\n        /* \"contracts/MyToken.sol\":2708:2775  msg.sender == player2... */\n      dup1\n      iszero\n      tag_193\n      jumpi\n      pop\n        /* \"contracts/MyToken.sol\":2772:2775  0x0 */\n      0x00\n        /* \"contracts/MyToken.sol\":2757:2775  player2Hash == 0x0 */\n      dup1\n      shl\n        /* \"contracts/MyToken.sol\":2757:2768  player2Hash */\n      sload(0x03)\n        /* \"contracts/MyToken.sol\":2757:2775  player2Hash == 0x0 */\n      eq\n        /* \"contracts/MyToken.sol\":2708:2775  msg.sender == player2... */\n    tag_193:\n        /* \"contracts/MyToken.sol\":2704:2890  if (msg.sender == player2... */\n      iszero\n      tag_194\n      jumpi\n        /* \"contracts/MyToken.sol\":2805:2809  hash */\n      dup1\n        /* \"contracts/MyToken.sol\":2791:2802  player2Hash */\n      0x03\n        /* \"contracts/MyToken.sol\":2791:2809  player2Hash = hash */\n      dup2\n      swap1\n      sstore\n      pop\n        /* \"contracts/MyToken.sol\":2704:2890  if (msg.sender == player2... */\n      jump(tag_195)\n    tag_194:\n        /* \"contracts/MyToken.sol\":2840:2879  revert(\"Players have already commited\") */\n      mload(0x40)\n      0x08c379a000000000000000000000000000000000000000000000000000000000\n      dup2\n      mstore\n      0x04\n      add\n      tag_196\n      swap1\n      tag_197\n      jump\t// in\n    tag_196:\n      mload(0x40)\n      dup1\n      swap2\n      sub\n      swap1\n      revert\n        /* \"contracts/MyToken.sol\":2704:2890  if (msg.sender == player2... */\n    tag_195:\n        /* \"contracts/MyToken.sol\":2582:2890  if (msg.sender == player1... */\n    tag_192:\n        /* \"contracts/MyToken.sol\":2905:2923  Commit(msg.sender) */\n      0x599481bd81d46ea2372b7f45ab8900ac58961566f184806290d9ede4e0fc7641\n        /* \"contracts/MyToken.sol\":2912:2922  msg.sender */\n      caller\n        /* \"contracts/MyToken.sol\":2905:2923  Commit(msg.sender) */\n      mload(0x40)\n      tag_198\n      swap2\n      swap1\n      tag_25\n      jump\t// in\n    tag_198:\n      mload(0x40)\n      dup1\n      swap2\n      sub\n      swap1\n      log1\n        /* \"contracts/MyToken.sol\":2946:2963  Stage.FirstCommit */\n      0x00\n        /* \"contracts/MyToken.sol\":2937:2963  stage == Stage.FirstCommit */\n      0x04\n      dup2\n      gt\n      iszero\n      tag_199\n      jumpi\n      tag_200\n      tag_63\n      jump\t// in\n    tag_200:\n    tag_199:\n        /* \"contracts/MyToken.sol\":2937:2942  stage */\n      0x04\n      0x14\n      swap1\n      sload\n      swap1\n      0x0100\n      exp\n      swap1\n      div\n      0xff\n      and\n        /* \"contracts/MyToken.sol\":2937:2963  stage == Stage.FirstCommit */\n      0x04\n      dup2\n      gt\n      iszero\n      tag_201\n      jumpi\n      tag_202\n      tag_63\n      jump\t// in\n    tag_202:\n    tag_201:\n      sub\n        /* \"contracts/MyToken.sol\":2934:3032  if(stage == Stage.FirstCommit) stage = Stage.SecondCommit;... */\n      tag_203\n      jumpi\n        /* \"contracts/MyToken.sol\":2973:2991  Stage.SecondCommit */\n      0x01\n        /* \"contracts/MyToken.sol\":2965:2970  stage */\n      0x04\n      0x14\n        /* \"contracts/MyToken.sol\":2965:2991  stage = Stage.SecondCommit */\n      0x0100\n      exp\n      dup2\n      sload\n      dup2\n      0xff\n      mul\n      not\n      and\n      swap1\n      dup4\n      0x04\n      dup2\n      gt\n      iszero\n      tag_204\n      jumpi\n      tag_205\n      tag_63\n      jump\t// in\n    tag_205:\n    tag_204:\n      mul\n      or\n      swap1\n      sstore\n      pop\n        /* \"contracts/MyToken.sol\":2934:3032  if(stage == Stage.FirstCommit) stage = Stage.SecondCommit;... */\n      jump(tag_206)\n    tag_203:\n        /* \"contracts/MyToken.sol\":3015:3032  Stage.FirstReveal */\n      0x02\n        /* \"contracts/MyToken.sol\":3007:3012  stage */\n      0x04\n      0x14\n        /* \"contracts/MyToken.sol\":3007:3032  stage = Stage.FirstReveal */\n      0x0100\n      exp\n      dup2\n      sload\n      dup2\n      0xff\n      mul\n      not\n      and\n      swap1\n      dup4\n      0x04\n      dup2\n      gt\n      iszero\n      tag_207\n      jumpi\n      tag_208\n      tag_63\n      jump\t// in\n    tag_208:\n    tag_207:\n      mul\n      or\n      swap1\n      sstore\n      pop\n        /* \"contracts/MyToken.sol\":2934:3032  if(stage == Stage.FirstCommit) stage = Stage.SecondCommit;... */\n    tag_206:\n        /* \"contracts/MyToken.sol\":2445:3039  function makeChoice(bytes32 hash) isPlayer public {... */\n      pop\n      jump\t// out\n        /* \"@openzeppelin/contracts/utils/Strings.sol\":415:1111  function toString(uint256 value) internal pure returns (string memory) {... */\n    tag_129:\n        /* \"@openzeppelin/contracts/utils/Strings.sol\":471:484  string memory */\n      0x60\n        /* \"@openzeppelin/contracts/utils/Strings.sol\":520:534  uint256 length */\n      0x00\n        /* \"@openzeppelin/contracts/utils/Strings.sol\":557:558  1 */\n      0x01\n        /* \"@openzeppelin/contracts/utils/Strings.sol\":537:554  Math.log10(value) */\n      tag_210\n        /* \"@openzeppelin/contracts/utils/Strings.sol\":548:553  value */\n      dup5\n        /* \"@openzeppelin/contracts/utils/Strings.sol\":537:547  Math.log10 */\n      tag_211\n        /* \"@openzeppelin/contracts/utils/Strings.sol\":537:554  Math.log10(value) */\n      jump\t// in\n    tag_210:\n        /* \"@openzeppelin/contracts/utils/Strings.sol\":537:558  Math.log10(value) + 1 */\n      add\n        /* \"@openzeppelin/contracts/utils/Strings.sol\":520:558  uint256 length = Math.log10(value) + 1 */\n      swap1\n      pop\n        /* \"@openzeppelin/contracts/utils/Strings.sol\":572:592  string memory buffer */\n      0x00\n        /* \"@openzeppelin/contracts/utils/Strings.sol\":606:612  length */\n      dup2\n        /* \"@openzeppelin/contracts/utils/Strings.sol\":595:613  new string(length) */\n      0xffffffffffffffff\n      dup2\n      gt\n      iszero\n      tag_212\n      jumpi\n      tag_213\n      tag_214\n      jump\t// in\n    tag_213:\n    tag_212:\n      mload(0x40)\n      swap1\n      dup1\n      dup3\n      mstore\n      dup1\n      0x1f\n      add\n      not(0x1f)\n      and\n      0x20\n      add\n      dup3\n      add\n      0x40\n      mstore\n      dup1\n      iszero\n      tag_215\n      jumpi\n      dup2\n      0x20\n      add\n      0x01\n      dup3\n      mul\n      dup1\n      calldatasize\n      dup4\n      calldatacopy\n      dup1\n      dup3\n      add\n      swap2\n      pop\n      pop\n      swap1\n      pop\n    tag_215:\n      pop\n        /* \"@openzeppelin/contracts/utils/Strings.sol\":572:613  string memory buffer = new string(length) */\n      swap1\n      pop\n        /* \"@openzeppelin/contracts/utils/Strings.sol\":627:638  uint256 ptr */\n      0x00\n        /* \"@openzeppelin/contracts/utils/Strings.sol\":753:759  length */\n      dup3\n        /* \"@openzeppelin/contracts/utils/Strings.sol\":749:751  32 */\n      0x20\n        /* \"@openzeppelin/contracts/utils/Strings.sol\":745:760  add(32, length) */\n      add\n        /* \"@openzeppelin/contracts/utils/Strings.sol\":737:743  buffer */\n      dup3\n        /* \"@openzeppelin/contracts/utils/Strings.sol\":733:761  add(buffer, add(32, length)) */\n      add\n        /* \"@openzeppelin/contracts/utils/Strings.sol\":726:761  ptr := add(buffer, add(32, length)) */\n      swap1\n      pop\n        /* \"@openzeppelin/contracts/utils/Strings.sol\":788:1068  while (true) {... */\n    tag_216:\n        /* \"@openzeppelin/contracts/utils/Strings.sol\":795:799  true */\n      0x01\n        /* \"@openzeppelin/contracts/utils/Strings.sol\":788:1068  while (true) {... */\n      iszero\n      tag_217\n      jumpi\n        /* \"@openzeppelin/contracts/utils/Strings.sol\":819:824  ptr-- */\n      dup1\n      dup1\n      0x01\n      swap1\n      sub\n      swap2\n      pop\n      pop\n        /* \"@openzeppelin/contracts/utils/Strings.sol\":958:966  _SYMBOLS */\n      0x3031323334353637383961626364656600000000000000000000000000000000\n        /* \"@openzeppelin/contracts/utils/Strings.sol\":953:955  10 */\n      0x0a\n        /* \"@openzeppelin/contracts/utils/Strings.sol\":946:951  value */\n      dup7\n        /* \"@openzeppelin/contracts/utils/Strings.sol\":942:956  mod(value, 10) */\n      mod\n        /* \"@openzeppelin/contracts/utils/Strings.sol\":937:967  byte(mod(value, 10), _SYMBOLS) */\n      byte\n        /* \"@openzeppelin/contracts/utils/Strings.sol\":932:935  ptr */\n      dup2\n        /* \"@openzeppelin/contracts/utils/Strings.sol\":924:968  mstore8(ptr, byte(mod(value, 10), _SYMBOLS)) */\n      mstore8\n        /* \"@openzeppelin/contracts/utils/Strings.sol\":1012:1014  10 */\n      0x0a\n        /* \"@openzeppelin/contracts/utils/Strings.sol\":1003:1014  value /= 10 */\n      dup6\n      dup2\n      tag_218\n      jumpi\n      tag_219\n      tag_220\n      jump\t// in\n    tag_219:\n    tag_218:\n      div\n      swap5\n      pop\n        /* \"@openzeppelin/contracts/utils/Strings.sol\":1045:1046  0 */\n      0x00\n        /* \"@openzeppelin/contracts/utils/Strings.sol\":1036:1041  value */\n      dup6\n        /* \"@openzeppelin/contracts/utils/Strings.sol\":1036:1046  value == 0 */\n      sub\n        /* \"@openzeppelin/contracts/utils/Strings.sol\":788:1068  while (true) {... */\n      tag_216\n        /* \"@openzeppelin/contracts/utils/Strings.sol\":1032:1053  if (value == 0) break */\n      jumpi\n        /* \"@openzeppelin/contracts/utils/Strings.sol\":788:1068  while (true) {... */\n    tag_217:\n        /* \"@openzeppelin/contracts/utils/Strings.sol\":1088:1094  buffer */\n      dup2\n        /* \"@openzeppelin/contracts/utils/Strings.sol\":1081:1094  return buffer */\n      swap4\n      pop\n      pop\n      pop\n      pop\n        /* \"@openzeppelin/contracts/utils/Strings.sol\":415:1111  function toString(uint256 value) internal pure returns (string memory) {... */\n      swap2\n      swap1\n      pop\n      jump\t// out\n        /* \"@openzeppelin/contracts/utils/math/Math.sol\":9889:10779  function log10(uint256 value) internal pure returns (uint256) {... */\n    tag_211:\n        /* \"@openzeppelin/contracts/utils/math/Math.sol\":9942:9949  uint256 */\n      0x00\n        /* \"@openzeppelin/contracts/utils/math/Math.sol\":9961:9975  uint256 result */\n      dup1\n        /* \"@openzeppelin/contracts/utils/math/Math.sol\":9978:9979  0 */\n      0x00\n        /* \"@openzeppelin/contracts/utils/math/Math.sol\":9961:9979  uint256 result = 0 */\n      swap1\n      pop\n        /* \"@openzeppelin/contracts/utils/math/Math.sol\":10026:10032  10**64 */\n      0x184f03e93ff9f4daa797ed6e38ed64bf6a1f010000000000000000\n        /* \"@openzeppelin/contracts/utils/math/Math.sol\":10017:10022  value */\n      dup4\n        /* \"@openzeppelin/contracts/utils/math/Math.sol\":10017:10032  value >= 10**64 */\n      lt\n        /* \"@openzeppelin/contracts/utils/math/Math.sol\":10013:10112  if (value >= 10**64) {... */\n      tag_223\n      jumpi\n        /* \"@openzeppelin/contracts/utils/math/Math.sol\":10061:10067  10**64 */\n      0x184f03e93ff9f4daa797ed6e38ed64bf6a1f010000000000000000\n        /* \"@openzeppelin/contracts/utils/math/Math.sol\":10052:10067  value /= 10**64 */\n      dup4\n      dup2\n      tag_224\n      jumpi\n      tag_225\n      tag_220\n      jump\t// in\n    tag_225:\n    tag_224:\n      div\n      swap3\n      pop\n        /* \"@openzeppelin/contracts/utils/math/Math.sol\":10095:10097  64 */\n      0x40\n        /* \"@openzeppelin/contracts/utils/math/Math.sol\":10085:10097  result += 64 */\n      dup2\n      add\n      swap1\n      pop\n        /* \"@openzeppelin/contracts/utils/math/Math.sol\":10013:10112  if (value >= 10**64) {... */\n    tag_223:\n        /* \"@openzeppelin/contracts/utils/math/Math.sol\":10138:10144  10**32 */\n      0x04ee2d6d415b85acef8100000000\n        /* \"@openzeppelin/contracts/utils/math/Math.sol\":10129:10134  value */\n      dup4\n        /* \"@openzeppelin/contracts/utils/math/Math.sol\":10129:10144  value >= 10**32 */\n      lt\n        /* \"@openzeppelin/contracts/utils/math/Math.sol\":10125:10224  if (value >= 10**32) {... */\n      tag_226\n      jumpi\n        /* \"@openzeppelin/contracts/utils/math/Math.sol\":10173:10179  10**32 */\n      0x04ee2d6d415b85acef8100000000\n        /* \"@openzeppelin/contracts/utils/math/Math.sol\":10164:10179  value /= 10**32 */\n      dup4\n      dup2\n      tag_227\n      jumpi\n      tag_228\n      tag_220\n      jump\t// in\n    tag_228:\n    tag_227:\n      div\n      swap3\n      pop\n        /* \"@openzeppelin/contracts/utils/math/Math.sol\":10207:10209  32 */\n      0x20\n        /* \"@openzeppelin/contracts/utils/math/Math.sol\":10197:10209  result += 32 */\n      dup2\n      add\n      swap1\n      pop\n        /* \"@openzeppelin/contracts/utils/math/Math.sol\":10125:10224  if (value >= 10**32) {... */\n    tag_226:\n        /* \"@openzeppelin/contracts/utils/math/Math.sol\":10250:10256  10**16 */\n      0x2386f26fc10000\n        /* \"@openzeppelin/contracts/utils/math/Math.sol\":10241:10246  value */\n      dup4\n        /* \"@openzeppelin/contracts/utils/math/Math.sol\":10241:10256  value >= 10**16 */\n      lt\n        /* \"@openzeppelin/contracts/utils/math/Math.sol\":10237:10336  if (value >= 10**16) {... */\n      tag_229\n      jumpi\n        /* \"@openzeppelin/contracts/utils/math/Math.sol\":10285:10291  10**16 */\n      0x2386f26fc10000\n        /* \"@openzeppelin/contracts/utils/math/Math.sol\":10276:10291  value /= 10**16 */\n      dup4\n      dup2\n      tag_230\n      jumpi\n      tag_231\n      tag_220\n      jump\t// in\n    tag_231:\n    tag_230:\n      div\n      swap3\n      pop\n        /* \"@openzeppelin/contracts/utils/math/Math.sol\":10319:10321  16 */\n      0x10\n        /* \"@openzeppelin/contracts/utils/math/Math.sol\":10309:10321  result += 16 */\n      dup2\n      add\n      swap1\n      pop\n        /* \"@openzeppelin/contracts/utils/math/Math.sol\":10237:10336  if (value >= 10**16) {... */\n    tag_229:\n        /* \"@openzeppelin/contracts/utils/math/Math.sol\":10362:10367  10**8 */\n      0x05f5e100\n        /* \"@openzeppelin/contracts/utils/math/Math.sol\":10353:10358  value */\n      dup4\n        /* \"@openzeppelin/contracts/utils/math/Math.sol\":10353:10367  value >= 10**8 */\n      lt\n        /* \"@openzeppelin/contracts/utils/math/Math.sol\":10349:10445  if (value >= 10**8) {... */\n      tag_232\n      jumpi\n        /* \"@openzeppelin/contracts/utils/math/Math.sol\":10396:10401  10**8 */\n      0x05f5e100\n        /* \"@openzeppelin/contracts/utils/math/Math.sol\":10387:10401  value /= 10**8 */\n      dup4\n      dup2\n      tag_233\n      jumpi\n      tag_234\n      tag_220\n      jump\t// in\n    tag_234:\n    tag_233:\n      div\n      swap3\n      pop\n        /* \"@openzeppelin/contracts/utils/math/Math.sol\":10429:10430  8 */\n      0x08\n        /* \"@openzeppelin/contracts/utils/math/Math.sol\":10419:10430  result += 8 */\n      dup2\n      add\n      swap1\n      pop\n        /* \"@openzeppelin/contracts/utils/math/Math.sol\":10349:10445  if (value >= 10**8) {... */\n    tag_232:\n        /* \"@openzeppelin/contracts/utils/math/Math.sol\":10471:10476  10**4 */\n      0x2710\n        /* \"@openzeppelin/contracts/utils/math/Math.sol\":10462:10467  value */\n      dup4\n        /* \"@openzeppelin/contracts/utils/math/Math.sol\":10462:10476  value >= 10**4 */\n      lt\n        /* \"@openzeppelin/contracts/utils/math/Math.sol\":10458:10554  if (value >= 10**4) {... */\n      tag_235\n      jumpi\n        /* \"@openzeppelin/contracts/utils/math/Math.sol\":10505:10510  10**4 */\n      0x2710\n        /* \"@openzeppelin/contracts/utils/math/Math.sol\":10496:10510  value /= 10**4 */\n      dup4\n      dup2\n      tag_236\n      jumpi\n      tag_237\n      tag_220\n      jump\t// in\n    tag_237:\n    tag_236:\n      div\n      swap3\n      pop\n        /* \"@openzeppelin/contracts/utils/math/Math.sol\":10538:10539  4 */\n      0x04\n        /* \"@openzeppelin/contracts/utils/math/Math.sol\":10528:10539  result += 4 */\n      dup2\n      add\n      swap1\n      pop\n        /* \"@openzeppelin/contracts/utils/math/Math.sol\":10458:10554  if (value >= 10**4) {... */\n    tag_235:\n        /* \"@openzeppelin/contracts/utils/math/Math.sol\":10580:10585  10**2 */\n      0x64\n        /* \"@openzeppelin/contracts/utils/math/Math.sol\":10571:10576  value */\n      dup4\n        /* \"@openzeppelin/contracts/utils/math/Math.sol\":10571:10585  value >= 10**2 */\n      lt\n        /* \"@openzeppelin/contracts/utils/math/Math.sol\":10567:10663  if (value >= 10**2) {... */\n      tag_238\n      jumpi\n        /* \"@openzeppelin/contracts/utils/math/Math.sol\":10614:10619  10**2 */\n      0x64\n        /* \"@openzeppelin/contracts/utils/math/Math.sol\":10605:10619  value /= 10**2 */\n      dup4\n      dup2\n      tag_239\n      jumpi\n      tag_240\n      tag_220\n      jump\t// in\n    tag_240:\n    tag_239:\n      div\n      swap3\n      pop\n        /* \"@openzeppelin/contracts/utils/math/Math.sol\":10647:10648  2 */\n      0x02\n        /* \"@openzeppelin/contracts/utils/math/Math.sol\":10637:10648  result += 2 */\n      dup2\n      add\n      swap1\n      pop\n        /* \"@openzeppelin/contracts/utils/math/Math.sol\":10567:10663  if (value >= 10**2) {... */\n    tag_238:\n        /* \"@openzeppelin/contracts/utils/math/Math.sol\":10689:10694  10**1 */\n      0x0a\n        /* \"@openzeppelin/contracts/utils/math/Math.sol\":10680:10685  value */\n      dup4\n        /* \"@openzeppelin/contracts/utils/math/Math.sol\":10680:10694  value >= 10**1 */\n      lt\n        /* \"@openzeppelin/contracts/utils/math/Math.sol\":10676:10740  if (value >= 10**1) {... */\n      tag_241\n      jumpi\n        /* \"@openzeppelin/contracts/utils/math/Math.sol\":10724:10725  1 */\n      0x01\n        /* \"@openzeppelin/contracts/utils/math/Math.sol\":10714:10725  result += 1 */\n      dup2\n      add\n      swap1\n      pop\n        /* \"@openzeppelin/contracts/utils/math/Math.sol\":10676:10740  if (value >= 10**1) {... */\n    tag_241:\n        /* \"@openzeppelin/contracts/utils/math/Math.sol\":10766:10772  result */\n      dup1\n        /* \"@openzeppelin/contracts/utils/math/Math.sol\":10759:10772  return result */\n      swap2\n      pop\n      pop\n        /* \"@openzeppelin/contracts/utils/math/Math.sol\":9889:10779  function log10(uint256 value) internal pure returns (uint256) {... */\n      swap2\n      swap1\n      pop\n      jump\t// out\n        /* \"#utility.yul\":7:187   */\n    tag_63:\n        /* \"#utility.yul\":55:132   */\n      0x4e487b7100000000000000000000000000000000000000000000000000000000\n        /* \"#utility.yul\":52:53   */\n      0x00\n        /* \"#utility.yul\":45:133   */\n      mstore\n        /* \"#utility.yul\":152:156   */\n      0x21\n        /* \"#utility.yul\":149:150   */\n      0x04\n        /* \"#utility.yul\":142:157   */\n      mstore\n        /* \"#utility.yul\":176:180   */\n      0x24\n        /* \"#utility.yul\":173:174   */\n      0x00\n        /* \"#utility.yul\":166:181   */\n      revert\n        /* \"#utility.yul\":193:309   */\n    tag_242:\n        /* \"#utility.yul\":277:278   */\n      0x04\n        /* \"#utility.yul\":270:275   */\n      dup2\n        /* \"#utility.yul\":267:279   */\n      lt\n        /* \"#utility.yul\":257:303   */\n      tag_286\n      jumpi\n        /* \"#utility.yul\":283:301   */\n      tag_287\n      tag_63\n      jump\t// in\n    tag_287:\n        /* \"#utility.yul\":257:303   */\n    tag_286:\n        /* \"#utility.yul\":193:309   */\n      pop\n      jump\t// out\n        /* \"#utility.yul\":315:448   */\n    tag_243:\n        /* \"#utility.yul\":363:370   */\n      0x00\n        /* \"#utility.yul\":392:397   */\n      dup2\n        /* \"#utility.yul\":381:397   */\n      swap1\n      pop\n        /* \"#utility.yul\":398:442   */\n      tag_289\n        /* \"#utility.yul\":436:441   */\n      dup3\n        /* \"#utility.yul\":398:442   */\n      tag_242\n      jump\t// in\n    tag_289:\n        /* \"#utility.yul\":315:448   */\n      swap2\n      swap1\n      pop\n      jump\t// out\n        /* \"#utility.yul\":454:587   */\n    tag_244:\n        /* \"#utility.yul\":513:522   */\n      0x00\n        /* \"#utility.yul\":546:581   */\n      tag_291\n        /* \"#utility.yul\":575:580   */\n      dup3\n        /* \"#utility.yul\":546:581   */\n      tag_243\n      jump\t// in\n    tag_291:\n        /* \"#utility.yul\":533:581   */\n      swap1\n      pop\n        /* \"#utility.yul\":454:587   */\n      swap2\n      swap1\n      pop\n      jump\t// out\n        /* \"#utility.yul\":593:742   */\n    tag_245:\n        /* \"#utility.yul\":689:735   */\n      tag_293\n        /* \"#utility.yul\":729:734   */\n      dup2\n        /* \"#utility.yul\":689:735   */\n      tag_244\n      jump\t// in\n    tag_293:\n        /* \"#utility.yul\":684:687   */\n      dup3\n        /* \"#utility.yul\":677:736   */\n      mstore\n        /* \"#utility.yul\":593:742   */\n      pop\n      pop\n      jump\t// out\n        /* \"#utility.yul\":748:988   */\n    tag_21:\n        /* \"#utility.yul\":850:854   */\n      0x00\n        /* \"#utility.yul\":888:890   */\n      0x20\n        /* \"#utility.yul\":877:886   */\n      dup3\n        /* \"#utility.yul\":873:891   */\n      add\n        /* \"#utility.yul\":865:891   */\n      swap1\n      pop\n        /* \"#utility.yul\":901:981   */\n      tag_295\n        /* \"#utility.yul\":978:979   */\n      0x00\n        /* \"#utility.yul\":967:976   */\n      dup4\n        /* \"#utility.yul\":963:980   */\n      add\n        /* \"#utility.yul\":954:960   */\n      dup5\n        /* \"#utility.yul\":901:981   */\n      tag_245\n      jump\t// in\n    tag_295:\n        /* \"#utility.yul\":748:988   */\n      swap3\n      swap2\n      pop\n      pop\n      jump\t// out\n        /* \"#utility.yul\":994:1120   */\n    tag_246:\n        /* \"#utility.yul\":1031:1038   */\n      0x00\n        /* \"#utility.yul\":1071:1113   */\n      0xffffffffffffffffffffffffffffffffffffffff\n        /* \"#utility.yul\":1064:1069   */\n      dup3\n        /* \"#utility.yul\":1060:1114   */\n      and\n        /* \"#utility.yul\":1049:1114   */\n      swap1\n      pop\n        /* \"#utility.yul\":994:1120   */\n      swap2\n      swap1\n      pop\n      jump\t// out\n        /* \"#utility.yul\":1126:1222   */\n    tag_247:\n        /* \"#utility.yul\":1163:1170   */\n      0x00\n        /* \"#utility.yul\":1192:1216   */\n      tag_298\n        /* \"#utility.yul\":1210:1215   */\n      dup3\n        /* \"#utility.yul\":1192:1216   */\n      tag_246\n      jump\t// in\n    tag_298:\n        /* \"#utility.yul\":1181:1216   */\n      swap1\n      pop\n        /* \"#utility.yul\":1126:1222   */\n      swap2\n      swap1\n      pop\n      jump\t// out\n        /* \"#utility.yul\":1228:1346   */\n    tag_248:\n        /* \"#utility.yul\":1315:1339   */\n      tag_300\n        /* \"#utility.yul\":1333:1338   */\n      dup2\n        /* \"#utility.yul\":1315:1339   */\n      tag_247\n      jump\t// in\n    tag_300:\n        /* \"#utility.yul\":1310:1313   */\n      dup3\n        /* \"#utility.yul\":1303:1340   */\n      mstore\n        /* \"#utility.yul\":1228:1346   */\n      pop\n      pop\n      jump\t// out\n        /* \"#utility.yul\":1352:1574   */\n    tag_25:\n        /* \"#utility.yul\":1445:1449   */\n      0x00\n        /* \"#utility.yul\":1483:1485   */\n      0x20\n        /* \"#utility.yul\":1472:1481   */\n      dup3\n        /* \"#utility.yul\":1468:1486   */\n      add\n        /* \"#utility.yul\":1460:1486   */\n      swap1\n      pop\n        /* \"#utility.yul\":1496:1567   */\n      tag_302\n        /* \"#utility.yul\":1564:1565   */\n      0x00\n        /* \"#utility.yul\":1553:1562   */\n      dup4\n        /* \"#utility.yul\":1549:1566   */\n      add\n        /* \"#utility.yul\":1540:1546   */\n      dup5\n        /* \"#utility.yul\":1496:1567   */\n      tag_248\n      jump\t// in\n    tag_302:\n        /* \"#utility.yul\":1352:1574   */\n      swap3\n      swap2\n      pop\n      pop\n      jump\t// out\n        /* \"#utility.yul\":1580:1657   */\n    tag_249:\n        /* \"#utility.yul\":1617:1624   */\n      0x00\n        /* \"#utility.yul\":1646:1651   */\n      dup2\n        /* \"#utility.yul\":1635:1651   */\n      swap1\n      pop\n        /* \"#utility.yul\":1580:1657   */\n      swap2\n      swap1\n      pop\n      jump\t// out\n        /* \"#utility.yul\":1663:1781   */\n    tag_250:\n        /* \"#utility.yul\":1750:1774   */\n      tag_305\n        /* \"#utility.yul\":1768:1773   */\n      dup2\n        /* \"#utility.yul\":1750:1774   */\n      tag_249\n      jump\t// in\n    tag_305:\n        /* \"#utility.yul\":1745:1748   */\n      dup3\n        /* \"#utility.yul\":1738:1775   */\n      mstore\n        /* \"#utility.yul\":1663:1781   */\n      pop\n      pop\n      jump\t// out\n        /* \"#utility.yul\":1787:2009   */\n    tag_33:\n        /* \"#utility.yul\":1880:1884   */\n      0x00\n        /* \"#utility.yul\":1918:1920   */\n      0x20\n        /* \"#utility.yul\":1907:1916   */\n      dup3\n        /* \"#utility.yul\":1903:1921   */\n      add\n        /* \"#utility.yul\":1895:1921   */\n      swap1\n      pop\n        /* \"#utility.yul\":1931:2002   */\n      tag_307\n        /* \"#utility.yul\":1999:2000   */\n      0x00\n        /* \"#utility.yul\":1988:1997   */\n      dup4\n        /* \"#utility.yul\":1984:2001   */\n      add\n        /* \"#utility.yul\":1975:1981   */\n      dup5\n        /* \"#utility.yul\":1931:2002   */\n      tag_250\n      jump\t// in\n    tag_307:\n        /* \"#utility.yul\":1787:2009   */\n      swap3\n      swap2\n      pop\n      pop\n      jump\t// out\n        /* \"#utility.yul\":2096:2213   */\n    tag_252:\n        /* \"#utility.yul\":2205:2206   */\n      0x00\n        /* \"#utility.yul\":2202:2203   */\n      dup1\n        /* \"#utility.yul\":2195:2207   */\n      revert\n        /* \"#utility.yul\":2342:2452   */\n    tag_254:\n        /* \"#utility.yul\":2426:2427   */\n      0x04\n        /* \"#utility.yul\":2419:2424   */\n      dup2\n        /* \"#utility.yul\":2416:2428   */\n      lt\n        /* \"#utility.yul\":2406:2446   */\n      tag_312\n      jumpi\n        /* \"#utility.yul\":2442:2443   */\n      0x00\n        /* \"#utility.yul\":2439:2440   */\n      dup1\n        /* \"#utility.yul\":2432:2444   */\n      revert\n        /* \"#utility.yul\":2406:2446   */\n    tag_312:\n        /* \"#utility.yul\":2342:2452   */\n      pop\n      jump\t// out\n        /* \"#utility.yul\":2458:2619   */\n    tag_255:\n        /* \"#utility.yul\":2515:2520   */\n      0x00\n        /* \"#utility.yul\":2553:2559   */\n      dup2\n        /* \"#utility.yul\":2540:2560   */\n      calldataload\n        /* \"#utility.yul\":2531:2560   */\n      swap1\n      pop\n        /* \"#utility.yul\":2569:2613   */\n      tag_314\n        /* \"#utility.yul\":2607:2612   */\n      dup2\n        /* \"#utility.yul\":2569:2613   */\n      tag_254\n      jump\t// in\n    tag_314:\n        /* \"#utility.yul\":2458:2619   */\n      swap3\n      swap2\n      pop\n      pop\n      jump\t// out\n        /* \"#utility.yul\":2625:2718   */\n    tag_256:\n        /* \"#utility.yul\":2661:2668   */\n      0x00\n        /* \"#utility.yul\":2701:2711   */\n      0xffffffff\n        /* \"#utility.yul\":2694:2699   */\n      dup3\n        /* \"#utility.yul\":2690:2712   */\n      and\n        /* \"#utility.yul\":2679:2712   */\n      swap1\n      pop\n        /* \"#utility.yul\":2625:2718   */\n      swap2\n      swap1\n      pop\n      jump\t// out\n        /* \"#utility.yul\":2724:2844   */\n    tag_257:\n        /* \"#utility.yul\":2796:2819   */\n      tag_317\n        /* \"#utility.yul\":2813:2818   */\n      dup2\n        /* \"#utility.yul\":2796:2819   */\n      tag_256\n      jump\t// in\n    tag_317:\n        /* \"#utility.yul\":2789:2794   */\n      dup2\n        /* \"#utility.yul\":2786:2820   */\n      eq\n        /* \"#utility.yul\":2776:2838   */\n      tag_318\n      jumpi\n        /* \"#utility.yul\":2834:2835   */\n      0x00\n        /* \"#utility.yul\":2831:2832   */\n      dup1\n        /* \"#utility.yul\":2824:2836   */\n      revert\n        /* \"#utility.yul\":2776:2838   */\n    tag_318:\n        /* \"#utility.yul\":2724:2844   */\n      pop\n      jump\t// out\n        /* \"#utility.yul\":2850:2987   */\n    tag_258:\n        /* \"#utility.yul\":2895:2900   */\n      0x00\n        /* \"#utility.yul\":2933:2939   */\n      dup2\n        /* \"#utility.yul\":2920:2940   */\n      calldataload\n        /* \"#utility.yul\":2911:2940   */\n      swap1\n      pop\n        /* \"#utility.yul\":2949:2981   */\n      tag_320\n        /* \"#utility.yul\":2975:2980   */\n      dup2\n        /* \"#utility.yul\":2949:2981   */\n      tag_257\n      jump\t// in\n    tag_320:\n        /* \"#utility.yul\":2850:2987   */\n      swap3\n      swap2\n      pop\n      pop\n      jump\t// out\n        /* \"#utility.yul\":2993:3487   */\n    tag_36:\n        /* \"#utility.yul\":3071:3077   */\n      0x00\n        /* \"#utility.yul\":3079:3085   */\n      dup1\n        /* \"#utility.yul\":3128:3130   */\n      0x40\n        /* \"#utility.yul\":3116:3125   */\n      dup4\n        /* \"#utility.yul\":3107:3114   */\n      dup6\n        /* \"#utility.yul\":3103:3126   */\n      sub\n        /* \"#utility.yul\":3099:3131   */\n      slt\n        /* \"#utility.yul\":3096:3215   */\n      iszero\n      tag_322\n      jumpi\n        /* \"#utility.yul\":3134:3213   */\n      tag_323\n      tag_252\n      jump\t// in\n    tag_323:\n        /* \"#utility.yul\":3096:3215   */\n    tag_322:\n        /* \"#utility.yul\":3254:3255   */\n      0x00\n        /* \"#utility.yul\":3279:3343   */\n      tag_324\n        /* \"#utility.yul\":3335:3342   */\n      dup6\n        /* \"#utility.yul\":3326:3332   */\n      dup3\n        /* \"#utility.yul\":3315:3324   */\n      dup7\n        /* \"#utility.yul\":3311:3333   */\n      add\n        /* \"#utility.yul\":3279:3343   */\n      tag_255\n      jump\t// in\n    tag_324:\n        /* \"#utility.yul\":3269:3343   */\n      swap3\n      pop\n        /* \"#utility.yul\":3225:3353   */\n      pop\n        /* \"#utility.yul\":3392:3394   */\n      0x20\n        /* \"#utility.yul\":3418:3470   */\n      tag_325\n        /* \"#utility.yul\":3462:3469   */\n      dup6\n        /* \"#utility.yul\":3453:3459   */\n      dup3\n        /* \"#utility.yul\":3442:3451   */\n      dup7\n        /* \"#utility.yul\":3438:3460   */\n      add\n        /* \"#utility.yul\":3418:3470   */\n      tag_258\n      jump\t// in\n    tag_325:\n        /* \"#utility.yul\":3408:3470   */\n      swap2\n      pop\n        /* \"#utility.yul\":3363:3480   */\n      pop\n        /* \"#utility.yul\":2993:3487   */\n      swap3\n      pop\n      swap3\n      swap1\n      pop\n      jump\t// out\n        /* \"#utility.yul\":3493:3608   */\n    tag_259:\n        /* \"#utility.yul\":3576:3577   */\n      0x05\n        /* \"#utility.yul\":3569:3574   */\n      dup2\n        /* \"#utility.yul\":3566:3578   */\n      lt\n        /* \"#utility.yul\":3556:3602   */\n      tag_327\n      jumpi\n        /* \"#utility.yul\":3582:3600   */\n      tag_328\n      tag_63\n      jump\t// in\n    tag_328:\n        /* \"#utility.yul\":3556:3602   */\n    tag_327:\n        /* \"#utility.yul\":3493:3608   */\n      pop\n      jump\t// out\n        /* \"#utility.yul\":3614:3745   */\n    tag_260:\n        /* \"#utility.yul\":3661:3668   */\n      0x00\n        /* \"#utility.yul\":3690:3695   */\n      dup2\n        /* \"#utility.yul\":3679:3695   */\n      swap1\n      pop\n        /* \"#utility.yul\":3696:3739   */\n      tag_330\n        /* \"#utility.yul\":3733:3738   */\n      dup3\n        /* \"#utility.yul\":3696:3739   */\n      tag_259\n      jump\t// in\n    tag_330:\n        /* \"#utility.yul\":3614:3745   */\n      swap2\n      swap1\n      pop\n      jump\t// out\n        /* \"#utility.yul\":3751:3882   */\n    tag_261:\n        /* \"#utility.yul\":3809:3818   */\n      0x00\n        /* \"#utility.yul\":3842:3876   */\n      tag_332\n        /* \"#utility.yul\":3870:3875   */\n      dup3\n        /* \"#utility.yul\":3842:3876   */\n      tag_260\n      jump\t// in\n    tag_332:\n        /* \"#utility.yul\":3829:3876   */\n      swap1\n      pop\n        /* \"#utility.yul\":3751:3882   */\n      swap2\n      swap1\n      pop\n      jump\t// out\n        /* \"#utility.yul\":3888:4035   */\n    tag_262:\n        /* \"#utility.yul\":3983:4028   */\n      tag_334\n        /* \"#utility.yul\":4022:4027   */\n      dup2\n        /* \"#utility.yul\":3983:4028   */\n      tag_261\n      jump\t// in\n    tag_334:\n        /* \"#utility.yul\":3978:3981   */\n      dup3\n        /* \"#utility.yul\":3971:4029   */\n      mstore\n        /* \"#utility.yul\":3888:4035   */\n      pop\n      pop\n      jump\t// out\n        /* \"#utility.yul\":4041:4279   */\n    tag_43:\n        /* \"#utility.yul\":4142:4146   */\n      0x00\n        /* \"#utility.yul\":4180:4182   */\n      0x20\n        /* \"#utility.yul\":4169:4178   */\n      dup3\n        /* \"#utility.yul\":4165:4183   */\n      add\n        /* \"#utility.yul\":4157:4183   */\n      swap1\n      pop\n        /* \"#utility.yul\":4193:4272   */\n      tag_336\n        /* \"#utility.yul\":4269:4270   */\n      0x00\n        /* \"#utility.yul\":4258:4267   */\n      dup4\n        /* \"#utility.yul\":4254:4271   */\n      add\n        /* \"#utility.yul\":4245:4251   */\n      dup5\n        /* \"#utility.yul\":4193:4272   */\n      tag_262\n      jump\t// in\n    tag_336:\n        /* \"#utility.yul\":4041:4279   */\n      swap3\n      swap2\n      pop\n      pop\n      jump\t// out\n        /* \"#utility.yul\":4285:4407   */\n    tag_263:\n        /* \"#utility.yul\":4358:4382   */\n      tag_338\n        /* \"#utility.yul\":4376:4381   */\n      dup2\n        /* \"#utility.yul\":4358:4382   */\n      tag_249\n      jump\t// in\n    tag_338:\n        /* \"#utility.yul\":4351:4356   */\n      dup2\n        /* \"#utility.yul\":4348:4383   */\n      eq\n        /* \"#utility.yul\":4338:4401   */\n      tag_339\n      jumpi\n        /* \"#utility.yul\":4397:4398   */\n      0x00\n        /* \"#utility.yul\":4394:4395   */\n      dup1\n        /* \"#utility.yul\":4387:4399   */\n      revert\n        /* \"#utility.yul\":4338:4401   */\n    tag_339:\n        /* \"#utility.yul\":4285:4407   */\n      pop\n      jump\t// out\n        /* \"#utility.yul\":4413:4552   */\n    tag_264:\n        /* \"#utility.yul\":4459:4464   */\n      0x00\n        /* \"#utility.yul\":4497:4503   */\n      dup2\n        /* \"#utility.yul\":4484:4504   */\n      calldataload\n        /* \"#utility.yul\":4475:4504   */\n      swap1\n      pop\n        /* \"#utility.yul\":4513:4546   */\n      tag_341\n        /* \"#utility.yul\":4540:4545   */\n      dup2\n        /* \"#utility.yul\":4513:4546   */\n      tag_263\n      jump\t// in\n    tag_341:\n        /* \"#utility.yul\":4413:4552   */\n      swap3\n      swap2\n      pop\n      pop\n      jump\t// out\n        /* \"#utility.yul\":4558:4887   */\n    tag_58:\n        /* \"#utility.yul\":4617:4623   */\n      0x00\n        /* \"#utility.yul\":4666:4668   */\n      0x20\n        /* \"#utility.yul\":4654:4663   */\n      dup3\n        /* \"#utility.yul\":4645:4652   */\n      dup5\n        /* \"#utility.yul\":4641:4664   */\n      sub\n        /* \"#utility.yul\":4637:4669   */\n      slt\n        /* \"#utility.yul\":4634:4753   */\n      iszero\n      tag_343\n      jumpi\n        /* \"#utility.yul\":4672:4751   */\n      tag_344\n      tag_252\n      jump\t// in\n    tag_344:\n        /* \"#utility.yul\":4634:4753   */\n    tag_343:\n        /* \"#utility.yul\":4792:4793   */\n      0x00\n        /* \"#utility.yul\":4817:4870   */\n      tag_345\n        /* \"#utility.yul\":4862:4869   */\n      dup5\n        /* \"#utility.yul\":4853:4859   */\n      dup3\n        /* \"#utility.yul\":4842:4851   */\n      dup6\n        /* \"#utility.yul\":4838:4860   */\n      add\n        /* \"#utility.yul\":4817:4870   */\n      tag_264\n      jump\t// in\n    tag_345:\n        /* \"#utility.yul\":4807:4870   */\n      swap2\n      pop\n        /* \"#utility.yul\":4763:4880   */\n      pop\n        /* \"#utility.yul\":4558:4887   */\n      swap3\n      swap2\n      pop\n      pop\n      jump\t// out\n        /* \"#utility.yul\":4893:5062   */\n    tag_265:\n        /* \"#utility.yul\":4977:4988   */\n      0x00\n        /* \"#utility.yul\":5011:5017   */\n      dup3\n        /* \"#utility.yul\":5006:5009   */\n      dup3\n        /* \"#utility.yul\":4999:5018   */\n      mstore\n        /* \"#utility.yul\":5051:5055   */\n      0x20\n        /* \"#utility.yul\":5046:5049   */\n      dup3\n        /* \"#utility.yul\":5042:5056   */\n      add\n        /* \"#utility.yul\":5027:5056   */\n      swap1\n      pop\n        /* \"#utility.yul\":4893:5062   */\n      swap3\n      swap2\n      pop\n      pop\n      jump\t// out\n        /* \"#utility.yul\":5068:5248   */\n    tag_266:\n        /* \"#utility.yul\":5208:5240   */\n      0x596f7520617265206e6f7420706c6179696e6720746869732067616d652e0000\n        /* \"#utility.yul\":5204:5205   */\n      0x00\n        /* \"#utility.yul\":5196:5202   */\n      dup3\n        /* \"#utility.yul\":5192:5206   */\n      add\n        /* \"#utility.yul\":5185:5241   */\n      mstore\n        /* \"#utility.yul\":5068:5248   */\n      pop\n      jump\t// out\n        /* \"#utility.yul\":5254:5620   */\n    tag_267:\n        /* \"#utility.yul\":5396:5399   */\n      0x00\n        /* \"#utility.yul\":5417:5484   */\n      tag_349\n        /* \"#utility.yul\":5481:5483   */\n      0x1e\n        /* \"#utility.yul\":5476:5479   */\n      dup4\n        /* \"#utility.yul\":5417:5484   */\n      tag_265\n      jump\t// in\n    tag_349:\n        /* \"#utility.yul\":5410:5484   */\n      swap2\n      pop\n        /* \"#utility.yul\":5493:5586   */\n      tag_350\n        /* \"#utility.yul\":5582:5585   */\n      dup3\n        /* \"#utility.yul\":5493:5586   */\n      tag_266\n      jump\t// in\n    tag_350:\n        /* \"#utility.yul\":5611:5613   */\n      0x20\n        /* \"#utility.yul\":5606:5609   */\n      dup3\n        /* \"#utility.yul\":5602:5614   */\n      add\n        /* \"#utility.yul\":5595:5614   */\n      swap1\n      pop\n        /* \"#utility.yul\":5254:5620   */\n      swap2\n      swap1\n      pop\n      jump\t// out\n        /* \"#utility.yul\":5626:6045   */\n    tag_72:\n        /* \"#utility.yul\":5792:5796   */\n      0x00\n        /* \"#utility.yul\":5830:5832   */\n      0x20\n        /* \"#utility.yul\":5819:5828   */\n      dup3\n        /* \"#utility.yul\":5815:5833   */\n      add\n        /* \"#utility.yul\":5807:5833   */\n      swap1\n      pop\n        /* \"#utility.yul\":5879:5888   */\n      dup2\n        /* \"#utility.yul\":5873:5877   */\n      dup2\n        /* \"#utility.yul\":5869:5889   */\n      sub\n        /* \"#utility.yul\":5865:5866   */\n      0x00\n        /* \"#utility.yul\":5854:5863   */\n      dup4\n        /* \"#utility.yul\":5850:5867   */\n      add\n        /* \"#utility.yul\":5843:5890   */\n      mstore\n        /* \"#utility.yul\":5907:6038   */\n      tag_352\n        /* \"#utility.yul\":6033:6037   */\n      dup2\n        /* \"#utility.yul\":5907:6038   */\n      tag_267\n      jump\t// in\n    tag_352:\n        /* \"#utility.yul\":5899:6038   */\n      swap1\n      pop\n        /* \"#utility.yul\":5626:6045   */\n      swap2\n      swap1\n      pop\n      jump\t// out\n        /* \"#utility.yul\":6051:6216   */\n    tag_268:\n        /* \"#utility.yul\":6191:6208   */\n      0x696e636f72726563742073746167650000000000000000000000000000000000\n        /* \"#utility.yul\":6187:6188   */\n      0x00\n        /* \"#utility.yul\":6179:6185   */\n      dup3\n        /* \"#utility.yul\":6175:6189   */\n      add\n        /* \"#utility.yul\":6168:6209   */\n      mstore\n        /* \"#utility.yul\":6051:6216   */\n      pop\n      jump\t// out\n        /* \"#utility.yul\":6222:6588   */\n    tag_269:\n        /* \"#utility.yul\":6364:6367   */\n      0x00\n        /* \"#utility.yul\":6385:6452   */\n      tag_355\n        /* \"#utility.yul\":6449:6451   */\n      0x0f\n        /* \"#utility.yul\":6444:6447   */\n      dup4\n        /* \"#utility.yul\":6385:6452   */\n      tag_265\n      jump\t// in\n    tag_355:\n        /* \"#utility.yul\":6378:6452   */\n      swap2\n      pop\n        /* \"#utility.yul\":6461:6554   */\n      tag_356\n        /* \"#utility.yul\":6550:6553   */\n      dup3\n        /* \"#utility.yul\":6461:6554   */\n      tag_268\n      jump\t// in\n    tag_356:\n        /* \"#utility.yul\":6579:6581   */\n      0x20\n        /* \"#utility.yul\":6574:6577   */\n      dup3\n        /* \"#utility.yul\":6570:6582   */\n      add\n        /* \"#utility.yul\":6563:6582   */\n      swap1\n      pop\n        /* \"#utility.yul\":6222:6588   */\n      swap2\n      swap1\n      pop\n      jump\t// out\n        /* \"#utility.yul\":6594:7013   */\n    tag_80:\n        /* \"#utility.yul\":6760:6764   */\n      0x00\n        /* \"#utility.yul\":6798:6800   */\n      0x20\n        /* \"#utility.yul\":6787:6796   */\n      dup3\n        /* \"#utility.yul\":6783:6801   */\n      add\n        /* \"#utility.yul\":6775:6801   */\n      swap1\n      pop\n        /* \"#utility.yul\":6847:6856   */\n      dup2\n        /* \"#utility.yul\":6841:6845   */\n      dup2\n        /* \"#utility.yul\":6837:6857   */\n      sub\n        /* \"#utility.yul\":6833:6834   */\n      0x00\n        /* \"#utility.yul\":6822:6831   */\n      dup4\n        /* \"#utility.yul\":6818:6835   */\n      add\n        /* \"#utility.yul\":6811:6858   */\n      mstore\n        /* \"#utility.yul\":6875:7006   */\n      tag_358\n        /* \"#utility.yul\":7001:7005   */\n      dup2\n        /* \"#utility.yul\":6875:7006   */\n      tag_269\n      jump\t// in\n    tag_358:\n        /* \"#utility.yul\":6867:7006   */\n      swap1\n      pop\n        /* \"#utility.yul\":6594:7013   */\n      swap2\n      swap1\n      pop\n      jump\t// out\n        /* \"#utility.yul\":7019:7183   */\n    tag_270:\n        /* \"#utility.yul\":7159:7175   */\n      0x696e76616c696420776561706f6e000000000000000000000000000000000000\n        /* \"#utility.yul\":7155:7156   */\n      0x00\n        /* \"#utility.yul\":7147:7153   */\n      dup3\n        /* \"#utility.yul\":7143:7157   */\n      add\n        /* \"#utility.yul\":7136:7176   */\n      mstore\n        /* \"#utility.yul\":7019:7183   */\n      pop\n      jump\t// out\n        /* \"#utility.yul\":7189:7555   */\n    tag_271:\n        /* \"#utility.yul\":7331:7334   */\n      0x00\n        /* \"#utility.yul\":7352:7419   */\n      tag_361\n        /* \"#utility.yul\":7416:7418   */\n      0x0e\n        /* \"#utility.yul\":7411:7414   */\n      dup4\n        /* \"#utility.yul\":7352:7419   */\n      tag_265\n      jump\t// in\n    tag_361:\n        /* \"#utility.yul\":7345:7419   */\n      swap2\n      pop\n        /* \"#utility.yul\":7428:7521   */\n      tag_362\n        /* \"#utility.yul\":7517:7520   */\n      dup3\n        /* \"#utility.yul\":7428:7521   */\n      tag_270\n      jump\t// in\n    tag_362:\n        /* \"#utility.yul\":7546:7548   */\n      0x20\n        /* \"#utility.yul\":7541:7544   */\n      dup3\n        /* \"#utility.yul\":7537:7549   */\n      add\n        /* \"#utility.yul\":7530:7549   */\n      swap1\n      pop\n        /* \"#utility.yul\":7189:7555   */\n      swap2\n      swap1\n      pop\n      jump\t// out\n        /* \"#utility.yul\":7561:7980   */\n    tag_113:\n        /* \"#utility.yul\":7727:7731   */\n      0x00\n        /* \"#utility.yul\":7765:7767   */\n      0x20\n        /* \"#utility.yul\":7754:7763   */\n      dup3\n        /* \"#utility.yul\":7750:7768   */\n      add\n        /* \"#utility.yul\":7742:7768   */\n      swap1\n      pop\n        /* \"#utility.yul\":7814:7823   */\n      dup2\n        /* \"#utility.yul\":7808:7812   */\n      dup2\n        /* \"#utility.yul\":7804:7824   */\n      sub\n        /* \"#utility.yul\":7800:7801   */\n      0x00\n        /* \"#utility.yul\":7789:7798   */\n      dup4\n        /* \"#utility.yul\":7785:7802   */\n      add\n        /* \"#utility.yul\":7778:7825   */\n      mstore\n        /* \"#utility.yul\":7842:7973   */\n      tag_364\n        /* \"#utility.yul\":7968:7972   */\n      dup2\n        /* \"#utility.yul\":7842:7973   */\n      tag_271\n      jump\t// in\n    tag_364:\n        /* \"#utility.yul\":7834:7973   */\n      swap1\n      pop\n        /* \"#utility.yul\":7561:7980   */\n      swap2\n      swap1\n      pop\n      jump\t// out\n        /* \"#utility.yul\":7986:8084   */\n    tag_272:\n        /* \"#utility.yul\":8037:8043   */\n      0x00\n        /* \"#utility.yul\":8071:8076   */\n      dup2\n        /* \"#utility.yul\":8065:8077   */\n      mload\n        /* \"#utility.yul\":8055:8077   */\n      swap1\n      pop\n        /* \"#utility.yul\":7986:8084   */\n      swap2\n      swap1\n      pop\n      jump\t// out\n        /* \"#utility.yul\":8090:8237   */\n    tag_273:\n        /* \"#utility.yul\":8191:8202   */\n      0x00\n        /* \"#utility.yul\":8228:8231   */\n      dup2\n        /* \"#utility.yul\":8213:8231   */\n      swap1\n      pop\n        /* \"#utility.yul\":8090:8237   */\n      swap3\n      swap2\n      pop\n      pop\n      jump\t// out\n        /* \"#utility.yul\":8243:8489   */\n    tag_274:\n        /* \"#utility.yul\":8324:8325   */\n      0x00\n        /* \"#utility.yul\":8334:8447   */\n    tag_368:\n        /* \"#utility.yul\":8348:8354   */\n      dup4\n        /* \"#utility.yul\":8345:8346   */\n      dup2\n        /* \"#utility.yul\":8342:8355   */\n      lt\n        /* \"#utility.yul\":8334:8447   */\n      iszero\n      tag_370\n      jumpi\n        /* \"#utility.yul\":8433:8434   */\n      dup1\n        /* \"#utility.yul\":8428:8431   */\n      dup3\n        /* \"#utility.yul\":8424:8435   */\n      add\n        /* \"#utility.yul\":8418:8436   */\n      mload\n        /* \"#utility.yul\":8414:8415   */\n      dup2\n        /* \"#utility.yul\":8409:8412   */\n      dup5\n        /* \"#utility.yul\":8405:8416   */\n      add\n        /* \"#utility.yul\":8398:8437   */\n      mstore\n        /* \"#utility.yul\":8370:8372   */\n      0x20\n        /* \"#utility.yul\":8367:8368   */\n      dup2\n        /* \"#utility.yul\":8363:8373   */\n      add\n        /* \"#utility.yul\":8358:8373   */\n      swap1\n      pop\n        /* \"#utility.yul\":8334:8447   */\n      jump(tag_368)\n    tag_370:\n        /* \"#utility.yul\":8481:8482   */\n      0x00\n        /* \"#utility.yul\":8472:8478   */\n      dup5\n        /* \"#utility.yul\":8467:8470   */\n      dup5\n        /* \"#utility.yul\":8463:8479   */\n      add\n        /* \"#utility.yul\":8456:8483   */\n      mstore\n        /* \"#utility.yul\":8305:8489   */\n      pop\n        /* \"#utility.yul\":8243:8489   */\n      pop\n      pop\n      pop\n      jump\t// out\n        /* \"#utility.yul\":8495:8881   */\n    tag_275:\n        /* \"#utility.yul\":8599:8602   */\n      0x00\n        /* \"#utility.yul\":8627:8665   */\n      tag_372\n        /* \"#utility.yul\":8659:8664   */\n      dup3\n        /* \"#utility.yul\":8627:8665   */\n      tag_272\n      jump\t// in\n    tag_372:\n        /* \"#utility.yul\":8681:8769   */\n      tag_373\n        /* \"#utility.yul\":8762:8768   */\n      dup2\n        /* \"#utility.yul\":8757:8760   */\n      dup6\n        /* \"#utility.yul\":8681:8769   */\n      tag_273\n      jump\t// in\n    tag_373:\n        /* \"#utility.yul\":8674:8769   */\n      swap4\n      pop\n        /* \"#utility.yul\":8778:8843   */\n      tag_374\n        /* \"#utility.yul\":8836:8842   */\n      dup2\n        /* \"#utility.yul\":8831:8834   */\n      dup6\n        /* \"#utility.yul\":8824:8828   */\n      0x20\n        /* \"#utility.yul\":8817:8822   */\n      dup7\n        /* \"#utility.yul\":8813:8829   */\n      add\n        /* \"#utility.yul\":8778:8843   */\n      tag_274\n      jump\t// in\n    tag_374:\n        /* \"#utility.yul\":8868:8874   */\n      dup1\n        /* \"#utility.yul\":8863:8866   */\n      dup5\n        /* \"#utility.yul\":8859:8875   */\n      add\n        /* \"#utility.yul\":8852:8875   */\n      swap2\n      pop\n        /* \"#utility.yul\":8603:8881   */\n      pop\n        /* \"#utility.yul\":8495:8881   */\n      swap3\n      swap2\n      pop\n      pop\n      jump\t// out\n        /* \"#utility.yul\":8887:9314   */\n    tag_132:\n        /* \"#utility.yul\":9063:9066   */\n      0x00\n        /* \"#utility.yul\":9085:9178   */\n      tag_376\n        /* \"#utility.yul\":9174:9177   */\n      dup3\n        /* \"#utility.yul\":9165:9171   */\n      dup6\n        /* \"#utility.yul\":9085:9178   */\n      tag_275\n      jump\t// in\n    tag_376:\n        /* \"#utility.yul\":9078:9178   */\n      swap2\n      pop\n        /* \"#utility.yul\":9195:9288   */\n      tag_377\n        /* \"#utility.yul\":9284:9287   */\n      dup3\n        /* \"#utility.yul\":9275:9281   */\n      dup5\n        /* \"#utility.yul\":9195:9288   */\n      tag_275\n      jump\t// in\n    tag_377:\n        /* \"#utility.yul\":9188:9288   */\n      swap2\n      pop\n        /* \"#utility.yul\":9305:9308   */\n      dup2\n        /* \"#utility.yul\":9298:9308   */\n      swap1\n      pop\n        /* \"#utility.yul\":8887:9314   */\n      swap4\n      swap3\n      pop\n      pop\n      pop\n      jump\t// out\n        /* \"#utility.yul\":9320:9591   */\n    tag_134:\n        /* \"#utility.yul\":9450:9453   */\n      0x00\n        /* \"#utility.yul\":9472:9565   */\n      tag_379\n        /* \"#utility.yul\":9561:9564   */\n      dup3\n        /* \"#utility.yul\":9552:9558   */\n      dup5\n        /* \"#utility.yul\":9472:9565   */\n      tag_275\n      jump\t// in\n    tag_379:\n        /* \"#utility.yul\":9465:9565   */\n      swap2\n      pop\n        /* \"#utility.yul\":9582:9585   */\n      dup2\n        /* \"#utility.yul\":9575:9585   */\n      swap1\n      pop\n        /* \"#utility.yul\":9320:9591   */\n      swap3\n      swap2\n      pop\n      pop\n      jump\t// out\n        /* \"#utility.yul\":9597:9740   */\n    tag_276:\n        /* \"#utility.yul\":9654:9659   */\n      0x00\n        /* \"#utility.yul\":9685:9691   */\n      dup2\n        /* \"#utility.yul\":9679:9692   */\n      mload\n        /* \"#utility.yul\":9670:9692   */\n      swap1\n      pop\n        /* \"#utility.yul\":9701:9734   */\n      tag_381\n        /* \"#utility.yul\":9728:9733   */\n      dup2\n        /* \"#utility.yul\":9701:9734   */\n      tag_263\n      jump\t// in\n    tag_381:\n        /* \"#utility.yul\":9597:9740   */\n      swap3\n      swap2\n      pop\n      pop\n      jump\t// out\n        /* \"#utility.yul\":9746:10097   */\n    tag_138:\n        /* \"#utility.yul\":9816:9822   */\n      0x00\n        /* \"#utility.yul\":9865:9867   */\n      0x20\n        /* \"#utility.yul\":9853:9862   */\n      dup3\n        /* \"#utility.yul\":9844:9851   */\n      dup5\n        /* \"#utility.yul\":9840:9863   */\n      sub\n        /* \"#utility.yul\":9836:9868   */\n      slt\n        /* \"#utility.yul\":9833:9952   */\n      iszero\n      tag_383\n      jumpi\n        /* \"#utility.yul\":9871:9950   */\n      tag_384\n      tag_252\n      jump\t// in\n    tag_384:\n        /* \"#utility.yul\":9833:9952   */\n    tag_383:\n        /* \"#utility.yul\":9991:9992   */\n      0x00\n        /* \"#utility.yul\":10016:10080   */\n      tag_385\n        /* \"#utility.yul\":10072:10079   */\n      dup5\n        /* \"#utility.yul\":10063:10069   */\n      dup3\n        /* \"#utility.yul\":10052:10061   */\n      dup6\n        /* \"#utility.yul\":10048:10070   */\n      add\n        /* \"#utility.yul\":10016:10080   */\n      tag_276\n      jump\t// in\n    tag_385:\n        /* \"#utility.yul\":10006:10080   */\n      swap2\n      pop\n        /* \"#utility.yul\":9962:10090   */\n      pop\n        /* \"#utility.yul\":9746:10097   */\n      swap3\n      swap2\n      pop\n      pop\n      jump\t// out\n        /* \"#utility.yul\":10103:10269   */\n    tag_277:\n        /* \"#utility.yul\":10243:10261   */\n      0x696e636f727265637420776561706f6e00000000000000000000000000000000\n        /* \"#utility.yul\":10239:10240   */\n      0x00\n        /* \"#utility.yul\":10231:10237   */\n      dup3\n        /* \"#utility.yul\":10227:10241   */\n      add\n        /* \"#utility.yul\":10220:10262   */\n      mstore\n        /* \"#utility.yul\":10103:10269   */\n      pop\n      jump\t// out\n        /* \"#utility.yul\":10275:10641   */\n    tag_278:\n        /* \"#utility.yul\":10417:10420   */\n      0x00\n        /* \"#utility.yul\":10438:10505   */\n      tag_388\n        /* \"#utility.yul\":10502:10504   */\n      0x10\n        /* \"#utility.yul\":10497:10500   */\n      dup4\n        /* \"#utility.yul\":10438:10505   */\n      tag_265\n      jump\t// in\n    tag_388:\n        /* \"#utility.yul\":10431:10505   */\n      swap2\n      pop\n        /* \"#utility.yul\":10514:10607   */\n      tag_389\n        /* \"#utility.yul\":10603:10606   */\n      dup3\n        /* \"#utility.yul\":10514:10607   */\n      tag_277\n      jump\t// in\n    tag_389:\n        /* \"#utility.yul\":10632:10634   */\n      0x20\n        /* \"#utility.yul\":10627:10630   */\n      dup3\n        /* \"#utility.yul\":10623:10635   */\n      add\n        /* \"#utility.yul\":10616:10635   */\n      swap1\n      pop\n        /* \"#utility.yul\":10275:10641   */\n      swap2\n      swap1\n      pop\n      jump\t// out\n        /* \"#utility.yul\":10647:11066   */\n    tag_145:\n        /* \"#utility.yul\":10813:10817   */\n      0x00\n        /* \"#utility.yul\":10851:10853   */\n      0x20\n        /* \"#utility.yul\":10840:10849   */\n      dup3\n        /* \"#utility.yul\":10836:10854   */\n      add\n        /* \"#utility.yul\":10828:10854   */\n      swap1\n      pop\n        /* \"#utility.yul\":10900:10909   */\n      dup2\n        /* \"#utility.yul\":10894:10898   */\n      dup2\n        /* \"#utility.yul\":10890:10910   */\n      sub\n        /* \"#utility.yul\":10886:10887   */\n      0x00\n        /* \"#utility.yul\":10875:10884   */\n      dup4\n        /* \"#utility.yul\":10871:10888   */\n      add\n        /* \"#utility.yul\":10864:10911   */\n      mstore\n        /* \"#utility.yul\":10928:11059   */\n      tag_391\n        /* \"#utility.yul\":11054:11058   */\n      dup2\n        /* \"#utility.yul\":10928:11059   */\n      tag_278\n      jump\t// in\n    tag_391:\n        /* \"#utility.yul\":10920:11059   */\n      swap1\n      pop\n        /* \"#utility.yul\":10647:11066   */\n      swap2\n      swap1\n      pop\n      jump\t// out\n        /* \"#utility.yul\":11072:11422   */\n    tag_151:\n        /* \"#utility.yul\":11202:11206   */\n      0x00\n        /* \"#utility.yul\":11240:11242   */\n      0x40\n        /* \"#utility.yul\":11229:11238   */\n      dup3\n        /* \"#utility.yul\":11225:11243   */\n      add\n        /* \"#utility.yul\":11217:11243   */\n      swap1\n      pop\n        /* \"#utility.yul\":11253:11324   */\n      tag_393\n        /* \"#utility.yul\":11321:11322   */\n      0x00\n        /* \"#utility.yul\":11310:11319   */\n      dup4\n        /* \"#utility.yul\":11306:11323   */\n      add\n        /* \"#utility.yul\":11297:11303   */\n      dup6\n        /* \"#utility.yul\":11253:11324   */\n      tag_248\n      jump\t// in\n    tag_393:\n        /* \"#utility.yul\":11334:11415   */\n      tag_394\n        /* \"#utility.yul\":11411:11413   */\n      0x20\n        /* \"#utility.yul\":11400:11409   */\n      dup4\n        /* \"#utility.yul\":11396:11414   */\n      add\n        /* \"#utility.yul\":11387:11393   */\n      dup5\n        /* \"#utility.yul\":11334:11415   */\n      tag_245\n      jump\t// in\n    tag_394:\n        /* \"#utility.yul\":11072:11422   */\n      swap4\n      swap3\n      pop\n      pop\n      pop\n      jump\t// out\n        /* \"#utility.yul\":11428:11595   */\n    tag_279:\n        /* \"#utility.yul\":11568:11587   */\n      0x54686520726f6f6d2069732066756c6c2e000000000000000000000000000000\n        /* \"#utility.yul\":11564:11565   */\n      0x00\n        /* \"#utility.yul\":11556:11562   */\n      dup3\n        /* \"#utility.yul\":11552:11566   */\n      add\n        /* \"#utility.yul\":11545:11588   */\n      mstore\n        /* \"#utility.yul\":11428:11595   */\n      pop\n      jump\t// out\n        /* \"#utility.yul\":11601:11967   */\n    tag_280:\n        /* \"#utility.yul\":11743:11746   */\n      0x00\n        /* \"#utility.yul\":11764:11831   */\n      tag_397\n        /* \"#utility.yul\":11828:11830   */\n      0x11\n        /* \"#utility.yul\":11823:11826   */\n      dup4\n        /* \"#utility.yul\":11764:11831   */\n      tag_265\n      jump\t// in\n    tag_397:\n        /* \"#utility.yul\":11757:11831   */\n      swap2\n      pop\n        /* \"#utility.yul\":11840:11933   */\n      tag_398\n        /* \"#utility.yul\":11929:11932   */\n      dup3\n        /* \"#utility.yul\":11840:11933   */\n      tag_279\n      jump\t// in\n    tag_398:\n        /* \"#utility.yul\":11958:11960   */\n      0x20\n        /* \"#utility.yul\":11953:11956   */\n      dup3\n        /* \"#utility.yul\":11949:11961   */\n      add\n        /* \"#utility.yul\":11942:11961   */\n      swap1\n      pop\n        /* \"#utility.yul\":11601:11967   */\n      swap2\n      swap1\n      pop\n      jump\t// out\n        /* \"#utility.yul\":11973:12392   */\n    tag_171:\n        /* \"#utility.yul\":12139:12143   */\n      0x00\n        /* \"#utility.yul\":12177:12179   */\n      0x20\n        /* \"#utility.yul\":12166:12175   */\n      dup3\n        /* \"#utility.yul\":12162:12180   */\n      add\n        /* \"#utility.yul\":12154:12180   */\n      swap1\n      pop\n        /* \"#utility.yul\":12226:12235   */\n      dup2\n        /* \"#utility.yul\":12220:12224   */\n      dup2\n        /* \"#utility.yul\":12216:12236   */\n      sub\n        /* \"#utility.yul\":12212:12213   */\n      0x00\n        /* \"#utility.yul\":12201:12210   */\n      dup4\n        /* \"#utility.yul\":12197:12214   */\n      add\n        /* \"#utility.yul\":12190:12237   */\n      mstore\n        /* \"#utility.yul\":12254:12385   */\n      tag_400\n        /* \"#utility.yul\":12380:12384   */\n      dup2\n        /* \"#utility.yul\":12254:12385   */\n      tag_280\n      jump\t// in\n    tag_400:\n        /* \"#utility.yul\":12246:12385   */\n      swap1\n      pop\n        /* \"#utility.yul\":11973:12392   */\n      swap2\n      swap1\n      pop\n      jump\t// out\n        /* \"#utility.yul\":12398:12577   */\n    tag_281:\n        /* \"#utility.yul\":12538:12569   */\n      0x506c6179657273206861766520616c726561647920636f6d6d69746564000000\n        /* \"#utility.yul\":12534:12535   */\n      0x00\n        /* \"#utility.yul\":12526:12532   */\n      dup3\n        /* \"#utility.yul\":12522:12536   */\n      add\n        /* \"#utility.yul\":12515:12570   */\n      mstore\n        /* \"#utility.yul\":12398:12577   */\n      pop\n      jump\t// out\n        /* \"#utility.yul\":12583:12949   */\n    tag_282:\n        /* \"#utility.yul\":12725:12728   */\n      0x00\n        /* \"#utility.yul\":12746:12813   */\n      tag_403\n        /* \"#utility.yul\":12810:12812   */\n      0x1d\n        /* \"#utility.yul\":12805:12808   */\n      dup4\n        /* \"#utility.yul\":12746:12813   */\n      tag_265\n      jump\t// in\n    tag_403:\n        /* \"#utility.yul\":12739:12813   */\n      swap2\n      pop\n        /* \"#utility.yul\":12822:12915   */\n      tag_404\n        /* \"#utility.yul\":12911:12914   */\n      dup3\n        /* \"#utility.yul\":12822:12915   */\n      tag_281\n      jump\t// in\n    tag_404:\n        /* \"#utility.yul\":12940:12942   */\n      0x20\n        /* \"#utility.yul\":12935:12938   */\n      dup3\n        /* \"#utility.yul\":12931:12943   */\n      add\n        /* \"#utility.yul\":12924:12943   */\n      swap1\n      pop\n        /* \"#utility.yul\":12583:12949   */\n      swap2\n      swap1\n      pop\n      jump\t// out\n        /* \"#utility.yul\":12955:13374   */\n    tag_197:\n        /* \"#utility.yul\":13121:13125   */\n      0x00\n        /* \"#utility.yul\":13159:13161   */\n      0x20\n        /* \"#utility.yul\":13148:13157   */\n      dup3\n        /* \"#utility.yul\":13144:13162   */\n      add\n        /* \"#utility.yul\":13136:13162   */\n      swap1\n      pop\n        /* \"#utility.yul\":13208:13217   */\n      dup2\n        /* \"#utility.yul\":13202:13206   */\n      dup2\n        /* \"#utility.yul\":13198:13218   */\n      sub\n        /* \"#utility.yul\":13194:13195   */\n      0x00\n        /* \"#utility.yul\":13183:13192   */\n      dup4\n        /* \"#utility.yul\":13179:13196   */\n      add\n        /* \"#utility.yul\":13172:13219   */\n      mstore\n        /* \"#utility.yul\":13236:13367   */\n      tag_406\n        /* \"#utility.yul\":13362:13366   */\n      dup2\n        /* \"#utility.yul\":13236:13367   */\n      tag_282\n      jump\t// in\n    tag_406:\n        /* \"#utility.yul\":13228:13367   */\n      swap1\n      pop\n        /* \"#utility.yul\":12955:13374   */\n      swap2\n      swap1\n      pop\n      jump\t// out\n        /* \"#utility.yul\":13380:13560   */\n    tag_214:\n        /* \"#utility.yul\":13428:13505   */\n      0x4e487b7100000000000000000000000000000000000000000000000000000000\n        /* \"#utility.yul\":13425:13426   */\n      0x00\n        /* \"#utility.yul\":13418:13506   */\n      mstore\n        /* \"#utility.yul\":13525:13529   */\n      0x41\n        /* \"#utility.yul\":13522:13523   */\n      0x04\n        /* \"#utility.yul\":13515:13530   */\n      mstore\n        /* \"#utility.yul\":13549:13553   */\n      0x24\n        /* \"#utility.yul\":13546:13547   */\n      0x00\n        /* \"#utility.yul\":13539:13554   */\n      revert\n        /* \"#utility.yul\":13566:13746   */\n    tag_220:\n        /* \"#utility.yul\":13614:13691   */\n      0x4e487b7100000000000000000000000000000000000000000000000000000000\n        /* \"#utility.yul\":13611:13612   */\n      0x00\n        /* \"#utility.yul\":13604:13692   */\n      mstore\n        /* \"#utility.yul\":13711:13715   */\n      0x12\n        /* \"#utility.yul\":13708:13709   */\n      0x04\n        /* \"#utility.yul\":13701:13716   */\n      mstore\n        /* \"#utility.yul\":13735:13739   */\n      0x24\n        /* \"#utility.yul\":13732:13733   */\n      0x00\n        /* \"#utility.yul\":13725:13740   */\n      revert\n\n    auxdata: 0xa264697066735822122021769a9f4d38f77d98e2037ad2ea9d7c6df399be9c5a3771cd02ebed2f82403564736f6c63430008110033\n}\n",
				"bytecode": {
					"linkReferences": {},
					"object": "60806040526000600460146101000a81548160ff021916908360048111156200002d576200002c620006e9565b5b02179055503480156200003f57600080fd5b50600060056000600160038111156200005d576200005c620006e9565b5b6003811115620000725762000071620006e9565b5b8152602001908152602001600020600060016003811115620000995762000098620006e9565b5b6003811115620000ae57620000ad620006e9565b5b815260200190815260200160002060006101000a81548160ff021916908360ff160217905550600060056000600380811115620000f057620000ef620006e9565b5b6003811115620001055762000104620006e9565b5b815260200190815260200160002060006003808111156200012b576200012a620006e9565b5b600381111562000140576200013f620006e9565b5b815260200190815260200160002060006101000a81548160ff021916908360ff16021790555060006005600060026003811115620001835762000182620006e9565b5b6003811115620001985762000197620006e9565b5b8152602001908152602001600020600060026003811115620001bf57620001be620006e9565b5b6003811115620001d457620001d3620006e9565b5b815260200190815260200160002060006101000a81548160ff021916908360ff16021790555060016005600060016003811115620002175762000216620006e9565b5b60038111156200022c576200022b620006e9565b5b81526020019081526020016000206000600380811115620002525762000251620006e9565b5b6003811115620002675762000266620006e9565b5b815260200190815260200160002060006101000a81548160ff021916908360ff16021790555060016005600060026003811115620002aa57620002a9620006e9565b5b6003811115620002bf57620002be620006e9565b5b8152602001908152602001600020600060016003811115620002e657620002e5620006e9565b5b6003811115620002fb57620002fa620006e9565b5b815260200190815260200160002060006101000a81548160ff021916908360ff1602179055506001600560006003808111156200033d576200033c620006e9565b5b6003811115620003525762000351620006e9565b5b8152602001908152602001600020600060026003811115620003795762000378620006e9565b5b60038111156200038e576200038d620006e9565b5b815260200190815260200160002060006101000a81548160ff021916908360ff16021790555060026005600060016003811115620003d157620003d0620006e9565b5b6003811115620003e657620003e5620006e9565b5b81526020019081526020016000206000600260038111156200040d576200040c620006e9565b5b6003811115620004225762000421620006e9565b5b815260200190815260200160002060006101000a81548160ff021916908360ff16021790555060026005600060026003811115620004655762000464620006e9565b5b60038111156200047a5762000479620006e9565b5b81526020019081526020016000206000600380811115620004a0576200049f620006e9565b5b6003811115620004b557620004b4620006e9565b5b815260200190815260200160002060006101000a81548160ff021916908360ff160217905550600260056000600380811115620004f757620004f6620006e9565b5b60038111156200050c576200050b620006e9565b5b8152602001908152602001600020600060016003811115620005335762000532620006e9565b5b6003811115620005485762000547620006e9565b5b815260200190815260200160002060006101000a81548160ff021916908360ff1602179055506200057e6200058460201b60201c565b62000718565b6000600460006101000a81548173ffffffffffffffffffffffffffffffffffffffff021916908373ffffffffffffffffffffffffffffffffffffffff16021790555060008060006101000a81548173ffffffffffffffffffffffffffffffffffffffff021916908373ffffffffffffffffffffffffffffffffffffffff1602179055506000600160006101000a81548173ffffffffffffffffffffffffffffffffffffffff021916908373ffffffffffffffffffffffffffffffffffffffff1602179055506000801b6002819055506000801b6003819055506000600160146101000a81548160ff02191690836003811115620006865762000685620006e9565b5b02179055506000600160156101000a81548160ff02191690836003811115620006b457620006b3620006e9565b5b02179055506000600460146101000a81548160ff02191690836004811115620006e257620006e1620006e9565b5b0217905550565b7f4e487b7100000000000000000000000000000000000000000000000000000000600052602160045260246000fd5b611b4b80620007286000396000f3fe608060405234801561001057600080fd5b50600436106100cf5760003560e01c8063b688a3631161008c578063d8c4d9da11610066578063d8c4d9da146101a4578063dfbf53ae146101c2578063fb93247f146101e0578063fce55812146101fe576100cf565b8063b688a3631461015e578063c040e6b814610168578063d30895e414610186576100cf565b80631884824c146100d457806359a5f12d146100f25780637d03f5f3146101105780639dd63d6b1461011a578063a45332a714610124578063ab4a6be114610142575b600080fd5b6100dc61021a565b6040516100e991906114fa565b60405180910390f35b6100fa61022d565b6040516101079190611556565b60405180910390f35b610118610253565b005b6101226103af565b005b61012c61068d565b604051610139919061158a565b60405180910390f35b61015c6004803603810190610157919061160b565b610693565b005b610166610c21565b005b610170610e99565b60405161017d9190611693565b60405180910390f35b61018e610eac565b60405161019b9190611556565b60405180910390f35b6101ac610ed0565b6040516101b991906114fa565b60405180910390f35b6101ca610ee3565b6040516101d79190611556565b60405180910390f35b6101e8610f09565b6040516101f5919061158a565b60405180910390f35b610218600480360381019061021391906116da565b610f0f565b005b600160159054906101000a900460ff1681565b600160009054906101000a900473ffffffffffffffffffffffffffffffffffffffff1681565b6000600460006101000a81548173ffffffffffffffffffffffffffffffffffffffff021916908373ffffffffffffffffffffffffffffffffffffffff16021790555060008060006101000a81548173ffffffffffffffffffffffffffffffffffffffff021916908373ffffffffffffffffffffffffffffffffffffffff1602179055506000600160006101000a81548173ffffffffffffffffffffffffffffffffffffffff021916908373ffffffffffffffffffffffffffffffffffffffff1602179055506000801b6002819055506000801b6003819055506000600160146101000a81548160ff0219169083600381111561035257610351611483565b5b02179055506000600160156101000a81548160ff0219169083600381111561037d5761037c611483565b5b02179055506000600460146101000a81548160ff021916908360048111156103a8576103a7611483565b5b0217905550565b60008054906101000a900473ffffffffffffffffffffffffffffffffffffffff1673ffffffffffffffffffffffffffffffffffffffff163373ffffffffffffffffffffffffffffffffffffffff1614806104565750600160009054906101000a900473ffffffffffffffffffffffffffffffffffffffff1673ffffffffffffffffffffffffffffffffffffffff163373ffffffffffffffffffffffffffffffffffffffff16145b610495576040517f08c379a000000000000000000000000000000000000000000000000000000000815260040161048c90611764565b60405180910390fd5b6004808111156104a8576104a7611483565b5b600460149054906101000a900460ff1660048111156104ca576104c9611483565b5b1461050a576040517f08c379a0000000000000000000000000000000000000000000000000000000008152600401610501906117d0565b60405180910390fd5b600060056000600160149054906101000a900460ff16600381111561053257610531611483565b5b600381111561054457610543611483565b5b81526020019081526020016000206000600160159054906101000a900460ff16600381111561057657610575611483565b5b600381111561058857610587611483565b5b815260200190815260200160002060009054906101000a900460ff16905060008160000b14806105bb575060018160000b145b156106265760008054906101000a900473ffffffffffffffffffffffffffffffffffffffff16600460006101000a81548173ffffffffffffffffffffffffffffffffffffffff021916908373ffffffffffffffffffffffffffffffffffffffff16021790555061068a565b600160009054906101000a900473ffffffffffffffffffffffffffffffffffffffff16600460006101000a81548173ffffffffffffffffffffffffffffffffffffffff021916908373ffffffffffffffffffffffffffffffffffffffff1602179055505b50565b60025481565b60008054906101000a900473ffffffffffffffffffffffffffffffffffffffff1673ffffffffffffffffffffffffffffffffffffffff163373ffffffffffffffffffffffffffffffffffffffff16148061073a5750600160009054906101000a900473ffffffffffffffffffffffffffffffffffffffff1673ffffffffffffffffffffffffffffffffffffffff163373ffffffffffffffffffffffffffffffffffffffff16145b610779576040517f08c379a000000000000000000000000000000000000000000000000000000000815260040161077090611764565b60405180910390fd5b816001600381111561078e5761078d611483565b5b8160038111156107a1576107a0611483565b5b14806107d15750600260038111156107bc576107bb611483565b5b8160038111156107cf576107ce611483565b5b145b806107ff57506003808111156107ea576107e9611483565b5b8160038111156107fd576107fc611483565b5b145b61083e576040517f08c379a00000000000000000000000000000000000000000000000000000000081526004016108359061183c565b60405180910390fd5b6002600481111561085257610851611483565b5b600460149054906101000a900460ff16600481111561087457610873611483565b5b14806108b357506003600481111561088f5761088e611483565b5b600460149054906101000a900460ff1660048111156108b1576108b0611483565b5b145b6108f2576040517f08c379a00000000000000000000000000000000000000000000000000000000081526004016108e9906117d0565b60405180910390fd5b6000600261091185600381111561090c5761090b611483565b5b611262565b6109208563ffffffff16611262565b6040516020016109319291906118cd565b60405160208183030381529060405260405161094d91906118f1565b602060405180830381855afa15801561096a573d6000803e3d6000fd5b5050506040513d601f19601f8201168201806040525081019061098d919061191d565b9050600060038111156109a3576109a2611483565b5b8460038111156109b6576109b5611483565b5b036109f6576040517f08c379a00000000000000000000000000000000000000000000000000000000081526004016109ed90611996565b60405180910390fd5b60008054906101000a900473ffffffffffffffffffffffffffffffffffffffff1673ffffffffffffffffffffffffffffffffffffffff163373ffffffffffffffffffffffffffffffffffffffff16148015610a52575060025481145b15610aea5783600160146101000a81548160ff02191690836003811115610a7c57610a7b611483565b5b02179055507f79a7276ba83fef4fe13f88df855c8420d094de7d84d1d4a3bc10554a841bd80b3385604051610ab29291906119b6565b60405180910390a16003600460146101000a81548160ff02191690836004811115610ae057610adf611483565b5b0217905550610c1b565b600160009054906101000a900473ffffffffffffffffffffffffffffffffffffffff1673ffffffffffffffffffffffffffffffffffffffff163373ffffffffffffffffffffffffffffffffffffffff16148015610b48575060035481145b15610bdf5783600160156101000a81548160ff02191690836003811115610b7257610b71611483565b5b02179055507f79a7276ba83fef4fe13f88df855c8420d094de7d84d1d4a3bc10554a841bd80b3385604051610ba89291906119b6565b60405180910390a160048060146101000a81548160ff02191690836004811115610bd557610bd4611483565b5b0217905550610c1a565b6040517f08c379a0000000000000000000000000000000000000000000000000000000008152600401610c1190611996565b60405180910390fd5b5b50505050565b60008054906101000a900473ffffffffffffffffffffffffffffffffffffffff1673ffffffffffffffffffffffffffffffffffffffff163373ffffffffffffffffffffffffffffffffffffffff1614158015610ccb5750600160009054906101000a900473ffffffffffffffffffffffffffffffffffffffff1673ffffffffffffffffffffffffffffffffffffffff163373ffffffffffffffffffffffffffffffffffffffff1614155b610cd457600080fd5b600073ffffffffffffffffffffffffffffffffffffffff1660008054906101000a900473ffffffffffffffffffffffffffffffffffffffff1673ffffffffffffffffffffffffffffffffffffffff161480610d7d5750600073ffffffffffffffffffffffffffffffffffffffff16600160009054906101000a900473ffffffffffffffffffffffffffffffffffffffff1673ffffffffffffffffffffffffffffffffffffffff16145b610dbc576040517f08c379a0000000000000000000000000000000000000000000000000000000008152600401610db390611a2b565b60405180910390fd5b600073ffffffffffffffffffffffffffffffffffffffff1660008054906101000a900473ffffffffffffffffffffffffffffffffffffffff1673ffffffffffffffffffffffffffffffffffffffff1603610e5557336000806101000a81548173ffffffffffffffffffffffffffffffffffffffff021916908373ffffffffffffffffffffffffffffffffffffffff160217905550610e97565b33600160006101000a81548173ffffffffffffffffffffffffffffffffffffffff021916908373ffffffffffffffffffffffffffffffffffffffff1602179055505b565b600460149054906101000a900460ff1681565b60008054906101000a900473ffffffffffffffffffffffffffffffffffffffff1681565b600160149054906101000a900460ff1681565b600460009054906101000a900473ffffffffffffffffffffffffffffffffffffffff1681565b60035481565b60008054906101000a900473ffffffffffffffffffffffffffffffffffffffff1673ffffffffffffffffffffffffffffffffffffffff163373ffffffffffffffffffffffffffffffffffffffff161480610fb65750600160009054906101000a900473ffffffffffffffffffffffffffffffffffffffff1673ffffffffffffffffffffffffffffffffffffffff163373ffffffffffffffffffffffffffffffffffffffff16145b610ff5576040517f08c379a0000000000000000000000000000000000000000000000000000000008152600401610fec90611764565b60405180910390fd5b6000600481111561100957611008611483565b5b600460149054906101000a900460ff16600481111561102b5761102a611483565b5b148061106a57506001600481111561104657611045611483565b5b600460149054906101000a900460ff16600481111561106857611067611483565b5b145b61107357600080fd5b60008054906101000a900473ffffffffffffffffffffffffffffffffffffffff1673ffffffffffffffffffffffffffffffffffffffff163373ffffffffffffffffffffffffffffffffffffffff161480156110d257506000801b600254145b156110e35780600281905550611191565b600160009054906101000a900473ffffffffffffffffffffffffffffffffffffffff1673ffffffffffffffffffffffffffffffffffffffff163373ffffffffffffffffffffffffffffffffffffffff1614801561114457506000801b600354145b156111555780600381905550611190565b6040517f08c379a000000000000000000000000000000000000000000000000000000000815260040161118790611a97565b60405180910390fd5b5b7f599481bd81d46ea2372b7f45ab8900ac58961566f184806290d9ede4e0fc7641336040516111c09190611556565b60405180910390a1600060048111156111dc576111db611483565b5b600460149054906101000a900460ff1660048111156111fe576111fd611483565b5b03611233576001600460146101000a81548160ff0219169083600481111561122957611228611483565b5b021790555061125f565b6002600460146101000a81548160ff0219169083600481111561125957611258611483565b5b02179055505b50565b60606000600161127184611330565b01905060008167ffffffffffffffff8111156112905761128f611ab7565b5b6040519080825280601f01601f1916602001820160405280156112c25781602001600182028036833780820191505090505b509050600082602001820190505b600115611325578080600190039150507f3031323334353637383961626364656600000000000000000000000000000000600a86061a8153600a858161131957611318611ae6565b5b049450600085036112d0575b819350505050919050565b600080600090507a184f03e93ff9f4daa797ed6e38ed64bf6a1f010000000000000000831061138e577a184f03e93ff9f4daa797ed6e38ed64bf6a1f010000000000000000838161138457611383611ae6565b5b0492506040810190505b6d04ee2d6d415b85acef810000000083106113cb576d04ee2d6d415b85acef810000000083816113c1576113c0611ae6565b5b0492506020810190505b662386f26fc1000083106113fa57662386f26fc1000083816113f0576113ef611ae6565b5b0492506010810190505b6305f5e1008310611423576305f5e100838161141957611418611ae6565b5b0492506008810190505b612710831061144857612710838161143e5761143d611ae6565b5b0492506004810190505b6064831061146b576064838161146157611460611ae6565b5b0492506002810190505b600a831061147a576001810190505b80915050919050565b7f4e487b7100000000000000000000000000000000000000000000000000000000600052602160045260246000fd5b600481106114c3576114c2611483565b5b50565b60008190506114d4826114b2565b919050565b60006114e4826114c6565b9050919050565b6114f4816114d9565b82525050565b600060208201905061150f60008301846114eb565b92915050565b600073ffffffffffffffffffffffffffffffffffffffff82169050919050565b600061154082611515565b9050919050565b61155081611535565b82525050565b600060208201905061156b6000830184611547565b92915050565b6000819050919050565b61158481611571565b82525050565b600060208201905061159f600083018461157b565b92915050565b600080fd5b600481106115b757600080fd5b50565b6000813590506115c9816115aa565b92915050565b600063ffffffff82169050919050565b6115e8816115cf565b81146115f357600080fd5b50565b600081359050611605816115df565b92915050565b60008060408385031215611622576116216115a5565b5b6000611630858286016115ba565b9250506020611641858286016115f6565b9150509250929050565b6005811061165c5761165b611483565b5b50565b600081905061166d8261164b565b919050565b600061167d8261165f565b9050919050565b61168d81611672565b82525050565b60006020820190506116a86000830184611684565b92915050565b6116b781611571565b81146116c257600080fd5b50565b6000813590506116d4816116ae565b92915050565b6000602082840312156116f0576116ef6115a5565b5b60006116fe848285016116c5565b91505092915050565b600082825260208201905092915050565b7f596f7520617265206e6f7420706c6179696e6720746869732067616d652e0000600082015250565b600061174e601e83611707565b915061175982611718565b602082019050919050565b6000602082019050818103600083015261177d81611741565b9050919050565b7f696e636f72726563742073746167650000000000000000000000000000000000600082015250565b60006117ba600f83611707565b91506117c582611784565b602082019050919050565b600060208201905081810360008301526117e9816117ad565b9050919050565b7f696e76616c696420776561706f6e000000000000000000000000000000000000600082015250565b6000611826600e83611707565b9150611831826117f0565b602082019050919050565b6000602082019050818103600083015261185581611819565b9050919050565b600081519050919050565b600081905092915050565b60005b83811015611890578082015181840152602081019050611875565b60008484015250505050565b60006118a78261185c565b6118b18185611867565b93506118c1818560208601611872565b80840191505092915050565b60006118d9828561189c565b91506118e5828461189c565b91508190509392505050565b60006118fd828461189c565b915081905092915050565b600081519050611917816116ae565b92915050565b600060208284031215611933576119326115a5565b5b600061194184828501611908565b91505092915050565b7f696e636f727265637420776561706f6e00000000000000000000000000000000600082015250565b6000611980601083611707565b915061198b8261194a565b602082019050919050565b600060208201905081810360008301526119af81611973565b9050919050565b60006040820190506119cb6000830185611547565b6119d860208301846114eb565b9392505050565b7f54686520726f6f6d2069732066756c6c2e000000000000000000000000000000600082015250565b6000611a15601183611707565b9150611a20826119df565b602082019050919050565b60006020820190508181036000830152611a4481611a08565b9050919050565b7f506c6179657273206861766520616c726561647920636f6d6d69746564000000600082015250565b6000611a81601d83611707565b9150611a8c82611a4b565b602082019050919050565b60006020820190508181036000830152611ab081611a74565b9050919050565b7f4e487b7100000000000000000000000000000000000000000000000000000000600052604160045260246000fd5b7f4e487b7100000000000000000000000000000000000000000000000000000000600052601260045260246000fdfea264697066735822122021769a9f4d38f77d98e2037ad2ea9d7c6df399be9c5a3771cd02ebed2f82403564736f6c63430008110033",
					"opcodes": "PUSH1 0x80 PUSH1 0x40 MSTORE PUSH1 0x0 PUSH1 0x4 PUSH1 0x14 PUSH2 0x100 EXP DUP2 SLOAD DUP2 PUSH1 0xFF MUL NOT AND SWAP1 DUP4 PUSH1 0x4 DUP2 GT ISZERO PUSH3 0x2D JUMPI PUSH3 0x2C PUSH3 0x6E9 JUMP JUMPDEST JUMPDEST MUL OR SWAP1 SSTORE POP CALLVALUE DUP1 ISZERO PUSH3 0x3F JUMPI PUSH1 0x0 DUP1 REVERT JUMPDEST POP PUSH1 0x0 PUSH1 0x5 PUSH1 0x0 PUSH1 0x1 PUSH1 0x3 DUP2 GT ISZERO PUSH3 0x5D JUMPI PUSH3 0x5C PUSH3 0x6E9 JUMP JUMPDEST JUMPDEST PUSH1 0x3 DUP2 GT ISZERO PUSH3 0x72 JUMPI PUSH3 0x71 PUSH3 0x6E9 JUMP JUMPDEST JUMPDEST DUP2 MSTORE PUSH1 0x20 ADD SWAP1 DUP2 MSTORE PUSH1 0x20 ADD PUSH1 0x0 KECCAK256 PUSH1 0x0 PUSH1 0x1 PUSH1 0x3 DUP2 GT ISZERO PUSH3 0x99 JUMPI PUSH3 0x98 PUSH3 0x6E9 JUMP JUMPDEST JUMPDEST PUSH1 0x3 DUP2 GT ISZERO PUSH3 0xAE JUMPI PUSH3 0xAD PUSH3 0x6E9 JUMP JUMPDEST JUMPDEST DUP2 MSTORE PUSH1 0x20 ADD SWAP1 DUP2 MSTORE PUSH1 0x20 ADD PUSH1 0x0 KECCAK256 PUSH1 0x0 PUSH2 0x100 EXP DUP2 SLOAD DUP2 PUSH1 0xFF MUL NOT AND SWAP1 DUP4 PUSH1 0xFF AND MUL OR SWAP1 SSTORE POP PUSH1 0x0 PUSH1 0x5 PUSH1 0x0 PUSH1 0x3 DUP1 DUP2 GT ISZERO PUSH3 0xF0 JUMPI PUSH3 0xEF PUSH3 0x6E9 JUMP JUMPDEST JUMPDEST PUSH1 0x3 DUP2 GT ISZERO PUSH3 0x105 JUMPI PUSH3 0x104 PUSH3 0x6E9 JUMP JUMPDEST JUMPDEST DUP2 MSTORE PUSH1 0x20 ADD SWAP1 DUP2 MSTORE PUSH1 0x20 ADD PUSH1 0x0 KECCAK256 PUSH1 0x0 PUSH1 0x3 DUP1 DUP2 GT ISZERO PUSH3 0x12B JUMPI PUSH3 0x12A PUSH3 0x6E9 JUMP JUMPDEST JUMPDEST PUSH1 0x3 DUP2 GT ISZERO PUSH3 0x140 JUMPI PUSH3 0x13F PUSH3 0x6E9 JUMP JUMPDEST JUMPDEST DUP2 MSTORE PUSH1 0x20 ADD SWAP1 DUP2 MSTORE PUSH1 0x20 ADD PUSH1 0x0 KECCAK256 PUSH1 0x0 PUSH2 0x100 EXP DUP2 SLOAD DUP2 PUSH1 0xFF MUL NOT AND SWAP1 DUP4 PUSH1 0xFF AND MUL OR SWAP1 SSTORE POP PUSH1 0x0 PUSH1 0x5 PUSH1 0x0 PUSH1 0x2 PUSH1 0x3 DUP2 GT ISZERO PUSH3 0x183 JUMPI PUSH3 0x182 PUSH3 0x6E9 JUMP JUMPDEST JUMPDEST PUSH1 0x3 DUP2 GT ISZERO PUSH3 0x198 JUMPI PUSH3 0x197 PUSH3 0x6E9 JUMP JUMPDEST JUMPDEST DUP2 MSTORE PUSH1 0x20 ADD SWAP1 DUP2 MSTORE PUSH1 0x20 ADD PUSH1 0x0 KECCAK256 PUSH1 0x0 PUSH1 0x2 PUSH1 0x3 DUP2 GT ISZERO PUSH3 0x1BF JUMPI PUSH3 0x1BE PUSH3 0x6E9 JUMP JUMPDEST JUMPDEST PUSH1 0x3 DUP2 GT ISZERO PUSH3 0x1D4 JUMPI PUSH3 0x1D3 PUSH3 0x6E9 JUMP JUMPDEST JUMPDEST DUP2 MSTORE PUSH1 0x20 ADD SWAP1 DUP2 MSTORE PUSH1 0x20 ADD PUSH1 0x0 KECCAK256 PUSH1 0x0 PUSH2 0x100 EXP DUP2 SLOAD DUP2 PUSH1 0xFF MUL NOT AND SWAP1 DUP4 PUSH1 0xFF AND MUL OR SWAP1 SSTORE POP PUSH1 0x1 PUSH1 0x5 PUSH1 0x0 PUSH1 0x1 PUSH1 0x3 DUP2 GT ISZERO PUSH3 0x217 JUMPI PUSH3 0x216 PUSH3 0x6E9 JUMP JUMPDEST JUMPDEST PUSH1 0x3 DUP2 GT ISZERO PUSH3 0x22C JUMPI PUSH3 0x22B PUSH3 0x6E9 JUMP JUMPDEST JUMPDEST DUP2 MSTORE PUSH1 0x20 ADD SWAP1 DUP2 MSTORE PUSH1 0x20 ADD PUSH1 0x0 KECCAK256 PUSH1 0x0 PUSH1 0x3 DUP1 DUP2 GT ISZERO PUSH3 0x252 JUMPI PUSH3 0x251 PUSH3 0x6E9 JUMP JUMPDEST JUMPDEST PUSH1 0x3 DUP2 GT ISZERO PUSH3 0x267 JUMPI PUSH3 0x266 PUSH3 0x6E9 JUMP JUMPDEST JUMPDEST DUP2 MSTORE PUSH1 0x20 ADD SWAP1 DUP2 MSTORE PUSH1 0x20 ADD PUSH1 0x0 KECCAK256 PUSH1 0x0 PUSH2 0x100 EXP DUP2 SLOAD DUP2 PUSH1 0xFF MUL NOT AND SWAP1 DUP4 PUSH1 0xFF AND MUL OR SWAP1 SSTORE POP PUSH1 0x1 PUSH1 0x5 PUSH1 0x0 PUSH1 0x2 PUSH1 0x3 DUP2 GT ISZERO PUSH3 0x2AA JUMPI PUSH3 0x2A9 PUSH3 0x6E9 JUMP JUMPDEST JUMPDEST PUSH1 0x3 DUP2 GT ISZERO PUSH3 0x2BF JUMPI PUSH3 0x2BE PUSH3 0x6E9 JUMP JUMPDEST JUMPDEST DUP2 MSTORE PUSH1 0x20 ADD SWAP1 DUP2 MSTORE PUSH1 0x20 ADD PUSH1 0x0 KECCAK256 PUSH1 0x0 PUSH1 0x1 PUSH1 0x3 DUP2 GT ISZERO PUSH3 0x2E6 JUMPI PUSH3 0x2E5 PUSH3 0x6E9 JUMP JUMPDEST JUMPDEST PUSH1 0x3 DUP2 GT ISZERO PUSH3 0x2FB JUMPI PUSH3 0x2FA PUSH3 0x6E9 JUMP JUMPDEST JUMPDEST DUP2 MSTORE PUSH1 0x20 ADD SWAP1 DUP2 MSTORE PUSH1 0x20 ADD PUSH1 0x0 KECCAK256 PUSH1 0x0 PUSH2 0x100 EXP DUP2 SLOAD DUP2 PUSH1 0xFF MUL NOT AND SWAP1 DUP4 PUSH1 0xFF AND MUL OR SWAP1 SSTORE POP PUSH1 0x1 PUSH1 0x5 PUSH1 0x0 PUSH1 0x3 DUP1 DUP2 GT ISZERO PUSH3 0x33D JUMPI PUSH3 0x33C PUSH3 0x6E9 JUMP JUMPDEST JUMPDEST PUSH1 0x3 DUP2 GT ISZERO PUSH3 0x352 JUMPI PUSH3 0x351 PUSH3 0x6E9 JUMP JUMPDEST JUMPDEST DUP2 MSTORE PUSH1 0x20 ADD SWAP1 DUP2 MSTORE PUSH1 0x20 ADD PUSH1 0x0 KECCAK256 PUSH1 0x0 PUSH1 0x2 PUSH1 0x3 DUP2 GT ISZERO PUSH3 0x379 JUMPI PUSH3 0x378 PUSH3 0x6E9 JUMP JUMPDEST JUMPDEST PUSH1 0x3 DUP2 GT ISZERO PUSH3 0x38E JUMPI PUSH3 0x38D PUSH3 0x6E9 JUMP JUMPDEST JUMPDEST DUP2 MSTORE PUSH1 0x20 ADD SWAP1 DUP2 MSTORE PUSH1 0x20 ADD PUSH1 0x0 KECCAK256 PUSH1 0x0 PUSH2 0x100 EXP DUP2 SLOAD DUP2 PUSH1 0xFF MUL NOT AND SWAP1 DUP4 PUSH1 0xFF AND MUL OR SWAP1 SSTORE POP PUSH1 0x2 PUSH1 0x5 PUSH1 0x0 PUSH1 0x1 PUSH1 0x3 DUP2 GT ISZERO PUSH3 0x3D1 JUMPI PUSH3 0x3D0 PUSH3 0x6E9 JUMP JUMPDEST JUMPDEST PUSH1 0x3 DUP2 GT ISZERO PUSH3 0x3E6 JUMPI PUSH3 0x3E5 PUSH3 0x6E9 JUMP JUMPDEST JUMPDEST DUP2 MSTORE PUSH1 0x20 ADD SWAP1 DUP2 MSTORE PUSH1 0x20 ADD PUSH1 0x0 KECCAK256 PUSH1 0x0 PUSH1 0x2 PUSH1 0x3 DUP2 GT ISZERO PUSH3 0x40D JUMPI PUSH3 0x40C PUSH3 0x6E9 JUMP JUMPDEST JUMPDEST PUSH1 0x3 DUP2 GT ISZERO PUSH3 0x422 JUMPI PUSH3 0x421 PUSH3 0x6E9 JUMP JUMPDEST JUMPDEST DUP2 MSTORE PUSH1 0x20 ADD SWAP1 DUP2 MSTORE PUSH1 0x20 ADD PUSH1 0x0 KECCAK256 PUSH1 0x0 PUSH2 0x100 EXP DUP2 SLOAD DUP2 PUSH1 0xFF MUL NOT AND SWAP1 DUP4 PUSH1 0xFF AND MUL OR SWAP1 SSTORE POP PUSH1 0x2 PUSH1 0x5 PUSH1 0x0 PUSH1 0x2 PUSH1 0x3 DUP2 GT ISZERO PUSH3 0x465 JUMPI PUSH3 0x464 PUSH3 0x6E9 JUMP JUMPDEST JUMPDEST PUSH1 0x3 DUP2 GT ISZERO PUSH3 0x47A JUMPI PUSH3 0x479 PUSH3 0x6E9 JUMP JUMPDEST JUMPDEST DUP2 MSTORE PUSH1 0x20 ADD SWAP1 DUP2 MSTORE PUSH1 0x20 ADD PUSH1 0x0 KECCAK256 PUSH1 0x0 PUSH1 0x3 DUP1 DUP2 GT ISZERO PUSH3 0x4A0 JUMPI PUSH3 0x49F PUSH3 0x6E9 JUMP JUMPDEST JUMPDEST PUSH1 0x3 DUP2 GT ISZERO PUSH3 0x4B5 JUMPI PUSH3 0x4B4 PUSH3 0x6E9 JUMP JUMPDEST JUMPDEST DUP2 MSTORE PUSH1 0x20 ADD SWAP1 DUP2 MSTORE PUSH1 0x20 ADD PUSH1 0x0 KECCAK256 PUSH1 0x0 PUSH2 0x100 EXP DUP2 SLOAD DUP2 PUSH1 0xFF MUL NOT AND SWAP1 DUP4 PUSH1 0xFF AND MUL OR SWAP1 SSTORE POP PUSH1 0x2 PUSH1 0x5 PUSH1 0x0 PUSH1 0x3 DUP1 DUP2 GT ISZERO PUSH3 0x4F7 JUMPI PUSH3 0x4F6 PUSH3 0x6E9 JUMP JUMPDEST JUMPDEST PUSH1 0x3 DUP2 GT ISZERO PUSH3 0x50C JUMPI PUSH3 0x50B PUSH3 0x6E9 JUMP JUMPDEST JUMPDEST DUP2 MSTORE PUSH1 0x20 ADD SWAP1 DUP2 MSTORE PUSH1 0x20 ADD PUSH1 0x0 KECCAK256 PUSH1 0x0 PUSH1 0x1 PUSH1 0x3 DUP2 GT ISZERO PUSH3 0x533 JUMPI PUSH3 0x532 PUSH3 0x6E9 JUMP JUMPDEST JUMPDEST PUSH1 0x3 DUP2 GT ISZERO PUSH3 0x548 JUMPI PUSH3 0x547 PUSH3 0x6E9 JUMP JUMPDEST JUMPDEST DUP2 MSTORE PUSH1 0x20 ADD SWAP1 DUP2 MSTORE PUSH1 0x20 ADD PUSH1 0x0 KECCAK256 PUSH1 0x0 PUSH2 0x100 EXP DUP2 SLOAD DUP2 PUSH1 0xFF MUL NOT AND SWAP1 DUP4 PUSH1 0xFF AND MUL OR SWAP1 SSTORE POP PUSH3 0x57E PUSH3 0x584 PUSH1 0x20 SHL PUSH1 0x20 SHR JUMP JUMPDEST PUSH3 0x718 JUMP JUMPDEST PUSH1 0x0 PUSH1 0x4 PUSH1 0x0 PUSH2 0x100 EXP DUP2 SLOAD DUP2 PUSH20 0xFFFFFFFFFFFFFFFFFFFFFFFFFFFFFFFFFFFFFFFF MUL NOT AND SWAP1 DUP4 PUSH20 0xFFFFFFFFFFFFFFFFFFFFFFFFFFFFFFFFFFFFFFFF AND MUL OR SWAP1 SSTORE POP PUSH1 0x0 DUP1 PUSH1 0x0 PUSH2 0x100 EXP DUP2 SLOAD DUP2 PUSH20 0xFFFFFFFFFFFFFFFFFFFFFFFFFFFFFFFFFFFFFFFF MUL NOT AND SWAP1 DUP4 PUSH20 0xFFFFFFFFFFFFFFFFFFFFFFFFFFFFFFFFFFFFFFFF AND MUL OR SWAP1 SSTORE POP PUSH1 0x0 PUSH1 0x1 PUSH1 0x0 PUSH2 0x100 EXP DUP2 SLOAD DUP2 PUSH20 0xFFFFFFFFFFFFFFFFFFFFFFFFFFFFFFFFFFFFFFFF MUL NOT AND SWAP1 DUP4 PUSH20 0xFFFFFFFFFFFFFFFFFFFFFFFFFFFFFFFFFFFFFFFF AND MUL OR SWAP1 SSTORE POP PUSH1 0x0 DUP1 SHL PUSH1 0x2 DUP2 SWAP1 SSTORE POP PUSH1 0x0 DUP1 SHL PUSH1 0x3 DUP2 SWAP1 SSTORE POP PUSH1 0x0 PUSH1 0x1 PUSH1 0x14 PUSH2 0x100 EXP DUP2 SLOAD DUP2 PUSH1 0xFF MUL NOT AND SWAP1 DUP4 PUSH1 0x3 DUP2 GT ISZERO PUSH3 0x686 JUMPI PUSH3 0x685 PUSH3 0x6E9 JUMP JUMPDEST JUMPDEST MUL OR SWAP1 SSTORE POP PUSH1 0x0 PUSH1 0x1 PUSH1 0x15 PUSH2 0x100 EXP DUP2 SLOAD DUP2 PUSH1 0xFF MUL NOT AND SWAP1 DUP4 PUSH1 0x3 DUP2 GT ISZERO PUSH3 0x6B4 JUMPI PUSH3 0x6B3 PUSH3 0x6E9 JUMP JUMPDEST JUMPDEST MUL OR SWAP1 SSTORE POP PUSH1 0x0 PUSH1 0x4 PUSH1 0x14 PUSH2 0x100 EXP DUP2 SLOAD DUP2 PUSH1 0xFF MUL NOT AND SWAP1 DUP4 PUSH1 0x4 DUP2 GT ISZERO PUSH3 0x6E2 JUMPI PUSH3 0x6E1 PUSH3 0x6E9 JUMP JUMPDEST JUMPDEST MUL OR SWAP1 SSTORE POP JUMP JUMPDEST PUSH32 0x4E487B7100000000000000000000000000000000000000000000000000000000 PUSH1 0x0 MSTORE PUSH1 0x21 PUSH1 0x4 MSTORE PUSH1 0x24 PUSH1 0x0 REVERT JUMPDEST PUSH2 0x1B4B DUP1 PUSH3 0x728 PUSH1 0x0 CODECOPY PUSH1 0x0 RETURN INVALID PUSH1 0x80 PUSH1 0x40 MSTORE CALLVALUE DUP1 ISZERO PUSH2 0x10 JUMPI PUSH1 0x0 DUP1 REVERT JUMPDEST POP PUSH1 0x4 CALLDATASIZE LT PUSH2 0xCF JUMPI PUSH1 0x0 CALLDATALOAD PUSH1 0xE0 SHR DUP1 PUSH4 0xB688A363 GT PUSH2 0x8C JUMPI DUP1 PUSH4 0xD8C4D9DA GT PUSH2 0x66 JUMPI DUP1 PUSH4 0xD8C4D9DA EQ PUSH2 0x1A4 JUMPI DUP1 PUSH4 0xDFBF53AE EQ PUSH2 0x1C2 JUMPI DUP1 PUSH4 0xFB93247F EQ PUSH2 0x1E0 JUMPI DUP1 PUSH4 0xFCE55812 EQ PUSH2 0x1FE JUMPI PUSH2 0xCF JUMP JUMPDEST DUP1 PUSH4 0xB688A363 EQ PUSH2 0x15E JUMPI DUP1 PUSH4 0xC040E6B8 EQ PUSH2 0x168 JUMPI DUP1 PUSH4 0xD30895E4 EQ PUSH2 0x186 JUMPI PUSH2 0xCF JUMP JUMPDEST DUP1 PUSH4 0x1884824C EQ PUSH2 0xD4 JUMPI DUP1 PUSH4 0x59A5F12D EQ PUSH2 0xF2 JUMPI DUP1 PUSH4 0x7D03F5F3 EQ PUSH2 0x110 JUMPI DUP1 PUSH4 0x9DD63D6B EQ PUSH2 0x11A JUMPI DUP1 PUSH4 0xA45332A7 EQ PUSH2 0x124 JUMPI DUP1 PUSH4 0xAB4A6BE1 EQ PUSH2 0x142 JUMPI JUMPDEST PUSH1 0x0 DUP1 REVERT JUMPDEST PUSH2 0xDC PUSH2 0x21A JUMP JUMPDEST PUSH1 0x40 MLOAD PUSH2 0xE9 SWAP2 SWAP1 PUSH2 0x14FA JUMP JUMPDEST PUSH1 0x40 MLOAD DUP1 SWAP2 SUB SWAP1 RETURN JUMPDEST PUSH2 0xFA PUSH2 0x22D JUMP JUMPDEST PUSH1 0x40 MLOAD PUSH2 0x107 SWAP2 SWAP1 PUSH2 0x1556 JUMP JUMPDEST PUSH1 0x40 MLOAD DUP1 SWAP2 SUB SWAP1 RETURN JUMPDEST PUSH2 0x118 PUSH2 0x253 JUMP JUMPDEST STOP JUMPDEST PUSH2 0x122 PUSH2 0x3AF JUMP JUMPDEST STOP JUMPDEST PUSH2 0x12C PUSH2 0x68D JUMP JUMPDEST PUSH1 0x40 MLOAD PUSH2 0x139 SWAP2 SWAP1 PUSH2 0x158A JUMP JUMPDEST PUSH1 0x40 MLOAD DUP1 SWAP2 SUB SWAP1 RETURN JUMPDEST PUSH2 0x15C PUSH1 0x4 DUP1 CALLDATASIZE SUB DUP2 ADD SWAP1 PUSH2 0x157 SWAP2 SWAP1 PUSH2 0x160B JUMP JUMPDEST PUSH2 0x693 JUMP JUMPDEST STOP JUMPDEST PUSH2 0x166 PUSH2 0xC21 JUMP JUMPDEST STOP JUMPDEST PUSH2 0x170 PUSH2 0xE99 JUMP JUMPDEST PUSH1 0x40 MLOAD PUSH2 0x17D SWAP2 SWAP1 PUSH2 0x1693 JUMP JUMPDEST PUSH1 0x40 MLOAD DUP1 SWAP2 SUB SWAP1 RETURN JUMPDEST PUSH2 0x18E PUSH2 0xEAC JUMP JUMPDEST PUSH1 0x40 MLOAD PUSH2 0x19B SWAP2 SWAP1 PUSH2 0x1556 JUMP JUMPDEST PUSH1 0x40 MLOAD DUP1 SWAP2 SUB SWAP1 RETURN JUMPDEST PUSH2 0x1AC PUSH2 0xED0 JUMP JUMPDEST PUSH1 0x40 MLOAD PUSH2 0x1B9 SWAP2 SWAP1 PUSH2 0x14FA JUMP JUMPDEST PUSH1 0x40 MLOAD DUP1 SWAP2 SUB SWAP1 RETURN JUMPDEST PUSH2 0x1CA PUSH2 0xEE3 JUMP JUMPDEST PUSH1 0x40 MLOAD PUSH2 0x1D7 SWAP2 SWAP1 PUSH2 0x1556 JUMP JUMPDEST PUSH1 0x40 MLOAD DUP1 SWAP2 SUB SWAP1 RETURN JUMPDEST PUSH2 0x1E8 PUSH2 0xF09 JUMP JUMPDEST PUSH1 0x40 MLOAD PUSH2 0x1F5 SWAP2 SWAP1 PUSH2 0x158A JUMP JUMPDEST PUSH1 0x40 MLOAD DUP1 SWAP2 SUB SWAP1 RETURN JUMPDEST PUSH2 0x218 PUSH1 0x4 DUP1 CALLDATASIZE SUB DUP2 ADD SWAP1 PUSH2 0x213 SWAP2 SWAP1 PUSH2 0x16DA JUMP JUMPDEST PUSH2 0xF0F JUMP JUMPDEST STOP JUMPDEST PUSH1 0x1 PUSH1 0x15 SWAP1 SLOAD SWAP1 PUSH2 0x100 EXP SWAP1 DIV PUSH1 0xFF AND DUP2 JUMP JUMPDEST PUSH1 0x1 PUSH1 0x0 SWAP1 SLOAD SWAP1 PUSH2 0x100 EXP SWAP1 DIV PUSH20 0xFFFFFFFFFFFFFFFFFFFFFFFFFFFFFFFFFFFFFFFF AND DUP2 JUMP JUMPDEST PUSH1 0x0 PUSH1 0x4 PUSH1 0x0 PUSH2 0x100 EXP DUP2 SLOAD DUP2 PUSH20 0xFFFFFFFFFFFFFFFFFFFFFFFFFFFFFFFFFFFFFFFF MUL NOT AND SWAP1 DUP4 PUSH20 0xFFFFFFFFFFFFFFFFFFFFFFFFFFFFFFFFFFFFFFFF AND MUL OR SWAP1 SSTORE POP PUSH1 0x0 DUP1 PUSH1 0x0 PUSH2 0x100 EXP DUP2 SLOAD DUP2 PUSH20 0xFFFFFFFFFFFFFFFFFFFFFFFFFFFFFFFFFFFFFFFF MUL NOT AND SWAP1 DUP4 PUSH20 0xFFFFFFFFFFFFFFFFFFFFFFFFFFFFFFFFFFFFFFFF AND MUL OR SWAP1 SSTORE POP PUSH1 0x0 PUSH1 0x1 PUSH1 0x0 PUSH2 0x100 EXP DUP2 SLOAD DUP2 PUSH20 0xFFFFFFFFFFFFFFFFFFFFFFFFFFFFFFFFFFFFFFFF MUL NOT AND SWAP1 DUP4 PUSH20 0xFFFFFFFFFFFFFFFFFFFFFFFFFFFFFFFFFFFFFFFF AND MUL OR SWAP1 SSTORE POP PUSH1 0x0 DUP1 SHL PUSH1 0x2 DUP2 SWAP1 SSTORE POP PUSH1 0x0 DUP1 SHL PUSH1 0x3 DUP2 SWAP1 SSTORE POP PUSH1 0x0 PUSH1 0x1 PUSH1 0x14 PUSH2 0x100 EXP DUP2 SLOAD DUP2 PUSH1 0xFF MUL NOT AND SWAP1 DUP4 PUSH1 0x3 DUP2 GT ISZERO PUSH2 0x352 JUMPI PUSH2 0x351 PUSH2 0x1483 JUMP JUMPDEST JUMPDEST MUL OR SWAP1 SSTORE POP PUSH1 0x0 PUSH1 0x1 PUSH1 0x15 PUSH2 0x100 EXP DUP2 SLOAD DUP2 PUSH1 0xFF MUL NOT AND SWAP1 DUP4 PUSH1 0x3 DUP2 GT ISZERO PUSH2 0x37D JUMPI PUSH2 0x37C PUSH2 0x1483 JUMP JUMPDEST JUMPDEST MUL OR SWAP1 SSTORE POP PUSH1 0x0 PUSH1 0x4 PUSH1 0x14 PUSH2 0x100 EXP DUP2 SLOAD DUP2 PUSH1 0xFF MUL NOT AND SWAP1 DUP4 PUSH1 0x4 DUP2 GT ISZERO PUSH2 0x3A8 JUMPI PUSH2 0x3A7 PUSH2 0x1483 JUMP JUMPDEST JUMPDEST MUL OR SWAP1 SSTORE POP JUMP JUMPDEST PUSH1 0x0 DUP1 SLOAD SWAP1 PUSH2 0x100 EXP SWAP1 DIV PUSH20 0xFFFFFFFFFFFFFFFFFFFFFFFFFFFFFFFFFFFFFFFF AND PUSH20 0xFFFFFFFFFFFFFFFFFFFFFFFFFFFFFFFFFFFFFFFF AND CALLER PUSH20 0xFFFFFFFFFFFFFFFFFFFFFFFFFFFFFFFFFFFFFFFF AND EQ DUP1 PUSH2 0x456 JUMPI POP PUSH1 0x1 PUSH1 0x0 SWAP1 SLOAD SWAP1 PUSH2 0x100 EXP SWAP1 DIV PUSH20 0xFFFFFFFFFFFFFFFFFFFFFFFFFFFFFFFFFFFFFFFF AND PUSH20 0xFFFFFFFFFFFFFFFFFFFFFFFFFFFFFFFFFFFFFFFF AND CALLER PUSH20 0xFFFFFFFFFFFFFFFFFFFFFFFFFFFFFFFFFFFFFFFF AND EQ JUMPDEST PUSH2 0x495 JUMPI PUSH1 0x40 MLOAD PUSH32 0x8C379A000000000000000000000000000000000000000000000000000000000 DUP2 MSTORE PUSH1 0x4 ADD PUSH2 0x48C SWAP1 PUSH2 0x1764 JUMP JUMPDEST PUSH1 0x40 MLOAD DUP1 SWAP2 SUB SWAP1 REVERT JUMPDEST PUSH1 0x4 DUP1 DUP2 GT ISZERO PUSH2 0x4A8 JUMPI PUSH2 0x4A7 PUSH2 0x1483 JUMP JUMPDEST JUMPDEST PUSH1 0x4 PUSH1 0x14 SWAP1 SLOAD SWAP1 PUSH2 0x100 EXP SWAP1 DIV PUSH1 0xFF AND PUSH1 0x4 DUP2 GT ISZERO PUSH2 0x4CA JUMPI PUSH2 0x4C9 PUSH2 0x1483 JUMP JUMPDEST JUMPDEST EQ PUSH2 0x50A JUMPI PUSH1 0x40 MLOAD PUSH32 0x8C379A000000000000000000000000000000000000000000000000000000000 DUP2 MSTORE PUSH1 0x4 ADD PUSH2 0x501 SWAP1 PUSH2 0x17D0 JUMP JUMPDEST PUSH1 0x40 MLOAD DUP1 SWAP2 SUB SWAP1 REVERT JUMPDEST PUSH1 0x0 PUSH1 0x5 PUSH1 0x0 PUSH1 0x1 PUSH1 0x14 SWAP1 SLOAD SWAP1 PUSH2 0x100 EXP SWAP1 DIV PUSH1 0xFF AND PUSH1 0x3 DUP2 GT ISZERO PUSH2 0x532 JUMPI PUSH2 0x531 PUSH2 0x1483 JUMP JUMPDEST JUMPDEST PUSH1 0x3 DUP2 GT ISZERO PUSH2 0x544 JUMPI PUSH2 0x543 PUSH2 0x1483 JUMP JUMPDEST JUMPDEST DUP2 MSTORE PUSH1 0x20 ADD SWAP1 DUP2 MSTORE PUSH1 0x20 ADD PUSH1 0x0 KECCAK256 PUSH1 0x0 PUSH1 0x1 PUSH1 0x15 SWAP1 SLOAD SWAP1 PUSH2 0x100 EXP SWAP1 DIV PUSH1 0xFF AND PUSH1 0x3 DUP2 GT ISZERO PUSH2 0x576 JUMPI PUSH2 0x575 PUSH2 0x1483 JUMP JUMPDEST JUMPDEST PUSH1 0x3 DUP2 GT ISZERO PUSH2 0x588 JUMPI PUSH2 0x587 PUSH2 0x1483 JUMP JUMPDEST JUMPDEST DUP2 MSTORE PUSH1 0x20 ADD SWAP1 DUP2 MSTORE PUSH1 0x20 ADD PUSH1 0x0 KECCAK256 PUSH1 0x0 SWAP1 SLOAD SWAP1 PUSH2 0x100 EXP SWAP1 DIV PUSH1 0xFF AND SWAP1 POP PUSH1 0x0 DUP2 PUSH1 0x0 SIGNEXTEND EQ DUP1 PUSH2 0x5BB JUMPI POP PUSH1 0x1 DUP2 PUSH1 0x0 SIGNEXTEND EQ JUMPDEST ISZERO PUSH2 0x626 JUMPI PUSH1 0x0 DUP1 SLOAD SWAP1 PUSH2 0x100 EXP SWAP1 DIV PUSH20 0xFFFFFFFFFFFFFFFFFFFFFFFFFFFFFFFFFFFFFFFF AND PUSH1 0x4 PUSH1 0x0 PUSH2 0x100 EXP DUP2 SLOAD DUP2 PUSH20 0xFFFFFFFFFFFFFFFFFFFFFFFFFFFFFFFFFFFFFFFF MUL NOT AND SWAP1 DUP4 PUSH20 0xFFFFFFFFFFFFFFFFFFFFFFFFFFFFFFFFFFFFFFFF AND MUL OR SWAP1 SSTORE POP PUSH2 0x68A JUMP JUMPDEST PUSH1 0x1 PUSH1 0x0 SWAP1 SLOAD SWAP1 PUSH2 0x100 EXP SWAP1 DIV PUSH20 0xFFFFFFFFFFFFFFFFFFFFFFFFFFFFFFFFFFFFFFFF AND PUSH1 0x4 PUSH1 0x0 PUSH2 0x100 EXP DUP2 SLOAD DUP2 PUSH20 0xFFFFFFFFFFFFFFFFFFFFFFFFFFFFFFFFFFFFFFFF MUL NOT AND SWAP1 DUP4 PUSH20 0xFFFFFFFFFFFFFFFFFFFFFFFFFFFFFFFFFFFFFFFF AND MUL OR SWAP1 SSTORE POP JUMPDEST POP JUMP JUMPDEST PUSH1 0x2 SLOAD DUP2 JUMP JUMPDEST PUSH1 0x0 DUP1 SLOAD SWAP1 PUSH2 0x100 EXP SWAP1 DIV PUSH20 0xFFFFFFFFFFFFFFFFFFFFFFFFFFFFFFFFFFFFFFFF AND PUSH20 0xFFFFFFFFFFFFFFFFFFFFFFFFFFFFFFFFFFFFFFFF AND CALLER PUSH20 0xFFFFFFFFFFFFFFFFFFFFFFFFFFFFFFFFFFFFFFFF AND EQ DUP1 PUSH2 0x73A JUMPI POP PUSH1 0x1 PUSH1 0x0 SWAP1 SLOAD SWAP1 PUSH2 0x100 EXP SWAP1 DIV PUSH20 0xFFFFFFFFFFFFFFFFFFFFFFFFFFFFFFFFFFFFFFFF AND PUSH20 0xFFFFFFFFFFFFFFFFFFFFFFFFFFFFFFFFFFFFFFFF AND CALLER PUSH20 0xFFFFFFFFFFFFFFFFFFFFFFFFFFFFFFFFFFFFFFFF AND EQ JUMPDEST PUSH2 0x779 JUMPI PUSH1 0x40 MLOAD PUSH32 0x8C379A000000000000000000000000000000000000000000000000000000000 DUP2 MSTORE PUSH1 0x4 ADD PUSH2 0x770 SWAP1 PUSH2 0x1764 JUMP JUMPDEST PUSH1 0x40 MLOAD DUP1 SWAP2 SUB SWAP1 REVERT JUMPDEST DUP2 PUSH1 0x1 PUSH1 0x3 DUP2 GT ISZERO PUSH2 0x78E JUMPI PUSH2 0x78D PUSH2 0x1483 JUMP JUMPDEST JUMPDEST DUP2 PUSH1 0x3 DUP2 GT ISZERO PUSH2 0x7A1 JUMPI PUSH2 0x7A0 PUSH2 0x1483 JUMP JUMPDEST JUMPDEST EQ DUP1 PUSH2 0x7D1 JUMPI POP PUSH1 0x2 PUSH1 0x3 DUP2 GT ISZERO PUSH2 0x7BC JUMPI PUSH2 0x7BB PUSH2 0x1483 JUMP JUMPDEST JUMPDEST DUP2 PUSH1 0x3 DUP2 GT ISZERO PUSH2 0x7CF JUMPI PUSH2 0x7CE PUSH2 0x1483 JUMP JUMPDEST JUMPDEST EQ JUMPDEST DUP1 PUSH2 0x7FF JUMPI POP PUSH1 0x3 DUP1 DUP2 GT ISZERO PUSH2 0x7EA JUMPI PUSH2 0x7E9 PUSH2 0x1483 JUMP JUMPDEST JUMPDEST DUP2 PUSH1 0x3 DUP2 GT ISZERO PUSH2 0x7FD JUMPI PUSH2 0x7FC PUSH2 0x1483 JUMP JUMPDEST JUMPDEST EQ JUMPDEST PUSH2 0x83E JUMPI PUSH1 0x40 MLOAD PUSH32 0x8C379A000000000000000000000000000000000000000000000000000000000 DUP2 MSTORE PUSH1 0x4 ADD PUSH2 0x835 SWAP1 PUSH2 0x183C JUMP JUMPDEST PUSH1 0x40 MLOAD DUP1 SWAP2 SUB SWAP1 REVERT JUMPDEST PUSH1 0x2 PUSH1 0x4 DUP2 GT ISZERO PUSH2 0x852 JUMPI PUSH2 0x851 PUSH2 0x1483 JUMP JUMPDEST JUMPDEST PUSH1 0x4 PUSH1 0x14 SWAP1 SLOAD SWAP1 PUSH2 0x100 EXP SWAP1 DIV PUSH1 0xFF AND PUSH1 0x4 DUP2 GT ISZERO PUSH2 0x874 JUMPI PUSH2 0x873 PUSH2 0x1483 JUMP JUMPDEST JUMPDEST EQ DUP1 PUSH2 0x8B3 JUMPI POP PUSH1 0x3 PUSH1 0x4 DUP2 GT ISZERO PUSH2 0x88F JUMPI PUSH2 0x88E PUSH2 0x1483 JUMP JUMPDEST JUMPDEST PUSH1 0x4 PUSH1 0x14 SWAP1 SLOAD SWAP1 PUSH2 0x100 EXP SWAP1 DIV PUSH1 0xFF AND PUSH1 0x4 DUP2 GT ISZERO PUSH2 0x8B1 JUMPI PUSH2 0x8B0 PUSH2 0x1483 JUMP JUMPDEST JUMPDEST EQ JUMPDEST PUSH2 0x8F2 JUMPI PUSH1 0x40 MLOAD PUSH32 0x8C379A000000000000000000000000000000000000000000000000000000000 DUP2 MSTORE PUSH1 0x4 ADD PUSH2 0x8E9 SWAP1 PUSH2 0x17D0 JUMP JUMPDEST PUSH1 0x40 MLOAD DUP1 SWAP2 SUB SWAP1 REVERT JUMPDEST PUSH1 0x0 PUSH1 0x2 PUSH2 0x911 DUP6 PUSH1 0x3 DUP2 GT ISZERO PUSH2 0x90C JUMPI PUSH2 0x90B PUSH2 0x1483 JUMP JUMPDEST JUMPDEST PUSH2 0x1262 JUMP JUMPDEST PUSH2 0x920 DUP6 PUSH4 0xFFFFFFFF AND PUSH2 0x1262 JUMP JUMPDEST PUSH1 0x40 MLOAD PUSH1 0x20 ADD PUSH2 0x931 SWAP3 SWAP2 SWAP1 PUSH2 0x18CD JUMP JUMPDEST PUSH1 0x40 MLOAD PUSH1 0x20 DUP2 DUP4 SUB SUB DUP2 MSTORE SWAP1 PUSH1 0x40 MSTORE PUSH1 0x40 MLOAD PUSH2 0x94D SWAP2 SWAP1 PUSH2 0x18F1 JUMP JUMPDEST PUSH1 0x20 PUSH1 0x40 MLOAD DUP1 DUP4 SUB DUP2 DUP6 GAS STATICCALL ISZERO DUP1 ISZERO PUSH2 0x96A JUMPI RETURNDATASIZE PUSH1 0x0 DUP1 RETURNDATACOPY RETURNDATASIZE PUSH1 0x0 REVERT JUMPDEST POP POP POP PUSH1 0x40 MLOAD RETURNDATASIZE PUSH1 0x1F NOT PUSH1 0x1F DUP3 ADD AND DUP3 ADD DUP1 PUSH1 0x40 MSTORE POP DUP2 ADD SWAP1 PUSH2 0x98D SWAP2 SWAP1 PUSH2 0x191D JUMP JUMPDEST SWAP1 POP PUSH1 0x0 PUSH1 0x3 DUP2 GT ISZERO PUSH2 0x9A3 JUMPI PUSH2 0x9A2 PUSH2 0x1483 JUMP JUMPDEST JUMPDEST DUP5 PUSH1 0x3 DUP2 GT ISZERO PUSH2 0x9B6 JUMPI PUSH2 0x9B5 PUSH2 0x1483 JUMP JUMPDEST JUMPDEST SUB PUSH2 0x9F6 JUMPI PUSH1 0x40 MLOAD PUSH32 0x8C379A000000000000000000000000000000000000000000000000000000000 DUP2 MSTORE PUSH1 0x4 ADD PUSH2 0x9ED SWAP1 PUSH2 0x1996 JUMP JUMPDEST PUSH1 0x40 MLOAD DUP1 SWAP2 SUB SWAP1 REVERT JUMPDEST PUSH1 0x0 DUP1 SLOAD SWAP1 PUSH2 0x100 EXP SWAP1 DIV PUSH20 0xFFFFFFFFFFFFFFFFFFFFFFFFFFFFFFFFFFFFFFFF AND PUSH20 0xFFFFFFFFFFFFFFFFFFFFFFFFFFFFFFFFFFFFFFFF AND CALLER PUSH20 0xFFFFFFFFFFFFFFFFFFFFFFFFFFFFFFFFFFFFFFFF AND EQ DUP1 ISZERO PUSH2 0xA52 JUMPI POP PUSH1 0x2 SLOAD DUP2 EQ JUMPDEST ISZERO PUSH2 0xAEA JUMPI DUP4 PUSH1 0x1 PUSH1 0x14 PUSH2 0x100 EXP DUP2 SLOAD DUP2 PUSH1 0xFF MUL NOT AND SWAP1 DUP4 PUSH1 0x3 DUP2 GT ISZERO PUSH2 0xA7C JUMPI PUSH2 0xA7B PUSH2 0x1483 JUMP JUMPDEST JUMPDEST MUL OR SWAP1 SSTORE POP PUSH32 0x79A7276BA83FEF4FE13F88DF855C8420D094DE7D84D1D4A3BC10554A841BD80B CALLER DUP6 PUSH1 0x40 MLOAD PUSH2 0xAB2 SWAP3 SWAP2 SWAP1 PUSH2 0x19B6 JUMP JUMPDEST PUSH1 0x40 MLOAD DUP1 SWAP2 SUB SWAP1 LOG1 PUSH1 0x3 PUSH1 0x4 PUSH1 0x14 PUSH2 0x100 EXP DUP2 SLOAD DUP2 PUSH1 0xFF MUL NOT AND SWAP1 DUP4 PUSH1 0x4 DUP2 GT ISZERO PUSH2 0xAE0 JUMPI PUSH2 0xADF PUSH2 0x1483 JUMP JUMPDEST JUMPDEST MUL OR SWAP1 SSTORE POP PUSH2 0xC1B JUMP JUMPDEST PUSH1 0x1 PUSH1 0x0 SWAP1 SLOAD SWAP1 PUSH2 0x100 EXP SWAP1 DIV PUSH20 0xFFFFFFFFFFFFFFFFFFFFFFFFFFFFFFFFFFFFFFFF AND PUSH20 0xFFFFFFFFFFFFFFFFFFFFFFFFFFFFFFFFFFFFFFFF AND CALLER PUSH20 0xFFFFFFFFFFFFFFFFFFFFFFFFFFFFFFFFFFFFFFFF AND EQ DUP1 ISZERO PUSH2 0xB48 JUMPI POP PUSH1 0x3 SLOAD DUP2 EQ JUMPDEST ISZERO PUSH2 0xBDF JUMPI DUP4 PUSH1 0x1 PUSH1 0x15 PUSH2 0x100 EXP DUP2 SLOAD DUP2 PUSH1 0xFF MUL NOT AND SWAP1 DUP4 PUSH1 0x3 DUP2 GT ISZERO PUSH2 0xB72 JUMPI PUSH2 0xB71 PUSH2 0x1483 JUMP JUMPDEST JUMPDEST MUL OR SWAP1 SSTORE POP PUSH32 0x79A7276BA83FEF4FE13F88DF855C8420D094DE7D84D1D4A3BC10554A841BD80B CALLER DUP6 PUSH1 0x40 MLOAD PUSH2 0xBA8 SWAP3 SWAP2 SWAP1 PUSH2 0x19B6 JUMP JUMPDEST PUSH1 0x40 MLOAD DUP1 SWAP2 SUB SWAP1 LOG1 PUSH1 0x4 DUP1 PUSH1 0x14 PUSH2 0x100 EXP DUP2 SLOAD DUP2 PUSH1 0xFF MUL NOT AND SWAP1 DUP4 PUSH1 0x4 DUP2 GT ISZERO PUSH2 0xBD5 JUMPI PUSH2 0xBD4 PUSH2 0x1483 JUMP JUMPDEST JUMPDEST MUL OR SWAP1 SSTORE POP PUSH2 0xC1A JUMP JUMPDEST PUSH1 0x40 MLOAD PUSH32 0x8C379A000000000000000000000000000000000000000000000000000000000 DUP2 MSTORE PUSH1 0x4 ADD PUSH2 0xC11 SWAP1 PUSH2 0x1996 JUMP JUMPDEST PUSH1 0x40 MLOAD DUP1 SWAP2 SUB SWAP1 REVERT JUMPDEST JUMPDEST POP POP POP POP JUMP JUMPDEST PUSH1 0x0 DUP1 SLOAD SWAP1 PUSH2 0x100 EXP SWAP1 DIV PUSH20 0xFFFFFFFFFFFFFFFFFFFFFFFFFFFFFFFFFFFFFFFF AND PUSH20 0xFFFFFFFFFFFFFFFFFFFFFFFFFFFFFFFFFFFFFFFF AND CALLER PUSH20 0xFFFFFFFFFFFFFFFFFFFFFFFFFFFFFFFFFFFFFFFF AND EQ ISZERO DUP1 ISZERO PUSH2 0xCCB JUMPI POP PUSH1 0x1 PUSH1 0x0 SWAP1 SLOAD SWAP1 PUSH2 0x100 EXP SWAP1 DIV PUSH20 0xFFFFFFFFFFFFFFFFFFFFFFFFFFFFFFFFFFFFFFFF AND PUSH20 0xFFFFFFFFFFFFFFFFFFFFFFFFFFFFFFFFFFFFFFFF AND CALLER PUSH20 0xFFFFFFFFFFFFFFFFFFFFFFFFFFFFFFFFFFFFFFFF AND EQ ISZERO JUMPDEST PUSH2 0xCD4 JUMPI PUSH1 0x0 DUP1 REVERT JUMPDEST PUSH1 0x0 PUSH20 0xFFFFFFFFFFFFFFFFFFFFFFFFFFFFFFFFFFFFFFFF AND PUSH1 0x0 DUP1 SLOAD SWAP1 PUSH2 0x100 EXP SWAP1 DIV PUSH20 0xFFFFFFFFFFFFFFFFFFFFFFFFFFFFFFFFFFFFFFFF AND PUSH20 0xFFFFFFFFFFFFFFFFFFFFFFFFFFFFFFFFFFFFFFFF AND EQ DUP1 PUSH2 0xD7D JUMPI POP PUSH1 0x0 PUSH20 0xFFFFFFFFFFFFFFFFFFFFFFFFFFFFFFFFFFFFFFFF AND PUSH1 0x1 PUSH1 0x0 SWAP1 SLOAD SWAP1 PUSH2 0x100 EXP SWAP1 DIV PUSH20 0xFFFFFFFFFFFFFFFFFFFFFFFFFFFFFFFFFFFFFFFF AND PUSH20 0xFFFFFFFFFFFFFFFFFFFFFFFFFFFFFFFFFFFFFFFF AND EQ JUMPDEST PUSH2 0xDBC JUMPI PUSH1 0x40 MLOAD PUSH32 0x8C379A000000000000000000000000000000000000000000000000000000000 DUP2 MSTORE PUSH1 0x4 ADD PUSH2 0xDB3 SWAP1 PUSH2 0x1A2B JUMP JUMPDEST PUSH1 0x40 MLOAD DUP1 SWAP2 SUB SWAP1 REVERT JUMPDEST PUSH1 0x0 PUSH20 0xFFFFFFFFFFFFFFFFFFFFFFFFFFFFFFFFFFFFFFFF AND PUSH1 0x0 DUP1 SLOAD SWAP1 PUSH2 0x100 EXP SWAP1 DIV PUSH20 0xFFFFFFFFFFFFFFFFFFFFFFFFFFFFFFFFFFFFFFFF AND PUSH20 0xFFFFFFFFFFFFFFFFFFFFFFFFFFFFFFFFFFFFFFFF AND SUB PUSH2 0xE55 JUMPI CALLER PUSH1 0x0 DUP1 PUSH2 0x100 EXP DUP2 SLOAD DUP2 PUSH20 0xFFFFFFFFFFFFFFFFFFFFFFFFFFFFFFFFFFFFFFFF MUL NOT AND SWAP1 DUP4 PUSH20 0xFFFFFFFFFFFFFFFFFFFFFFFFFFFFFFFFFFFFFFFF AND MUL OR SWAP1 SSTORE POP PUSH2 0xE97 JUMP JUMPDEST CALLER PUSH1 0x1 PUSH1 0x0 PUSH2 0x100 EXP DUP2 SLOAD DUP2 PUSH20 0xFFFFFFFFFFFFFFFFFFFFFFFFFFFFFFFFFFFFFFFF MUL NOT AND SWAP1 DUP4 PUSH20 0xFFFFFFFFFFFFFFFFFFFFFFFFFFFFFFFFFFFFFFFF AND MUL OR SWAP1 SSTORE POP JUMPDEST JUMP JUMPDEST PUSH1 0x4 PUSH1 0x14 SWAP1 SLOAD SWAP1 PUSH2 0x100 EXP SWAP1 DIV PUSH1 0xFF AND DUP2 JUMP JUMPDEST PUSH1 0x0 DUP1 SLOAD SWAP1 PUSH2 0x100 EXP SWAP1 DIV PUSH20 0xFFFFFFFFFFFFFFFFFFFFFFFFFFFFFFFFFFFFFFFF AND DUP2 JUMP JUMPDEST PUSH1 0x1 PUSH1 0x14 SWAP1 SLOAD SWAP1 PUSH2 0x100 EXP SWAP1 DIV PUSH1 0xFF AND DUP2 JUMP JUMPDEST PUSH1 0x4 PUSH1 0x0 SWAP1 SLOAD SWAP1 PUSH2 0x100 EXP SWAP1 DIV PUSH20 0xFFFFFFFFFFFFFFFFFFFFFFFFFFFFFFFFFFFFFFFF AND DUP2 JUMP JUMPDEST PUSH1 0x3 SLOAD DUP2 JUMP JUMPDEST PUSH1 0x0 DUP1 SLOAD SWAP1 PUSH2 0x100 EXP SWAP1 DIV PUSH20 0xFFFFFFFFFFFFFFFFFFFFFFFFFFFFFFFFFFFFFFFF AND PUSH20 0xFFFFFFFFFFFFFFFFFFFFFFFFFFFFFFFFFFFFFFFF AND CALLER PUSH20 0xFFFFFFFFFFFFFFFFFFFFFFFFFFFFFFFFFFFFFFFF AND EQ DUP1 PUSH2 0xFB6 JUMPI POP PUSH1 0x1 PUSH1 0x0 SWAP1 SLOAD SWAP1 PUSH2 0x100 EXP SWAP1 DIV PUSH20 0xFFFFFFFFFFFFFFFFFFFFFFFFFFFFFFFFFFFFFFFF AND PUSH20 0xFFFFFFFFFFFFFFFFFFFFFFFFFFFFFFFFFFFFFFFF AND CALLER PUSH20 0xFFFFFFFFFFFFFFFFFFFFFFFFFFFFFFFFFFFFFFFF AND EQ JUMPDEST PUSH2 0xFF5 JUMPI PUSH1 0x40 MLOAD PUSH32 0x8C379A000000000000000000000000000000000000000000000000000000000 DUP2 MSTORE PUSH1 0x4 ADD PUSH2 0xFEC SWAP1 PUSH2 0x1764 JUMP JUMPDEST PUSH1 0x40 MLOAD DUP1 SWAP2 SUB SWAP1 REVERT JUMPDEST PUSH1 0x0 PUSH1 0x4 DUP2 GT ISZERO PUSH2 0x1009 JUMPI PUSH2 0x1008 PUSH2 0x1483 JUMP JUMPDEST JUMPDEST PUSH1 0x4 PUSH1 0x14 SWAP1 SLOAD SWAP1 PUSH2 0x100 EXP SWAP1 DIV PUSH1 0xFF AND PUSH1 0x4 DUP2 GT ISZERO PUSH2 0x102B JUMPI PUSH2 0x102A PUSH2 0x1483 JUMP JUMPDEST JUMPDEST EQ DUP1 PUSH2 0x106A JUMPI POP PUSH1 0x1 PUSH1 0x4 DUP2 GT ISZERO PUSH2 0x1046 JUMPI PUSH2 0x1045 PUSH2 0x1483 JUMP JUMPDEST JUMPDEST PUSH1 0x4 PUSH1 0x14 SWAP1 SLOAD SWAP1 PUSH2 0x100 EXP SWAP1 DIV PUSH1 0xFF AND PUSH1 0x4 DUP2 GT ISZERO PUSH2 0x1068 JUMPI PUSH2 0x1067 PUSH2 0x1483 JUMP JUMPDEST JUMPDEST EQ JUMPDEST PUSH2 0x1073 JUMPI PUSH1 0x0 DUP1 REVERT JUMPDEST PUSH1 0x0 DUP1 SLOAD SWAP1 PUSH2 0x100 EXP SWAP1 DIV PUSH20 0xFFFFFFFFFFFFFFFFFFFFFFFFFFFFFFFFFFFFFFFF AND PUSH20 0xFFFFFFFFFFFFFFFFFFFFFFFFFFFFFFFFFFFFFFFF AND CALLER PUSH20 0xFFFFFFFFFFFFFFFFFFFFFFFFFFFFFFFFFFFFFFFF AND EQ DUP1 ISZERO PUSH2 0x10D2 JUMPI POP PUSH1 0x0 DUP1 SHL PUSH1 0x2 SLOAD EQ JUMPDEST ISZERO PUSH2 0x10E3 JUMPI DUP1 PUSH1 0x2 DUP2 SWAP1 SSTORE POP PUSH2 0x1191 JUMP JUMPDEST PUSH1 0x1 PUSH1 0x0 SWAP1 SLOAD SWAP1 PUSH2 0x100 EXP SWAP1 DIV PUSH20 0xFFFFFFFFFFFFFFFFFFFFFFFFFFFFFFFFFFFFFFFF AND PUSH20 0xFFFFFFFFFFFFFFFFFFFFFFFFFFFFFFFFFFFFFFFF AND CALLER PUSH20 0xFFFFFFFFFFFFFFFFFFFFFFFFFFFFFFFFFFFFFFFF AND EQ DUP1 ISZERO PUSH2 0x1144 JUMPI POP PUSH1 0x0 DUP1 SHL PUSH1 0x3 SLOAD EQ JUMPDEST ISZERO PUSH2 0x1155 JUMPI DUP1 PUSH1 0x3 DUP2 SWAP1 SSTORE POP PUSH2 0x1190 JUMP JUMPDEST PUSH1 0x40 MLOAD PUSH32 0x8C379A000000000000000000000000000000000000000000000000000000000 DUP2 MSTORE PUSH1 0x4 ADD PUSH2 0x1187 SWAP1 PUSH2 0x1A97 JUMP JUMPDEST PUSH1 0x40 MLOAD DUP1 SWAP2 SUB SWAP1 REVERT JUMPDEST JUMPDEST PUSH32 0x599481BD81D46EA2372B7F45AB8900AC58961566F184806290D9EDE4E0FC7641 CALLER PUSH1 0x40 MLOAD PUSH2 0x11C0 SWAP2 SWAP1 PUSH2 0x1556 JUMP JUMPDEST PUSH1 0x40 MLOAD DUP1 SWAP2 SUB SWAP1 LOG1 PUSH1 0x0 PUSH1 0x4 DUP2 GT ISZERO PUSH2 0x11DC JUMPI PUSH2 0x11DB PUSH2 0x1483 JUMP JUMPDEST JUMPDEST PUSH1 0x4 PUSH1 0x14 SWAP1 SLOAD SWAP1 PUSH2 0x100 EXP SWAP1 DIV PUSH1 0xFF AND PUSH1 0x4 DUP2 GT ISZERO PUSH2 0x11FE JUMPI PUSH2 0x11FD PUSH2 0x1483 JUMP JUMPDEST JUMPDEST SUB PUSH2 0x1233 JUMPI PUSH1 0x1 PUSH1 0x4 PUSH1 0x14 PUSH2 0x100 EXP DUP2 SLOAD DUP2 PUSH1 0xFF MUL NOT AND SWAP1 DUP4 PUSH1 0x4 DUP2 GT ISZERO PUSH2 0x1229 JUMPI PUSH2 0x1228 PUSH2 0x1483 JUMP JUMPDEST JUMPDEST MUL OR SWAP1 SSTORE POP PUSH2 0x125F JUMP JUMPDEST PUSH1 0x2 PUSH1 0x4 PUSH1 0x14 PUSH2 0x100 EXP DUP2 SLOAD DUP2 PUSH1 0xFF MUL NOT AND SWAP1 DUP4 PUSH1 0x4 DUP2 GT ISZERO PUSH2 0x1259 JUMPI PUSH2 0x1258 PUSH2 0x1483 JUMP JUMPDEST JUMPDEST MUL OR SWAP1 SSTORE POP JUMPDEST POP JUMP JUMPDEST PUSH1 0x60 PUSH1 0x0 PUSH1 0x1 PUSH2 0x1271 DUP5 PUSH2 0x1330 JUMP JUMPDEST ADD SWAP1 POP PUSH1 0x0 DUP2 PUSH8 0xFFFFFFFFFFFFFFFF DUP2 GT ISZERO PUSH2 0x1290 JUMPI PUSH2 0x128F PUSH2 0x1AB7 JUMP JUMPDEST JUMPDEST PUSH1 0x40 MLOAD SWAP1 DUP1 DUP3 MSTORE DUP1 PUSH1 0x1F ADD PUSH1 0x1F NOT AND PUSH1 0x20 ADD DUP3 ADD PUSH1 0x40 MSTORE DUP1 ISZERO PUSH2 0x12C2 JUMPI DUP2 PUSH1 0x20 ADD PUSH1 0x1 DUP3 MUL DUP1 CALLDATASIZE DUP4 CALLDATACOPY DUP1 DUP3 ADD SWAP2 POP POP SWAP1 POP JUMPDEST POP SWAP1 POP PUSH1 0x0 DUP3 PUSH1 0x20 ADD DUP3 ADD SWAP1 POP JUMPDEST PUSH1 0x1 ISZERO PUSH2 0x1325 JUMPI DUP1 DUP1 PUSH1 0x1 SWAP1 SUB SWAP2 POP POP PUSH32 0x3031323334353637383961626364656600000000000000000000000000000000 PUSH1 0xA DUP7 MOD BYTE DUP2 MSTORE8 PUSH1 0xA DUP6 DUP2 PUSH2 0x1319 JUMPI PUSH2 0x1318 PUSH2 0x1AE6 JUMP JUMPDEST JUMPDEST DIV SWAP5 POP PUSH1 0x0 DUP6 SUB PUSH2 0x12D0 JUMPI JUMPDEST DUP2 SWAP4 POP POP POP POP SWAP2 SWAP1 POP JUMP JUMPDEST PUSH1 0x0 DUP1 PUSH1 0x0 SWAP1 POP PUSH27 0x184F03E93FF9F4DAA797ED6E38ED64BF6A1F010000000000000000 DUP4 LT PUSH2 0x138E JUMPI PUSH27 0x184F03E93FF9F4DAA797ED6E38ED64BF6A1F010000000000000000 DUP4 DUP2 PUSH2 0x1384 JUMPI PUSH2 0x1383 PUSH2 0x1AE6 JUMP JUMPDEST JUMPDEST DIV SWAP3 POP PUSH1 0x40 DUP2 ADD SWAP1 POP JUMPDEST PUSH14 0x4EE2D6D415B85ACEF8100000000 DUP4 LT PUSH2 0x13CB JUMPI PUSH14 0x4EE2D6D415B85ACEF8100000000 DUP4 DUP2 PUSH2 0x13C1 JUMPI PUSH2 0x13C0 PUSH2 0x1AE6 JUMP JUMPDEST JUMPDEST DIV SWAP3 POP PUSH1 0x20 DUP2 ADD SWAP1 POP JUMPDEST PUSH7 0x2386F26FC10000 DUP4 LT PUSH2 0x13FA JUMPI PUSH7 0x2386F26FC10000 DUP4 DUP2 PUSH2 0x13F0 JUMPI PUSH2 0x13EF PUSH2 0x1AE6 JUMP JUMPDEST JUMPDEST DIV SWAP3 POP PUSH1 0x10 DUP2 ADD SWAP1 POP JUMPDEST PUSH4 0x5F5E100 DUP4 LT PUSH2 0x1423 JUMPI PUSH4 0x5F5E100 DUP4 DUP2 PUSH2 0x1419 JUMPI PUSH2 0x1418 PUSH2 0x1AE6 JUMP JUMPDEST JUMPDEST DIV SWAP3 POP PUSH1 0x8 DUP2 ADD SWAP1 POP JUMPDEST PUSH2 0x2710 DUP4 LT PUSH2 0x1448 JUMPI PUSH2 0x2710 DUP4 DUP2 PUSH2 0x143E JUMPI PUSH2 0x143D PUSH2 0x1AE6 JUMP JUMPDEST JUMPDEST DIV SWAP3 POP PUSH1 0x4 DUP2 ADD SWAP1 POP JUMPDEST PUSH1 0x64 DUP4 LT PUSH2 0x146B JUMPI PUSH1 0x64 DUP4 DUP2 PUSH2 0x1461 JUMPI PUSH2 0x1460 PUSH2 0x1AE6 JUMP JUMPDEST JUMPDEST DIV SWAP3 POP PUSH1 0x2 DUP2 ADD SWAP1 POP JUMPDEST PUSH1 0xA DUP4 LT PUSH2 0x147A JUMPI PUSH1 0x1 DUP2 ADD SWAP1 POP JUMPDEST DUP1 SWAP2 POP POP SWAP2 SWAP1 POP JUMP JUMPDEST PUSH32 0x4E487B7100000000000000000000000000000000000000000000000000000000 PUSH1 0x0 MSTORE PUSH1 0x21 PUSH1 0x4 MSTORE PUSH1 0x24 PUSH1 0x0 REVERT JUMPDEST PUSH1 0x4 DUP2 LT PUSH2 0x14C3 JUMPI PUSH2 0x14C2 PUSH2 0x1483 JUMP JUMPDEST JUMPDEST POP JUMP JUMPDEST PUSH1 0x0 DUP2 SWAP1 POP PUSH2 0x14D4 DUP3 PUSH2 0x14B2 JUMP JUMPDEST SWAP2 SWAP1 POP JUMP JUMPDEST PUSH1 0x0 PUSH2 0x14E4 DUP3 PUSH2 0x14C6 JUMP JUMPDEST SWAP1 POP SWAP2 SWAP1 POP JUMP JUMPDEST PUSH2 0x14F4 DUP2 PUSH2 0x14D9 JUMP JUMPDEST DUP3 MSTORE POP POP JUMP JUMPDEST PUSH1 0x0 PUSH1 0x20 DUP3 ADD SWAP1 POP PUSH2 0x150F PUSH1 0x0 DUP4 ADD DUP5 PUSH2 0x14EB JUMP JUMPDEST SWAP3 SWAP2 POP POP JUMP JUMPDEST PUSH1 0x0 PUSH20 0xFFFFFFFFFFFFFFFFFFFFFFFFFFFFFFFFFFFFFFFF DUP3 AND SWAP1 POP SWAP2 SWAP1 POP JUMP JUMPDEST PUSH1 0x0 PUSH2 0x1540 DUP3 PUSH2 0x1515 JUMP JUMPDEST SWAP1 POP SWAP2 SWAP1 POP JUMP JUMPDEST PUSH2 0x1550 DUP2 PUSH2 0x1535 JUMP JUMPDEST DUP3 MSTORE POP POP JUMP JUMPDEST PUSH1 0x0 PUSH1 0x20 DUP3 ADD SWAP1 POP PUSH2 0x156B PUSH1 0x0 DUP4 ADD DUP5 PUSH2 0x1547 JUMP JUMPDEST SWAP3 SWAP2 POP POP JUMP JUMPDEST PUSH1 0x0 DUP2 SWAP1 POP SWAP2 SWAP1 POP JUMP JUMPDEST PUSH2 0x1584 DUP2 PUSH2 0x1571 JUMP JUMPDEST DUP3 MSTORE POP POP JUMP JUMPDEST PUSH1 0x0 PUSH1 0x20 DUP3 ADD SWAP1 POP PUSH2 0x159F PUSH1 0x0 DUP4 ADD DUP5 PUSH2 0x157B JUMP JUMPDEST SWAP3 SWAP2 POP POP JUMP JUMPDEST PUSH1 0x0 DUP1 REVERT JUMPDEST PUSH1 0x4 DUP2 LT PUSH2 0x15B7 JUMPI PUSH1 0x0 DUP1 REVERT JUMPDEST POP JUMP JUMPDEST PUSH1 0x0 DUP2 CALLDATALOAD SWAP1 POP PUSH2 0x15C9 DUP2 PUSH2 0x15AA JUMP JUMPDEST SWAP3 SWAP2 POP POP JUMP JUMPDEST PUSH1 0x0 PUSH4 0xFFFFFFFF DUP3 AND SWAP1 POP SWAP2 SWAP1 POP JUMP JUMPDEST PUSH2 0x15E8 DUP2 PUSH2 0x15CF JUMP JUMPDEST DUP2 EQ PUSH2 0x15F3 JUMPI PUSH1 0x0 DUP1 REVERT JUMPDEST POP JUMP JUMPDEST PUSH1 0x0 DUP2 CALLDATALOAD SWAP1 POP PUSH2 0x1605 DUP2 PUSH2 0x15DF JUMP JUMPDEST SWAP3 SWAP2 POP POP JUMP JUMPDEST PUSH1 0x0 DUP1 PUSH1 0x40 DUP4 DUP6 SUB SLT ISZERO PUSH2 0x1622 JUMPI PUSH2 0x1621 PUSH2 0x15A5 JUMP JUMPDEST JUMPDEST PUSH1 0x0 PUSH2 0x1630 DUP6 DUP3 DUP7 ADD PUSH2 0x15BA JUMP JUMPDEST SWAP3 POP POP PUSH1 0x20 PUSH2 0x1641 DUP6 DUP3 DUP7 ADD PUSH2 0x15F6 JUMP JUMPDEST SWAP2 POP POP SWAP3 POP SWAP3 SWAP1 POP JUMP JUMPDEST PUSH1 0x5 DUP2 LT PUSH2 0x165C JUMPI PUSH2 0x165B PUSH2 0x1483 JUMP JUMPDEST JUMPDEST POP JUMP JUMPDEST PUSH1 0x0 DUP2 SWAP1 POP PUSH2 0x166D DUP3 PUSH2 0x164B JUMP JUMPDEST SWAP2 SWAP1 POP JUMP JUMPDEST PUSH1 0x0 PUSH2 0x167D DUP3 PUSH2 0x165F JUMP JUMPDEST SWAP1 POP SWAP2 SWAP1 POP JUMP JUMPDEST PUSH2 0x168D DUP2 PUSH2 0x1672 JUMP JUMPDEST DUP3 MSTORE POP POP JUMP JUMPDEST PUSH1 0x0 PUSH1 0x20 DUP3 ADD SWAP1 POP PUSH2 0x16A8 PUSH1 0x0 DUP4 ADD DUP5 PUSH2 0x1684 JUMP JUMPDEST SWAP3 SWAP2 POP POP JUMP JUMPDEST PUSH2 0x16B7 DUP2 PUSH2 0x1571 JUMP JUMPDEST DUP2 EQ PUSH2 0x16C2 JUMPI PUSH1 0x0 DUP1 REVERT JUMPDEST POP JUMP JUMPDEST PUSH1 0x0 DUP2 CALLDATALOAD SWAP1 POP PUSH2 0x16D4 DUP2 PUSH2 0x16AE JUMP JUMPDEST SWAP3 SWAP2 POP POP JUMP JUMPDEST PUSH1 0x0 PUSH1 0x20 DUP3 DUP5 SUB SLT ISZERO PUSH2 0x16F0 JUMPI PUSH2 0x16EF PUSH2 0x15A5 JUMP JUMPDEST JUMPDEST PUSH1 0x0 PUSH2 0x16FE DUP5 DUP3 DUP6 ADD PUSH2 0x16C5 JUMP JUMPDEST SWAP2 POP POP SWAP3 SWAP2 POP POP JUMP JUMPDEST PUSH1 0x0 DUP3 DUP3 MSTORE PUSH1 0x20 DUP3 ADD SWAP1 POP SWAP3 SWAP2 POP POP JUMP JUMPDEST PUSH32 0x596F7520617265206E6F7420706C6179696E6720746869732067616D652E0000 PUSH1 0x0 DUP3 ADD MSTORE POP JUMP JUMPDEST PUSH1 0x0 PUSH2 0x174E PUSH1 0x1E DUP4 PUSH2 0x1707 JUMP JUMPDEST SWAP2 POP PUSH2 0x1759 DUP3 PUSH2 0x1718 JUMP JUMPDEST PUSH1 0x20 DUP3 ADD SWAP1 POP SWAP2 SWAP1 POP JUMP JUMPDEST PUSH1 0x0 PUSH1 0x20 DUP3 ADD SWAP1 POP DUP2 DUP2 SUB PUSH1 0x0 DUP4 ADD MSTORE PUSH2 0x177D DUP2 PUSH2 0x1741 JUMP JUMPDEST SWAP1 POP SWAP2 SWAP1 POP JUMP JUMPDEST PUSH32 0x696E636F72726563742073746167650000000000000000000000000000000000 PUSH1 0x0 DUP3 ADD MSTORE POP JUMP JUMPDEST PUSH1 0x0 PUSH2 0x17BA PUSH1 0xF DUP4 PUSH2 0x1707 JUMP JUMPDEST SWAP2 POP PUSH2 0x17C5 DUP3 PUSH2 0x1784 JUMP JUMPDEST PUSH1 0x20 DUP3 ADD SWAP1 POP SWAP2 SWAP1 POP JUMP JUMPDEST PUSH1 0x0 PUSH1 0x20 DUP3 ADD SWAP1 POP DUP2 DUP2 SUB PUSH1 0x0 DUP4 ADD MSTORE PUSH2 0x17E9 DUP2 PUSH2 0x17AD JUMP JUMPDEST SWAP1 POP SWAP2 SWAP1 POP JUMP JUMPDEST PUSH32 0x696E76616C696420776561706F6E000000000000000000000000000000000000 PUSH1 0x0 DUP3 ADD MSTORE POP JUMP JUMPDEST PUSH1 0x0 PUSH2 0x1826 PUSH1 0xE DUP4 PUSH2 0x1707 JUMP JUMPDEST SWAP2 POP PUSH2 0x1831 DUP3 PUSH2 0x17F0 JUMP JUMPDEST PUSH1 0x20 DUP3 ADD SWAP1 POP SWAP2 SWAP1 POP JUMP JUMPDEST PUSH1 0x0 PUSH1 0x20 DUP3 ADD SWAP1 POP DUP2 DUP2 SUB PUSH1 0x0 DUP4 ADD MSTORE PUSH2 0x1855 DUP2 PUSH2 0x1819 JUMP JUMPDEST SWAP1 POP SWAP2 SWAP1 POP JUMP JUMPDEST PUSH1 0x0 DUP2 MLOAD SWAP1 POP SWAP2 SWAP1 POP JUMP JUMPDEST PUSH1 0x0 DUP2 SWAP1 POP SWAP3 SWAP2 POP POP JUMP JUMPDEST PUSH1 0x0 JUMPDEST DUP4 DUP2 LT ISZERO PUSH2 0x1890 JUMPI DUP1 DUP3 ADD MLOAD DUP2 DUP5 ADD MSTORE PUSH1 0x20 DUP2 ADD SWAP1 POP PUSH2 0x1875 JUMP JUMPDEST PUSH1 0x0 DUP5 DUP5 ADD MSTORE POP POP POP POP JUMP JUMPDEST PUSH1 0x0 PUSH2 0x18A7 DUP3 PUSH2 0x185C JUMP JUMPDEST PUSH2 0x18B1 DUP2 DUP6 PUSH2 0x1867 JUMP JUMPDEST SWAP4 POP PUSH2 0x18C1 DUP2 DUP6 PUSH1 0x20 DUP7 ADD PUSH2 0x1872 JUMP JUMPDEST DUP1 DUP5 ADD SWAP2 POP POP SWAP3 SWAP2 POP POP JUMP JUMPDEST PUSH1 0x0 PUSH2 0x18D9 DUP3 DUP6 PUSH2 0x189C JUMP JUMPDEST SWAP2 POP PUSH2 0x18E5 DUP3 DUP5 PUSH2 0x189C JUMP JUMPDEST SWAP2 POP DUP2 SWAP1 POP SWAP4 SWAP3 POP POP POP JUMP JUMPDEST PUSH1 0x0 PUSH2 0x18FD DUP3 DUP5 PUSH2 0x189C JUMP JUMPDEST SWAP2 POP DUP2 SWAP1 POP SWAP3 SWAP2 POP POP JUMP JUMPDEST PUSH1 0x0 DUP2 MLOAD SWAP1 POP PUSH2 0x1917 DUP2 PUSH2 0x16AE JUMP JUMPDEST SWAP3 SWAP2 POP POP JUMP JUMPDEST PUSH1 0x0 PUSH1 0x20 DUP3 DUP5 SUB SLT ISZERO PUSH2 0x1933 JUMPI PUSH2 0x1932 PUSH2 0x15A5 JUMP JUMPDEST JUMPDEST PUSH1 0x0 PUSH2 0x1941 DUP5 DUP3 DUP6 ADD PUSH2 0x1908 JUMP JUMPDEST SWAP2 POP POP SWAP3 SWAP2 POP POP JUMP JUMPDEST PUSH32 0x696E636F727265637420776561706F6E00000000000000000000000000000000 PUSH1 0x0 DUP3 ADD MSTORE POP JUMP JUMPDEST PUSH1 0x0 PUSH2 0x1980 PUSH1 0x10 DUP4 PUSH2 0x1707 JUMP JUMPDEST SWAP2 POP PUSH2 0x198B DUP3 PUSH2 0x194A JUMP JUMPDEST PUSH1 0x20 DUP3 ADD SWAP1 POP SWAP2 SWAP1 POP JUMP JUMPDEST PUSH1 0x0 PUSH1 0x20 DUP3 ADD SWAP1 POP DUP2 DUP2 SUB PUSH1 0x0 DUP4 ADD MSTORE PUSH2 0x19AF DUP2 PUSH2 0x1973 JUMP JUMPDEST SWAP1 POP SWAP2 SWAP1 POP JUMP JUMPDEST PUSH1 0x0 PUSH1 0x40 DUP3 ADD SWAP1 POP PUSH2 0x19CB PUSH1 0x0 DUP4 ADD DUP6 PUSH2 0x1547 JUMP JUMPDEST PUSH2 0x19D8 PUSH1 0x20 DUP4 ADD DUP5 PUSH2 0x14EB JUMP JUMPDEST SWAP4 SWAP3 POP POP POP JUMP JUMPDEST PUSH32 0x54686520726F6F6D2069732066756C6C2E000000000000000000000000000000 PUSH1 0x0 DUP3 ADD MSTORE POP JUMP JUMPDEST PUSH1 0x0 PUSH2 0x1A15 PUSH1 0x11 DUP4 PUSH2 0x1707 JUMP JUMPDEST SWAP2 POP PUSH2 0x1A20 DUP3 PUSH2 0x19DF JUMP JUMPDEST PUSH1 0x20 DUP3 ADD SWAP1 POP SWAP2 SWAP1 POP JUMP JUMPDEST PUSH1 0x0 PUSH1 0x20 DUP3 ADD SWAP1 POP DUP2 DUP2 SUB PUSH1 0x0 DUP4 ADD MSTORE PUSH2 0x1A44 DUP2 PUSH2 0x1A08 JUMP JUMPDEST SWAP1 POP SWAP2 SWAP1 POP JUMP JUMPDEST PUSH32 0x506C6179657273206861766520616C726561647920636F6D6D69746564000000 PUSH1 0x0 DUP3 ADD MSTORE POP JUMP JUMPDEST PUSH1 0x0 PUSH2 0x1A81 PUSH1 0x1D DUP4 PUSH2 0x1707 JUMP JUMPDEST SWAP2 POP PUSH2 0x1A8C DUP3 PUSH2 0x1A4B JUMP JUMPDEST PUSH1 0x20 DUP3 ADD SWAP1 POP SWAP2 SWAP1 POP JUMP JUMPDEST PUSH1 0x0 PUSH1 0x20 DUP3 ADD SWAP1 POP DUP2 DUP2 SUB PUSH1 0x0 DUP4 ADD MSTORE PUSH2 0x1AB0 DUP2 PUSH2 0x1A74 JUMP JUMPDEST SWAP1 POP SWAP2 SWAP1 POP JUMP JUMPDEST PUSH32 0x4E487B7100000000000000000000000000000000000000000000000000000000 PUSH1 0x0 MSTORE PUSH1 0x41 PUSH1 0x4 MSTORE PUSH1 0x24 PUSH1 0x0 REVERT JUMPDEST PUSH32 0x4E487B7100000000000000000000000000000000000000000000000000000000 PUSH1 0x0 MSTORE PUSH1 0x12 PUSH1 0x4 MSTORE PUSH1 0x24 PUSH1 0x0 REVERT INVALID LOG2 PUSH5 0x6970667358 0x22 SLT KECCAK256 0x21 PUSH23 0x9A9F4D38F77D98E2037AD2EA9D7C6DF399BE9C5A3771CD MUL 0xEB 0xED 0x2F DUP3 BLOCKHASH CALLDATALOAD PUSH5 0x736F6C6343 STOP ADDMOD GT STOP CALLER "
				},
				"gasEstimates": {
					"creation": {
						"codeDepositCost": "1397400",
						"executionCost": "infinite",
						"totalCost": "infinite"
					},
					"external": {
						"endgame()": "40076",
						"join()": "35307",
						"makeChoice(bytes32)": "67954",
						"newGame()": "156041",
						"player1()": "2578",
						"player1Hash()": "2518",
						"player2()": "2537",
						"player2Hash()": "2495",
						"reveal(uint8,uint32)": "infinite",
						"stage()": "2655",
						"weaponOfPlayer1()": "2632",
						"weaponOfPlayer2()": "2611",
						"winner()": "2558"
					}
				},
				"methodIdentifiers": {
					"endgame()": "9dd63d6b",
					"join()": "b688a363",
					"makeChoice(bytes32)": "fce55812",
					"newGame()": "7d03f5f3",
					"player1()": "d30895e4",
					"player1Hash()": "a45332a7",
					"player2()": "59a5f12d",
					"player2Hash()": "fb93247f",
					"reveal(uint8,uint32)": "ab4a6be1",
					"stage()": "c040e6b8",
					"weaponOfPlayer1()": "d8c4d9da",
					"weaponOfPlayer2()": "1884824c",
					"winner()": "dfbf53ae"
				}
			},
			"storageLayout": {
				"storage": [
					{
						"astId": 1066,
						"contract": "contracts/MyToken.sol:RPS",
						"label": "player1",
						"offset": 0,
						"slot": "0",
						"type": "t_address"
					},
					{
						"astId": 1068,
						"contract": "contracts/MyToken.sol:RPS",
						"label": "player2",
						"offset": 0,
						"slot": "1",
						"type": "t_address"
					},
					{
						"astId": 1071,
						"contract": "contracts/MyToken.sol:RPS",
						"label": "weaponOfPlayer1",
						"offset": 20,
						"slot": "1",
						"type": "t_enum(Weapon)1064"
					},
					{
						"astId": 1074,
						"contract": "contracts/MyToken.sol:RPS",
						"label": "weaponOfPlayer2",
						"offset": 21,
						"slot": "1",
						"type": "t_enum(Weapon)1064"
					},
					{
						"astId": 1076,
						"contract": "contracts/MyToken.sol:RPS",
						"label": "player1Hash",
						"offset": 0,
						"slot": "2",
						"type": "t_bytes32"
					},
					{
						"astId": 1078,
						"contract": "contracts/MyToken.sol:RPS",
						"label": "player2Hash",
						"offset": 0,
						"slot": "3",
						"type": "t_bytes32"
					},
					{
						"astId": 1080,
						"contract": "contracts/MyToken.sol:RPS",
						"label": "winner",
						"offset": 0,
						"slot": "4",
						"type": "t_address"
					},
					{
						"astId": 1085,
						"contract": "contracts/MyToken.sol:RPS",
						"label": "stage",
						"offset": 20,
						"slot": "4",
						"type": "t_enum(Stage)1059"
					},
					{
						"astId": 1093,
						"contract": "contracts/MyToken.sol:RPS",
						"label": "map",
						"offset": 0,
						"slot": "5",
						"type": "t_mapping(t_enum(Weapon)1064,t_mapping(t_enum(Weapon)1064,t_uint8))"
					}
				],
				"types": {
					"t_address": {
						"encoding": "inplace",
						"label": "address",
						"numberOfBytes": "20"
					},
					"t_bytes32": {
						"encoding": "inplace",
						"label": "bytes32",
						"numberOfBytes": "32"
					},
					"t_enum(Stage)1059": {
						"encoding": "inplace",
						"label": "enum RPS.Stage",
						"numberOfBytes": "1"
					},
					"t_enum(Weapon)1064": {
						"encoding": "inplace",
						"label": "enum RPS.Weapon",
						"numberOfBytes": "1"
					},
					"t_mapping(t_enum(Weapon)1064,t_mapping(t_enum(Weapon)1064,t_uint8))": {
						"encoding": "mapping",
						"key": "t_enum(Weapon)1064",
						"label": "mapping(enum RPS.Weapon => mapping(enum RPS.Weapon => uint8))",
						"numberOfBytes": "32",
						"value": "t_mapping(t_enum(Weapon)1064,t_uint8)"
					},
					"t_mapping(t_enum(Weapon)1064,t_uint8)": {
						"encoding": "mapping",
						"key": "t_enum(Weapon)1064",
						"label": "mapping(enum RPS.Weapon => uint8)",
						"numberOfBytes": "32",
						"value": "t_uint8"
					},
					"t_uint8": {
						"encoding": "inplace",
						"label": "uint8",
						"numberOfBytes": "1"
					}
				}
			},
			"userdoc": {
				"kind": "user",
				"methods": {},
				"version": 1
			}
		}
	}
}