{
	"contracts/RPS.sol": {
		"RPS": {
			"abi": [
				{
					"inputs": [],
					"stateMutability": "nonpayable",
					"type": "constructor"
				},
				{
					"anonymous": false,
					"inputs": [
						{
							"indexed": false,
							"internalType": "address",
							"name": "player",
							"type": "address"
						}
					],
					"name": "Commit",
					"type": "event"
				},
				{
					"anonymous": false,
					"inputs": [
						{
							"indexed": false,
							"internalType": "address",
							"name": "player",
							"type": "address"
						},
						{
							"indexed": false,
							"internalType": "enum RPS.Weapon",
							"name": "weapon",
							"type": "uint8"
						}
					],
					"name": "Reveal",
					"type": "event"
				},
				{
					"inputs": [],
					"name": "endgame",
					"outputs": [],
					"stateMutability": "nonpayable",
					"type": "function"
				},
				{
					"inputs": [],
					"name": "getPlayer1Address",
					"outputs": [
						{
							"internalType": "address",
							"name": "",
							"type": "address"
						}
					],
					"stateMutability": "view",
					"type": "function"
				},
				{
					"inputs": [],
					"name": "getWinnerAddress",
					"outputs": [
						{
							"internalType": "address",
							"name": "",
							"type": "address"
						}
					],
					"stateMutability": "view",
					"type": "function"
				},
				{
					"inputs": [],
					"name": "join",
					"outputs": [],
					"stateMutability": "nonpayable",
					"type": "function"
				},
				{
					"inputs": [
						{
							"internalType": "bytes32",
							"name": "hash",
							"type": "bytes32"
						}
					],
					"name": "makeChoice",
					"outputs": [],
					"stateMutability": "nonpayable",
					"type": "function"
				},
				{
					"inputs": [],
					"name": "newGame",
					"outputs": [],
					"stateMutability": "nonpayable",
					"type": "function"
				},
				{
					"inputs": [],
					"name": "player1",
					"outputs": [
						{
							"internalType": "address",
							"name": "",
							"type": "address"
						}
					],
					"stateMutability": "view",
					"type": "function"
				},
				{
					"inputs": [],
					"name": "player1Hash",
					"outputs": [
						{
							"internalType": "bytes32",
							"name": "",
							"type": "bytes32"
						}
					],
					"stateMutability": "view",
					"type": "function"
				},
				{
					"inputs": [],
					"name": "player2",
					"outputs": [
						{
							"internalType": "address",
							"name": "",
							"type": "address"
						}
					],
					"stateMutability": "view",
					"type": "function"
				},
				{
					"inputs": [],
					"name": "player2Hash",
					"outputs": [
						{
							"internalType": "bytes32",
							"name": "",
							"type": "bytes32"
						}
					],
					"stateMutability": "view",
					"type": "function"
				},
				{
					"inputs": [
						{
							"internalType": "enum RPS.Weapon",
							"name": "weapon",
							"type": "uint8"
						},
						{
							"internalType": "uint32",
							"name": "salt",
							"type": "uint32"
						}
					],
					"name": "reveal",
					"outputs": [],
					"stateMutability": "nonpayable",
					"type": "function"
				},
				{
					"inputs": [],
					"name": "stage",
					"outputs": [
						{
							"internalType": "enum RPS.Stage",
							"name": "",
							"type": "uint8"
						}
					],
					"stateMutability": "view",
					"type": "function"
				},
				{
					"inputs": [],
					"name": "weaponOfPlayer1",
					"outputs": [
						{
							"internalType": "enum RPS.Weapon",
							"name": "",
							"type": "uint8"
						}
					],
					"stateMutability": "view",
					"type": "function"
				},
				{
					"inputs": [],
					"name": "weaponOfPlayer2",
					"outputs": [
						{
							"internalType": "enum RPS.Weapon",
							"name": "",
							"type": "uint8"
						}
					],
					"stateMutability": "view",
					"type": "function"
				},
				{
					"inputs": [],
					"name": "winner",
					"outputs": [
						{
							"internalType": "address",
							"name": "",
							"type": "address"
						}
					],
					"stateMutability": "view",
					"type": "function"
				}
			],
			"devdoc": {
				"kind": "dev",
				"methods": {},
				"version": 1
			},
			"evm": {
				"assembly": "    /* \"contracts/RPS.sol\":126:4543  contract RPS {... */\n  mstore(0x40, 0x80)\n    /* \"contracts/RPS.sol\":684:701  Stage.FirstCommit */\n  0x00\n    /* \"contracts/RPS.sol\":663:701  Stage public stage = Stage.FirstCommit */\n  0x04\n  exp(0x0100, 0x14)\n  dup2\n  sload\n  dup2\n  0xff\n  mul\n  not\n  and\n  swap1\n  dup4\n  0x04\n  dup2\n  gt\n  iszero\n  tag_1\n  jumpi\n  tag_2\n  tag_3\n  jump\t// in\ntag_2:\ntag_1:\n  mul\n  or\n  swap1\n  sstore\n  pop\n    /* \"contracts/RPS.sol\":774:1232  constructor() {... */\n  callvalue\n  dup1\n  iszero\n  tag_4\n  jumpi\n  0x00\n  dup1\n  revert\ntag_4:\n  pop\n    /* \"contracts/RPS.sol\":830:831  0 */\n  0x00\n    /* \"contracts/RPS.sol\":798:801  map */\n  0x05\n    /* \"contracts/RPS.sol\":798:814  map[Weapon.Rock] */\n  0x00\n    /* \"contracts/RPS.sol\":802:813  Weapon.Rock */\n  0x01\n    /* \"contracts/RPS.sol\":798:814  map[Weapon.Rock] */\n  0x03\n  dup2\n  gt\n  iszero\n  tag_7\n  jumpi\n  tag_8\n  tag_3\n  jump\t// in\ntag_8:\ntag_7:\n  0x03\n  dup2\n  gt\n  iszero\n  tag_9\n  jumpi\n  tag_10\n  tag_3\n  jump\t// in\ntag_10:\ntag_9:\n  dup2\n  mstore\n  0x20\n  add\n  swap1\n  dup2\n  mstore\n  0x20\n  add\n  0x00\n  keccak256\n    /* \"contracts/RPS.sol\":798:827  map[Weapon.Rock][Weapon.Rock] */\n  0x00\n    /* \"contracts/RPS.sol\":815:826  Weapon.Rock */\n  0x01\n    /* \"contracts/RPS.sol\":798:827  map[Weapon.Rock][Weapon.Rock] */\n  0x03\n  dup2\n  gt\n  iszero\n  tag_11\n  jumpi\n  tag_12\n  tag_3\n  jump\t// in\ntag_12:\ntag_11:\n  0x03\n  dup2\n  gt\n  iszero\n  tag_13\n  jumpi\n  tag_14\n  tag_3\n  jump\t// in\ntag_14:\ntag_13:\n  dup2\n  mstore\n  0x20\n  add\n  swap1\n  dup2\n  mstore\n  0x20\n  add\n  0x00\n  keccak256\n  0x00\n    /* \"contracts/RPS.sol\":798:831  map[Weapon.Rock][Weapon.Rock] = 0 */\n  0x0100\n  exp\n  dup2\n  sload\n  dup2\n  0xff\n  mul\n  not\n  and\n  swap1\n  dup4\n  0xff\n  and\n  mul\n  or\n  swap1\n  sstore\n  pop\n    /* \"contracts/RPS.sol\":881:882  0 */\n  0x00\n    /* \"contracts/RPS.sol\":841:844  map */\n  0x05\n    /* \"contracts/RPS.sol\":841:861  map[Weapon.Scissors] */\n  0x00\n    /* \"contracts/RPS.sol\":845:860  Weapon.Scissors */\n  0x03\n    /* \"contracts/RPS.sol\":841:861  map[Weapon.Scissors] */\n  dup1\n  dup2\n  gt\n  iszero\n  tag_15\n  jumpi\n  tag_16\n  tag_3\n  jump\t// in\ntag_16:\ntag_15:\n  0x03\n  dup2\n  gt\n  iszero\n  tag_17\n  jumpi\n  tag_18\n  tag_3\n  jump\t// in\ntag_18:\ntag_17:\n  dup2\n  mstore\n  0x20\n  add\n  swap1\n  dup2\n  mstore\n  0x20\n  add\n  0x00\n  keccak256\n    /* \"contracts/RPS.sol\":841:878  map[Weapon.Scissors][Weapon.Scissors] */\n  0x00\n    /* \"contracts/RPS.sol\":862:877  Weapon.Scissors */\n  0x03\n    /* \"contracts/RPS.sol\":841:878  map[Weapon.Scissors][Weapon.Scissors] */\n  dup1\n  dup2\n  gt\n  iszero\n  tag_19\n  jumpi\n  tag_20\n  tag_3\n  jump\t// in\ntag_20:\ntag_19:\n  0x03\n  dup2\n  gt\n  iszero\n  tag_21\n  jumpi\n  tag_22\n  tag_3\n  jump\t// in\ntag_22:\ntag_21:\n  dup2\n  mstore\n  0x20\n  add\n  swap1\n  dup2\n  mstore\n  0x20\n  add\n  0x00\n  keccak256\n  0x00\n    /* \"contracts/RPS.sol\":841:882  map[Weapon.Scissors][Weapon.Scissors] = 0 */\n  0x0100\n  exp\n  dup2\n  sload\n  dup2\n  0xff\n  mul\n  not\n  and\n  swap1\n  dup4\n  0xff\n  and\n  mul\n  or\n  swap1\n  sstore\n  pop\n    /* \"contracts/RPS.sol\":926:927  0 */\n  0x00\n    /* \"contracts/RPS.sol\":892:895  map */\n  0x05\n    /* \"contracts/RPS.sol\":892:909  map[Weapon.Paper] */\n  0x00\n    /* \"contracts/RPS.sol\":896:908  Weapon.Paper */\n  0x02\n    /* \"contracts/RPS.sol\":892:909  map[Weapon.Paper] */\n  0x03\n  dup2\n  gt\n  iszero\n  tag_23\n  jumpi\n  tag_24\n  tag_3\n  jump\t// in\ntag_24:\ntag_23:\n  0x03\n  dup2\n  gt\n  iszero\n  tag_25\n  jumpi\n  tag_26\n  tag_3\n  jump\t// in\ntag_26:\ntag_25:\n  dup2\n  mstore\n  0x20\n  add\n  swap1\n  dup2\n  mstore\n  0x20\n  add\n  0x00\n  keccak256\n    /* \"contracts/RPS.sol\":892:923  map[Weapon.Paper][Weapon.Paper] */\n  0x00\n    /* \"contracts/RPS.sol\":910:922  Weapon.Paper */\n  0x02\n    /* \"contracts/RPS.sol\":892:923  map[Weapon.Paper][Weapon.Paper] */\n  0x03\n  dup2\n  gt\n  iszero\n  tag_27\n  jumpi\n  tag_28\n  tag_3\n  jump\t// in\ntag_28:\ntag_27:\n  0x03\n  dup2\n  gt\n  iszero\n  tag_29\n  jumpi\n  tag_30\n  tag_3\n  jump\t// in\ntag_30:\ntag_29:\n  dup2\n  mstore\n  0x20\n  add\n  swap1\n  dup2\n  mstore\n  0x20\n  add\n  0x00\n  keccak256\n  0x00\n    /* \"contracts/RPS.sol\":892:927  map[Weapon.Paper][Weapon.Paper] = 0 */\n  0x0100\n  exp\n  dup2\n  sload\n  dup2\n  0xff\n  mul\n  not\n  and\n  swap1\n  dup4\n  0xff\n  and\n  mul\n  or\n  swap1\n  sstore\n  pop\n    /* \"contracts/RPS.sol\":973:974  1 */\n  0x01\n    /* \"contracts/RPS.sol\":937:940  map */\n  0x05\n    /* \"contracts/RPS.sol\":937:953  map[Weapon.Rock] */\n  0x00\n    /* \"contracts/RPS.sol\":941:952  Weapon.Rock */\n  0x01\n    /* \"contracts/RPS.sol\":937:953  map[Weapon.Rock] */\n  0x03\n  dup2\n  gt\n  iszero\n  tag_31\n  jumpi\n  tag_32\n  tag_3\n  jump\t// in\ntag_32:\ntag_31:\n  0x03\n  dup2\n  gt\n  iszero\n  tag_33\n  jumpi\n  tag_34\n  tag_3\n  jump\t// in\ntag_34:\ntag_33:\n  dup2\n  mstore\n  0x20\n  add\n  swap1\n  dup2\n  mstore\n  0x20\n  add\n  0x00\n  keccak256\n    /* \"contracts/RPS.sol\":937:970  map[Weapon.Rock][Weapon.Scissors] */\n  0x00\n    /* \"contracts/RPS.sol\":954:969  Weapon.Scissors */\n  0x03\n    /* \"contracts/RPS.sol\":937:970  map[Weapon.Rock][Weapon.Scissors] */\n  dup1\n  dup2\n  gt\n  iszero\n  tag_35\n  jumpi\n  tag_36\n  tag_3\n  jump\t// in\ntag_36:\ntag_35:\n  0x03\n  dup2\n  gt\n  iszero\n  tag_37\n  jumpi\n  tag_38\n  tag_3\n  jump\t// in\ntag_38:\ntag_37:\n  dup2\n  mstore\n  0x20\n  add\n  swap1\n  dup2\n  mstore\n  0x20\n  add\n  0x00\n  keccak256\n  0x00\n    /* \"contracts/RPS.sol\":937:974  map[Weapon.Rock][Weapon.Scissors] = 1 */\n  0x0100\n  exp\n  dup2\n  sload\n  dup2\n  0xff\n  mul\n  not\n  and\n  swap1\n  dup4\n  0xff\n  and\n  mul\n  or\n  swap1\n  sstore\n  pop\n    /* \"contracts/RPS.sol\":1017:1018  1 */\n  0x01\n    /* \"contracts/RPS.sol\":984:987  map */\n  0x05\n    /* \"contracts/RPS.sol\":984:1001  map[Weapon.Paper] */\n  0x00\n    /* \"contracts/RPS.sol\":988:1000  Weapon.Paper */\n  0x02\n    /* \"contracts/RPS.sol\":984:1001  map[Weapon.Paper] */\n  0x03\n  dup2\n  gt\n  iszero\n  tag_39\n  jumpi\n  tag_40\n  tag_3\n  jump\t// in\ntag_40:\ntag_39:\n  0x03\n  dup2\n  gt\n  iszero\n  tag_41\n  jumpi\n  tag_42\n  tag_3\n  jump\t// in\ntag_42:\ntag_41:\n  dup2\n  mstore\n  0x20\n  add\n  swap1\n  dup2\n  mstore\n  0x20\n  add\n  0x00\n  keccak256\n    /* \"contracts/RPS.sol\":984:1014  map[Weapon.Paper][Weapon.Rock] */\n  0x00\n    /* \"contracts/RPS.sol\":1002:1013  Weapon.Rock */\n  0x01\n    /* \"contracts/RPS.sol\":984:1014  map[Weapon.Paper][Weapon.Rock] */\n  0x03\n  dup2\n  gt\n  iszero\n  tag_43\n  jumpi\n  tag_44\n  tag_3\n  jump\t// in\ntag_44:\ntag_43:\n  0x03\n  dup2\n  gt\n  iszero\n  tag_45\n  jumpi\n  tag_46\n  tag_3\n  jump\t// in\ntag_46:\ntag_45:\n  dup2\n  mstore\n  0x20\n  add\n  swap1\n  dup2\n  mstore\n  0x20\n  add\n  0x00\n  keccak256\n  0x00\n    /* \"contracts/RPS.sol\":984:1018  map[Weapon.Paper][Weapon.Rock] = 1 */\n  0x0100\n  exp\n  dup2\n  sload\n  dup2\n  0xff\n  mul\n  not\n  and\n  swap1\n  dup4\n  0xff\n  and\n  mul\n  or\n  swap1\n  sstore\n  pop\n    /* \"contracts/RPS.sol\":1065:1066  1 */\n  0x01\n    /* \"contracts/RPS.sol\":1028:1031  map */\n  0x05\n    /* \"contracts/RPS.sol\":1028:1048  map[Weapon.Scissors] */\n  0x00\n    /* \"contracts/RPS.sol\":1032:1047  Weapon.Scissors */\n  0x03\n    /* \"contracts/RPS.sol\":1028:1048  map[Weapon.Scissors] */\n  dup1\n  dup2\n  gt\n  iszero\n  tag_47\n  jumpi\n  tag_48\n  tag_3\n  jump\t// in\ntag_48:\ntag_47:\n  0x03\n  dup2\n  gt\n  iszero\n  tag_49\n  jumpi\n  tag_50\n  tag_3\n  jump\t// in\ntag_50:\ntag_49:\n  dup2\n  mstore\n  0x20\n  add\n  swap1\n  dup2\n  mstore\n  0x20\n  add\n  0x00\n  keccak256\n    /* \"contracts/RPS.sol\":1028:1062  map[Weapon.Scissors][Weapon.Paper] */\n  0x00\n    /* \"contracts/RPS.sol\":1049:1061  Weapon.Paper */\n  0x02\n    /* \"contracts/RPS.sol\":1028:1062  map[Weapon.Scissors][Weapon.Paper] */\n  0x03\n  dup2\n  gt\n  iszero\n  tag_51\n  jumpi\n  tag_52\n  tag_3\n  jump\t// in\ntag_52:\ntag_51:\n  0x03\n  dup2\n  gt\n  iszero\n  tag_53\n  jumpi\n  tag_54\n  tag_3\n  jump\t// in\ntag_54:\ntag_53:\n  dup2\n  mstore\n  0x20\n  add\n  swap1\n  dup2\n  mstore\n  0x20\n  add\n  0x00\n  keccak256\n  0x00\n    /* \"contracts/RPS.sol\":1028:1066  map[Weapon.Scissors][Weapon.Paper] = 1 */\n  0x0100\n  exp\n  dup2\n  sload\n  dup2\n  0xff\n  mul\n  not\n  and\n  swap1\n  dup4\n  0xff\n  and\n  mul\n  or\n  swap1\n  sstore\n  pop\n    /* \"contracts/RPS.sol\":1109:1110  2 */\n  0x02\n    /* \"contracts/RPS.sol\":1076:1079  map */\n  0x05\n    /* \"contracts/RPS.sol\":1076:1092  map[Weapon.Rock] */\n  0x00\n    /* \"contracts/RPS.sol\":1080:1091  Weapon.Rock */\n  0x01\n    /* \"contracts/RPS.sol\":1076:1092  map[Weapon.Rock] */\n  0x03\n  dup2\n  gt\n  iszero\n  tag_55\n  jumpi\n  tag_56\n  tag_3\n  jump\t// in\ntag_56:\ntag_55:\n  0x03\n  dup2\n  gt\n  iszero\n  tag_57\n  jumpi\n  tag_58\n  tag_3\n  jump\t// in\ntag_58:\ntag_57:\n  dup2\n  mstore\n  0x20\n  add\n  swap1\n  dup2\n  mstore\n  0x20\n  add\n  0x00\n  keccak256\n    /* \"contracts/RPS.sol\":1076:1106  map[Weapon.Rock][Weapon.Paper] */\n  0x00\n    /* \"contracts/RPS.sol\":1093:1105  Weapon.Paper */\n  0x02\n    /* \"contracts/RPS.sol\":1076:1106  map[Weapon.Rock][Weapon.Paper] */\n  0x03\n  dup2\n  gt\n  iszero\n  tag_59\n  jumpi\n  tag_60\n  tag_3\n  jump\t// in\ntag_60:\ntag_59:\n  0x03\n  dup2\n  gt\n  iszero\n  tag_61\n  jumpi\n  tag_62\n  tag_3\n  jump\t// in\ntag_62:\ntag_61:\n  dup2\n  mstore\n  0x20\n  add\n  swap1\n  dup2\n  mstore\n  0x20\n  add\n  0x00\n  keccak256\n  0x00\n    /* \"contracts/RPS.sol\":1076:1110  map[Weapon.Rock][Weapon.Paper] = 2 */\n  0x0100\n  exp\n  dup2\n  sload\n  dup2\n  0xff\n  mul\n  not\n  and\n  swap1\n  dup4\n  0xff\n  and\n  mul\n  or\n  swap1\n  sstore\n  pop\n    /* \"contracts/RPS.sol\":1157:1158  2 */\n  0x02\n    /* \"contracts/RPS.sol\":1120:1123  map */\n  0x05\n    /* \"contracts/RPS.sol\":1120:1137  map[Weapon.Paper] */\n  0x00\n    /* \"contracts/RPS.sol\":1124:1136  Weapon.Paper */\n  0x02\n    /* \"contracts/RPS.sol\":1120:1137  map[Weapon.Paper] */\n  0x03\n  dup2\n  gt\n  iszero\n  tag_63\n  jumpi\n  tag_64\n  tag_3\n  jump\t// in\ntag_64:\ntag_63:\n  0x03\n  dup2\n  gt\n  iszero\n  tag_65\n  jumpi\n  tag_66\n  tag_3\n  jump\t// in\ntag_66:\ntag_65:\n  dup2\n  mstore\n  0x20\n  add\n  swap1\n  dup2\n  mstore\n  0x20\n  add\n  0x00\n  keccak256\n    /* \"contracts/RPS.sol\":1120:1154  map[Weapon.Paper][Weapon.Scissors] */\n  0x00\n    /* \"contracts/RPS.sol\":1138:1153  Weapon.Scissors */\n  0x03\n    /* \"contracts/RPS.sol\":1120:1154  map[Weapon.Paper][Weapon.Scissors] */\n  dup1\n  dup2\n  gt\n  iszero\n  tag_67\n  jumpi\n  tag_68\n  tag_3\n  jump\t// in\ntag_68:\ntag_67:\n  0x03\n  dup2\n  gt\n  iszero\n  tag_69\n  jumpi\n  tag_70\n  tag_3\n  jump\t// in\ntag_70:\ntag_69:\n  dup2\n  mstore\n  0x20\n  add\n  swap1\n  dup2\n  mstore\n  0x20\n  add\n  0x00\n  keccak256\n  0x00\n    /* \"contracts/RPS.sol\":1120:1158  map[Weapon.Paper][Weapon.Scissors] = 2 */\n  0x0100\n  exp\n  dup2\n  sload\n  dup2\n  0xff\n  mul\n  not\n  and\n  swap1\n  dup4\n  0xff\n  and\n  mul\n  or\n  swap1\n  sstore\n  pop\n    /* \"contracts/RPS.sol\":1204:1205  2 */\n  0x02\n    /* \"contracts/RPS.sol\":1168:1171  map */\n  0x05\n    /* \"contracts/RPS.sol\":1168:1188  map[Weapon.Scissors] */\n  0x00\n    /* \"contracts/RPS.sol\":1172:1187  Weapon.Scissors */\n  0x03\n    /* \"contracts/RPS.sol\":1168:1188  map[Weapon.Scissors] */\n  dup1\n  dup2\n  gt\n  iszero\n  tag_71\n  jumpi\n  tag_72\n  tag_3\n  jump\t// in\ntag_72:\ntag_71:\n  0x03\n  dup2\n  gt\n  iszero\n  tag_73\n  jumpi\n  tag_74\n  tag_3\n  jump\t// in\ntag_74:\ntag_73:\n  dup2\n  mstore\n  0x20\n  add\n  swap1\n  dup2\n  mstore\n  0x20\n  add\n  0x00\n  keccak256\n    /* \"contracts/RPS.sol\":1168:1201  map[Weapon.Scissors][Weapon.Rock] */\n  0x00\n    /* \"contracts/RPS.sol\":1189:1200  Weapon.Rock */\n  0x01\n    /* \"contracts/RPS.sol\":1168:1201  map[Weapon.Scissors][Weapon.Rock] */\n  0x03\n  dup2\n  gt\n  iszero\n  tag_75\n  jumpi\n  tag_76\n  tag_3\n  jump\t// in\ntag_76:\ntag_75:\n  0x03\n  dup2\n  gt\n  iszero\n  tag_77\n  jumpi\n  tag_78\n  tag_3\n  jump\t// in\ntag_78:\ntag_77:\n  dup2\n  mstore\n  0x20\n  add\n  swap1\n  dup2\n  mstore\n  0x20\n  add\n  0x00\n  keccak256\n  0x00\n    /* \"contracts/RPS.sol\":1168:1205  map[Weapon.Scissors][Weapon.Rock] = 2 */\n  0x0100\n  exp\n  dup2\n  sload\n  dup2\n  0xff\n  mul\n  not\n  and\n  swap1\n  dup4\n  0xff\n  and\n  mul\n  or\n  swap1\n  sstore\n  pop\n    /* \"contracts/RPS.sol\":1216:1225  newGame() */\n  tag_79\n    /* \"contracts/RPS.sol\":1216:1223  newGame */\n  shl(0x20, tag_80)\n    /* \"contracts/RPS.sol\":1216:1225  newGame() */\n  0x20\n  shr\n  jump\t// in\ntag_79:\n    /* \"contracts/RPS.sol\":126:4543  contract RPS {... */\n  jump(tag_81)\n    /* \"contracts/RPS.sol\":1238:1536  function newGame() public {... */\ntag_80:\n    /* \"contracts/RPS.sol\":1291:1294  0x0 */\n  0x00\n    /* \"contracts/RPS.sol\":1274:1280  winner */\n  0x04\n  0x00\n    /* \"contracts/RPS.sol\":1274:1295  winner = address(0x0) */\n  0x0100\n  exp\n  dup2\n  sload\n  dup2\n  0xffffffffffffffffffffffffffffffffffffffff\n  mul\n  not\n  and\n  swap1\n  dup4\n  0xffffffffffffffffffffffffffffffffffffffff\n  and\n  mul\n  or\n  swap1\n  sstore\n  pop\n    /* \"contracts/RPS.sol\":1323:1326  0x0 */\n  0x00\n    /* \"contracts/RPS.sol\":1305:1312  player1 */\n  dup1\n  0x00\n    /* \"contracts/RPS.sol\":1305:1327  player1 = address(0x0) */\n  0x0100\n  exp\n  dup2\n  sload\n  dup2\n  0xffffffffffffffffffffffffffffffffffffffff\n  mul\n  not\n  and\n  swap1\n  dup4\n  0xffffffffffffffffffffffffffffffffffffffff\n  and\n  mul\n  or\n  swap1\n  sstore\n  pop\n    /* \"contracts/RPS.sol\":1355:1358  0x0 */\n  0x00\n    /* \"contracts/RPS.sol\":1337:1344  player2 */\n  0x01\n  0x00\n    /* \"contracts/RPS.sol\":1337:1359  player2 = address(0x0) */\n  0x0100\n  exp\n  dup2\n  sload\n  dup2\n  0xffffffffffffffffffffffffffffffffffffffff\n  mul\n  not\n  and\n  swap1\n  dup4\n  0xffffffffffffffffffffffffffffffffffffffff\n  and\n  mul\n  or\n  swap1\n  sstore\n  pop\n    /* \"contracts/RPS.sol\":1384:1387  0x0 */\n  0x00\n    /* \"contracts/RPS.sol\":1370:1387  player1Hash = 0x0 */\n  dup1\n  shl\n    /* \"contracts/RPS.sol\":1370:1381  player1Hash */\n  0x02\n    /* \"contracts/RPS.sol\":1370:1387  player1Hash = 0x0 */\n  dup2\n  swap1\n  sstore\n  pop\n    /* \"contracts/RPS.sol\":1411:1414  0x0 */\n  0x00\n    /* \"contracts/RPS.sol\":1397:1414  player2Hash = 0x0 */\n  dup1\n  shl\n    /* \"contracts/RPS.sol\":1397:1408  player2Hash */\n  0x03\n    /* \"contracts/RPS.sol\":1397:1414  player2Hash = 0x0 */\n  dup2\n  swap1\n  sstore\n  pop\n    /* \"contracts/RPS.sol\":1443:1454  Weapon.None */\n  0x00\n    /* \"contracts/RPS.sol\":1425:1440  weaponOfPlayer1 */\n  0x01\n  0x14\n    /* \"contracts/RPS.sol\":1425:1454  weaponOfPlayer1 = Weapon.None */\n  0x0100\n  exp\n  dup2\n  sload\n  dup2\n  0xff\n  mul\n  not\n  and\n  swap1\n  dup4\n  0x03\n  dup2\n  gt\n  iszero\n  tag_83\n  jumpi\n  tag_84\n  tag_3\n  jump\t// in\ntag_84:\ntag_83:\n  mul\n  or\n  swap1\n  sstore\n  pop\n    /* \"contracts/RPS.sol\":1482:1493  Weapon.None */\n  0x00\n    /* \"contracts/RPS.sol\":1464:1479  weaponOfPlayer2 */\n  0x01\n  0x15\n    /* \"contracts/RPS.sol\":1464:1493  weaponOfPlayer2 = Weapon.None */\n  0x0100\n  exp\n  dup2\n  sload\n  dup2\n  0xff\n  mul\n  not\n  and\n  swap1\n  dup4\n  0x03\n  dup2\n  gt\n  iszero\n  tag_85\n  jumpi\n  tag_86\n  tag_3\n  jump\t// in\ntag_86:\ntag_85:\n  mul\n  or\n  swap1\n  sstore\n  pop\n    /* \"contracts/RPS.sol\":1512:1529  Stage.FirstCommit */\n  0x00\n    /* \"contracts/RPS.sol\":1504:1509  stage */\n  0x04\n  0x14\n    /* \"contracts/RPS.sol\":1504:1529  stage = Stage.FirstCommit */\n  0x0100\n  exp\n  dup2\n  sload\n  dup2\n  0xff\n  mul\n  not\n  and\n  swap1\n  dup4\n  0x04\n  dup2\n  gt\n  iszero\n  tag_87\n  jumpi\n  tag_88\n  tag_3\n  jump\t// in\ntag_88:\ntag_87:\n  mul\n  or\n  swap1\n  sstore\n  pop\n    /* \"contracts/RPS.sol\":1238:1536  function newGame() public {... */\n  jump\t// out\n    /* \"#utility.yul\":7:187   */\ntag_3:\n    /* \"#utility.yul\":55:132   */\n  0x4e487b7100000000000000000000000000000000000000000000000000000000\n    /* \"#utility.yul\":52:53   */\n  0x00\n    /* \"#utility.yul\":45:133   */\n  mstore\n    /* \"#utility.yul\":152:156   */\n  0x21\n    /* \"#utility.yul\":149:150   */\n  0x04\n    /* \"#utility.yul\":142:157   */\n  mstore\n    /* \"#utility.yul\":176:180   */\n  0x24\n    /* \"#utility.yul\":173:174   */\n  0x00\n    /* \"#utility.yul\":166:181   */\n  revert\n    /* \"contracts/RPS.sol\":126:4543  contract RPS {... */\ntag_81:\n  dataSize(sub_0)\n  dup1\n  dataOffset(sub_0)\n  0x00\n  codecopy\n  0x00\n  return\nstop\n\nsub_0: assembly {\n        /* \"contracts/RPS.sol\":126:4543  contract RPS {... */\n      mstore(0x40, 0x80)\n      callvalue\n      dup1\n      iszero\n      tag_1\n      jumpi\n      0x00\n      dup1\n      revert\n    tag_1:\n      pop\n      jumpi(tag_2, lt(calldatasize, 0x04))\n      shr(0xe0, calldataload(0x00))\n      dup1\n      0xb688a363\n      gt\n      tag_18\n      jumpi\n      dup1\n      0xdfbf53ae\n      gt\n      tag_19\n      jumpi\n      dup1\n      0xdfbf53ae\n      eq\n      tag_14\n      jumpi\n      dup1\n      0xe9a6421f\n      eq\n      tag_15\n      jumpi\n      dup1\n      0xfb93247f\n      eq\n      tag_16\n      jumpi\n      dup1\n      0xfce55812\n      eq\n      tag_17\n      jumpi\n      jump(tag_2)\n    tag_19:\n      dup1\n      0xb688a363\n      eq\n      tag_10\n      jumpi\n      dup1\n      0xc040e6b8\n      eq\n      tag_11\n      jumpi\n      dup1\n      0xd30895e4\n      eq\n      tag_12\n      jumpi\n      dup1\n      0xd8c4d9da\n      eq\n      tag_13\n      jumpi\n      jump(tag_2)\n    tag_18:\n      dup1\n      0x7d03f5f3\n      gt\n      tag_20\n      jumpi\n      dup1\n      0x7d03f5f3\n      eq\n      tag_6\n      jumpi\n      dup1\n      0x9dd63d6b\n      eq\n      tag_7\n      jumpi\n      dup1\n      0xa45332a7\n      eq\n      tag_8\n      jumpi\n      dup1\n      0xab4a6be1\n      eq\n      tag_9\n      jumpi\n      jump(tag_2)\n    tag_20:\n      dup1\n      0x10a37c26\n      eq\n      tag_3\n      jumpi\n      dup1\n      0x1884824c\n      eq\n      tag_4\n      jumpi\n      dup1\n      0x59a5f12d\n      eq\n      tag_5\n      jumpi\n    tag_2:\n      0x00\n      dup1\n      revert\n        /* \"contracts/RPS.sol\":2324:2412  function getWinnerAddress() public view returns (address) {... */\n    tag_3:\n      tag_21\n      tag_22\n      jump\t// in\n    tag_21:\n      mload(0x40)\n      tag_23\n      swap2\n      swap1\n      tag_24\n      jump\t// in\n    tag_23:\n      mload(0x40)\n      dup1\n      swap2\n      sub\n      swap1\n      return\n        /* \"contracts/RPS.sol\":535:564  Weapon public weaponOfPlayer2 */\n    tag_4:\n      tag_25\n      tag_26\n      jump\t// in\n    tag_25:\n      mload(0x40)\n      tag_27\n      swap2\n      swap1\n      tag_28\n      jump\t// in\n    tag_27:\n      mload(0x40)\n      dup1\n      swap2\n      sub\n      swap1\n      return\n        /* \"contracts/RPS.sol\":472:494  address public player2 */\n    tag_5:\n      tag_29\n      tag_30\n      jump\t// in\n    tag_29:\n      mload(0x40)\n      tag_31\n      swap2\n      swap1\n      tag_24\n      jump\t// in\n    tag_31:\n      mload(0x40)\n      dup1\n      swap2\n      sub\n      swap1\n      return\n        /* \"contracts/RPS.sol\":1238:1536  function newGame() public {... */\n    tag_6:\n      tag_32\n      tag_33\n      jump\t// in\n    tag_32:\n      stop\n        /* \"contracts/RPS.sol\":4230:4541  function endgame() public isPlayer {... */\n    tag_7:\n      tag_34\n      tag_35\n      jump\t// in\n    tag_34:\n      stop\n        /* \"contracts/RPS.sol\":570:596  bytes32 public player1Hash */\n    tag_8:\n      tag_36\n      tag_37\n      jump\t// in\n    tag_36:\n      mload(0x40)\n      tag_38\n      swap2\n      swap1\n      tag_39\n      jump\t// in\n    tag_38:\n      mload(0x40)\n      dup1\n      swap2\n      sub\n      swap1\n      return\n        /* \"contracts/RPS.sol\":3236:4220  function reveal(Weapon weapon, uint32 salt) isPlayer public  ... */\n    tag_9:\n      tag_40\n      0x04\n      dup1\n      calldatasize\n      sub\n      dup2\n      add\n      swap1\n      tag_41\n      swap2\n      swap1\n      tag_42\n      jump\t// in\n    tag_41:\n      tag_43\n      jump\t// in\n    tag_40:\n      stop\n        /* \"contracts/RPS.sol\":2424:2626  function join() isAlreadyIn external... */\n    tag_10:\n      tag_44\n      tag_45\n      jump\t// in\n    tag_44:\n      stop\n        /* \"contracts/RPS.sol\":663:701  Stage public stage = Stage.FirstCommit */\n    tag_11:\n      tag_46\n      tag_47\n      jump\t// in\n    tag_46:\n      mload(0x40)\n      tag_48\n      swap2\n      swap1\n      tag_49\n      jump\t// in\n    tag_48:\n      mload(0x40)\n      dup1\n      swap2\n      sub\n      swap1\n      return\n        /* \"contracts/RPS.sol\":444:466  address public player1 */\n    tag_12:\n      tag_50\n      tag_51\n      jump\t// in\n    tag_50:\n      mload(0x40)\n      tag_52\n      swap2\n      swap1\n      tag_24\n      jump\t// in\n    tag_52:\n      mload(0x40)\n      dup1\n      swap2\n      sub\n      swap1\n      return\n        /* \"contracts/RPS.sol\":500:529  Weapon public weaponOfPlayer1 */\n    tag_13:\n      tag_53\n      tag_54\n      jump\t// in\n    tag_53:\n      mload(0x40)\n      tag_55\n      swap2\n      swap1\n      tag_28\n      jump\t// in\n    tag_55:\n      mload(0x40)\n      dup1\n      swap2\n      sub\n      swap1\n      return\n        /* \"contracts/RPS.sol\":635:656  address public winner */\n    tag_14:\n      tag_56\n      tag_57\n      jump\t// in\n    tag_56:\n      mload(0x40)\n      tag_58\n      swap2\n      swap1\n      tag_24\n      jump\t// in\n    tag_58:\n      mload(0x40)\n      dup1\n      swap2\n      sub\n      swap1\n      return\n        /* \"contracts/RPS.sol\":2228:2318  function getPlayer1Address() public view returns (address) {... */\n    tag_15:\n      tag_59\n      tag_60\n      jump\t// in\n    tag_59:\n      mload(0x40)\n      tag_61\n      swap2\n      swap1\n      tag_24\n      jump\t// in\n    tag_61:\n      mload(0x40)\n      dup1\n      swap2\n      sub\n      swap1\n      return\n        /* \"contracts/RPS.sol\":602:628  bytes32 public player2Hash */\n    tag_16:\n      tag_62\n      tag_63\n      jump\t// in\n    tag_62:\n      mload(0x40)\n      tag_64\n      swap2\n      swap1\n      tag_39\n      jump\t// in\n    tag_64:\n      mload(0x40)\n      dup1\n      swap2\n      sub\n      swap1\n      return\n        /* \"contracts/RPS.sol\":2636:3230  function makeChoice(bytes32 hash) isPlayer public {... */\n    tag_17:\n      tag_65\n      0x04\n      dup1\n      calldatasize\n      sub\n      dup2\n      add\n      swap1\n      tag_66\n      swap2\n      swap1\n      tag_67\n      jump\t// in\n    tag_66:\n      tag_68\n      jump\t// in\n    tag_65:\n      stop\n        /* \"contracts/RPS.sol\":2324:2412  function getWinnerAddress() public view returns (address) {... */\n    tag_22:\n        /* \"contracts/RPS.sol\":2373:2380  address */\n      0x00\n        /* \"contracts/RPS.sol\":2399:2405  winner */\n      0x04\n      0x00\n      swap1\n      sload\n      swap1\n      0x0100\n      exp\n      swap1\n      div\n      0xffffffffffffffffffffffffffffffffffffffff\n      and\n        /* \"contracts/RPS.sol\":2392:2405  return winner */\n      swap1\n      pop\n        /* \"contracts/RPS.sol\":2324:2412  function getWinnerAddress() public view returns (address) {... */\n      swap1\n      jump\t// out\n        /* \"contracts/RPS.sol\":535:564  Weapon public weaponOfPlayer2 */\n    tag_26:\n      0x01\n      0x15\n      swap1\n      sload\n      swap1\n      0x0100\n      exp\n      swap1\n      div\n      0xff\n      and\n      dup2\n      jump\t// out\n        /* \"contracts/RPS.sol\":472:494  address public player2 */\n    tag_30:\n      0x01\n      0x00\n      swap1\n      sload\n      swap1\n      0x0100\n      exp\n      swap1\n      div\n      0xffffffffffffffffffffffffffffffffffffffff\n      and\n      dup2\n      jump\t// out\n        /* \"contracts/RPS.sol\":1238:1536  function newGame() public {... */\n    tag_33:\n        /* \"contracts/RPS.sol\":1291:1294  0x0 */\n      0x00\n        /* \"contracts/RPS.sol\":1274:1280  winner */\n      0x04\n      0x00\n        /* \"contracts/RPS.sol\":1274:1295  winner = address(0x0) */\n      0x0100\n      exp\n      dup2\n      sload\n      dup2\n      0xffffffffffffffffffffffffffffffffffffffff\n      mul\n      not\n      and\n      swap1\n      dup4\n      0xffffffffffffffffffffffffffffffffffffffff\n      and\n      mul\n      or\n      swap1\n      sstore\n      pop\n        /* \"contracts/RPS.sol\":1323:1326  0x0 */\n      0x00\n        /* \"contracts/RPS.sol\":1305:1312  player1 */\n      dup1\n      0x00\n        /* \"contracts/RPS.sol\":1305:1327  player1 = address(0x0) */\n      0x0100\n      exp\n      dup2\n      sload\n      dup2\n      0xffffffffffffffffffffffffffffffffffffffff\n      mul\n      not\n      and\n      swap1\n      dup4\n      0xffffffffffffffffffffffffffffffffffffffff\n      and\n      mul\n      or\n      swap1\n      sstore\n      pop\n        /* \"contracts/RPS.sol\":1355:1358  0x0 */\n      0x00\n        /* \"contracts/RPS.sol\":1337:1344  player2 */\n      0x01\n      0x00\n        /* \"contracts/RPS.sol\":1337:1359  player2 = address(0x0) */\n      0x0100\n      exp\n      dup2\n      sload\n      dup2\n      0xffffffffffffffffffffffffffffffffffffffff\n      mul\n      not\n      and\n      swap1\n      dup4\n      0xffffffffffffffffffffffffffffffffffffffff\n      and\n      mul\n      or\n      swap1\n      sstore\n      pop\n        /* \"contracts/RPS.sol\":1384:1387  0x0 */\n      0x00\n        /* \"contracts/RPS.sol\":1370:1387  player1Hash = 0x0 */\n      dup1\n      shl\n        /* \"contracts/RPS.sol\":1370:1381  player1Hash */\n      0x02\n        /* \"contracts/RPS.sol\":1370:1387  player1Hash = 0x0 */\n      dup2\n      swap1\n      sstore\n      pop\n        /* \"contracts/RPS.sol\":1411:1414  0x0 */\n      0x00\n        /* \"contracts/RPS.sol\":1397:1414  player2Hash = 0x0 */\n      dup1\n      shl\n        /* \"contracts/RPS.sol\":1397:1408  player2Hash */\n      0x03\n        /* \"contracts/RPS.sol\":1397:1414  player2Hash = 0x0 */\n      dup2\n      swap1\n      sstore\n      pop\n        /* \"contracts/RPS.sol\":1443:1454  Weapon.None */\n      0x00\n        /* \"contracts/RPS.sol\":1425:1440  weaponOfPlayer1 */\n      0x01\n      0x14\n        /* \"contracts/RPS.sol\":1425:1454  weaponOfPlayer1 = Weapon.None */\n      0x0100\n      exp\n      dup2\n      sload\n      dup2\n      0xff\n      mul\n      not\n      and\n      swap1\n      dup4\n      0x03\n      dup2\n      gt\n      iszero\n      tag_71\n      jumpi\n      tag_72\n      tag_73\n      jump\t// in\n    tag_72:\n    tag_71:\n      mul\n      or\n      swap1\n      sstore\n      pop\n        /* \"contracts/RPS.sol\":1482:1493  Weapon.None */\n      0x00\n        /* \"contracts/RPS.sol\":1464:1479  weaponOfPlayer2 */\n      0x01\n      0x15\n        /* \"contracts/RPS.sol\":1464:1493  weaponOfPlayer2 = Weapon.None */\n      0x0100\n      exp\n      dup2\n      sload\n      dup2\n      0xff\n      mul\n      not\n      and\n      swap1\n      dup4\n      0x03\n      dup2\n      gt\n      iszero\n      tag_74\n      jumpi\n      tag_75\n      tag_73\n      jump\t// in\n    tag_75:\n    tag_74:\n      mul\n      or\n      swap1\n      sstore\n      pop\n        /* \"contracts/RPS.sol\":1512:1529  Stage.FirstCommit */\n      0x00\n        /* \"contracts/RPS.sol\":1504:1509  stage */\n      0x04\n      0x14\n        /* \"contracts/RPS.sol\":1504:1529  stage = Stage.FirstCommit */\n      0x0100\n      exp\n      dup2\n      sload\n      dup2\n      0xff\n      mul\n      not\n      and\n      swap1\n      dup4\n      0x04\n      dup2\n      gt\n      iszero\n      tag_76\n      jumpi\n      tag_77\n      tag_73\n      jump\t// in\n    tag_77:\n    tag_76:\n      mul\n      or\n      swap1\n      sstore\n      pop\n        /* \"contracts/RPS.sol\":1238:1536  function newGame() public {... */\n      jump\t// out\n        /* \"contracts/RPS.sol\":4230:4541  function endgame() public isPlayer {... */\n    tag_35:\n        /* \"contracts/RPS.sol\":1759:1766  player1 */\n      0x00\n      dup1\n      sload\n      swap1\n      0x0100\n      exp\n      swap1\n      div\n      0xffffffffffffffffffffffffffffffffffffffff\n      and\n        /* \"contracts/RPS.sol\":1745:1766  msg.sender == player1 */\n      0xffffffffffffffffffffffffffffffffffffffff\n      and\n        /* \"contracts/RPS.sol\":1745:1755  msg.sender */\n      caller\n        /* \"contracts/RPS.sol\":1745:1766  msg.sender == player1 */\n      0xffffffffffffffffffffffffffffffffffffffff\n      and\n      eq\n        /* \"contracts/RPS.sol\":1745:1791  msg.sender == player1 || msg.sender == player2 */\n      dup1\n      tag_79\n      jumpi\n      pop\n        /* \"contracts/RPS.sol\":1784:1791  player2 */\n      0x01\n      0x00\n      swap1\n      sload\n      swap1\n      0x0100\n      exp\n      swap1\n      div\n      0xffffffffffffffffffffffffffffffffffffffff\n      and\n        /* \"contracts/RPS.sol\":1770:1791  msg.sender == player2 */\n      0xffffffffffffffffffffffffffffffffffffffff\n      and\n        /* \"contracts/RPS.sol\":1770:1780  msg.sender */\n      caller\n        /* \"contracts/RPS.sol\":1770:1791  msg.sender == player2 */\n      0xffffffffffffffffffffffffffffffffffffffff\n      and\n      eq\n        /* \"contracts/RPS.sol\":1745:1791  msg.sender == player1 || msg.sender == player2 */\n    tag_79:\n        /* \"contracts/RPS.sol\":1737:1851  require(msg.sender == player1 || msg.sender == player2,... */\n      tag_80\n      jumpi\n      mload(0x40)\n      0x08c379a000000000000000000000000000000000000000000000000000000000\n      dup2\n      mstore\n      0x04\n      add\n      tag_81\n      swap1\n      tag_82\n      jump\t// in\n    tag_81:\n      mload(0x40)\n      dup1\n      swap2\n      sub\n      swap1\n      revert\n    tag_80:\n        /* \"contracts/RPS.sol\":4292:4308  Stage.FinishGame */\n      0x04\n        /* \"contracts/RPS.sol\":4283:4308  stage == Stage.FinishGame */\n      dup1\n      dup2\n      gt\n      iszero\n      tag_84\n      jumpi\n      tag_85\n      tag_73\n      jump\t// in\n    tag_85:\n    tag_84:\n        /* \"contracts/RPS.sol\":4283:4288  stage */\n      0x04\n      0x14\n      swap1\n      sload\n      swap1\n      0x0100\n      exp\n      swap1\n      div\n      0xff\n      and\n        /* \"contracts/RPS.sol\":4283:4308  stage == Stage.FinishGame */\n      0x04\n      dup2\n      gt\n      iszero\n      tag_86\n      jumpi\n      tag_87\n      tag_73\n      jump\t// in\n    tag_87:\n    tag_86:\n      eq\n        /* \"contracts/RPS.sol\":4275:4328  require(stage == Stage.FinishGame, \"incorrect stage\") */\n      tag_88\n      jumpi\n      mload(0x40)\n      0x08c379a000000000000000000000000000000000000000000000000000000000\n      dup2\n      mstore\n      0x04\n      add\n      tag_89\n      swap1\n      tag_90\n      jump\t// in\n    tag_89:\n      mload(0x40)\n      dup1\n      swap2\n      sub\n      swap1\n      revert\n    tag_88:\n        /* \"contracts/RPS.sol\":4339:4350  int8 result */\n      0x00\n        /* \"contracts/RPS.sol\":4358:4361  map */\n      0x05\n        /* \"contracts/RPS.sol\":4358:4378  map[weaponOfPlayer1] */\n      0x00\n        /* \"contracts/RPS.sol\":4362:4377  weaponOfPlayer1 */\n      0x01\n      0x14\n      swap1\n      sload\n      swap1\n      0x0100\n      exp\n      swap1\n      div\n      0xff\n      and\n        /* \"contracts/RPS.sol\":4358:4378  map[weaponOfPlayer1] */\n      0x03\n      dup2\n      gt\n      iszero\n      tag_91\n      jumpi\n      tag_92\n      tag_73\n      jump\t// in\n    tag_92:\n    tag_91:\n      0x03\n      dup2\n      gt\n      iszero\n      tag_93\n      jumpi\n      tag_94\n      tag_73\n      jump\t// in\n    tag_94:\n    tag_93:\n      dup2\n      mstore\n      0x20\n      add\n      swap1\n      dup2\n      mstore\n      0x20\n      add\n      0x00\n      keccak256\n        /* \"contracts/RPS.sol\":4358:4395  map[weaponOfPlayer1][weaponOfPlayer2] */\n      0x00\n        /* \"contracts/RPS.sol\":4379:4394  weaponOfPlayer2 */\n      0x01\n      0x15\n      swap1\n      sload\n      swap1\n      0x0100\n      exp\n      swap1\n      div\n      0xff\n      and\n        /* \"contracts/RPS.sol\":4358:4395  map[weaponOfPlayer1][weaponOfPlayer2] */\n      0x03\n      dup2\n      gt\n      iszero\n      tag_95\n      jumpi\n      tag_96\n      tag_73\n      jump\t// in\n    tag_96:\n    tag_95:\n      0x03\n      dup2\n      gt\n      iszero\n      tag_97\n      jumpi\n      tag_98\n      tag_73\n      jump\t// in\n    tag_98:\n    tag_97:\n      dup2\n      mstore\n      0x20\n      add\n      swap1\n      dup2\n      mstore\n      0x20\n      add\n      0x00\n      keccak256\n      0x00\n      swap1\n      sload\n      swap1\n      0x0100\n      exp\n      swap1\n      div\n      0xff\n      and\n        /* \"contracts/RPS.sol\":4339:4396  int8 result = int8(map[weaponOfPlayer1][weaponOfPlayer2]) */\n      swap1\n      pop\n        /* \"contracts/RPS.sol\":4429:4430  0 */\n      0x00\n        /* \"contracts/RPS.sol\":4419:4425  result */\n      dup2\n        /* \"contracts/RPS.sol\":4419:4430  result == 0 */\n      0x00\n      signextend\n      eq\n        /* \"contracts/RPS.sol\":4419:4445  result == 0 || result == 1 */\n      dup1\n      tag_99\n      jumpi\n      pop\n        /* \"contracts/RPS.sol\":4444:4445  1 */\n      0x01\n        /* \"contracts/RPS.sol\":4434:4440  result */\n      dup2\n        /* \"contracts/RPS.sol\":4434:4445  result == 1 */\n      0x00\n      signextend\n      eq\n        /* \"contracts/RPS.sol\":4419:4445  result == 0 || result == 1 */\n    tag_99:\n        /* \"contracts/RPS.sol\":4415:4535  if (result == 0 || result == 1) {... */\n      iszero\n      tag_100\n      jumpi\n        /* \"contracts/RPS.sol\":4470:4477  player1 */\n      0x00\n      dup1\n      sload\n      swap1\n      0x0100\n      exp\n      swap1\n      div\n      0xffffffffffffffffffffffffffffffffffffffff\n      and\n        /* \"contracts/RPS.sol\":4461:4467  winner */\n      0x04\n      0x00\n        /* \"contracts/RPS.sol\":4461:4477  winner = player1 */\n      0x0100\n      exp\n      dup2\n      sload\n      dup2\n      0xffffffffffffffffffffffffffffffffffffffff\n      mul\n      not\n      and\n      swap1\n      dup4\n      0xffffffffffffffffffffffffffffffffffffffff\n      and\n      mul\n      or\n      swap1\n      sstore\n      pop\n        /* \"contracts/RPS.sol\":4415:4535  if (result == 0 || result == 1) {... */\n      jump(tag_101)\n    tag_100:\n        /* \"contracts/RPS.sol\":4517:4524  player2 */\n      0x01\n      0x00\n      swap1\n      sload\n      swap1\n      0x0100\n      exp\n      swap1\n      div\n      0xffffffffffffffffffffffffffffffffffffffff\n      and\n        /* \"contracts/RPS.sol\":4508:4514  winner */\n      0x04\n      0x00\n        /* \"contracts/RPS.sol\":4508:4524  winner = player2 */\n      0x0100\n      exp\n      dup2\n      sload\n      dup2\n      0xffffffffffffffffffffffffffffffffffffffff\n      mul\n      not\n      and\n      swap1\n      dup4\n      0xffffffffffffffffffffffffffffffffffffffff\n      and\n      mul\n      or\n      swap1\n      sstore\n      pop\n        /* \"contracts/RPS.sol\":4415:4535  if (result == 0 || result == 1) {... */\n    tag_101:\n        /* \"contracts/RPS.sol\":4265:4541  {... */\n      pop\n        /* \"contracts/RPS.sol\":4230:4541  function endgame() public isPlayer {... */\n      jump\t// out\n        /* \"contracts/RPS.sol\":570:596  bytes32 public player1Hash */\n    tag_37:\n      sload(0x02)\n      dup2\n      jump\t// out\n        /* \"contracts/RPS.sol\":3236:4220  function reveal(Weapon weapon, uint32 salt) isPlayer public  ... */\n    tag_43:\n        /* \"contracts/RPS.sol\":1759:1766  player1 */\n      0x00\n      dup1\n      sload\n      swap1\n      0x0100\n      exp\n      swap1\n      div\n      0xffffffffffffffffffffffffffffffffffffffff\n      and\n        /* \"contracts/RPS.sol\":1745:1766  msg.sender == player1 */\n      0xffffffffffffffffffffffffffffffffffffffff\n      and\n        /* \"contracts/RPS.sol\":1745:1755  msg.sender */\n      caller\n        /* \"contracts/RPS.sol\":1745:1766  msg.sender == player1 */\n      0xffffffffffffffffffffffffffffffffffffffff\n      and\n      eq\n        /* \"contracts/RPS.sol\":1745:1791  msg.sender == player1 || msg.sender == player2 */\n      dup1\n      tag_103\n      jumpi\n      pop\n        /* \"contracts/RPS.sol\":1784:1791  player2 */\n      0x01\n      0x00\n      swap1\n      sload\n      swap1\n      0x0100\n      exp\n      swap1\n      div\n      0xffffffffffffffffffffffffffffffffffffffff\n      and\n        /* \"contracts/RPS.sol\":1770:1791  msg.sender == player2 */\n      0xffffffffffffffffffffffffffffffffffffffff\n      and\n        /* \"contracts/RPS.sol\":1770:1780  msg.sender */\n      caller\n        /* \"contracts/RPS.sol\":1770:1791  msg.sender == player2 */\n      0xffffffffffffffffffffffffffffffffffffffff\n      and\n      eq\n        /* \"contracts/RPS.sol\":1745:1791  msg.sender == player1 || msg.sender == player2 */\n    tag_103:\n        /* \"contracts/RPS.sol\":1737:1851  require(msg.sender == player1 || msg.sender == player2,... */\n      tag_104\n      jumpi\n      mload(0x40)\n      0x08c379a000000000000000000000000000000000000000000000000000000000\n      dup2\n      mstore\n      0x04\n      add\n      tag_105\n      swap1\n      tag_82\n      jump\t// in\n    tag_105:\n      mload(0x40)\n      dup1\n      swap2\n      sub\n      swap1\n      revert\n    tag_104:\n        /* \"contracts/RPS.sol\":3322:3328  weapon */\n      dup2\n        /* \"contracts/RPS.sol\":1947:1958  Weapon.Rock */\n      0x01\n        /* \"contracts/RPS.sol\":1937:1958  weapon == Weapon.Rock */\n      0x03\n      dup2\n      gt\n      iszero\n      tag_107\n      jumpi\n      tag_108\n      tag_73\n      jump\t// in\n    tag_108:\n    tag_107:\n        /* \"contracts/RPS.sol\":1937:1943  weapon */\n      dup2\n        /* \"contracts/RPS.sol\":1937:1958  weapon == Weapon.Rock */\n      0x03\n      dup2\n      gt\n      iszero\n      tag_109\n      jumpi\n      tag_110\n      tag_73\n      jump\t// in\n    tag_110:\n    tag_109:\n      eq\n        /* \"contracts/RPS.sol\":1937:1984  weapon == Weapon.Rock || weapon == Weapon.Paper */\n      dup1\n      tag_111\n      jumpi\n      pop\n        /* \"contracts/RPS.sol\":1972:1984  Weapon.Paper */\n      0x02\n        /* \"contracts/RPS.sol\":1962:1984  weapon == Weapon.Paper */\n      0x03\n      dup2\n      gt\n      iszero\n      tag_112\n      jumpi\n      tag_113\n      tag_73\n      jump\t// in\n    tag_113:\n    tag_112:\n        /* \"contracts/RPS.sol\":1962:1968  weapon */\n      dup2\n        /* \"contracts/RPS.sol\":1962:1984  weapon == Weapon.Paper */\n      0x03\n      dup2\n      gt\n      iszero\n      tag_114\n      jumpi\n      tag_115\n      tag_73\n      jump\t// in\n    tag_115:\n    tag_114:\n      eq\n        /* \"contracts/RPS.sol\":1937:1984  weapon == Weapon.Rock || weapon == Weapon.Paper */\n    tag_111:\n        /* \"contracts/RPS.sol\":1937:2013  weapon == Weapon.Rock || weapon == Weapon.Paper || weapon == Weapon.Scissors */\n      dup1\n      tag_116\n      jumpi\n      pop\n        /* \"contracts/RPS.sol\":1998:2013  Weapon.Scissors */\n      0x03\n        /* \"contracts/RPS.sol\":1988:2013  weapon == Weapon.Scissors */\n      dup1\n      dup2\n      gt\n      iszero\n      tag_117\n      jumpi\n      tag_118\n      tag_73\n      jump\t// in\n    tag_118:\n    tag_117:\n        /* \"contracts/RPS.sol\":1988:1994  weapon */\n      dup2\n        /* \"contracts/RPS.sol\":1988:2013  weapon == Weapon.Scissors */\n      0x03\n      dup2\n      gt\n      iszero\n      tag_119\n      jumpi\n      tag_120\n      tag_73\n      jump\t// in\n    tag_120:\n    tag_119:\n      eq\n        /* \"contracts/RPS.sol\":1937:2013  weapon == Weapon.Rock || weapon == Weapon.Paper || weapon == Weapon.Scissors */\n    tag_116:\n        /* \"contracts/RPS.sol\":1929:2032  require(weapon == Weapon.Rock || weapon == Weapon.Paper || weapon == Weapon.Scissors, \"invalid weapon\") */\n      tag_121\n      jumpi\n      mload(0x40)\n      0x08c379a000000000000000000000000000000000000000000000000000000000\n      dup2\n      mstore\n      0x04\n      add\n      tag_122\n      swap1\n      tag_123\n      jump\t// in\n    tag_122:\n      mload(0x40)\n      dup1\n      swap2\n      sub\n      swap1\n      revert\n    tag_121:\n        /* \"contracts/RPS.sol\":3361:3378  Stage.FirstReveal */\n      0x02\n        /* \"contracts/RPS.sol\":3352:3378  stage == Stage.FirstReveal */\n      0x04\n      dup2\n      gt\n      iszero\n      tag_125\n      jumpi\n      tag_126\n      tag_73\n      jump\t// in\n    tag_126:\n    tag_125:\n        /* \"contracts/RPS.sol\":3352:3357  stage */\n      0x04\n      0x14\n      swap1\n      sload\n      swap1\n      0x0100\n      exp\n      swap1\n      div\n      0xff\n      and\n        /* \"contracts/RPS.sol\":3352:3378  stage == Stage.FirstReveal */\n      0x04\n      dup2\n      gt\n      iszero\n      tag_127\n      jumpi\n      tag_128\n      tag_73\n      jump\t// in\n    tag_128:\n    tag_127:\n      eq\n        /* \"contracts/RPS.sol\":3352:3409  stage == Stage.FirstReveal || stage == Stage.SecondReveal */\n      dup1\n      tag_129\n      jumpi\n      pop\n        /* \"contracts/RPS.sol\":3391:3409  Stage.SecondReveal */\n      0x03\n        /* \"contracts/RPS.sol\":3382:3409  stage == Stage.SecondReveal */\n      0x04\n      dup2\n      gt\n      iszero\n      tag_130\n      jumpi\n      tag_131\n      tag_73\n      jump\t// in\n    tag_131:\n    tag_130:\n        /* \"contracts/RPS.sol\":3382:3387  stage */\n      0x04\n      0x14\n      swap1\n      sload\n      swap1\n      0x0100\n      exp\n      swap1\n      div\n      0xff\n      and\n        /* \"contracts/RPS.sol\":3382:3409  stage == Stage.SecondReveal */\n      0x04\n      dup2\n      gt\n      iszero\n      tag_132\n      jumpi\n      tag_133\n      tag_73\n      jump\t// in\n    tag_133:\n    tag_132:\n      eq\n        /* \"contracts/RPS.sol\":3352:3409  stage == Stage.FirstReveal || stage == Stage.SecondReveal */\n    tag_129:\n        /* \"contracts/RPS.sol\":3344:3429  require(stage == Stage.FirstReveal || stage == Stage.SecondReveal, \"incorrect stage\") */\n      tag_134\n      jumpi\n      mload(0x40)\n      0x08c379a000000000000000000000000000000000000000000000000000000000\n      dup2\n      mstore\n      0x04\n      add\n      tag_135\n      swap1\n      tag_90\n      jump\t// in\n    tag_135:\n      mload(0x40)\n      dup1\n      swap2\n      sub\n      swap1\n      revert\n    tag_134:\n        /* \"contracts/RPS.sol\":3440:3462  bytes32 calculatedHash */\n      0x00\n        /* \"contracts/RPS.sol\":3465:3626  sha256(... */\n      0x02\n        /* \"contracts/RPS.sol\":3521:3554  Strings.toString(uint256(weapon)) */\n      tag_136\n        /* \"contracts/RPS.sol\":3546:3552  weapon */\n      dup6\n        /* \"contracts/RPS.sol\":3538:3553  uint256(weapon) */\n      0x03\n      dup2\n      gt\n      iszero\n      tag_137\n      jumpi\n      tag_138\n      tag_73\n      jump\t// in\n    tag_138:\n    tag_137:\n        /* \"contracts/RPS.sol\":3521:3537  Strings.toString */\n      tag_139\n        /* \"contracts/RPS.sol\":3521:3554  Strings.toString(uint256(weapon)) */\n      jump\t// in\n    tag_136:\n        /* \"contracts/RPS.sol\":3579:3601  Strings.toString(salt) */\n      tag_140\n        /* \"contracts/RPS.sol\":3596:3600  salt */\n      dup6\n        /* \"contracts/RPS.sol\":3579:3601  Strings.toString(salt) */\n      0xffffffff\n      and\n        /* \"contracts/RPS.sol\":3579:3595  Strings.toString */\n      tag_139\n        /* \"contracts/RPS.sol\":3579:3601  Strings.toString(salt) */\n      jump\t// in\n    tag_140:\n        /* \"contracts/RPS.sol\":3485:3616  bytes.concat(... */\n      add(0x20, mload(0x40))\n      tag_141\n      swap3\n      swap2\n      swap1\n      tag_142\n      jump\t// in\n    tag_141:\n      mload(0x40)\n      0x20\n      dup2\n      dup4\n      sub\n      sub\n      dup2\n      mstore\n      swap1\n      0x40\n      mstore\n        /* \"contracts/RPS.sol\":3465:3626  sha256(... */\n      mload(0x40)\n      tag_143\n      swap2\n      swap1\n      tag_144\n      jump\t// in\n    tag_143:\n      0x20\n      mload(0x40)\n      dup1\n      dup4\n      sub\n      dup2\n      dup6\n      gas\n      staticcall\n      iszero\n      dup1\n      iszero\n      tag_146\n      jumpi\n      returndatasize\n      0x00\n      dup1\n      returndatacopy\n      revert(0x00, returndatasize)\n    tag_146:\n      pop\n      pop\n      pop\n      mload(0x40)\n      returndatasize\n      not(0x1f)\n      0x1f\n      dup3\n      add\n      and\n      dup3\n      add\n      dup1\n      0x40\n      mstore\n      pop\n      dup2\n      add\n      swap1\n      tag_147\n      swap2\n      swap1\n      tag_148\n      jump\t// in\n    tag_147:\n        /* \"contracts/RPS.sol\":3440:3626  bytes32 calculatedHash = sha256(... */\n      swap1\n      pop\n        /* \"contracts/RPS.sol\":3651:3662  Weapon.None */\n      0x00\n        /* \"contracts/RPS.sol\":3641:3662  weapon == Weapon.None */\n      0x03\n      dup2\n      gt\n      iszero\n      tag_149\n      jumpi\n      tag_150\n      tag_73\n      jump\t// in\n    tag_150:\n    tag_149:\n        /* \"contracts/RPS.sol\":3641:3647  weapon */\n      dup5\n        /* \"contracts/RPS.sol\":3641:3662  weapon == Weapon.None */\n      0x03\n      dup2\n      gt\n      iszero\n      tag_151\n      jumpi\n      tag_152\n      tag_73\n      jump\t// in\n    tag_152:\n    tag_151:\n      eq\n        /* \"contracts/RPS.sol\":3637:3715  if (weapon == Weapon.None) {... */\n      iszero\n      tag_153\n      jumpi\n        /* \"contracts/RPS.sol\":3678:3704  revert(\"incorrect weapon\") */\n      mload(0x40)\n      0x08c379a000000000000000000000000000000000000000000000000000000000\n      dup2\n      mstore\n      0x04\n      add\n      tag_154\n      swap1\n      tag_155\n      jump\t// in\n    tag_154:\n      mload(0x40)\n      dup1\n      swap2\n      sub\n      swap1\n      revert\n        /* \"contracts/RPS.sol\":3637:3715  if (weapon == Weapon.None) {... */\n    tag_153:\n        /* \"contracts/RPS.sol\":3743:3750  player1 */\n      0x00\n      dup1\n      sload\n      swap1\n      0x0100\n      exp\n      swap1\n      div\n      0xffffffffffffffffffffffffffffffffffffffff\n      and\n        /* \"contracts/RPS.sol\":3729:3750  msg.sender == player1 */\n      0xffffffffffffffffffffffffffffffffffffffff\n      and\n        /* \"contracts/RPS.sol\":3729:3739  msg.sender */\n      caller\n        /* \"contracts/RPS.sol\":3729:3750  msg.sender == player1 */\n      0xffffffffffffffffffffffffffffffffffffffff\n      and\n      eq\n        /* \"contracts/RPS.sol\":3729:3803  msg.sender == player1... */\n      dup1\n      iszero\n      tag_156\n      jumpi\n      pop\n        /* \"contracts/RPS.sol\":3792:3803  player1Hash */\n      sload(0x02)\n        /* \"contracts/RPS.sol\":3774:3788  calculatedHash */\n      dup2\n        /* \"contracts/RPS.sol\":3774:3803  calculatedHash == player1Hash */\n      eq\n        /* \"contracts/RPS.sol\":3729:3803  msg.sender == player1... */\n    tag_156:\n        /* \"contracts/RPS.sol\":3725:4214  if (msg.sender == player1... */\n      iszero\n      tag_157\n      jumpi\n        /* \"contracts/RPS.sol\":3837:3843  weapon */\n      dup4\n        /* \"contracts/RPS.sol\":3819:3834  weaponOfPlayer1 */\n      0x01\n      0x14\n        /* \"contracts/RPS.sol\":3819:3843  weaponOfPlayer1 = weapon */\n      0x0100\n      exp\n      dup2\n      sload\n      dup2\n      0xff\n      mul\n      not\n      and\n      swap1\n      dup4\n      0x03\n      dup2\n      gt\n      iszero\n      tag_158\n      jumpi\n      tag_159\n      tag_73\n      jump\t// in\n    tag_159:\n    tag_158:\n      mul\n      or\n      swap1\n      sstore\n      pop\n        /* \"contracts/RPS.sol\":3862:3888  Reveal(msg.sender, weapon) */\n      0x79a7276ba83fef4fe13f88df855c8420d094de7d84d1d4a3bc10554a841bd80b\n        /* \"contracts/RPS.sol\":3869:3879  msg.sender */\n      caller\n        /* \"contracts/RPS.sol\":3881:3887  weapon */\n      dup6\n        /* \"contracts/RPS.sol\":3862:3888  Reveal(msg.sender, weapon) */\n      mload(0x40)\n      tag_160\n      swap3\n      swap2\n      swap1\n      tag_161\n      jump\t// in\n    tag_160:\n      mload(0x40)\n      dup1\n      swap2\n      sub\n      swap1\n      log1\n        /* \"contracts/RPS.sol\":3910:3928  Stage.SecondReveal */\n      0x03\n        /* \"contracts/RPS.sol\":3902:3907  stage */\n      0x04\n      0x14\n        /* \"contracts/RPS.sol\":3902:3928  stage = Stage.SecondReveal */\n      0x0100\n      exp\n      dup2\n      sload\n      dup2\n      0xff\n      mul\n      not\n      and\n      swap1\n      dup4\n      0x04\n      dup2\n      gt\n      iszero\n      tag_162\n      jumpi\n      tag_163\n      tag_73\n      jump\t// in\n    tag_163:\n    tag_162:\n      mul\n      or\n      swap1\n      sstore\n      pop\n        /* \"contracts/RPS.sol\":3725:4214  if (msg.sender == player1... */\n      jump(tag_164)\n    tag_157:\n        /* \"contracts/RPS.sol\":3963:3970  player2 */\n      0x01\n      0x00\n      swap1\n      sload\n      swap1\n      0x0100\n      exp\n      swap1\n      div\n      0xffffffffffffffffffffffffffffffffffffffff\n      and\n        /* \"contracts/RPS.sol\":3949:3970  msg.sender == player2 */\n      0xffffffffffffffffffffffffffffffffffffffff\n      and\n        /* \"contracts/RPS.sol\":3949:3959  msg.sender */\n      caller\n        /* \"contracts/RPS.sol\":3949:3970  msg.sender == player2 */\n      0xffffffffffffffffffffffffffffffffffffffff\n      and\n      eq\n        /* \"contracts/RPS.sol\":3949:4023  msg.sender == player2... */\n      dup1\n      iszero\n      tag_165\n      jumpi\n      pop\n        /* \"contracts/RPS.sol\":4012:4023  player2Hash */\n      sload(0x03)\n        /* \"contracts/RPS.sol\":3994:4008  calculatedHash */\n      dup2\n        /* \"contracts/RPS.sol\":3994:4023  calculatedHash == player2Hash */\n      eq\n        /* \"contracts/RPS.sol\":3949:4023  msg.sender == player2... */\n    tag_165:\n        /* \"contracts/RPS.sol\":3945:4214  if (msg.sender == player2... */\n      iszero\n      tag_166\n      jumpi\n        /* \"contracts/RPS.sol\":4057:4063  weapon */\n      dup4\n        /* \"contracts/RPS.sol\":4039:4054  weaponOfPlayer2 */\n      0x01\n      0x15\n        /* \"contracts/RPS.sol\":4039:4063  weaponOfPlayer2 = weapon */\n      0x0100\n      exp\n      dup2\n      sload\n      dup2\n      0xff\n      mul\n      not\n      and\n      swap1\n      dup4\n      0x03\n      dup2\n      gt\n      iszero\n      tag_167\n      jumpi\n      tag_168\n      tag_73\n      jump\t// in\n    tag_168:\n    tag_167:\n      mul\n      or\n      swap1\n      sstore\n      pop\n        /* \"contracts/RPS.sol\":4082:4108  Reveal(msg.sender, weapon) */\n      0x79a7276ba83fef4fe13f88df855c8420d094de7d84d1d4a3bc10554a841bd80b\n        /* \"contracts/RPS.sol\":4089:4099  msg.sender */\n      caller\n        /* \"contracts/RPS.sol\":4101:4107  weapon */\n      dup6\n        /* \"contracts/RPS.sol\":4082:4108  Reveal(msg.sender, weapon) */\n      mload(0x40)\n      tag_169\n      swap3\n      swap2\n      swap1\n      tag_161\n      jump\t// in\n    tag_169:\n      mload(0x40)\n      dup1\n      swap2\n      sub\n      swap1\n      log1\n        /* \"contracts/RPS.sol\":4130:4146  Stage.FinishGame */\n      0x04\n        /* \"contracts/RPS.sol\":4122:4127  stage */\n      dup1\n      0x14\n        /* \"contracts/RPS.sol\":4122:4146  stage = Stage.FinishGame */\n      0x0100\n      exp\n      dup2\n      sload\n      dup2\n      0xff\n      mul\n      not\n      and\n      swap1\n      dup4\n      0x04\n      dup2\n      gt\n      iszero\n      tag_170\n      jumpi\n      tag_171\n      tag_73\n      jump\t// in\n    tag_171:\n    tag_170:\n      mul\n      or\n      swap1\n      sstore\n      pop\n        /* \"contracts/RPS.sol\":3945:4214  if (msg.sender == player2... */\n      jump(tag_172)\n    tag_166:\n        /* \"contracts/RPS.sol\":4177:4203  revert(\"incorrect weapon\") */\n      mload(0x40)\n      0x08c379a000000000000000000000000000000000000000000000000000000000\n      dup2\n      mstore\n      0x04\n      add\n      tag_173\n      swap1\n      tag_155\n      jump\t// in\n    tag_173:\n      mload(0x40)\n      dup1\n      swap2\n      sub\n      swap1\n      revert\n        /* \"contracts/RPS.sol\":3945:4214  if (msg.sender == player2... */\n    tag_172:\n        /* \"contracts/RPS.sol\":3725:4214  if (msg.sender == player1... */\n    tag_164:\n        /* \"contracts/RPS.sol\":3334:4220  {... */\n      pop\n        /* \"contracts/RPS.sol\":1861:1862  _ */\n      pop\n        /* \"contracts/RPS.sol\":3236:4220  function reveal(Weapon weapon, uint32 salt) isPlayer public  ... */\n      pop\n      pop\n      jump\t// out\n        /* \"contracts/RPS.sol\":2424:2626  function join() isAlreadyIn external... */\n    tag_45:\n        /* \"contracts/RPS.sol\":2124:2131  player1 */\n      0x00\n      dup1\n      sload\n      swap1\n      0x0100\n      exp\n      swap1\n      div\n      0xffffffffffffffffffffffffffffffffffffffff\n      and\n        /* \"contracts/RPS.sol\":2110:2131  msg.sender != player1 */\n      0xffffffffffffffffffffffffffffffffffffffff\n      and\n        /* \"contracts/RPS.sol\":2110:2120  msg.sender */\n      caller\n        /* \"contracts/RPS.sol\":2110:2131  msg.sender != player1 */\n      0xffffffffffffffffffffffffffffffffffffffff\n      and\n      eq\n      iszero\n        /* \"contracts/RPS.sol\":2110:2172  msg.sender != player1 &&... */\n      dup1\n      iszero\n      tag_175\n      jumpi\n      pop\n        /* \"contracts/RPS.sol\":2165:2172  player2 */\n      0x01\n      0x00\n      swap1\n      sload\n      swap1\n      0x0100\n      exp\n      swap1\n      div\n      0xffffffffffffffffffffffffffffffffffffffff\n      and\n        /* \"contracts/RPS.sol\":2151:2172  msg.sender != player2 */\n      0xffffffffffffffffffffffffffffffffffffffff\n      and\n        /* \"contracts/RPS.sol\":2151:2161  msg.sender */\n      caller\n        /* \"contracts/RPS.sol\":2151:2172  msg.sender != player2 */\n      0xffffffffffffffffffffffffffffffffffffffff\n      and\n      eq\n      iszero\n        /* \"contracts/RPS.sol\":2110:2172  msg.sender != player1 &&... */\n    tag_175:\n        /* \"contracts/RPS.sol\":2089:2182  require(... */\n      tag_176\n      jumpi\n      0x00\n      dup1\n      revert\n    tag_176:\n        /* \"contracts/RPS.sol\":1605:1606  0 */\n      0x00\n        /* \"contracts/RPS.sol\":1586:1607  player1 == address(0) */\n      0xffffffffffffffffffffffffffffffffffffffff\n      and\n        /* \"contracts/RPS.sol\":1586:1593  player1 */\n      0x00\n      dup1\n      sload\n      swap1\n      0x0100\n      exp\n      swap1\n      div\n      0xffffffffffffffffffffffffffffffffffffffff\n      and\n        /* \"contracts/RPS.sol\":1586:1607  player1 == address(0) */\n      0xffffffffffffffffffffffffffffffffffffffff\n      and\n      eq\n        /* \"contracts/RPS.sol\":1586:1632  player1 == address(0) || player2 == address(0) */\n      dup1\n      tag_178\n      jumpi\n      pop\n        /* \"contracts/RPS.sol\":1630:1631  0 */\n      0x00\n        /* \"contracts/RPS.sol\":1611:1632  player2 == address(0) */\n      0xffffffffffffffffffffffffffffffffffffffff\n      and\n        /* \"contracts/RPS.sol\":1611:1618  player2 */\n      0x01\n      0x00\n      swap1\n      sload\n      swap1\n      0x0100\n      exp\n      swap1\n      div\n      0xffffffffffffffffffffffffffffffffffffffff\n      and\n        /* \"contracts/RPS.sol\":1611:1632  player2 == address(0) */\n      0xffffffffffffffffffffffffffffffffffffffff\n      and\n      eq\n        /* \"contracts/RPS.sol\":1586:1632  player1 == address(0) || player2 == address(0) */\n    tag_178:\n        /* \"contracts/RPS.sol\":1578:1679  require(player1 == address(0) || player2 == address(0),... */\n      tag_179\n      jumpi\n      mload(0x40)\n      0x08c379a000000000000000000000000000000000000000000000000000000000\n      dup2\n      mstore\n      0x04\n      add\n      tag_180\n      swap1\n      tag_181\n      jump\t// in\n    tag_180:\n      mload(0x40)\n      dup1\n      swap2\n      sub\n      swap1\n      revert\n    tag_179:\n        /* \"contracts/RPS.sol\":2519:2520  0 */\n      0x00\n        /* \"contracts/RPS.sol\":2500:2521  player1 == address(0) */\n      0xffffffffffffffffffffffffffffffffffffffff\n      and\n        /* \"contracts/RPS.sol\":2500:2507  player1 */\n      0x00\n      dup1\n      sload\n      swap1\n      0x0100\n      exp\n      swap1\n      div\n      0xffffffffffffffffffffffffffffffffffffffff\n      and\n        /* \"contracts/RPS.sol\":2500:2521  player1 == address(0) */\n      0xffffffffffffffffffffffffffffffffffffffff\n      and\n      eq\n        /* \"contracts/RPS.sol\":2496:2619  if (player1 == address(0)) {... */\n      iszero\n      tag_183\n      jumpi\n        /* \"contracts/RPS.sol\":2547:2557  msg.sender */\n      caller\n        /* \"contracts/RPS.sol\":2537:2544  player1 */\n      0x00\n      dup1\n        /* \"contracts/RPS.sol\":2537:2557  player1 = msg.sender */\n      0x0100\n      exp\n      dup2\n      sload\n      dup2\n      0xffffffffffffffffffffffffffffffffffffffff\n      mul\n      not\n      and\n      swap1\n      dup4\n      0xffffffffffffffffffffffffffffffffffffffff\n      and\n      mul\n      or\n      swap1\n      sstore\n      pop\n        /* \"contracts/RPS.sol\":2496:2619  if (player1 == address(0)) {... */\n      jump(tag_184)\n    tag_183:\n        /* \"contracts/RPS.sol\":2609:2619  msg.sender */\n      caller\n        /* \"contracts/RPS.sol\":2599:2606  player2 */\n      0x01\n      0x00\n        /* \"contracts/RPS.sol\":2599:2619  player2 = msg.sender */\n      0x0100\n      exp\n      dup2\n      sload\n      dup2\n      0xffffffffffffffffffffffffffffffffffffffff\n      mul\n      not\n      and\n      swap1\n      dup4\n      0xffffffffffffffffffffffffffffffffffffffff\n      and\n      mul\n      or\n      swap1\n      sstore\n      pop\n        /* \"contracts/RPS.sol\":2496:2619  if (player1 == address(0)) {... */\n    tag_184:\n        /* \"contracts/RPS.sol\":2424:2626  function join() isAlreadyIn external... */\n      jump\t// out\n        /* \"contracts/RPS.sol\":663:701  Stage public stage = Stage.FirstCommit */\n    tag_47:\n      0x04\n      0x14\n      swap1\n      sload\n      swap1\n      0x0100\n      exp\n      swap1\n      div\n      0xff\n      and\n      dup2\n      jump\t// out\n        /* \"contracts/RPS.sol\":444:466  address public player1 */\n    tag_51:\n      0x00\n      dup1\n      sload\n      swap1\n      0x0100\n      exp\n      swap1\n      div\n      0xffffffffffffffffffffffffffffffffffffffff\n      and\n      dup2\n      jump\t// out\n        /* \"contracts/RPS.sol\":500:529  Weapon public weaponOfPlayer1 */\n    tag_54:\n      0x01\n      0x14\n      swap1\n      sload\n      swap1\n      0x0100\n      exp\n      swap1\n      div\n      0xff\n      and\n      dup2\n      jump\t// out\n        /* \"contracts/RPS.sol\":635:656  address public winner */\n    tag_57:\n      0x04\n      0x00\n      swap1\n      sload\n      swap1\n      0x0100\n      exp\n      swap1\n      div\n      0xffffffffffffffffffffffffffffffffffffffff\n      and\n      dup2\n      jump\t// out\n        /* \"contracts/RPS.sol\":2228:2318  function getPlayer1Address() public view returns (address) {... */\n    tag_60:\n        /* \"contracts/RPS.sol\":2278:2285  address */\n      0x00\n        /* \"contracts/RPS.sol\":2304:2311  player1 */\n      dup1\n      0x00\n      swap1\n      sload\n      swap1\n      0x0100\n      exp\n      swap1\n      div\n      0xffffffffffffffffffffffffffffffffffffffff\n      and\n        /* \"contracts/RPS.sol\":2297:2311  return player1 */\n      swap1\n      pop\n        /* \"contracts/RPS.sol\":2228:2318  function getPlayer1Address() public view returns (address) {... */\n      swap1\n      jump\t// out\n        /* \"contracts/RPS.sol\":602:628  bytes32 public player2Hash */\n    tag_63:\n      sload(0x03)\n      dup2\n      jump\t// out\n        /* \"contracts/RPS.sol\":2636:3230  function makeChoice(bytes32 hash) isPlayer public {... */\n    tag_68:\n        /* \"contracts/RPS.sol\":1759:1766  player1 */\n      0x00\n      dup1\n      sload\n      swap1\n      0x0100\n      exp\n      swap1\n      div\n      0xffffffffffffffffffffffffffffffffffffffff\n      and\n        /* \"contracts/RPS.sol\":1745:1766  msg.sender == player1 */\n      0xffffffffffffffffffffffffffffffffffffffff\n      and\n        /* \"contracts/RPS.sol\":1745:1755  msg.sender */\n      caller\n        /* \"contracts/RPS.sol\":1745:1766  msg.sender == player1 */\n      0xffffffffffffffffffffffffffffffffffffffff\n      and\n      eq\n        /* \"contracts/RPS.sol\":1745:1791  msg.sender == player1 || msg.sender == player2 */\n      dup1\n      tag_187\n      jumpi\n      pop\n        /* \"contracts/RPS.sol\":1784:1791  player2 */\n      0x01\n      0x00\n      swap1\n      sload\n      swap1\n      0x0100\n      exp\n      swap1\n      div\n      0xffffffffffffffffffffffffffffffffffffffff\n      and\n        /* \"contracts/RPS.sol\":1770:1791  msg.sender == player2 */\n      0xffffffffffffffffffffffffffffffffffffffff\n      and\n        /* \"contracts/RPS.sol\":1770:1780  msg.sender */\n      caller\n        /* \"contracts/RPS.sol\":1770:1791  msg.sender == player2 */\n      0xffffffffffffffffffffffffffffffffffffffff\n      and\n      eq\n        /* \"contracts/RPS.sol\":1745:1791  msg.sender == player1 || msg.sender == player2 */\n    tag_187:\n        /* \"contracts/RPS.sol\":1737:1851  require(msg.sender == player1 || msg.sender == player2,... */\n      tag_188\n      jumpi\n      mload(0x40)\n      0x08c379a000000000000000000000000000000000000000000000000000000000\n      dup2\n      mstore\n      0x04\n      add\n      tag_189\n      swap1\n      tag_82\n      jump\t// in\n    tag_189:\n      mload(0x40)\n      dup1\n      swap2\n      sub\n      swap1\n      revert\n    tag_188:\n        /* \"contracts/RPS.sol\":2713:2730  Stage.FirstCommit */\n      0x00\n        /* \"contracts/RPS.sol\":2704:2730  stage == Stage.FirstCommit */\n      0x04\n      dup2\n      gt\n      iszero\n      tag_191\n      jumpi\n      tag_192\n      tag_73\n      jump\t// in\n    tag_192:\n    tag_191:\n        /* \"contracts/RPS.sol\":2704:2709  stage */\n      0x04\n      0x14\n      swap1\n      sload\n      swap1\n      0x0100\n      exp\n      swap1\n      div\n      0xff\n      and\n        /* \"contracts/RPS.sol\":2704:2730  stage == Stage.FirstCommit */\n      0x04\n      dup2\n      gt\n      iszero\n      tag_193\n      jumpi\n      tag_194\n      tag_73\n      jump\t// in\n    tag_194:\n    tag_193:\n      eq\n        /* \"contracts/RPS.sol\":2704:2761  stage == Stage.FirstCommit || stage == Stage.SecondCommit */\n      dup1\n      tag_195\n      jumpi\n      pop\n        /* \"contracts/RPS.sol\":2743:2761  Stage.SecondCommit */\n      0x01\n        /* \"contracts/RPS.sol\":2734:2761  stage == Stage.SecondCommit */\n      0x04\n      dup2\n      gt\n      iszero\n      tag_196\n      jumpi\n      tag_197\n      tag_73\n      jump\t// in\n    tag_197:\n    tag_196:\n        /* \"contracts/RPS.sol\":2734:2739  stage */\n      0x04\n      0x14\n      swap1\n      sload\n      swap1\n      0x0100\n      exp\n      swap1\n      div\n      0xff\n      and\n        /* \"contracts/RPS.sol\":2734:2761  stage == Stage.SecondCommit */\n      0x04\n      dup2\n      gt\n      iszero\n      tag_198\n      jumpi\n      tag_199\n      tag_73\n      jump\t// in\n    tag_199:\n    tag_198:\n      eq\n        /* \"contracts/RPS.sol\":2704:2761  stage == Stage.FirstCommit || stage == Stage.SecondCommit */\n    tag_195:\n        /* \"contracts/RPS.sol\":2696:2762  require(stage == Stage.FirstCommit || stage == Stage.SecondCommit) */\n      tag_200\n      jumpi\n      0x00\n      dup1\n      revert\n    tag_200:\n        /* \"contracts/RPS.sol\":2791:2798  player1 */\n      0x00\n      dup1\n      sload\n      swap1\n      0x0100\n      exp\n      swap1\n      div\n      0xffffffffffffffffffffffffffffffffffffffff\n      and\n        /* \"contracts/RPS.sol\":2777:2798  msg.sender == player1 */\n      0xffffffffffffffffffffffffffffffffffffffff\n      and\n        /* \"contracts/RPS.sol\":2777:2787  msg.sender */\n      caller\n        /* \"contracts/RPS.sol\":2777:2798  msg.sender == player1 */\n      0xffffffffffffffffffffffffffffffffffffffff\n      and\n      eq\n        /* \"contracts/RPS.sol\":2777:2844  msg.sender == player1... */\n      dup1\n      iszero\n      tag_201\n      jumpi\n      pop\n        /* \"contracts/RPS.sol\":2841:2844  0x0 */\n      0x00\n        /* \"contracts/RPS.sol\":2826:2844  player1Hash == 0x0 */\n      dup1\n      shl\n        /* \"contracts/RPS.sol\":2826:2837  player1Hash */\n      sload(0x02)\n        /* \"contracts/RPS.sol\":2826:2844  player1Hash == 0x0 */\n      eq\n        /* \"contracts/RPS.sol\":2777:2844  msg.sender == player1... */\n    tag_201:\n        /* \"contracts/RPS.sol\":2773:3081  if (msg.sender == player1... */\n      iszero\n      tag_202\n      jumpi\n        /* \"contracts/RPS.sol\":2874:2878  hash */\n      dup1\n        /* \"contracts/RPS.sol\":2860:2871  player1Hash */\n      0x02\n        /* \"contracts/RPS.sol\":2860:2878  player1Hash = hash */\n      dup2\n      swap1\n      sstore\n      pop\n        /* \"contracts/RPS.sol\":2773:3081  if (msg.sender == player1... */\n      jump(tag_203)\n    tag_202:\n        /* \"contracts/RPS.sol\":2913:2920  player2 */\n      0x01\n      0x00\n      swap1\n      sload\n      swap1\n      0x0100\n      exp\n      swap1\n      div\n      0xffffffffffffffffffffffffffffffffffffffff\n      and\n        /* \"contracts/RPS.sol\":2899:2920  msg.sender == player2 */\n      0xffffffffffffffffffffffffffffffffffffffff\n      and\n        /* \"contracts/RPS.sol\":2899:2909  msg.sender */\n      caller\n        /* \"contracts/RPS.sol\":2899:2920  msg.sender == player2 */\n      0xffffffffffffffffffffffffffffffffffffffff\n      and\n      eq\n        /* \"contracts/RPS.sol\":2899:2966  msg.sender == player2... */\n      dup1\n      iszero\n      tag_204\n      jumpi\n      pop\n        /* \"contracts/RPS.sol\":2963:2966  0x0 */\n      0x00\n        /* \"contracts/RPS.sol\":2948:2966  player2Hash == 0x0 */\n      dup1\n      shl\n        /* \"contracts/RPS.sol\":2948:2959  player2Hash */\n      sload(0x03)\n        /* \"contracts/RPS.sol\":2948:2966  player2Hash == 0x0 */\n      eq\n        /* \"contracts/RPS.sol\":2899:2966  msg.sender == player2... */\n    tag_204:\n        /* \"contracts/RPS.sol\":2895:3081  if (msg.sender == player2... */\n      iszero\n      tag_205\n      jumpi\n        /* \"contracts/RPS.sol\":2996:3000  hash */\n      dup1\n        /* \"contracts/RPS.sol\":2982:2993  player2Hash */\n      0x03\n        /* \"contracts/RPS.sol\":2982:3000  player2Hash = hash */\n      dup2\n      swap1\n      sstore\n      pop\n        /* \"contracts/RPS.sol\":2895:3081  if (msg.sender == player2... */\n      jump(tag_206)\n    tag_205:\n        /* \"contracts/RPS.sol\":3031:3070  revert(\"Players have already commited\") */\n      mload(0x40)\n      0x08c379a000000000000000000000000000000000000000000000000000000000\n      dup2\n      mstore\n      0x04\n      add\n      tag_207\n      swap1\n      tag_208\n      jump\t// in\n    tag_207:\n      mload(0x40)\n      dup1\n      swap2\n      sub\n      swap1\n      revert\n        /* \"contracts/RPS.sol\":2895:3081  if (msg.sender == player2... */\n    tag_206:\n        /* \"contracts/RPS.sol\":2773:3081  if (msg.sender == player1... */\n    tag_203:\n        /* \"contracts/RPS.sol\":3096:3114  Commit(msg.sender) */\n      0x599481bd81d46ea2372b7f45ab8900ac58961566f184806290d9ede4e0fc7641\n        /* \"contracts/RPS.sol\":3103:3113  msg.sender */\n      caller\n        /* \"contracts/RPS.sol\":3096:3114  Commit(msg.sender) */\n      mload(0x40)\n      tag_209\n      swap2\n      swap1\n      tag_24\n      jump\t// in\n    tag_209:\n      mload(0x40)\n      dup1\n      swap2\n      sub\n      swap1\n      log1\n        /* \"contracts/RPS.sol\":3137:3154  Stage.FirstCommit */\n      0x00\n        /* \"contracts/RPS.sol\":3128:3154  stage == Stage.FirstCommit */\n      0x04\n      dup2\n      gt\n      iszero\n      tag_210\n      jumpi\n      tag_211\n      tag_73\n      jump\t// in\n    tag_211:\n    tag_210:\n        /* \"contracts/RPS.sol\":3128:3133  stage */\n      0x04\n      0x14\n      swap1\n      sload\n      swap1\n      0x0100\n      exp\n      swap1\n      div\n      0xff\n      and\n        /* \"contracts/RPS.sol\":3128:3154  stage == Stage.FirstCommit */\n      0x04\n      dup2\n      gt\n      iszero\n      tag_212\n      jumpi\n      tag_213\n      tag_73\n      jump\t// in\n    tag_213:\n    tag_212:\n      eq\n        /* \"contracts/RPS.sol\":3125:3223  if(stage == Stage.FirstCommit) stage = Stage.SecondCommit;... */\n      iszero\n      tag_214\n      jumpi\n        /* \"contracts/RPS.sol\":3164:3182  Stage.SecondCommit */\n      0x01\n        /* \"contracts/RPS.sol\":3156:3161  stage */\n      0x04\n      0x14\n        /* \"contracts/RPS.sol\":3156:3182  stage = Stage.SecondCommit */\n      0x0100\n      exp\n      dup2\n      sload\n      dup2\n      0xff\n      mul\n      not\n      and\n      swap1\n      dup4\n      0x04\n      dup2\n      gt\n      iszero\n      tag_215\n      jumpi\n      tag_216\n      tag_73\n      jump\t// in\n    tag_216:\n    tag_215:\n      mul\n      or\n      swap1\n      sstore\n      pop\n        /* \"contracts/RPS.sol\":3125:3223  if(stage == Stage.FirstCommit) stage = Stage.SecondCommit;... */\n      jump(tag_217)\n    tag_214:\n        /* \"contracts/RPS.sol\":3206:3223  Stage.FirstReveal */\n      0x02\n        /* \"contracts/RPS.sol\":3198:3203  stage */\n      0x04\n      0x14\n        /* \"contracts/RPS.sol\":3198:3223  stage = Stage.FirstReveal */\n      0x0100\n      exp\n      dup2\n      sload\n      dup2\n      0xff\n      mul\n      not\n      and\n      swap1\n      dup4\n      0x04\n      dup2\n      gt\n      iszero\n      tag_218\n      jumpi\n      tag_219\n      tag_73\n      jump\t// in\n    tag_219:\n    tag_218:\n      mul\n      or\n      swap1\n      sstore\n      pop\n        /* \"contracts/RPS.sol\":3125:3223  if(stage == Stage.FirstCommit) stage = Stage.SecondCommit;... */\n    tag_217:\n        /* \"contracts/RPS.sol\":2636:3230  function makeChoice(bytes32 hash) isPlayer public {... */\n      pop\n      jump\t// out\n        /* \"@openzeppelin/contracts/utils/Strings.sol\":415:1111  function toString(uint256 value) internal pure returns (string memory) {... */\n    tag_139:\n        /* \"@openzeppelin/contracts/utils/Strings.sol\":471:484  string memory */\n      0x60\n        /* \"@openzeppelin/contracts/utils/Strings.sol\":520:534  uint256 length */\n      0x00\n        /* \"@openzeppelin/contracts/utils/Strings.sol\":557:558  1 */\n      0x01\n        /* \"@openzeppelin/contracts/utils/Strings.sol\":537:554  Math.log10(value) */\n      tag_221\n        /* \"@openzeppelin/contracts/utils/Strings.sol\":548:553  value */\n      dup5\n        /* \"@openzeppelin/contracts/utils/Strings.sol\":537:547  Math.log10 */\n      tag_222\n        /* \"@openzeppelin/contracts/utils/Strings.sol\":537:554  Math.log10(value) */\n      jump\t// in\n    tag_221:\n        /* \"@openzeppelin/contracts/utils/Strings.sol\":537:558  Math.log10(value) + 1 */\n      add\n        /* \"@openzeppelin/contracts/utils/Strings.sol\":520:558  uint256 length = Math.log10(value) + 1 */\n      swap1\n      pop\n        /* \"@openzeppelin/contracts/utils/Strings.sol\":572:592  string memory buffer */\n      0x00\n        /* \"@openzeppelin/contracts/utils/Strings.sol\":606:612  length */\n      dup2\n        /* \"@openzeppelin/contracts/utils/Strings.sol\":595:613  new string(length) */\n      0xffffffffffffffff\n      dup2\n      gt\n      iszero\n      tag_223\n      jumpi\n      tag_224\n      tag_225\n      jump\t// in\n    tag_224:\n    tag_223:\n      mload(0x40)\n      swap1\n      dup1\n      dup3\n      mstore\n      dup1\n      0x1f\n      add\n      not(0x1f)\n      and\n      0x20\n      add\n      dup3\n      add\n      0x40\n      mstore\n      dup1\n      iszero\n      tag_226\n      jumpi\n      dup2\n      0x20\n      add\n      0x01\n      dup3\n      mul\n      dup1\n      calldatasize\n      dup4\n      calldatacopy\n      dup1\n      dup3\n      add\n      swap2\n      pop\n      pop\n      swap1\n      pop\n    tag_226:\n      pop\n        /* \"@openzeppelin/contracts/utils/Strings.sol\":572:613  string memory buffer = new string(length) */\n      swap1\n      pop\n        /* \"@openzeppelin/contracts/utils/Strings.sol\":627:638  uint256 ptr */\n      0x00\n        /* \"@openzeppelin/contracts/utils/Strings.sol\":753:759  length */\n      dup3\n        /* \"@openzeppelin/contracts/utils/Strings.sol\":749:751  32 */\n      0x20\n        /* \"@openzeppelin/contracts/utils/Strings.sol\":745:760  add(32, length) */\n      add\n        /* \"@openzeppelin/contracts/utils/Strings.sol\":737:743  buffer */\n      dup3\n        /* \"@openzeppelin/contracts/utils/Strings.sol\":733:761  add(buffer, add(32, length)) */\n      add\n        /* \"@openzeppelin/contracts/utils/Strings.sol\":726:761  ptr := add(buffer, add(32, length)) */\n      swap1\n      pop\n        /* \"@openzeppelin/contracts/utils/Strings.sol\":788:1068  while (true) {... */\n    tag_227:\n        /* \"@openzeppelin/contracts/utils/Strings.sol\":795:799  true */\n      0x01\n        /* \"@openzeppelin/contracts/utils/Strings.sol\":788:1068  while (true) {... */\n      iszero\n      tag_228\n      jumpi\n        /* \"@openzeppelin/contracts/utils/Strings.sol\":819:824  ptr-- */\n      dup1\n      dup1\n      0x01\n      swap1\n      sub\n      swap2\n      pop\n      pop\n        /* \"@openzeppelin/contracts/utils/Strings.sol\":958:966  _SYMBOLS */\n      0x3031323334353637383961626364656600000000000000000000000000000000\n        /* \"@openzeppelin/contracts/utils/Strings.sol\":953:955  10 */\n      0x0a\n        /* \"@openzeppelin/contracts/utils/Strings.sol\":946:951  value */\n      dup7\n        /* \"@openzeppelin/contracts/utils/Strings.sol\":942:956  mod(value, 10) */\n      mod\n        /* \"@openzeppelin/contracts/utils/Strings.sol\":937:967  byte(mod(value, 10), _SYMBOLS) */\n      byte\n        /* \"@openzeppelin/contracts/utils/Strings.sol\":932:935  ptr */\n      dup2\n        /* \"@openzeppelin/contracts/utils/Strings.sol\":924:968  mstore8(ptr, byte(mod(value, 10), _SYMBOLS)) */\n      mstore8\n        /* \"@openzeppelin/contracts/utils/Strings.sol\":1012:1014  10 */\n      0x0a\n        /* \"@openzeppelin/contracts/utils/Strings.sol\":1003:1014  value /= 10 */\n      dup6\n      dup2\n      tag_229\n      jumpi\n      tag_230\n      tag_231\n      jump\t// in\n    tag_230:\n    tag_229:\n      div\n      swap5\n      pop\n        /* \"@openzeppelin/contracts/utils/Strings.sol\":1045:1046  0 */\n      0x00\n        /* \"@openzeppelin/contracts/utils/Strings.sol\":1036:1041  value */\n      dup6\n        /* \"@openzeppelin/contracts/utils/Strings.sol\":1036:1046  value == 0 */\n      eq\n        /* \"@openzeppelin/contracts/utils/Strings.sol\":1032:1053  if (value == 0) break */\n      iszero\n      tag_232\n      jumpi\n        /* \"@openzeppelin/contracts/utils/Strings.sol\":1048:1053  break */\n      jump(tag_228)\n        /* \"@openzeppelin/contracts/utils/Strings.sol\":1032:1053  if (value == 0) break */\n    tag_232:\n        /* \"@openzeppelin/contracts/utils/Strings.sol\":788:1068  while (true) {... */\n      jump(tag_227)\n    tag_228:\n        /* \"@openzeppelin/contracts/utils/Strings.sol\":1088:1094  buffer */\n      dup2\n        /* \"@openzeppelin/contracts/utils/Strings.sol\":1081:1094  return buffer */\n      swap4\n      pop\n      pop\n      pop\n      pop\n        /* \"@openzeppelin/contracts/utils/Strings.sol\":415:1111  function toString(uint256 value) internal pure returns (string memory) {... */\n      swap2\n      swap1\n      pop\n      jump\t// out\n        /* \"@openzeppelin/contracts/utils/math/Math.sol\":9889:10779  function log10(uint256 value) internal pure returns (uint256) {... */\n    tag_222:\n        /* \"@openzeppelin/contracts/utils/math/Math.sol\":9942:9949  uint256 */\n      0x00\n        /* \"@openzeppelin/contracts/utils/math/Math.sol\":9961:9975  uint256 result */\n      dup1\n        /* \"@openzeppelin/contracts/utils/math/Math.sol\":9978:9979  0 */\n      0x00\n        /* \"@openzeppelin/contracts/utils/math/Math.sol\":9961:9979  uint256 result = 0 */\n      swap1\n      pop\n        /* \"@openzeppelin/contracts/utils/math/Math.sol\":10026:10032  10**64 */\n      0x184f03e93ff9f4daa797ed6e38ed64bf6a1f010000000000000000\n        /* \"@openzeppelin/contracts/utils/math/Math.sol\":10017:10022  value */\n      dup4\n        /* \"@openzeppelin/contracts/utils/math/Math.sol\":10017:10032  value >= 10**64 */\n      lt\n        /* \"@openzeppelin/contracts/utils/math/Math.sol\":10013:10112  if (value >= 10**64) {... */\n      tag_234\n      jumpi\n        /* \"@openzeppelin/contracts/utils/math/Math.sol\":10061:10067  10**64 */\n      0x184f03e93ff9f4daa797ed6e38ed64bf6a1f010000000000000000\n        /* \"@openzeppelin/contracts/utils/math/Math.sol\":10052:10067  value /= 10**64 */\n      dup4\n      dup2\n      tag_235\n      jumpi\n      tag_236\n      tag_231\n      jump\t// in\n    tag_236:\n    tag_235:\n      div\n      swap3\n      pop\n        /* \"@openzeppelin/contracts/utils/math/Math.sol\":10095:10097  64 */\n      0x40\n        /* \"@openzeppelin/contracts/utils/math/Math.sol\":10085:10097  result += 64 */\n      dup2\n      add\n      swap1\n      pop\n        /* \"@openzeppelin/contracts/utils/math/Math.sol\":10013:10112  if (value >= 10**64) {... */\n    tag_234:\n        /* \"@openzeppelin/contracts/utils/math/Math.sol\":10138:10144  10**32 */\n      0x04ee2d6d415b85acef8100000000\n        /* \"@openzeppelin/contracts/utils/math/Math.sol\":10129:10134  value */\n      dup4\n        /* \"@openzeppelin/contracts/utils/math/Math.sol\":10129:10144  value >= 10**32 */\n      lt\n        /* \"@openzeppelin/contracts/utils/math/Math.sol\":10125:10224  if (value >= 10**32) {... */\n      tag_237\n      jumpi\n        /* \"@openzeppelin/contracts/utils/math/Math.sol\":10173:10179  10**32 */\n      0x04ee2d6d415b85acef8100000000\n        /* \"@openzeppelin/contracts/utils/math/Math.sol\":10164:10179  value /= 10**32 */\n      dup4\n      dup2\n      tag_238\n      jumpi\n      tag_239\n      tag_231\n      jump\t// in\n    tag_239:\n    tag_238:\n      div\n      swap3\n      pop\n        /* \"@openzeppelin/contracts/utils/math/Math.sol\":10207:10209  32 */\n      0x20\n        /* \"@openzeppelin/contracts/utils/math/Math.sol\":10197:10209  result += 32 */\n      dup2\n      add\n      swap1\n      pop\n        /* \"@openzeppelin/contracts/utils/math/Math.sol\":10125:10224  if (value >= 10**32) {... */\n    tag_237:\n        /* \"@openzeppelin/contracts/utils/math/Math.sol\":10250:10256  10**16 */\n      0x2386f26fc10000\n        /* \"@openzeppelin/contracts/utils/math/Math.sol\":10241:10246  value */\n      dup4\n        /* \"@openzeppelin/contracts/utils/math/Math.sol\":10241:10256  value >= 10**16 */\n      lt\n        /* \"@openzeppelin/contracts/utils/math/Math.sol\":10237:10336  if (value >= 10**16) {... */\n      tag_240\n      jumpi\n        /* \"@openzeppelin/contracts/utils/math/Math.sol\":10285:10291  10**16 */\n      0x2386f26fc10000\n        /* \"@openzeppelin/contracts/utils/math/Math.sol\":10276:10291  value /= 10**16 */\n      dup4\n      dup2\n      tag_241\n      jumpi\n      tag_242\n      tag_231\n      jump\t// in\n    tag_242:\n    tag_241:\n      div\n      swap3\n      pop\n        /* \"@openzeppelin/contracts/utils/math/Math.sol\":10319:10321  16 */\n      0x10\n        /* \"@openzeppelin/contracts/utils/math/Math.sol\":10309:10321  result += 16 */\n      dup2\n      add\n      swap1\n      pop\n        /* \"@openzeppelin/contracts/utils/math/Math.sol\":10237:10336  if (value >= 10**16) {... */\n    tag_240:\n        /* \"@openzeppelin/contracts/utils/math/Math.sol\":10362:10367  10**8 */\n      0x05f5e100\n        /* \"@openzeppelin/contracts/utils/math/Math.sol\":10353:10358  value */\n      dup4\n        /* \"@openzeppelin/contracts/utils/math/Math.sol\":10353:10367  value >= 10**8 */\n      lt\n        /* \"@openzeppelin/contracts/utils/math/Math.sol\":10349:10445  if (value >= 10**8) {... */\n      tag_243\n      jumpi\n        /* \"@openzeppelin/contracts/utils/math/Math.sol\":10396:10401  10**8 */\n      0x05f5e100\n        /* \"@openzeppelin/contracts/utils/math/Math.sol\":10387:10401  value /= 10**8 */\n      dup4\n      dup2\n      tag_244\n      jumpi\n      tag_245\n      tag_231\n      jump\t// in\n    tag_245:\n    tag_244:\n      div\n      swap3\n      pop\n        /* \"@openzeppelin/contracts/utils/math/Math.sol\":10429:10430  8 */\n      0x08\n        /* \"@openzeppelin/contracts/utils/math/Math.sol\":10419:10430  result += 8 */\n      dup2\n      add\n      swap1\n      pop\n        /* \"@openzeppelin/contracts/utils/math/Math.sol\":10349:10445  if (value >= 10**8) {... */\n    tag_243:\n        /* \"@openzeppelin/contracts/utils/math/Math.sol\":10471:10476  10**4 */\n      0x2710\n        /* \"@openzeppelin/contracts/utils/math/Math.sol\":10462:10467  value */\n      dup4\n        /* \"@openzeppelin/contracts/utils/math/Math.sol\":10462:10476  value >= 10**4 */\n      lt\n        /* \"@openzeppelin/contracts/utils/math/Math.sol\":10458:10554  if (value >= 10**4) {... */\n      tag_246\n      jumpi\n        /* \"@openzeppelin/contracts/utils/math/Math.sol\":10505:10510  10**4 */\n      0x2710\n        /* \"@openzeppelin/contracts/utils/math/Math.sol\":10496:10510  value /= 10**4 */\n      dup4\n      dup2\n      tag_247\n      jumpi\n      tag_248\n      tag_231\n      jump\t// in\n    tag_248:\n    tag_247:\n      div\n      swap3\n      pop\n        /* \"@openzeppelin/contracts/utils/math/Math.sol\":10538:10539  4 */\n      0x04\n        /* \"@openzeppelin/contracts/utils/math/Math.sol\":10528:10539  result += 4 */\n      dup2\n      add\n      swap1\n      pop\n        /* \"@openzeppelin/contracts/utils/math/Math.sol\":10458:10554  if (value >= 10**4) {... */\n    tag_246:\n        /* \"@openzeppelin/contracts/utils/math/Math.sol\":10580:10585  10**2 */\n      0x64\n        /* \"@openzeppelin/contracts/utils/math/Math.sol\":10571:10576  value */\n      dup4\n        /* \"@openzeppelin/contracts/utils/math/Math.sol\":10571:10585  value >= 10**2 */\n      lt\n        /* \"@openzeppelin/contracts/utils/math/Math.sol\":10567:10663  if (value >= 10**2) {... */\n      tag_249\n      jumpi\n        /* \"@openzeppelin/contracts/utils/math/Math.sol\":10614:10619  10**2 */\n      0x64\n        /* \"@openzeppelin/contracts/utils/math/Math.sol\":10605:10619  value /= 10**2 */\n      dup4\n      dup2\n      tag_250\n      jumpi\n      tag_251\n      tag_231\n      jump\t// in\n    tag_251:\n    tag_250:\n      div\n      swap3\n      pop\n        /* \"@openzeppelin/contracts/utils/math/Math.sol\":10647:10648  2 */\n      0x02\n        /* \"@openzeppelin/contracts/utils/math/Math.sol\":10637:10648  result += 2 */\n      dup2\n      add\n      swap1\n      pop\n        /* \"@openzeppelin/contracts/utils/math/Math.sol\":10567:10663  if (value >= 10**2) {... */\n    tag_249:\n        /* \"@openzeppelin/contracts/utils/math/Math.sol\":10689:10694  10**1 */\n      0x0a\n        /* \"@openzeppelin/contracts/utils/math/Math.sol\":10680:10685  value */\n      dup4\n        /* \"@openzeppelin/contracts/utils/math/Math.sol\":10680:10694  value >= 10**1 */\n      lt\n        /* \"@openzeppelin/contracts/utils/math/Math.sol\":10676:10740  if (value >= 10**1) {... */\n      tag_252\n      jumpi\n        /* \"@openzeppelin/contracts/utils/math/Math.sol\":10724:10725  1 */\n      0x01\n        /* \"@openzeppelin/contracts/utils/math/Math.sol\":10714:10725  result += 1 */\n      dup2\n      add\n      swap1\n      pop\n        /* \"@openzeppelin/contracts/utils/math/Math.sol\":10676:10740  if (value >= 10**1) {... */\n    tag_252:\n        /* \"@openzeppelin/contracts/utils/math/Math.sol\":10766:10772  result */\n      dup1\n        /* \"@openzeppelin/contracts/utils/math/Math.sol\":10759:10772  return result */\n      swap2\n      pop\n      pop\n        /* \"@openzeppelin/contracts/utils/math/Math.sol\":9889:10779  function log10(uint256 value) internal pure returns (uint256) {... */\n      swap2\n      swap1\n      pop\n      jump\t// out\n        /* \"#utility.yul\":7:146   */\n    tag_254:\n        /* \"#utility.yul\":53:58   */\n      0x00\n        /* \"#utility.yul\":91:97   */\n      dup2\n        /* \"#utility.yul\":78:98   */\n      calldataload\n        /* \"#utility.yul\":69:98   */\n      swap1\n      pop\n        /* \"#utility.yul\":107:140   */\n      tag_256\n        /* \"#utility.yul\":134:139   */\n      dup2\n        /* \"#utility.yul\":107:140   */\n      tag_257\n      jump\t// in\n    tag_256:\n        /* \"#utility.yul\":7:146   */\n      swap3\n      swap2\n      pop\n      pop\n      jump\t// out\n        /* \"#utility.yul\":152:295   */\n    tag_258:\n        /* \"#utility.yul\":209:214   */\n      0x00\n        /* \"#utility.yul\":240:246   */\n      dup2\n        /* \"#utility.yul\":234:247   */\n      mload\n        /* \"#utility.yul\":225:247   */\n      swap1\n      pop\n        /* \"#utility.yul\":256:289   */\n      tag_260\n        /* \"#utility.yul\":283:288   */\n      dup2\n        /* \"#utility.yul\":256:289   */\n      tag_257\n      jump\t// in\n    tag_260:\n        /* \"#utility.yul\":152:295   */\n      swap3\n      swap2\n      pop\n      pop\n      jump\t// out\n        /* \"#utility.yul\":301:462   */\n    tag_261:\n        /* \"#utility.yul\":358:363   */\n      0x00\n        /* \"#utility.yul\":396:402   */\n      dup2\n        /* \"#utility.yul\":383:403   */\n      calldataload\n        /* \"#utility.yul\":374:403   */\n      swap1\n      pop\n        /* \"#utility.yul\":412:456   */\n      tag_263\n        /* \"#utility.yul\":450:455   */\n      dup2\n        /* \"#utility.yul\":412:456   */\n      tag_264\n      jump\t// in\n    tag_263:\n        /* \"#utility.yul\":301:462   */\n      swap3\n      swap2\n      pop\n      pop\n      jump\t// out\n        /* \"#utility.yul\":468:605   */\n    tag_265:\n        /* \"#utility.yul\":513:518   */\n      0x00\n        /* \"#utility.yul\":551:557   */\n      dup2\n        /* \"#utility.yul\":538:558   */\n      calldataload\n        /* \"#utility.yul\":529:558   */\n      swap1\n      pop\n        /* \"#utility.yul\":567:599   */\n      tag_267\n        /* \"#utility.yul\":593:598   */\n      dup2\n        /* \"#utility.yul\":567:599   */\n      tag_268\n      jump\t// in\n    tag_267:\n        /* \"#utility.yul\":468:605   */\n      swap3\n      swap2\n      pop\n      pop\n      jump\t// out\n        /* \"#utility.yul\":611:940   */\n    tag_67:\n        /* \"#utility.yul\":670:676   */\n      0x00\n        /* \"#utility.yul\":719:721   */\n      0x20\n        /* \"#utility.yul\":707:716   */\n      dup3\n        /* \"#utility.yul\":698:705   */\n      dup5\n        /* \"#utility.yul\":694:717   */\n      sub\n        /* \"#utility.yul\":690:722   */\n      slt\n        /* \"#utility.yul\":687:806   */\n      iszero\n      tag_270\n      jumpi\n        /* \"#utility.yul\":725:804   */\n      tag_271\n      tag_272\n      jump\t// in\n    tag_271:\n        /* \"#utility.yul\":687:806   */\n    tag_270:\n        /* \"#utility.yul\":845:846   */\n      0x00\n        /* \"#utility.yul\":870:923   */\n      tag_273\n        /* \"#utility.yul\":915:922   */\n      dup5\n        /* \"#utility.yul\":906:912   */\n      dup3\n        /* \"#utility.yul\":895:904   */\n      dup6\n        /* \"#utility.yul\":891:913   */\n      add\n        /* \"#utility.yul\":870:923   */\n      tag_254\n      jump\t// in\n    tag_273:\n        /* \"#utility.yul\":860:923   */\n      swap2\n      pop\n        /* \"#utility.yul\":816:933   */\n      pop\n        /* \"#utility.yul\":611:940   */\n      swap3\n      swap2\n      pop\n      pop\n      jump\t// out\n        /* \"#utility.yul\":946:1297   */\n    tag_148:\n        /* \"#utility.yul\":1016:1022   */\n      0x00\n        /* \"#utility.yul\":1065:1067   */\n      0x20\n        /* \"#utility.yul\":1053:1062   */\n      dup3\n        /* \"#utility.yul\":1044:1051   */\n      dup5\n        /* \"#utility.yul\":1040:1063   */\n      sub\n        /* \"#utility.yul\":1036:1068   */\n      slt\n        /* \"#utility.yul\":1033:1152   */\n      iszero\n      tag_275\n      jumpi\n        /* \"#utility.yul\":1071:1150   */\n      tag_276\n      tag_272\n      jump\t// in\n    tag_276:\n        /* \"#utility.yul\":1033:1152   */\n    tag_275:\n        /* \"#utility.yul\":1191:1192   */\n      0x00\n        /* \"#utility.yul\":1216:1280   */\n      tag_277\n        /* \"#utility.yul\":1272:1279   */\n      dup5\n        /* \"#utility.yul\":1263:1269   */\n      dup3\n        /* \"#utility.yul\":1252:1261   */\n      dup6\n        /* \"#utility.yul\":1248:1270   */\n      add\n        /* \"#utility.yul\":1216:1280   */\n      tag_258\n      jump\t// in\n    tag_277:\n        /* \"#utility.yul\":1206:1280   */\n      swap2\n      pop\n        /* \"#utility.yul\":1162:1290   */\n      pop\n        /* \"#utility.yul\":946:1297   */\n      swap3\n      swap2\n      pop\n      pop\n      jump\t// out\n        /* \"#utility.yul\":1303:1797   */\n    tag_42:\n        /* \"#utility.yul\":1381:1387   */\n      0x00\n        /* \"#utility.yul\":1389:1395   */\n      dup1\n        /* \"#utility.yul\":1438:1440   */\n      0x40\n        /* \"#utility.yul\":1426:1435   */\n      dup4\n        /* \"#utility.yul\":1417:1424   */\n      dup6\n        /* \"#utility.yul\":1413:1436   */\n      sub\n        /* \"#utility.yul\":1409:1441   */\n      slt\n        /* \"#utility.yul\":1406:1525   */\n      iszero\n      tag_279\n      jumpi\n        /* \"#utility.yul\":1444:1523   */\n      tag_280\n      tag_272\n      jump\t// in\n    tag_280:\n        /* \"#utility.yul\":1406:1525   */\n    tag_279:\n        /* \"#utility.yul\":1564:1565   */\n      0x00\n        /* \"#utility.yul\":1589:1653   */\n      tag_281\n        /* \"#utility.yul\":1645:1652   */\n      dup6\n        /* \"#utility.yul\":1636:1642   */\n      dup3\n        /* \"#utility.yul\":1625:1634   */\n      dup7\n        /* \"#utility.yul\":1621:1643   */\n      add\n        /* \"#utility.yul\":1589:1653   */\n      tag_261\n      jump\t// in\n    tag_281:\n        /* \"#utility.yul\":1579:1653   */\n      swap3\n      pop\n        /* \"#utility.yul\":1535:1663   */\n      pop\n        /* \"#utility.yul\":1702:1704   */\n      0x20\n        /* \"#utility.yul\":1728:1780   */\n      tag_282\n        /* \"#utility.yul\":1772:1779   */\n      dup6\n        /* \"#utility.yul\":1763:1769   */\n      dup3\n        /* \"#utility.yul\":1752:1761   */\n      dup7\n        /* \"#utility.yul\":1748:1770   */\n      add\n        /* \"#utility.yul\":1728:1780   */\n      tag_265\n      jump\t// in\n    tag_282:\n        /* \"#utility.yul\":1718:1780   */\n      swap2\n      pop\n        /* \"#utility.yul\":1673:1790   */\n      pop\n        /* \"#utility.yul\":1303:1797   */\n      swap3\n      pop\n      swap3\n      swap1\n      pop\n      jump\t// out\n        /* \"#utility.yul\":1803:1921   */\n    tag_283:\n        /* \"#utility.yul\":1890:1914   */\n      tag_285\n        /* \"#utility.yul\":1908:1913   */\n      dup2\n        /* \"#utility.yul\":1890:1914   */\n      tag_286\n      jump\t// in\n    tag_285:\n        /* \"#utility.yul\":1885:1888   */\n      dup3\n        /* \"#utility.yul\":1878:1915   */\n      mstore\n        /* \"#utility.yul\":1803:1921   */\n      pop\n      pop\n      jump\t// out\n        /* \"#utility.yul\":1927:2045   */\n    tag_287:\n        /* \"#utility.yul\":2014:2038   */\n      tag_289\n        /* \"#utility.yul\":2032:2037   */\n      dup2\n        /* \"#utility.yul\":2014:2038   */\n      tag_290\n      jump\t// in\n    tag_289:\n        /* \"#utility.yul\":2009:2012   */\n      dup3\n        /* \"#utility.yul\":2002:2039   */\n      mstore\n        /* \"#utility.yul\":1927:2045   */\n      pop\n      pop\n      jump\t// out\n        /* \"#utility.yul\":2051:2424   */\n    tag_291:\n        /* \"#utility.yul\":2155:2158   */\n      0x00\n        /* \"#utility.yul\":2183:2221   */\n      tag_293\n        /* \"#utility.yul\":2215:2220   */\n      dup3\n        /* \"#utility.yul\":2183:2221   */\n      tag_294\n      jump\t// in\n    tag_293:\n        /* \"#utility.yul\":2237:2325   */\n      tag_295\n        /* \"#utility.yul\":2318:2324   */\n      dup2\n        /* \"#utility.yul\":2313:2316   */\n      dup6\n        /* \"#utility.yul\":2237:2325   */\n      tag_296\n      jump\t// in\n    tag_295:\n        /* \"#utility.yul\":2230:2325   */\n      swap4\n      pop\n        /* \"#utility.yul\":2334:2386   */\n      tag_297\n        /* \"#utility.yul\":2379:2385   */\n      dup2\n        /* \"#utility.yul\":2374:2377   */\n      dup6\n        /* \"#utility.yul\":2367:2371   */\n      0x20\n        /* \"#utility.yul\":2360:2365   */\n      dup7\n        /* \"#utility.yul\":2356:2372   */\n      add\n        /* \"#utility.yul\":2334:2386   */\n      tag_298\n      jump\t// in\n    tag_297:\n        /* \"#utility.yul\":2411:2417   */\n      dup1\n        /* \"#utility.yul\":2406:2409   */\n      dup5\n        /* \"#utility.yul\":2402:2418   */\n      add\n        /* \"#utility.yul\":2395:2418   */\n      swap2\n      pop\n        /* \"#utility.yul\":2159:2424   */\n      pop\n        /* \"#utility.yul\":2051:2424   */\n      swap3\n      swap2\n      pop\n      pop\n      jump\t// out\n        /* \"#utility.yul\":2430:2577   */\n    tag_299:\n        /* \"#utility.yul\":2525:2570   */\n      tag_301\n        /* \"#utility.yul\":2564:2569   */\n      dup2\n        /* \"#utility.yul\":2525:2570   */\n      tag_302\n      jump\t// in\n    tag_301:\n        /* \"#utility.yul\":2520:2523   */\n      dup3\n        /* \"#utility.yul\":2513:2571   */\n      mstore\n        /* \"#utility.yul\":2430:2577   */\n      pop\n      pop\n      jump\t// out\n        /* \"#utility.yul\":2583:2732   */\n    tag_303:\n        /* \"#utility.yul\":2679:2725   */\n      tag_305\n        /* \"#utility.yul\":2719:2724   */\n      dup2\n        /* \"#utility.yul\":2679:2725   */\n      tag_306\n      jump\t// in\n    tag_305:\n        /* \"#utility.yul\":2674:2677   */\n      dup3\n        /* \"#utility.yul\":2667:2726   */\n      mstore\n        /* \"#utility.yul\":2583:2732   */\n      pop\n      pop\n      jump\t// out\n        /* \"#utility.yul\":2738:3104   */\n    tag_307:\n        /* \"#utility.yul\":2880:2883   */\n      0x00\n        /* \"#utility.yul\":2901:2968   */\n      tag_309\n        /* \"#utility.yul\":2965:2967   */\n      0x10\n        /* \"#utility.yul\":2960:2963   */\n      dup4\n        /* \"#utility.yul\":2901:2968   */\n      tag_310\n      jump\t// in\n    tag_309:\n        /* \"#utility.yul\":2894:2968   */\n      swap2\n      pop\n        /* \"#utility.yul\":2977:3070   */\n      tag_311\n        /* \"#utility.yul\":3066:3069   */\n      dup3\n        /* \"#utility.yul\":2977:3070   */\n      tag_312\n      jump\t// in\n    tag_311:\n        /* \"#utility.yul\":3095:3097   */\n      0x20\n        /* \"#utility.yul\":3090:3093   */\n      dup3\n        /* \"#utility.yul\":3086:3098   */\n      add\n        /* \"#utility.yul\":3079:3098   */\n      swap1\n      pop\n        /* \"#utility.yul\":2738:3104   */\n      swap2\n      swap1\n      pop\n      jump\t// out\n        /* \"#utility.yul\":3110:3476   */\n    tag_313:\n        /* \"#utility.yul\":3252:3255   */\n      0x00\n        /* \"#utility.yul\":3273:3340   */\n      tag_315\n        /* \"#utility.yul\":3337:3339   */\n      0x1d\n        /* \"#utility.yul\":3332:3335   */\n      dup4\n        /* \"#utility.yul\":3273:3340   */\n      tag_310\n      jump\t// in\n    tag_315:\n        /* \"#utility.yul\":3266:3340   */\n      swap2\n      pop\n        /* \"#utility.yul\":3349:3442   */\n      tag_316\n        /* \"#utility.yul\":3438:3441   */\n      dup3\n        /* \"#utility.yul\":3349:3442   */\n      tag_317\n      jump\t// in\n    tag_316:\n        /* \"#utility.yul\":3467:3469   */\n      0x20\n        /* \"#utility.yul\":3462:3465   */\n      dup3\n        /* \"#utility.yul\":3458:3470   */\n      add\n        /* \"#utility.yul\":3451:3470   */\n      swap1\n      pop\n        /* \"#utility.yul\":3110:3476   */\n      swap2\n      swap1\n      pop\n      jump\t// out\n        /* \"#utility.yul\":3482:3848   */\n    tag_318:\n        /* \"#utility.yul\":3624:3627   */\n      0x00\n        /* \"#utility.yul\":3645:3712   */\n      tag_320\n        /* \"#utility.yul\":3709:3711   */\n      0x0f\n        /* \"#utility.yul\":3704:3707   */\n      dup4\n        /* \"#utility.yul\":3645:3712   */\n      tag_310\n      jump\t// in\n    tag_320:\n        /* \"#utility.yul\":3638:3712   */\n      swap2\n      pop\n        /* \"#utility.yul\":3721:3814   */\n      tag_321\n        /* \"#utility.yul\":3810:3813   */\n      dup3\n        /* \"#utility.yul\":3721:3814   */\n      tag_322\n      jump\t// in\n    tag_321:\n        /* \"#utility.yul\":3839:3841   */\n      0x20\n        /* \"#utility.yul\":3834:3837   */\n      dup3\n        /* \"#utility.yul\":3830:3842   */\n      add\n        /* \"#utility.yul\":3823:3842   */\n      swap1\n      pop\n        /* \"#utility.yul\":3482:3848   */\n      swap2\n      swap1\n      pop\n      jump\t// out\n        /* \"#utility.yul\":3854:4220   */\n    tag_323:\n        /* \"#utility.yul\":3996:3999   */\n      0x00\n        /* \"#utility.yul\":4017:4084   */\n      tag_325\n        /* \"#utility.yul\":4081:4083   */\n      0x1e\n        /* \"#utility.yul\":4076:4079   */\n      dup4\n        /* \"#utility.yul\":4017:4084   */\n      tag_310\n      jump\t// in\n    tag_325:\n        /* \"#utility.yul\":4010:4084   */\n      swap2\n      pop\n        /* \"#utility.yul\":4093:4186   */\n      tag_326\n        /* \"#utility.yul\":4182:4185   */\n      dup3\n        /* \"#utility.yul\":4093:4186   */\n      tag_327\n      jump\t// in\n    tag_326:\n        /* \"#utility.yul\":4211:4213   */\n      0x20\n        /* \"#utility.yul\":4206:4209   */\n      dup3\n        /* \"#utility.yul\":4202:4214   */\n      add\n        /* \"#utility.yul\":4195:4214   */\n      swap1\n      pop\n        /* \"#utility.yul\":3854:4220   */\n      swap2\n      swap1\n      pop\n      jump\t// out\n        /* \"#utility.yul\":4226:4592   */\n    tag_328:\n        /* \"#utility.yul\":4368:4371   */\n      0x00\n        /* \"#utility.yul\":4389:4456   */\n      tag_330\n        /* \"#utility.yul\":4453:4455   */\n      0x11\n        /* \"#utility.yul\":4448:4451   */\n      dup4\n        /* \"#utility.yul\":4389:4456   */\n      tag_310\n      jump\t// in\n    tag_330:\n        /* \"#utility.yul\":4382:4456   */\n      swap2\n      pop\n        /* \"#utility.yul\":4465:4558   */\n      tag_331\n        /* \"#utility.yul\":4554:4557   */\n      dup3\n        /* \"#utility.yul\":4465:4558   */\n      tag_332\n      jump\t// in\n    tag_331:\n        /* \"#utility.yul\":4583:4585   */\n      0x20\n        /* \"#utility.yul\":4578:4581   */\n      dup3\n        /* \"#utility.yul\":4574:4586   */\n      add\n        /* \"#utility.yul\":4567:4586   */\n      swap1\n      pop\n        /* \"#utility.yul\":4226:4592   */\n      swap2\n      swap1\n      pop\n      jump\t// out\n        /* \"#utility.yul\":4598:4964   */\n    tag_333:\n        /* \"#utility.yul\":4740:4743   */\n      0x00\n        /* \"#utility.yul\":4761:4828   */\n      tag_335\n        /* \"#utility.yul\":4825:4827   */\n      0x0e\n        /* \"#utility.yul\":4820:4823   */\n      dup4\n        /* \"#utility.yul\":4761:4828   */\n      tag_310\n      jump\t// in\n    tag_335:\n        /* \"#utility.yul\":4754:4828   */\n      swap2\n      pop\n        /* \"#utility.yul\":4837:4930   */\n      tag_336\n        /* \"#utility.yul\":4926:4929   */\n      dup3\n        /* \"#utility.yul\":4837:4930   */\n      tag_337\n      jump\t// in\n    tag_336:\n        /* \"#utility.yul\":4955:4957   */\n      0x20\n        /* \"#utility.yul\":4950:4953   */\n      dup3\n        /* \"#utility.yul\":4946:4958   */\n      add\n        /* \"#utility.yul\":4939:4958   */\n      swap1\n      pop\n        /* \"#utility.yul\":4598:4964   */\n      swap2\n      swap1\n      pop\n      jump\t// out\n        /* \"#utility.yul\":4970:5241   */\n    tag_144:\n        /* \"#utility.yul\":5100:5103   */\n      0x00\n        /* \"#utility.yul\":5122:5215   */\n      tag_339\n        /* \"#utility.yul\":5211:5214   */\n      dup3\n        /* \"#utility.yul\":5202:5208   */\n      dup5\n        /* \"#utility.yul\":5122:5215   */\n      tag_291\n      jump\t// in\n    tag_339:\n        /* \"#utility.yul\":5115:5215   */\n      swap2\n      pop\n        /* \"#utility.yul\":5232:5235   */\n      dup2\n        /* \"#utility.yul\":5225:5235   */\n      swap1\n      pop\n        /* \"#utility.yul\":4970:5241   */\n      swap3\n      swap2\n      pop\n      pop\n      jump\t// out\n        /* \"#utility.yul\":5247:5674   */\n    tag_142:\n        /* \"#utility.yul\":5423:5426   */\n      0x00\n        /* \"#utility.yul\":5445:5538   */\n      tag_341\n        /* \"#utility.yul\":5534:5537   */\n      dup3\n        /* \"#utility.yul\":5525:5531   */\n      dup6\n        /* \"#utility.yul\":5445:5538   */\n      tag_291\n      jump\t// in\n    tag_341:\n        /* \"#utility.yul\":5438:5538   */\n      swap2\n      pop\n        /* \"#utility.yul\":5555:5648   */\n      tag_342\n        /* \"#utility.yul\":5644:5647   */\n      dup3\n        /* \"#utility.yul\":5635:5641   */\n      dup5\n        /* \"#utility.yul\":5555:5648   */\n      tag_291\n      jump\t// in\n    tag_342:\n        /* \"#utility.yul\":5548:5648   */\n      swap2\n      pop\n        /* \"#utility.yul\":5665:5668   */\n      dup2\n        /* \"#utility.yul\":5658:5668   */\n      swap1\n      pop\n        /* \"#utility.yul\":5247:5674   */\n      swap4\n      swap3\n      pop\n      pop\n      pop\n      jump\t// out\n        /* \"#utility.yul\":5680:5902   */\n    tag_24:\n        /* \"#utility.yul\":5773:5777   */\n      0x00\n        /* \"#utility.yul\":5811:5813   */\n      0x20\n        /* \"#utility.yul\":5800:5809   */\n      dup3\n        /* \"#utility.yul\":5796:5814   */\n      add\n        /* \"#utility.yul\":5788:5814   */\n      swap1\n      pop\n        /* \"#utility.yul\":5824:5895   */\n      tag_344\n        /* \"#utility.yul\":5892:5893   */\n      0x00\n        /* \"#utility.yul\":5881:5890   */\n      dup4\n        /* \"#utility.yul\":5877:5894   */\n      add\n        /* \"#utility.yul\":5868:5874   */\n      dup5\n        /* \"#utility.yul\":5824:5895   */\n      tag_283\n      jump\t// in\n    tag_344:\n        /* \"#utility.yul\":5680:5902   */\n      swap3\n      swap2\n      pop\n      pop\n      jump\t// out\n        /* \"#utility.yul\":5908:6258   */\n    tag_161:\n        /* \"#utility.yul\":6038:6042   */\n      0x00\n        /* \"#utility.yul\":6076:6078   */\n      0x40\n        /* \"#utility.yul\":6065:6074   */\n      dup3\n        /* \"#utility.yul\":6061:6079   */\n      add\n        /* \"#utility.yul\":6053:6079   */\n      swap1\n      pop\n        /* \"#utility.yul\":6089:6160   */\n      tag_346\n        /* \"#utility.yul\":6157:6158   */\n      0x00\n        /* \"#utility.yul\":6146:6155   */\n      dup4\n        /* \"#utility.yul\":6142:6159   */\n      add\n        /* \"#utility.yul\":6133:6139   */\n      dup6\n        /* \"#utility.yul\":6089:6160   */\n      tag_283\n      jump\t// in\n    tag_346:\n        /* \"#utility.yul\":6170:6251   */\n      tag_347\n        /* \"#utility.yul\":6247:6249   */\n      0x20\n        /* \"#utility.yul\":6236:6245   */\n      dup4\n        /* \"#utility.yul\":6232:6250   */\n      add\n        /* \"#utility.yul\":6223:6229   */\n      dup5\n        /* \"#utility.yul\":6170:6251   */\n      tag_303\n      jump\t// in\n    tag_347:\n        /* \"#utility.yul\":5908:6258   */\n      swap4\n      swap3\n      pop\n      pop\n      pop\n      jump\t// out\n        /* \"#utility.yul\":6264:6486   */\n    tag_39:\n        /* \"#utility.yul\":6357:6361   */\n      0x00\n        /* \"#utility.yul\":6395:6397   */\n      0x20\n        /* \"#utility.yul\":6384:6393   */\n      dup3\n        /* \"#utility.yul\":6380:6398   */\n      add\n        /* \"#utility.yul\":6372:6398   */\n      swap1\n      pop\n        /* \"#utility.yul\":6408:6479   */\n      tag_349\n        /* \"#utility.yul\":6476:6477   */\n      0x00\n        /* \"#utility.yul\":6465:6474   */\n      dup4\n        /* \"#utility.yul\":6461:6478   */\n      add\n        /* \"#utility.yul\":6452:6458   */\n      dup5\n        /* \"#utility.yul\":6408:6479   */\n      tag_287\n      jump\t// in\n    tag_349:\n        /* \"#utility.yul\":6264:6486   */\n      swap3\n      swap2\n      pop\n      pop\n      jump\t// out\n        /* \"#utility.yul\":6492:6730   */\n    tag_49:\n        /* \"#utility.yul\":6593:6597   */\n      0x00\n        /* \"#utility.yul\":6631:6633   */\n      0x20\n        /* \"#utility.yul\":6620:6629   */\n      dup3\n        /* \"#utility.yul\":6616:6634   */\n      add\n        /* \"#utility.yul\":6608:6634   */\n      swap1\n      pop\n        /* \"#utility.yul\":6644:6723   */\n      tag_351\n        /* \"#utility.yul\":6720:6721   */\n      0x00\n        /* \"#utility.yul\":6709:6718   */\n      dup4\n        /* \"#utility.yul\":6705:6722   */\n      add\n        /* \"#utility.yul\":6696:6702   */\n      dup5\n        /* \"#utility.yul\":6644:6723   */\n      tag_299\n      jump\t// in\n    tag_351:\n        /* \"#utility.yul\":6492:6730   */\n      swap3\n      swap2\n      pop\n      pop\n      jump\t// out\n        /* \"#utility.yul\":6736:6976   */\n    tag_28:\n        /* \"#utility.yul\":6838:6842   */\n      0x00\n        /* \"#utility.yul\":6876:6878   */\n      0x20\n        /* \"#utility.yul\":6865:6874   */\n      dup3\n        /* \"#utility.yul\":6861:6879   */\n      add\n        /* \"#utility.yul\":6853:6879   */\n      swap1\n      pop\n        /* \"#utility.yul\":6889:6969   */\n      tag_353\n        /* \"#utility.yul\":6966:6967   */\n      0x00\n        /* \"#utility.yul\":6955:6964   */\n      dup4\n        /* \"#utility.yul\":6951:6968   */\n      add\n        /* \"#utility.yul\":6942:6948   */\n      dup5\n        /* \"#utility.yul\":6889:6969   */\n      tag_303\n      jump\t// in\n    tag_353:\n        /* \"#utility.yul\":6736:6976   */\n      swap3\n      swap2\n      pop\n      pop\n      jump\t// out\n        /* \"#utility.yul\":6982:7401   */\n    tag_155:\n        /* \"#utility.yul\":7148:7152   */\n      0x00\n        /* \"#utility.yul\":7186:7188   */\n      0x20\n        /* \"#utility.yul\":7175:7184   */\n      dup3\n        /* \"#utility.yul\":7171:7189   */\n      add\n        /* \"#utility.yul\":7163:7189   */\n      swap1\n      pop\n        /* \"#utility.yul\":7235:7244   */\n      dup2\n        /* \"#utility.yul\":7229:7233   */\n      dup2\n        /* \"#utility.yul\":7225:7245   */\n      sub\n        /* \"#utility.yul\":7221:7222   */\n      0x00\n        /* \"#utility.yul\":7210:7219   */\n      dup4\n        /* \"#utility.yul\":7206:7223   */\n      add\n        /* \"#utility.yul\":7199:7246   */\n      mstore\n        /* \"#utility.yul\":7263:7394   */\n      tag_355\n        /* \"#utility.yul\":7389:7393   */\n      dup2\n        /* \"#utility.yul\":7263:7394   */\n      tag_307\n      jump\t// in\n    tag_355:\n        /* \"#utility.yul\":7255:7394   */\n      swap1\n      pop\n        /* \"#utility.yul\":6982:7401   */\n      swap2\n      swap1\n      pop\n      jump\t// out\n        /* \"#utility.yul\":7407:7826   */\n    tag_208:\n        /* \"#utility.yul\":7573:7577   */\n      0x00\n        /* \"#utility.yul\":7611:7613   */\n      0x20\n        /* \"#utility.yul\":7600:7609   */\n      dup3\n        /* \"#utility.yul\":7596:7614   */\n      add\n        /* \"#utility.yul\":7588:7614   */\n      swap1\n      pop\n        /* \"#utility.yul\":7660:7669   */\n      dup2\n        /* \"#utility.yul\":7654:7658   */\n      dup2\n        /* \"#utility.yul\":7650:7670   */\n      sub\n        /* \"#utility.yul\":7646:7647   */\n      0x00\n        /* \"#utility.yul\":7635:7644   */\n      dup4\n        /* \"#utility.yul\":7631:7648   */\n      add\n        /* \"#utility.yul\":7624:7671   */\n      mstore\n        /* \"#utility.yul\":7688:7819   */\n      tag_357\n        /* \"#utility.yul\":7814:7818   */\n      dup2\n        /* \"#utility.yul\":7688:7819   */\n      tag_313\n      jump\t// in\n    tag_357:\n        /* \"#utility.yul\":7680:7819   */\n      swap1\n      pop\n        /* \"#utility.yul\":7407:7826   */\n      swap2\n      swap1\n      pop\n      jump\t// out\n        /* \"#utility.yul\":7832:8251   */\n    tag_90:\n        /* \"#utility.yul\":7998:8002   */\n      0x00\n        /* \"#utility.yul\":8036:8038   */\n      0x20\n        /* \"#utility.yul\":8025:8034   */\n      dup3\n        /* \"#utility.yul\":8021:8039   */\n      add\n        /* \"#utility.yul\":8013:8039   */\n      swap1\n      pop\n        /* \"#utility.yul\":8085:8094   */\n      dup2\n        /* \"#utility.yul\":8079:8083   */\n      dup2\n        /* \"#utility.yul\":8075:8095   */\n      sub\n        /* \"#utility.yul\":8071:8072   */\n      0x00\n        /* \"#utility.yul\":8060:8069   */\n      dup4\n        /* \"#utility.yul\":8056:8073   */\n      add\n        /* \"#utility.yul\":8049:8096   */\n      mstore\n        /* \"#utility.yul\":8113:8244   */\n      tag_359\n        /* \"#utility.yul\":8239:8243   */\n      dup2\n        /* \"#utility.yul\":8113:8244   */\n      tag_318\n      jump\t// in\n    tag_359:\n        /* \"#utility.yul\":8105:8244   */\n      swap1\n      pop\n        /* \"#utility.yul\":7832:8251   */\n      swap2\n      swap1\n      pop\n      jump\t// out\n        /* \"#utility.yul\":8257:8676   */\n    tag_82:\n        /* \"#utility.yul\":8423:8427   */\n      0x00\n        /* \"#utility.yul\":8461:8463   */\n      0x20\n        /* \"#utility.yul\":8450:8459   */\n      dup3\n        /* \"#utility.yul\":8446:8464   */\n      add\n        /* \"#utility.yul\":8438:8464   */\n      swap1\n      pop\n        /* \"#utility.yul\":8510:8519   */\n      dup2\n        /* \"#utility.yul\":8504:8508   */\n      dup2\n        /* \"#utility.yul\":8500:8520   */\n      sub\n        /* \"#utility.yul\":8496:8497   */\n      0x00\n        /* \"#utility.yul\":8485:8494   */\n      dup4\n        /* \"#utility.yul\":8481:8498   */\n      add\n        /* \"#utility.yul\":8474:8521   */\n      mstore\n        /* \"#utility.yul\":8538:8669   */\n      tag_361\n        /* \"#utility.yul\":8664:8668   */\n      dup2\n        /* \"#utility.yul\":8538:8669   */\n      tag_323\n      jump\t// in\n    tag_361:\n        /* \"#utility.yul\":8530:8669   */\n      swap1\n      pop\n        /* \"#utility.yul\":8257:8676   */\n      swap2\n      swap1\n      pop\n      jump\t// out\n        /* \"#utility.yul\":8682:9101   */\n    tag_181:\n        /* \"#utility.yul\":8848:8852   */\n      0x00\n        /* \"#utility.yul\":8886:8888   */\n      0x20\n        /* \"#utility.yul\":8875:8884   */\n      dup3\n        /* \"#utility.yul\":8871:8889   */\n      add\n        /* \"#utility.yul\":8863:8889   */\n      swap1\n      pop\n        /* \"#utility.yul\":8935:8944   */\n      dup2\n        /* \"#utility.yul\":8929:8933   */\n      dup2\n        /* \"#utility.yul\":8925:8945   */\n      sub\n        /* \"#utility.yul\":8921:8922   */\n      0x00\n        /* \"#utility.yul\":8910:8919   */\n      dup4\n        /* \"#utility.yul\":8906:8923   */\n      add\n        /* \"#utility.yul\":8899:8946   */\n      mstore\n        /* \"#utility.yul\":8963:9094   */\n      tag_363\n        /* \"#utility.yul\":9089:9093   */\n      dup2\n        /* \"#utility.yul\":8963:9094   */\n      tag_328\n      jump\t// in\n    tag_363:\n        /* \"#utility.yul\":8955:9094   */\n      swap1\n      pop\n        /* \"#utility.yul\":8682:9101   */\n      swap2\n      swap1\n      pop\n      jump\t// out\n        /* \"#utility.yul\":9107:9526   */\n    tag_123:\n        /* \"#utility.yul\":9273:9277   */\n      0x00\n        /* \"#utility.yul\":9311:9313   */\n      0x20\n        /* \"#utility.yul\":9300:9309   */\n      dup3\n        /* \"#utility.yul\":9296:9314   */\n      add\n        /* \"#utility.yul\":9288:9314   */\n      swap1\n      pop\n        /* \"#utility.yul\":9360:9369   */\n      dup2\n        /* \"#utility.yul\":9354:9358   */\n      dup2\n        /* \"#utility.yul\":9350:9370   */\n      sub\n        /* \"#utility.yul\":9346:9347   */\n      0x00\n        /* \"#utility.yul\":9335:9344   */\n      dup4\n        /* \"#utility.yul\":9331:9348   */\n      add\n        /* \"#utility.yul\":9324:9371   */\n      mstore\n        /* \"#utility.yul\":9388:9519   */\n      tag_365\n        /* \"#utility.yul\":9514:9518   */\n      dup2\n        /* \"#utility.yul\":9388:9519   */\n      tag_333\n      jump\t// in\n    tag_365:\n        /* \"#utility.yul\":9380:9519   */\n      swap1\n      pop\n        /* \"#utility.yul\":9107:9526   */\n      swap2\n      swap1\n      pop\n      jump\t// out\n        /* \"#utility.yul\":9613:9711   */\n    tag_294:\n        /* \"#utility.yul\":9664:9670   */\n      0x00\n        /* \"#utility.yul\":9698:9703   */\n      dup2\n        /* \"#utility.yul\":9692:9704   */\n      mload\n        /* \"#utility.yul\":9682:9704   */\n      swap1\n      pop\n        /* \"#utility.yul\":9613:9711   */\n      swap2\n      swap1\n      pop\n      jump\t// out\n        /* \"#utility.yul\":9717:9864   */\n    tag_296:\n        /* \"#utility.yul\":9818:9829   */\n      0x00\n        /* \"#utility.yul\":9855:9858   */\n      dup2\n        /* \"#utility.yul\":9840:9858   */\n      swap1\n      pop\n        /* \"#utility.yul\":9717:9864   */\n      swap3\n      swap2\n      pop\n      pop\n      jump\t// out\n        /* \"#utility.yul\":9870:10039   */\n    tag_310:\n        /* \"#utility.yul\":9954:9965   */\n      0x00\n        /* \"#utility.yul\":9988:9994   */\n      dup3\n        /* \"#utility.yul\":9983:9986   */\n      dup3\n        /* \"#utility.yul\":9976:9995   */\n      mstore\n        /* \"#utility.yul\":10028:10032   */\n      0x20\n        /* \"#utility.yul\":10023:10026   */\n      dup3\n        /* \"#utility.yul\":10019:10033   */\n      add\n        /* \"#utility.yul\":10004:10033   */\n      swap1\n      pop\n        /* \"#utility.yul\":9870:10039   */\n      swap3\n      swap2\n      pop\n      pop\n      jump\t// out\n        /* \"#utility.yul\":10045:10141   */\n    tag_286:\n        /* \"#utility.yul\":10082:10089   */\n      0x00\n        /* \"#utility.yul\":10111:10135   */\n      tag_372\n        /* \"#utility.yul\":10129:10134   */\n      dup3\n        /* \"#utility.yul\":10111:10135   */\n      tag_373\n      jump\t// in\n    tag_372:\n        /* \"#utility.yul\":10100:10135   */\n      swap1\n      pop\n        /* \"#utility.yul\":10045:10141   */\n      swap2\n      swap1\n      pop\n      jump\t// out\n        /* \"#utility.yul\":10147:10224   */\n    tag_290:\n        /* \"#utility.yul\":10184:10191   */\n      0x00\n        /* \"#utility.yul\":10213:10218   */\n      dup2\n        /* \"#utility.yul\":10202:10218   */\n      swap1\n      pop\n        /* \"#utility.yul\":10147:10224   */\n      swap2\n      swap1\n      pop\n      jump\t// out\n        /* \"#utility.yul\":10230:10361   */\n    tag_375:\n        /* \"#utility.yul\":10277:10284   */\n      0x00\n        /* \"#utility.yul\":10306:10311   */\n      dup2\n        /* \"#utility.yul\":10295:10311   */\n      swap1\n      pop\n        /* \"#utility.yul\":10312:10355   */\n      tag_377\n        /* \"#utility.yul\":10349:10354   */\n      dup3\n        /* \"#utility.yul\":10312:10355   */\n      tag_378\n      jump\t// in\n    tag_377:\n        /* \"#utility.yul\":10230:10361   */\n      swap2\n      swap1\n      pop\n      jump\t// out\n        /* \"#utility.yul\":10367:10500   */\n    tag_379:\n        /* \"#utility.yul\":10415:10422   */\n      0x00\n        /* \"#utility.yul\":10444:10449   */\n      dup2\n        /* \"#utility.yul\":10433:10449   */\n      swap1\n      pop\n        /* \"#utility.yul\":10450:10494   */\n      tag_381\n        /* \"#utility.yul\":10488:10493   */\n      dup3\n        /* \"#utility.yul\":10450:10494   */\n      tag_382\n      jump\t// in\n    tag_381:\n        /* \"#utility.yul\":10367:10500   */\n      swap2\n      swap1\n      pop\n      jump\t// out\n        /* \"#utility.yul\":10506:10632   */\n    tag_373:\n        /* \"#utility.yul\":10543:10550   */\n      0x00\n        /* \"#utility.yul\":10583:10625   */\n      0xffffffffffffffffffffffffffffffffffffffff\n        /* \"#utility.yul\":10576:10581   */\n      dup3\n        /* \"#utility.yul\":10572:10626   */\n      and\n        /* \"#utility.yul\":10561:10626   */\n      swap1\n      pop\n        /* \"#utility.yul\":10506:10632   */\n      swap2\n      swap1\n      pop\n      jump\t// out\n        /* \"#utility.yul\":10638:10731   */\n    tag_384:\n        /* \"#utility.yul\":10674:10681   */\n      0x00\n        /* \"#utility.yul\":10714:10724   */\n      0xffffffff\n        /* \"#utility.yul\":10707:10712   */\n      dup3\n        /* \"#utility.yul\":10703:10725   */\n      and\n        /* \"#utility.yul\":10692:10725   */\n      swap1\n      pop\n        /* \"#utility.yul\":10638:10731   */\n      swap2\n      swap1\n      pop\n      jump\t// out\n        /* \"#utility.yul\":10737:10868   */\n    tag_302:\n        /* \"#utility.yul\":10795:10804   */\n      0x00\n        /* \"#utility.yul\":10828:10862   */\n      tag_387\n        /* \"#utility.yul\":10856:10861   */\n      dup3\n        /* \"#utility.yul\":10828:10862   */\n      tag_375\n      jump\t// in\n    tag_387:\n        /* \"#utility.yul\":10815:10862   */\n      swap1\n      pop\n        /* \"#utility.yul\":10737:10868   */\n      swap2\n      swap1\n      pop\n      jump\t// out\n        /* \"#utility.yul\":10874:11007   */\n    tag_306:\n        /* \"#utility.yul\":10933:10942   */\n      0x00\n        /* \"#utility.yul\":10966:11001   */\n      tag_389\n        /* \"#utility.yul\":10995:11000   */\n      dup3\n        /* \"#utility.yul\":10966:11001   */\n      tag_379\n      jump\t// in\n    tag_389:\n        /* \"#utility.yul\":10953:11001   */\n      swap1\n      pop\n        /* \"#utility.yul\":10874:11007   */\n      swap2\n      swap1\n      pop\n      jump\t// out\n        /* \"#utility.yul\":11013:11320   */\n    tag_298:\n        /* \"#utility.yul\":11081:11082   */\n      0x00\n        /* \"#utility.yul\":11091:11204   */\n    tag_391:\n        /* \"#utility.yul\":11105:11111   */\n      dup4\n        /* \"#utility.yul\":11102:11103   */\n      dup2\n        /* \"#utility.yul\":11099:11112   */\n      lt\n        /* \"#utility.yul\":11091:11204   */\n      iszero\n      tag_393\n      jumpi\n        /* \"#utility.yul\":11190:11191   */\n      dup1\n        /* \"#utility.yul\":11185:11188   */\n      dup3\n        /* \"#utility.yul\":11181:11192   */\n      add\n        /* \"#utility.yul\":11175:11193   */\n      mload\n        /* \"#utility.yul\":11171:11172   */\n      dup2\n        /* \"#utility.yul\":11166:11169   */\n      dup5\n        /* \"#utility.yul\":11162:11173   */\n      add\n        /* \"#utility.yul\":11155:11194   */\n      mstore\n        /* \"#utility.yul\":11127:11129   */\n      0x20\n        /* \"#utility.yul\":11124:11125   */\n      dup2\n        /* \"#utility.yul\":11120:11130   */\n      add\n        /* \"#utility.yul\":11115:11130   */\n      swap1\n      pop\n        /* \"#utility.yul\":11091:11204   */\n      jump(tag_391)\n    tag_393:\n        /* \"#utility.yul\":11222:11228   */\n      dup4\n        /* \"#utility.yul\":11219:11220   */\n      dup2\n        /* \"#utility.yul\":11216:11229   */\n      gt\n        /* \"#utility.yul\":11213:11314   */\n      iszero\n      tag_394\n      jumpi\n        /* \"#utility.yul\":11302:11303   */\n      0x00\n        /* \"#utility.yul\":11293:11299   */\n      dup5\n        /* \"#utility.yul\":11288:11291   */\n      dup5\n        /* \"#utility.yul\":11284:11300   */\n      add\n        /* \"#utility.yul\":11277:11304   */\n      mstore\n        /* \"#utility.yul\":11213:11314   */\n    tag_394:\n        /* \"#utility.yul\":11062:11320   */\n      pop\n        /* \"#utility.yul\":11013:11320   */\n      pop\n      pop\n      pop\n      jump\t// out\n        /* \"#utility.yul\":11326:11506   */\n    tag_231:\n        /* \"#utility.yul\":11374:11451   */\n      0x4e487b7100000000000000000000000000000000000000000000000000000000\n        /* \"#utility.yul\":11371:11372   */\n      0x00\n        /* \"#utility.yul\":11364:11452   */\n      mstore\n        /* \"#utility.yul\":11471:11475   */\n      0x12\n        /* \"#utility.yul\":11468:11469   */\n      0x04\n        /* \"#utility.yul\":11461:11476   */\n      mstore\n        /* \"#utility.yul\":11495:11499   */\n      0x24\n        /* \"#utility.yul\":11492:11493   */\n      0x00\n        /* \"#utility.yul\":11485:11500   */\n      revert\n        /* \"#utility.yul\":11512:11692   */\n    tag_73:\n        /* \"#utility.yul\":11560:11637   */\n      0x4e487b7100000000000000000000000000000000000000000000000000000000\n        /* \"#utility.yul\":11557:11558   */\n      0x00\n        /* \"#utility.yul\":11550:11638   */\n      mstore\n        /* \"#utility.yul\":11657:11661   */\n      0x21\n        /* \"#utility.yul\":11654:11655   */\n      0x04\n        /* \"#utility.yul\":11647:11662   */\n      mstore\n        /* \"#utility.yul\":11681:11685   */\n      0x24\n        /* \"#utility.yul\":11678:11679   */\n      0x00\n        /* \"#utility.yul\":11671:11686   */\n      revert\n        /* \"#utility.yul\":11698:11878   */\n    tag_225:\n        /* \"#utility.yul\":11746:11823   */\n      0x4e487b7100000000000000000000000000000000000000000000000000000000\n        /* \"#utility.yul\":11743:11744   */\n      0x00\n        /* \"#utility.yul\":11736:11824   */\n      mstore\n        /* \"#utility.yul\":11843:11847   */\n      0x41\n        /* \"#utility.yul\":11840:11841   */\n      0x04\n        /* \"#utility.yul\":11833:11848   */\n      mstore\n        /* \"#utility.yul\":11867:11871   */\n      0x24\n        /* \"#utility.yul\":11864:11865   */\n      0x00\n        /* \"#utility.yul\":11857:11872   */\n      revert\n        /* \"#utility.yul\":12007:12124   */\n    tag_272:\n        /* \"#utility.yul\":12116:12117   */\n      0x00\n        /* \"#utility.yul\":12113:12114   */\n      dup1\n        /* \"#utility.yul\":12106:12118   */\n      revert\n        /* \"#utility.yul\":12130:12296   */\n    tag_312:\n        /* \"#utility.yul\":12270:12288   */\n      0x696e636f727265637420776561706f6e00000000000000000000000000000000\n        /* \"#utility.yul\":12266:12267   */\n      0x00\n        /* \"#utility.yul\":12258:12264   */\n      dup3\n        /* \"#utility.yul\":12254:12268   */\n      add\n        /* \"#utility.yul\":12247:12289   */\n      mstore\n        /* \"#utility.yul\":12130:12296   */\n      pop\n      jump\t// out\n        /* \"#utility.yul\":12302:12481   */\n    tag_317:\n        /* \"#utility.yul\":12442:12473   */\n      0x506c6179657273206861766520616c726561647920636f6d6d69746564000000\n        /* \"#utility.yul\":12438:12439   */\n      0x00\n        /* \"#utility.yul\":12430:12436   */\n      dup3\n        /* \"#utility.yul\":12426:12440   */\n      add\n        /* \"#utility.yul\":12419:12474   */\n      mstore\n        /* \"#utility.yul\":12302:12481   */\n      pop\n      jump\t// out\n        /* \"#utility.yul\":12487:12652   */\n    tag_322:\n        /* \"#utility.yul\":12627:12644   */\n      0x696e636f72726563742073746167650000000000000000000000000000000000\n        /* \"#utility.yul\":12623:12624   */\n      0x00\n        /* \"#utility.yul\":12615:12621   */\n      dup3\n        /* \"#utility.yul\":12611:12625   */\n      add\n        /* \"#utility.yul\":12604:12645   */\n      mstore\n        /* \"#utility.yul\":12487:12652   */\n      pop\n      jump\t// out\n        /* \"#utility.yul\":12658:12838   */\n    tag_327:\n        /* \"#utility.yul\":12798:12830   */\n      0x596f7520617265206e6f7420706c6179696e6720746869732067616d652e0000\n        /* \"#utility.yul\":12794:12795   */\n      0x00\n        /* \"#utility.yul\":12786:12792   */\n      dup3\n        /* \"#utility.yul\":12782:12796   */\n      add\n        /* \"#utility.yul\":12775:12831   */\n      mstore\n        /* \"#utility.yul\":12658:12838   */\n      pop\n      jump\t// out\n        /* \"#utility.yul\":12844:13011   */\n    tag_332:\n        /* \"#utility.yul\":12984:13003   */\n      0x54686520726f6f6d2069732066756c6c2e000000000000000000000000000000\n        /* \"#utility.yul\":12980:12981   */\n      0x00\n        /* \"#utility.yul\":12972:12978   */\n      dup3\n        /* \"#utility.yul\":12968:12982   */\n      add\n        /* \"#utility.yul\":12961:13004   */\n      mstore\n        /* \"#utility.yul\":12844:13011   */\n      pop\n      jump\t// out\n        /* \"#utility.yul\":13017:13181   */\n    tag_337:\n        /* \"#utility.yul\":13157:13173   */\n      0x696e76616c696420776561706f6e000000000000000000000000000000000000\n        /* \"#utility.yul\":13153:13154   */\n      0x00\n        /* \"#utility.yul\":13145:13151   */\n      dup3\n        /* \"#utility.yul\":13141:13155   */\n      add\n        /* \"#utility.yul\":13134:13174   */\n      mstore\n        /* \"#utility.yul\":13017:13181   */\n      pop\n      jump\t// out\n        /* \"#utility.yul\":13187:13302   */\n    tag_378:\n        /* \"#utility.yul\":13270:13271   */\n      0x05\n        /* \"#utility.yul\":13263:13268   */\n      dup2\n        /* \"#utility.yul\":13260:13272   */\n      lt\n        /* \"#utility.yul\":13250:13296   */\n      tag_408\n      jumpi\n        /* \"#utility.yul\":13276:13294   */\n      tag_409\n      tag_73\n      jump\t// in\n    tag_409:\n        /* \"#utility.yul\":13250:13296   */\n    tag_408:\n        /* \"#utility.yul\":13187:13302   */\n      pop\n      jump\t// out\n        /* \"#utility.yul\":13308:13424   */\n    tag_382:\n        /* \"#utility.yul\":13392:13393   */\n      0x04\n        /* \"#utility.yul\":13385:13390   */\n      dup2\n        /* \"#utility.yul\":13382:13394   */\n      lt\n        /* \"#utility.yul\":13372:13418   */\n      tag_411\n      jumpi\n        /* \"#utility.yul\":13398:13416   */\n      tag_412\n      tag_73\n      jump\t// in\n    tag_412:\n        /* \"#utility.yul\":13372:13418   */\n    tag_411:\n        /* \"#utility.yul\":13308:13424   */\n      pop\n      jump\t// out\n        /* \"#utility.yul\":13430:13552   */\n    tag_257:\n        /* \"#utility.yul\":13503:13527   */\n      tag_414\n        /* \"#utility.yul\":13521:13526   */\n      dup2\n        /* \"#utility.yul\":13503:13527   */\n      tag_290\n      jump\t// in\n    tag_414:\n        /* \"#utility.yul\":13496:13501   */\n      dup2\n        /* \"#utility.yul\":13493:13528   */\n      eq\n        /* \"#utility.yul\":13483:13546   */\n      tag_415\n      jumpi\n        /* \"#utility.yul\":13542:13543   */\n      0x00\n        /* \"#utility.yul\":13539:13540   */\n      dup1\n        /* \"#utility.yul\":13532:13544   */\n      revert\n        /* \"#utility.yul\":13483:13546   */\n    tag_415:\n        /* \"#utility.yul\":13430:13552   */\n      pop\n      jump\t// out\n        /* \"#utility.yul\":13558:13668   */\n    tag_264:\n        /* \"#utility.yul\":13642:13643   */\n      0x04\n        /* \"#utility.yul\":13635:13640   */\n      dup2\n        /* \"#utility.yul\":13632:13644   */\n      lt\n        /* \"#utility.yul\":13622:13662   */\n      tag_417\n      jumpi\n        /* \"#utility.yul\":13658:13659   */\n      0x00\n        /* \"#utility.yul\":13655:13656   */\n      dup1\n        /* \"#utility.yul\":13648:13660   */\n      revert\n        /* \"#utility.yul\":13622:13662   */\n    tag_417:\n        /* \"#utility.yul\":13558:13668   */\n      pop\n      jump\t// out\n        /* \"#utility.yul\":13674:13794   */\n    tag_268:\n        /* \"#utility.yul\":13746:13769   */\n      tag_419\n        /* \"#utility.yul\":13763:13768   */\n      dup2\n        /* \"#utility.yul\":13746:13769   */\n      tag_384\n      jump\t// in\n    tag_419:\n        /* \"#utility.yul\":13739:13744   */\n      dup2\n        /* \"#utility.yul\":13736:13770   */\n      eq\n        /* \"#utility.yul\":13726:13788   */\n      tag_420\n      jumpi\n        /* \"#utility.yul\":13784:13785   */\n      0x00\n        /* \"#utility.yul\":13781:13782   */\n      dup1\n        /* \"#utility.yul\":13774:13786   */\n      revert\n        /* \"#utility.yul\":13726:13788   */\n    tag_420:\n        /* \"#utility.yul\":13674:13794   */\n      pop\n      jump\t// out\n\n    auxdata: 0xa2646970667358221220aadee1e3f41780b0c31ce953d4544adeeef0c5f49c7c98d2e19ab58f684b4a7e64736f6c63430008070033\n}\n",
				"bytecode": {
					"linkReferences": {},
					"object": "60806040526000600460146101000a81548160ff021916908360048111156200002d576200002c620006e9565b5b02179055503480156200003f57600080fd5b50600060056000600160038111156200005d576200005c620006e9565b5b6003811115620000725762000071620006e9565b5b8152602001908152602001600020600060016003811115620000995762000098620006e9565b5b6003811115620000ae57620000ad620006e9565b5b815260200190815260200160002060006101000a81548160ff021916908360ff160217905550600060056000600380811115620000f057620000ef620006e9565b5b6003811115620001055762000104620006e9565b5b815260200190815260200160002060006003808111156200012b576200012a620006e9565b5b600381111562000140576200013f620006e9565b5b815260200190815260200160002060006101000a81548160ff021916908360ff16021790555060006005600060026003811115620001835762000182620006e9565b5b6003811115620001985762000197620006e9565b5b8152602001908152602001600020600060026003811115620001bf57620001be620006e9565b5b6003811115620001d457620001d3620006e9565b5b815260200190815260200160002060006101000a81548160ff021916908360ff16021790555060016005600060016003811115620002175762000216620006e9565b5b60038111156200022c576200022b620006e9565b5b81526020019081526020016000206000600380811115620002525762000251620006e9565b5b6003811115620002675762000266620006e9565b5b815260200190815260200160002060006101000a81548160ff021916908360ff16021790555060016005600060026003811115620002aa57620002a9620006e9565b5b6003811115620002bf57620002be620006e9565b5b8152602001908152602001600020600060016003811115620002e657620002e5620006e9565b5b6003811115620002fb57620002fa620006e9565b5b815260200190815260200160002060006101000a81548160ff021916908360ff1602179055506001600560006003808111156200033d576200033c620006e9565b5b6003811115620003525762000351620006e9565b5b8152602001908152602001600020600060026003811115620003795762000378620006e9565b5b60038111156200038e576200038d620006e9565b5b815260200190815260200160002060006101000a81548160ff021916908360ff16021790555060026005600060016003811115620003d157620003d0620006e9565b5b6003811115620003e657620003e5620006e9565b5b81526020019081526020016000206000600260038111156200040d576200040c620006e9565b5b6003811115620004225762000421620006e9565b5b815260200190815260200160002060006101000a81548160ff021916908360ff16021790555060026005600060026003811115620004655762000464620006e9565b5b60038111156200047a5762000479620006e9565b5b81526020019081526020016000206000600380811115620004a0576200049f620006e9565b5b6003811115620004b557620004b4620006e9565b5b815260200190815260200160002060006101000a81548160ff021916908360ff160217905550600260056000600380811115620004f757620004f6620006e9565b5b60038111156200050c576200050b620006e9565b5b8152602001908152602001600020600060016003811115620005335762000532620006e9565b5b6003811115620005485762000547620006e9565b5b815260200190815260200160002060006101000a81548160ff021916908360ff1602179055506200057e6200058460201b60201c565b62000718565b6000600460006101000a81548173ffffffffffffffffffffffffffffffffffffffff021916908373ffffffffffffffffffffffffffffffffffffffff16021790555060008060006101000a81548173ffffffffffffffffffffffffffffffffffffffff021916908373ffffffffffffffffffffffffffffffffffffffff1602179055506000600160006101000a81548173ffffffffffffffffffffffffffffffffffffffff021916908373ffffffffffffffffffffffffffffffffffffffff1602179055506000801b6002819055506000801b6003819055506000600160146101000a81548160ff02191690836003811115620006865762000685620006e9565b5b02179055506000600160156101000a81548160ff02191690836003811115620006b457620006b3620006e9565b5b02179055506000600460146101000a81548160ff02191690836004811115620006e257620006e1620006e9565b5b0217905550565b7f4e487b7100000000000000000000000000000000000000000000000000000000600052602160045260246000fd5b611c1680620007286000396000f3fe608060405234801561001057600080fd5b50600436106100f55760003560e01c8063b688a36311610097578063dfbf53ae11610066578063dfbf53ae14610206578063e9a6421f14610224578063fb93247f14610242578063fce5581214610260576100f5565b8063b688a363146101a2578063c040e6b8146101ac578063d30895e4146101ca578063d8c4d9da146101e8576100f5565b80637d03f5f3116100d35780637d03f5f3146101545780639dd63d6b1461015e578063a45332a714610168578063ab4a6be114610186576100f5565b806310a37c26146100fa5780631884824c1461011857806359a5f12d14610136575b600080fd5b61010261027c565b60405161010f91906117ad565b60405180910390f35b6101206102a6565b60405161012d9190611827565b60405180910390f35b61013e6102b9565b60405161014b91906117ad565b60405180910390f35b61015c6102df565b005b61016661043b565b005b610170610719565b60405161017d91906117f1565b60405180910390f35b6101a0600480360381019061019b91906115f3565b61071f565b005b6101aa610cae565b005b6101b4610f27565b6040516101c1919061180c565b60405180910390f35b6101d2610f3a565b6040516101df91906117ad565b60405180910390f35b6101f0610f5e565b6040516101fd9190611827565b60405180910390f35b61020e610f71565b60405161021b91906117ad565b60405180910390f35b61022c610f97565b60405161023991906117ad565b60405180910390f35b61024a610fc0565b60405161025791906117f1565b60405180910390f35b61027a60048036038101906102759190611599565b610fc6565b005b6000600460009054906101000a900473ffffffffffffffffffffffffffffffffffffffff16905090565b600160159054906101000a900460ff1681565b600160009054906101000a900473ffffffffffffffffffffffffffffffffffffffff1681565b6000600460006101000a81548173ffffffffffffffffffffffffffffffffffffffff021916908373ffffffffffffffffffffffffffffffffffffffff16021790555060008060006101000a81548173ffffffffffffffffffffffffffffffffffffffff021916908373ffffffffffffffffffffffffffffffffffffffff1602179055506000600160006101000a81548173ffffffffffffffffffffffffffffffffffffffff021916908373ffffffffffffffffffffffffffffffffffffffff1602179055506000801b6002819055506000801b6003819055506000600160146101000a81548160ff021916908360038111156103de576103dd611a21565b5b02179055506000600160156101000a81548160ff0219169083600381111561040957610408611a21565b5b02179055506000600460146101000a81548160ff0219169083600481111561043457610433611a21565b5b0217905550565b60008054906101000a900473ffffffffffffffffffffffffffffffffffffffff1673ffffffffffffffffffffffffffffffffffffffff163373ffffffffffffffffffffffffffffffffffffffff1614806104e25750600160009054906101000a900473ffffffffffffffffffffffffffffffffffffffff1673ffffffffffffffffffffffffffffffffffffffff163373ffffffffffffffffffffffffffffffffffffffff16145b610521576040517f08c379a0000000000000000000000000000000000000000000000000000000008152600401610518906118a2565b60405180910390fd5b60048081111561053457610533611a21565b5b600460149054906101000a900460ff16600481111561055657610555611a21565b5b14610596576040517f08c379a000000000000000000000000000000000000000000000000000000000815260040161058d90611882565b60405180910390fd5b600060056000600160149054906101000a900460ff1660038111156105be576105bd611a21565b5b60038111156105d0576105cf611a21565b5b81526020019081526020016000206000600160159054906101000a900460ff16600381111561060257610601611a21565b5b600381111561061457610613611a21565b5b815260200190815260200160002060009054906101000a900460ff16905060008160000b1480610647575060018160000b145b156106b25760008054906101000a900473ffffffffffffffffffffffffffffffffffffffff16600460006101000a81548173ffffffffffffffffffffffffffffffffffffffff021916908373ffffffffffffffffffffffffffffffffffffffff160217905550610716565b600160009054906101000a900473ffffffffffffffffffffffffffffffffffffffff16600460006101000a81548173ffffffffffffffffffffffffffffffffffffffff021916908373ffffffffffffffffffffffffffffffffffffffff1602179055505b50565b60025481565b60008054906101000a900473ffffffffffffffffffffffffffffffffffffffff1673ffffffffffffffffffffffffffffffffffffffff163373ffffffffffffffffffffffffffffffffffffffff1614806107c65750600160009054906101000a900473ffffffffffffffffffffffffffffffffffffffff1673ffffffffffffffffffffffffffffffffffffffff163373ffffffffffffffffffffffffffffffffffffffff16145b610805576040517f08c379a00000000000000000000000000000000000000000000000000000000081526004016107fc906118a2565b60405180910390fd5b816001600381111561081a57610819611a21565b5b81600381111561082d5761082c611a21565b5b148061085d57506002600381111561084857610847611a21565b5b81600381111561085b5761085a611a21565b5b145b8061088b575060038081111561087657610875611a21565b5b81600381111561088957610888611a21565b5b145b6108ca576040517f08c379a00000000000000000000000000000000000000000000000000000000081526004016108c1906118e2565b60405180910390fd5b600260048111156108de576108dd611a21565b5b600460149054906101000a900460ff166004811115610900576108ff611a21565b5b148061093f57506003600481111561091b5761091a611a21565b5b600460149054906101000a900460ff16600481111561093d5761093c611a21565b5b145b61097e576040517f08c379a000000000000000000000000000000000000000000000000000000000815260040161097590611882565b60405180910390fd5b6000600261099d85600381111561099857610997611a21565b5b61131a565b6109ac8563ffffffff1661131a565b6040516020016109bd929190611789565b6040516020818303038152906040526040516109d99190611772565b602060405180830381855afa1580156109f6573d6000803e3d6000fd5b5050506040513d601f19601f82011682018060405250810190610a1991906115c6565b905060006003811115610a2f57610a2e611a21565b5b846003811115610a4257610a41611a21565b5b1415610a83576040517f08c379a0000000000000000000000000000000000000000000000000000000008152600401610a7a90611842565b60405180910390fd5b60008054906101000a900473ffffffffffffffffffffffffffffffffffffffff1673ffffffffffffffffffffffffffffffffffffffff163373ffffffffffffffffffffffffffffffffffffffff16148015610adf575060025481145b15610b775783600160146101000a81548160ff02191690836003811115610b0957610b08611a21565b5b02179055507f79a7276ba83fef4fe13f88df855c8420d094de7d84d1d4a3bc10554a841bd80b3385604051610b3f9291906117c8565b60405180910390a16003600460146101000a81548160ff02191690836004811115610b6d57610b6c611a21565b5b0217905550610ca8565b600160009054906101000a900473ffffffffffffffffffffffffffffffffffffffff1673ffffffffffffffffffffffffffffffffffffffff163373ffffffffffffffffffffffffffffffffffffffff16148015610bd5575060035481145b15610c6c5783600160156101000a81548160ff02191690836003811115610bff57610bfe611a21565b5b02179055507f79a7276ba83fef4fe13f88df855c8420d094de7d84d1d4a3bc10554a841bd80b3385604051610c359291906117c8565b60405180910390a160048060146101000a81548160ff02191690836004811115610c6257610c61611a21565b5b0217905550610ca7565b6040517f08c379a0000000000000000000000000000000000000000000000000000000008152600401610c9e90611842565b60405180910390fd5b5b50505050565b60008054906101000a900473ffffffffffffffffffffffffffffffffffffffff1673ffffffffffffffffffffffffffffffffffffffff163373ffffffffffffffffffffffffffffffffffffffff1614158015610d585750600160009054906101000a900473ffffffffffffffffffffffffffffffffffffffff1673ffffffffffffffffffffffffffffffffffffffff163373ffffffffffffffffffffffffffffffffffffffff1614155b610d6157600080fd5b600073ffffffffffffffffffffffffffffffffffffffff1660008054906101000a900473ffffffffffffffffffffffffffffffffffffffff1673ffffffffffffffffffffffffffffffffffffffff161480610e0a5750600073ffffffffffffffffffffffffffffffffffffffff16600160009054906101000a900473ffffffffffffffffffffffffffffffffffffffff1673ffffffffffffffffffffffffffffffffffffffff16145b610e49576040517f08c379a0000000000000000000000000000000000000000000000000000000008152600401610e40906118c2565b60405180910390fd5b600073ffffffffffffffffffffffffffffffffffffffff1660008054906101000a900473ffffffffffffffffffffffffffffffffffffffff1673ffffffffffffffffffffffffffffffffffffffff161415610ee357336000806101000a81548173ffffffffffffffffffffffffffffffffffffffff021916908373ffffffffffffffffffffffffffffffffffffffff160217905550610f25565b33600160006101000a81548173ffffffffffffffffffffffffffffffffffffffff021916908373ffffffffffffffffffffffffffffffffffffffff1602179055505b565b600460149054906101000a900460ff1681565b60008054906101000a900473ffffffffffffffffffffffffffffffffffffffff1681565b600160149054906101000a900460ff1681565b600460009054906101000a900473ffffffffffffffffffffffffffffffffffffffff1681565b60008060009054906101000a900473ffffffffffffffffffffffffffffffffffffffff16905090565b60035481565b60008054906101000a900473ffffffffffffffffffffffffffffffffffffffff1673ffffffffffffffffffffffffffffffffffffffff163373ffffffffffffffffffffffffffffffffffffffff16148061106d5750600160009054906101000a900473ffffffffffffffffffffffffffffffffffffffff1673ffffffffffffffffffffffffffffffffffffffff163373ffffffffffffffffffffffffffffffffffffffff16145b6110ac576040517f08c379a00000000000000000000000000000000000000000000000000000000081526004016110a3906118a2565b60405180910390fd5b600060048111156110c0576110bf611a21565b5b600460149054906101000a900460ff1660048111156110e2576110e1611a21565b5b14806111215750600160048111156110fd576110fc611a21565b5b600460149054906101000a900460ff16600481111561111f5761111e611a21565b5b145b61112a57600080fd5b60008054906101000a900473ffffffffffffffffffffffffffffffffffffffff1673ffffffffffffffffffffffffffffffffffffffff163373ffffffffffffffffffffffffffffffffffffffff1614801561118957506000801b600254145b1561119a5780600281905550611248565b600160009054906101000a900473ffffffffffffffffffffffffffffffffffffffff1673ffffffffffffffffffffffffffffffffffffffff163373ffffffffffffffffffffffffffffffffffffffff161480156111fb57506000801b600354145b1561120c5780600381905550611247565b6040517f08c379a000000000000000000000000000000000000000000000000000000000815260040161123e90611862565b60405180910390fd5b5b7f599481bd81d46ea2372b7f45ab8900ac58961566f184806290d9ede4e0fc76413360405161127791906117ad565b60405180910390a16000600481111561129357611292611a21565b5b600460149054906101000a900460ff1660048111156112b5576112b4611a21565b5b14156112eb576001600460146101000a81548160ff021916908360048111156112e1576112e0611a21565b5b0217905550611317565b6002600460146101000a81548160ff0219169083600481111561131157611310611a21565b5b02179055505b50565b606060006001611329846113f2565b01905060008167ffffffffffffffff81111561134857611347611a50565b5b6040519080825280601f01601f19166020018201604052801561137a5781602001600182028036833780820191505090505b509050600082602001820190505b6001156113e7578080600190039150507f3031323334353637383961626364656600000000000000000000000000000000600a86061a8153600a85816113d1576113d06119f2565b5b04945060008514156113e2576113e7565b611388565b819350505050919050565b600080600090507a184f03e93ff9f4daa797ed6e38ed64bf6a1f0100000000000000008310611450577a184f03e93ff9f4daa797ed6e38ed64bf6a1f0100000000000000008381611446576114456119f2565b5b0492506040810190505b6d04ee2d6d415b85acef8100000000831061148d576d04ee2d6d415b85acef81000000008381611483576114826119f2565b5b0492506020810190505b662386f26fc1000083106114bc57662386f26fc1000083816114b2576114b16119f2565b5b0492506010810190505b6305f5e10083106114e5576305f5e10083816114db576114da6119f2565b5b0492506008810190505b612710831061150a576127108381611500576114ff6119f2565b5b0492506004810190505b6064831061152d5760648381611523576115226119f2565b5b0492506002810190505b600a831061153c576001810190505b80915050919050565b60008135905061155481611ba2565b92915050565b60008151905061156981611ba2565b92915050565b60008135905061157e81611bb9565b92915050565b60008135905061159381611bc9565b92915050565b6000602082840312156115af576115ae611a7f565b5b60006115bd84828501611545565b91505092915050565b6000602082840312156115dc576115db611a7f565b5b60006115ea8482850161155a565b91505092915050565b6000806040838503121561160a57611609611a7f565b5b60006116188582860161156f565b925050602061162985828601611584565b9150509250929050565b61163c81611929565b82525050565b61164b8161193b565b82525050565b600061165c82611902565b611666818561190d565b93506116768185602086016119bf565b80840191505092915050565b61168b8161199b565b82525050565b61169a816119ad565b82525050565b60006116ad601083611918565b91506116b882611a84565b602082019050919050565b60006116d0601d83611918565b91506116db82611aad565b602082019050919050565b60006116f3600f83611918565b91506116fe82611ad6565b602082019050919050565b6000611716601e83611918565b915061172182611aff565b602082019050919050565b6000611739601183611918565b915061174482611b28565b602082019050919050565b600061175c600e83611918565b915061176782611b51565b602082019050919050565b600061177e8284611651565b915081905092915050565b60006117958285611651565b91506117a18284611651565b91508190509392505050565b60006020820190506117c26000830184611633565b92915050565b60006040820190506117dd6000830185611633565b6117ea6020830184611691565b9392505050565b60006020820190506118066000830184611642565b92915050565b60006020820190506118216000830184611682565b92915050565b600060208201905061183c6000830184611691565b92915050565b6000602082019050818103600083015261185b816116a0565b9050919050565b6000602082019050818103600083015261187b816116c3565b9050919050565b6000602082019050818103600083015261189b816116e6565b9050919050565b600060208201905081810360008301526118bb81611709565b9050919050565b600060208201905081810360008301526118db8161172c565b9050919050565b600060208201905081810360008301526118fb8161174f565b9050919050565b600081519050919050565b600081905092915050565b600082825260208201905092915050565b60006119348261196b565b9050919050565b6000819050919050565b600081905061195382611b7a565b919050565b600081905061196682611b8e565b919050565b600073ffffffffffffffffffffffffffffffffffffffff82169050919050565b600063ffffffff82169050919050565b60006119a682611945565b9050919050565b60006119b882611958565b9050919050565b60005b838110156119dd5780820151818401526020810190506119c2565b838111156119ec576000848401525b50505050565b7f4e487b7100000000000000000000000000000000000000000000000000000000600052601260045260246000fd5b7f4e487b7100000000000000000000000000000000000000000000000000000000600052602160045260246000fd5b7f4e487b7100000000000000000000000000000000000000000000000000000000600052604160045260246000fd5b600080fd5b7f696e636f727265637420776561706f6e00000000000000000000000000000000600082015250565b7f506c6179657273206861766520616c726561647920636f6d6d69746564000000600082015250565b7f696e636f72726563742073746167650000000000000000000000000000000000600082015250565b7f596f7520617265206e6f7420706c6179696e6720746869732067616d652e0000600082015250565b7f54686520726f6f6d2069732066756c6c2e000000000000000000000000000000600082015250565b7f696e76616c696420776561706f6e000000000000000000000000000000000000600082015250565b60058110611b8b57611b8a611a21565b5b50565b60048110611b9f57611b9e611a21565b5b50565b611bab8161193b565b8114611bb657600080fd5b50565b60048110611bc657600080fd5b50565b611bd28161198b565b8114611bdd57600080fd5b5056fea2646970667358221220aadee1e3f41780b0c31ce953d4544adeeef0c5f49c7c98d2e19ab58f684b4a7e64736f6c63430008070033",
					"opcodes": "PUSH1 0x80 PUSH1 0x40 MSTORE PUSH1 0x0 PUSH1 0x4 PUSH1 0x14 PUSH2 0x100 EXP DUP2 SLOAD DUP2 PUSH1 0xFF MUL NOT AND SWAP1 DUP4 PUSH1 0x4 DUP2 GT ISZERO PUSH3 0x2D JUMPI PUSH3 0x2C PUSH3 0x6E9 JUMP JUMPDEST JUMPDEST MUL OR SWAP1 SSTORE POP CALLVALUE DUP1 ISZERO PUSH3 0x3F JUMPI PUSH1 0x0 DUP1 REVERT JUMPDEST POP PUSH1 0x0 PUSH1 0x5 PUSH1 0x0 PUSH1 0x1 PUSH1 0x3 DUP2 GT ISZERO PUSH3 0x5D JUMPI PUSH3 0x5C PUSH3 0x6E9 JUMP JUMPDEST JUMPDEST PUSH1 0x3 DUP2 GT ISZERO PUSH3 0x72 JUMPI PUSH3 0x71 PUSH3 0x6E9 JUMP JUMPDEST JUMPDEST DUP2 MSTORE PUSH1 0x20 ADD SWAP1 DUP2 MSTORE PUSH1 0x20 ADD PUSH1 0x0 KECCAK256 PUSH1 0x0 PUSH1 0x1 PUSH1 0x3 DUP2 GT ISZERO PUSH3 0x99 JUMPI PUSH3 0x98 PUSH3 0x6E9 JUMP JUMPDEST JUMPDEST PUSH1 0x3 DUP2 GT ISZERO PUSH3 0xAE JUMPI PUSH3 0xAD PUSH3 0x6E9 JUMP JUMPDEST JUMPDEST DUP2 MSTORE PUSH1 0x20 ADD SWAP1 DUP2 MSTORE PUSH1 0x20 ADD PUSH1 0x0 KECCAK256 PUSH1 0x0 PUSH2 0x100 EXP DUP2 SLOAD DUP2 PUSH1 0xFF MUL NOT AND SWAP1 DUP4 PUSH1 0xFF AND MUL OR SWAP1 SSTORE POP PUSH1 0x0 PUSH1 0x5 PUSH1 0x0 PUSH1 0x3 DUP1 DUP2 GT ISZERO PUSH3 0xF0 JUMPI PUSH3 0xEF PUSH3 0x6E9 JUMP JUMPDEST JUMPDEST PUSH1 0x3 DUP2 GT ISZERO PUSH3 0x105 JUMPI PUSH3 0x104 PUSH3 0x6E9 JUMP JUMPDEST JUMPDEST DUP2 MSTORE PUSH1 0x20 ADD SWAP1 DUP2 MSTORE PUSH1 0x20 ADD PUSH1 0x0 KECCAK256 PUSH1 0x0 PUSH1 0x3 DUP1 DUP2 GT ISZERO PUSH3 0x12B JUMPI PUSH3 0x12A PUSH3 0x6E9 JUMP JUMPDEST JUMPDEST PUSH1 0x3 DUP2 GT ISZERO PUSH3 0x140 JUMPI PUSH3 0x13F PUSH3 0x6E9 JUMP JUMPDEST JUMPDEST DUP2 MSTORE PUSH1 0x20 ADD SWAP1 DUP2 MSTORE PUSH1 0x20 ADD PUSH1 0x0 KECCAK256 PUSH1 0x0 PUSH2 0x100 EXP DUP2 SLOAD DUP2 PUSH1 0xFF MUL NOT AND SWAP1 DUP4 PUSH1 0xFF AND MUL OR SWAP1 SSTORE POP PUSH1 0x0 PUSH1 0x5 PUSH1 0x0 PUSH1 0x2 PUSH1 0x3 DUP2 GT ISZERO PUSH3 0x183 JUMPI PUSH3 0x182 PUSH3 0x6E9 JUMP JUMPDEST JUMPDEST PUSH1 0x3 DUP2 GT ISZERO PUSH3 0x198 JUMPI PUSH3 0x197 PUSH3 0x6E9 JUMP JUMPDEST JUMPDEST DUP2 MSTORE PUSH1 0x20 ADD SWAP1 DUP2 MSTORE PUSH1 0x20 ADD PUSH1 0x0 KECCAK256 PUSH1 0x0 PUSH1 0x2 PUSH1 0x3 DUP2 GT ISZERO PUSH3 0x1BF JUMPI PUSH3 0x1BE PUSH3 0x6E9 JUMP JUMPDEST JUMPDEST PUSH1 0x3 DUP2 GT ISZERO PUSH3 0x1D4 JUMPI PUSH3 0x1D3 PUSH3 0x6E9 JUMP JUMPDEST JUMPDEST DUP2 MSTORE PUSH1 0x20 ADD SWAP1 DUP2 MSTORE PUSH1 0x20 ADD PUSH1 0x0 KECCAK256 PUSH1 0x0 PUSH2 0x100 EXP DUP2 SLOAD DUP2 PUSH1 0xFF MUL NOT AND SWAP1 DUP4 PUSH1 0xFF AND MUL OR SWAP1 SSTORE POP PUSH1 0x1 PUSH1 0x5 PUSH1 0x0 PUSH1 0x1 PUSH1 0x3 DUP2 GT ISZERO PUSH3 0x217 JUMPI PUSH3 0x216 PUSH3 0x6E9 JUMP JUMPDEST JUMPDEST PUSH1 0x3 DUP2 GT ISZERO PUSH3 0x22C JUMPI PUSH3 0x22B PUSH3 0x6E9 JUMP JUMPDEST JUMPDEST DUP2 MSTORE PUSH1 0x20 ADD SWAP1 DUP2 MSTORE PUSH1 0x20 ADD PUSH1 0x0 KECCAK256 PUSH1 0x0 PUSH1 0x3 DUP1 DUP2 GT ISZERO PUSH3 0x252 JUMPI PUSH3 0x251 PUSH3 0x6E9 JUMP JUMPDEST JUMPDEST PUSH1 0x3 DUP2 GT ISZERO PUSH3 0x267 JUMPI PUSH3 0x266 PUSH3 0x6E9 JUMP JUMPDEST JUMPDEST DUP2 MSTORE PUSH1 0x20 ADD SWAP1 DUP2 MSTORE PUSH1 0x20 ADD PUSH1 0x0 KECCAK256 PUSH1 0x0 PUSH2 0x100 EXP DUP2 SLOAD DUP2 PUSH1 0xFF MUL NOT AND SWAP1 DUP4 PUSH1 0xFF AND MUL OR SWAP1 SSTORE POP PUSH1 0x1 PUSH1 0x5 PUSH1 0x0 PUSH1 0x2 PUSH1 0x3 DUP2 GT ISZERO PUSH3 0x2AA JUMPI PUSH3 0x2A9 PUSH3 0x6E9 JUMP JUMPDEST JUMPDEST PUSH1 0x3 DUP2 GT ISZERO PUSH3 0x2BF JUMPI PUSH3 0x2BE PUSH3 0x6E9 JUMP JUMPDEST JUMPDEST DUP2 MSTORE PUSH1 0x20 ADD SWAP1 DUP2 MSTORE PUSH1 0x20 ADD PUSH1 0x0 KECCAK256 PUSH1 0x0 PUSH1 0x1 PUSH1 0x3 DUP2 GT ISZERO PUSH3 0x2E6 JUMPI PUSH3 0x2E5 PUSH3 0x6E9 JUMP JUMPDEST JUMPDEST PUSH1 0x3 DUP2 GT ISZERO PUSH3 0x2FB JUMPI PUSH3 0x2FA PUSH3 0x6E9 JUMP JUMPDEST JUMPDEST DUP2 MSTORE PUSH1 0x20 ADD SWAP1 DUP2 MSTORE PUSH1 0x20 ADD PUSH1 0x0 KECCAK256 PUSH1 0x0 PUSH2 0x100 EXP DUP2 SLOAD DUP2 PUSH1 0xFF MUL NOT AND SWAP1 DUP4 PUSH1 0xFF AND MUL OR SWAP1 SSTORE POP PUSH1 0x1 PUSH1 0x5 PUSH1 0x0 PUSH1 0x3 DUP1 DUP2 GT ISZERO PUSH3 0x33D JUMPI PUSH3 0x33C PUSH3 0x6E9 JUMP JUMPDEST JUMPDEST PUSH1 0x3 DUP2 GT ISZERO PUSH3 0x352 JUMPI PUSH3 0x351 PUSH3 0x6E9 JUMP JUMPDEST JUMPDEST DUP2 MSTORE PUSH1 0x20 ADD SWAP1 DUP2 MSTORE PUSH1 0x20 ADD PUSH1 0x0 KECCAK256 PUSH1 0x0 PUSH1 0x2 PUSH1 0x3 DUP2 GT ISZERO PUSH3 0x379 JUMPI PUSH3 0x378 PUSH3 0x6E9 JUMP JUMPDEST JUMPDEST PUSH1 0x3 DUP2 GT ISZERO PUSH3 0x38E JUMPI PUSH3 0x38D PUSH3 0x6E9 JUMP JUMPDEST JUMPDEST DUP2 MSTORE PUSH1 0x20 ADD SWAP1 DUP2 MSTORE PUSH1 0x20 ADD PUSH1 0x0 KECCAK256 PUSH1 0x0 PUSH2 0x100 EXP DUP2 SLOAD DUP2 PUSH1 0xFF MUL NOT AND SWAP1 DUP4 PUSH1 0xFF AND MUL OR SWAP1 SSTORE POP PUSH1 0x2 PUSH1 0x5 PUSH1 0x0 PUSH1 0x1 PUSH1 0x3 DUP2 GT ISZERO PUSH3 0x3D1 JUMPI PUSH3 0x3D0 PUSH3 0x6E9 JUMP JUMPDEST JUMPDEST PUSH1 0x3 DUP2 GT ISZERO PUSH3 0x3E6 JUMPI PUSH3 0x3E5 PUSH3 0x6E9 JUMP JUMPDEST JUMPDEST DUP2 MSTORE PUSH1 0x20 ADD SWAP1 DUP2 MSTORE PUSH1 0x20 ADD PUSH1 0x0 KECCAK256 PUSH1 0x0 PUSH1 0x2 PUSH1 0x3 DUP2 GT ISZERO PUSH3 0x40D JUMPI PUSH3 0x40C PUSH3 0x6E9 JUMP JUMPDEST JUMPDEST PUSH1 0x3 DUP2 GT ISZERO PUSH3 0x422 JUMPI PUSH3 0x421 PUSH3 0x6E9 JUMP JUMPDEST JUMPDEST DUP2 MSTORE PUSH1 0x20 ADD SWAP1 DUP2 MSTORE PUSH1 0x20 ADD PUSH1 0x0 KECCAK256 PUSH1 0x0 PUSH2 0x100 EXP DUP2 SLOAD DUP2 PUSH1 0xFF MUL NOT AND SWAP1 DUP4 PUSH1 0xFF AND MUL OR SWAP1 SSTORE POP PUSH1 0x2 PUSH1 0x5 PUSH1 0x0 PUSH1 0x2 PUSH1 0x3 DUP2 GT ISZERO PUSH3 0x465 JUMPI PUSH3 0x464 PUSH3 0x6E9 JUMP JUMPDEST JUMPDEST PUSH1 0x3 DUP2 GT ISZERO PUSH3 0x47A JUMPI PUSH3 0x479 PUSH3 0x6E9 JUMP JUMPDEST JUMPDEST DUP2 MSTORE PUSH1 0x20 ADD SWAP1 DUP2 MSTORE PUSH1 0x20 ADD PUSH1 0x0 KECCAK256 PUSH1 0x0 PUSH1 0x3 DUP1 DUP2 GT ISZERO PUSH3 0x4A0 JUMPI PUSH3 0x49F PUSH3 0x6E9 JUMP JUMPDEST JUMPDEST PUSH1 0x3 DUP2 GT ISZERO PUSH3 0x4B5 JUMPI PUSH3 0x4B4 PUSH3 0x6E9 JUMP JUMPDEST JUMPDEST DUP2 MSTORE PUSH1 0x20 ADD SWAP1 DUP2 MSTORE PUSH1 0x20 ADD PUSH1 0x0 KECCAK256 PUSH1 0x0 PUSH2 0x100 EXP DUP2 SLOAD DUP2 PUSH1 0xFF MUL NOT AND SWAP1 DUP4 PUSH1 0xFF AND MUL OR SWAP1 SSTORE POP PUSH1 0x2 PUSH1 0x5 PUSH1 0x0 PUSH1 0x3 DUP1 DUP2 GT ISZERO PUSH3 0x4F7 JUMPI PUSH3 0x4F6 PUSH3 0x6E9 JUMP JUMPDEST JUMPDEST PUSH1 0x3 DUP2 GT ISZERO PUSH3 0x50C JUMPI PUSH3 0x50B PUSH3 0x6E9 JUMP JUMPDEST JUMPDEST DUP2 MSTORE PUSH1 0x20 ADD SWAP1 DUP2 MSTORE PUSH1 0x20 ADD PUSH1 0x0 KECCAK256 PUSH1 0x0 PUSH1 0x1 PUSH1 0x3 DUP2 GT ISZERO PUSH3 0x533 JUMPI PUSH3 0x532 PUSH3 0x6E9 JUMP JUMPDEST JUMPDEST PUSH1 0x3 DUP2 GT ISZERO PUSH3 0x548 JUMPI PUSH3 0x547 PUSH3 0x6E9 JUMP JUMPDEST JUMPDEST DUP2 MSTORE PUSH1 0x20 ADD SWAP1 DUP2 MSTORE PUSH1 0x20 ADD PUSH1 0x0 KECCAK256 PUSH1 0x0 PUSH2 0x100 EXP DUP2 SLOAD DUP2 PUSH1 0xFF MUL NOT AND SWAP1 DUP4 PUSH1 0xFF AND MUL OR SWAP1 SSTORE POP PUSH3 0x57E PUSH3 0x584 PUSH1 0x20 SHL PUSH1 0x20 SHR JUMP JUMPDEST PUSH3 0x718 JUMP JUMPDEST PUSH1 0x0 PUSH1 0x4 PUSH1 0x0 PUSH2 0x100 EXP DUP2 SLOAD DUP2 PUSH20 0xFFFFFFFFFFFFFFFFFFFFFFFFFFFFFFFFFFFFFFFF MUL NOT AND SWAP1 DUP4 PUSH20 0xFFFFFFFFFFFFFFFFFFFFFFFFFFFFFFFFFFFFFFFF AND MUL OR SWAP1 SSTORE POP PUSH1 0x0 DUP1 PUSH1 0x0 PUSH2 0x100 EXP DUP2 SLOAD DUP2 PUSH20 0xFFFFFFFFFFFFFFFFFFFFFFFFFFFFFFFFFFFFFFFF MUL NOT AND SWAP1 DUP4 PUSH20 0xFFFFFFFFFFFFFFFFFFFFFFFFFFFFFFFFFFFFFFFF AND MUL OR SWAP1 SSTORE POP PUSH1 0x0 PUSH1 0x1 PUSH1 0x0 PUSH2 0x100 EXP DUP2 SLOAD DUP2 PUSH20 0xFFFFFFFFFFFFFFFFFFFFFFFFFFFFFFFFFFFFFFFF MUL NOT AND SWAP1 DUP4 PUSH20 0xFFFFFFFFFFFFFFFFFFFFFFFFFFFFFFFFFFFFFFFF AND MUL OR SWAP1 SSTORE POP PUSH1 0x0 DUP1 SHL PUSH1 0x2 DUP2 SWAP1 SSTORE POP PUSH1 0x0 DUP1 SHL PUSH1 0x3 DUP2 SWAP1 SSTORE POP PUSH1 0x0 PUSH1 0x1 PUSH1 0x14 PUSH2 0x100 EXP DUP2 SLOAD DUP2 PUSH1 0xFF MUL NOT AND SWAP1 DUP4 PUSH1 0x3 DUP2 GT ISZERO PUSH3 0x686 JUMPI PUSH3 0x685 PUSH3 0x6E9 JUMP JUMPDEST JUMPDEST MUL OR SWAP1 SSTORE POP PUSH1 0x0 PUSH1 0x1 PUSH1 0x15 PUSH2 0x100 EXP DUP2 SLOAD DUP2 PUSH1 0xFF MUL NOT AND SWAP1 DUP4 PUSH1 0x3 DUP2 GT ISZERO PUSH3 0x6B4 JUMPI PUSH3 0x6B3 PUSH3 0x6E9 JUMP JUMPDEST JUMPDEST MUL OR SWAP1 SSTORE POP PUSH1 0x0 PUSH1 0x4 PUSH1 0x14 PUSH2 0x100 EXP DUP2 SLOAD DUP2 PUSH1 0xFF MUL NOT AND SWAP1 DUP4 PUSH1 0x4 DUP2 GT ISZERO PUSH3 0x6E2 JUMPI PUSH3 0x6E1 PUSH3 0x6E9 JUMP JUMPDEST JUMPDEST MUL OR SWAP1 SSTORE POP JUMP JUMPDEST PUSH32 0x4E487B7100000000000000000000000000000000000000000000000000000000 PUSH1 0x0 MSTORE PUSH1 0x21 PUSH1 0x4 MSTORE PUSH1 0x24 PUSH1 0x0 REVERT JUMPDEST PUSH2 0x1C16 DUP1 PUSH3 0x728 PUSH1 0x0 CODECOPY PUSH1 0x0 RETURN INVALID PUSH1 0x80 PUSH1 0x40 MSTORE CALLVALUE DUP1 ISZERO PUSH2 0x10 JUMPI PUSH1 0x0 DUP1 REVERT JUMPDEST POP PUSH1 0x4 CALLDATASIZE LT PUSH2 0xF5 JUMPI PUSH1 0x0 CALLDATALOAD PUSH1 0xE0 SHR DUP1 PUSH4 0xB688A363 GT PUSH2 0x97 JUMPI DUP1 PUSH4 0xDFBF53AE GT PUSH2 0x66 JUMPI DUP1 PUSH4 0xDFBF53AE EQ PUSH2 0x206 JUMPI DUP1 PUSH4 0xE9A6421F EQ PUSH2 0x224 JUMPI DUP1 PUSH4 0xFB93247F EQ PUSH2 0x242 JUMPI DUP1 PUSH4 0xFCE55812 EQ PUSH2 0x260 JUMPI PUSH2 0xF5 JUMP JUMPDEST DUP1 PUSH4 0xB688A363 EQ PUSH2 0x1A2 JUMPI DUP1 PUSH4 0xC040E6B8 EQ PUSH2 0x1AC JUMPI DUP1 PUSH4 0xD30895E4 EQ PUSH2 0x1CA JUMPI DUP1 PUSH4 0xD8C4D9DA EQ PUSH2 0x1E8 JUMPI PUSH2 0xF5 JUMP JUMPDEST DUP1 PUSH4 0x7D03F5F3 GT PUSH2 0xD3 JUMPI DUP1 PUSH4 0x7D03F5F3 EQ PUSH2 0x154 JUMPI DUP1 PUSH4 0x9DD63D6B EQ PUSH2 0x15E JUMPI DUP1 PUSH4 0xA45332A7 EQ PUSH2 0x168 JUMPI DUP1 PUSH4 0xAB4A6BE1 EQ PUSH2 0x186 JUMPI PUSH2 0xF5 JUMP JUMPDEST DUP1 PUSH4 0x10A37C26 EQ PUSH2 0xFA JUMPI DUP1 PUSH4 0x1884824C EQ PUSH2 0x118 JUMPI DUP1 PUSH4 0x59A5F12D EQ PUSH2 0x136 JUMPI JUMPDEST PUSH1 0x0 DUP1 REVERT JUMPDEST PUSH2 0x102 PUSH2 0x27C JUMP JUMPDEST PUSH1 0x40 MLOAD PUSH2 0x10F SWAP2 SWAP1 PUSH2 0x17AD JUMP JUMPDEST PUSH1 0x40 MLOAD DUP1 SWAP2 SUB SWAP1 RETURN JUMPDEST PUSH2 0x120 PUSH2 0x2A6 JUMP JUMPDEST PUSH1 0x40 MLOAD PUSH2 0x12D SWAP2 SWAP1 PUSH2 0x1827 JUMP JUMPDEST PUSH1 0x40 MLOAD DUP1 SWAP2 SUB SWAP1 RETURN JUMPDEST PUSH2 0x13E PUSH2 0x2B9 JUMP JUMPDEST PUSH1 0x40 MLOAD PUSH2 0x14B SWAP2 SWAP1 PUSH2 0x17AD JUMP JUMPDEST PUSH1 0x40 MLOAD DUP1 SWAP2 SUB SWAP1 RETURN JUMPDEST PUSH2 0x15C PUSH2 0x2DF JUMP JUMPDEST STOP JUMPDEST PUSH2 0x166 PUSH2 0x43B JUMP JUMPDEST STOP JUMPDEST PUSH2 0x170 PUSH2 0x719 JUMP JUMPDEST PUSH1 0x40 MLOAD PUSH2 0x17D SWAP2 SWAP1 PUSH2 0x17F1 JUMP JUMPDEST PUSH1 0x40 MLOAD DUP1 SWAP2 SUB SWAP1 RETURN JUMPDEST PUSH2 0x1A0 PUSH1 0x4 DUP1 CALLDATASIZE SUB DUP2 ADD SWAP1 PUSH2 0x19B SWAP2 SWAP1 PUSH2 0x15F3 JUMP JUMPDEST PUSH2 0x71F JUMP JUMPDEST STOP JUMPDEST PUSH2 0x1AA PUSH2 0xCAE JUMP JUMPDEST STOP JUMPDEST PUSH2 0x1B4 PUSH2 0xF27 JUMP JUMPDEST PUSH1 0x40 MLOAD PUSH2 0x1C1 SWAP2 SWAP1 PUSH2 0x180C JUMP JUMPDEST PUSH1 0x40 MLOAD DUP1 SWAP2 SUB SWAP1 RETURN JUMPDEST PUSH2 0x1D2 PUSH2 0xF3A JUMP JUMPDEST PUSH1 0x40 MLOAD PUSH2 0x1DF SWAP2 SWAP1 PUSH2 0x17AD JUMP JUMPDEST PUSH1 0x40 MLOAD DUP1 SWAP2 SUB SWAP1 RETURN JUMPDEST PUSH2 0x1F0 PUSH2 0xF5E JUMP JUMPDEST PUSH1 0x40 MLOAD PUSH2 0x1FD SWAP2 SWAP1 PUSH2 0x1827 JUMP JUMPDEST PUSH1 0x40 MLOAD DUP1 SWAP2 SUB SWAP1 RETURN JUMPDEST PUSH2 0x20E PUSH2 0xF71 JUMP JUMPDEST PUSH1 0x40 MLOAD PUSH2 0x21B SWAP2 SWAP1 PUSH2 0x17AD JUMP JUMPDEST PUSH1 0x40 MLOAD DUP1 SWAP2 SUB SWAP1 RETURN JUMPDEST PUSH2 0x22C PUSH2 0xF97 JUMP JUMPDEST PUSH1 0x40 MLOAD PUSH2 0x239 SWAP2 SWAP1 PUSH2 0x17AD JUMP JUMPDEST PUSH1 0x40 MLOAD DUP1 SWAP2 SUB SWAP1 RETURN JUMPDEST PUSH2 0x24A PUSH2 0xFC0 JUMP JUMPDEST PUSH1 0x40 MLOAD PUSH2 0x257 SWAP2 SWAP1 PUSH2 0x17F1 JUMP JUMPDEST PUSH1 0x40 MLOAD DUP1 SWAP2 SUB SWAP1 RETURN JUMPDEST PUSH2 0x27A PUSH1 0x4 DUP1 CALLDATASIZE SUB DUP2 ADD SWAP1 PUSH2 0x275 SWAP2 SWAP1 PUSH2 0x1599 JUMP JUMPDEST PUSH2 0xFC6 JUMP JUMPDEST STOP JUMPDEST PUSH1 0x0 PUSH1 0x4 PUSH1 0x0 SWAP1 SLOAD SWAP1 PUSH2 0x100 EXP SWAP1 DIV PUSH20 0xFFFFFFFFFFFFFFFFFFFFFFFFFFFFFFFFFFFFFFFF AND SWAP1 POP SWAP1 JUMP JUMPDEST PUSH1 0x1 PUSH1 0x15 SWAP1 SLOAD SWAP1 PUSH2 0x100 EXP SWAP1 DIV PUSH1 0xFF AND DUP2 JUMP JUMPDEST PUSH1 0x1 PUSH1 0x0 SWAP1 SLOAD SWAP1 PUSH2 0x100 EXP SWAP1 DIV PUSH20 0xFFFFFFFFFFFFFFFFFFFFFFFFFFFFFFFFFFFFFFFF AND DUP2 JUMP JUMPDEST PUSH1 0x0 PUSH1 0x4 PUSH1 0x0 PUSH2 0x100 EXP DUP2 SLOAD DUP2 PUSH20 0xFFFFFFFFFFFFFFFFFFFFFFFFFFFFFFFFFFFFFFFF MUL NOT AND SWAP1 DUP4 PUSH20 0xFFFFFFFFFFFFFFFFFFFFFFFFFFFFFFFFFFFFFFFF AND MUL OR SWAP1 SSTORE POP PUSH1 0x0 DUP1 PUSH1 0x0 PUSH2 0x100 EXP DUP2 SLOAD DUP2 PUSH20 0xFFFFFFFFFFFFFFFFFFFFFFFFFFFFFFFFFFFFFFFF MUL NOT AND SWAP1 DUP4 PUSH20 0xFFFFFFFFFFFFFFFFFFFFFFFFFFFFFFFFFFFFFFFF AND MUL OR SWAP1 SSTORE POP PUSH1 0x0 PUSH1 0x1 PUSH1 0x0 PUSH2 0x100 EXP DUP2 SLOAD DUP2 PUSH20 0xFFFFFFFFFFFFFFFFFFFFFFFFFFFFFFFFFFFFFFFF MUL NOT AND SWAP1 DUP4 PUSH20 0xFFFFFFFFFFFFFFFFFFFFFFFFFFFFFFFFFFFFFFFF AND MUL OR SWAP1 SSTORE POP PUSH1 0x0 DUP1 SHL PUSH1 0x2 DUP2 SWAP1 SSTORE POP PUSH1 0x0 DUP1 SHL PUSH1 0x3 DUP2 SWAP1 SSTORE POP PUSH1 0x0 PUSH1 0x1 PUSH1 0x14 PUSH2 0x100 EXP DUP2 SLOAD DUP2 PUSH1 0xFF MUL NOT AND SWAP1 DUP4 PUSH1 0x3 DUP2 GT ISZERO PUSH2 0x3DE JUMPI PUSH2 0x3DD PUSH2 0x1A21 JUMP JUMPDEST JUMPDEST MUL OR SWAP1 SSTORE POP PUSH1 0x0 PUSH1 0x1 PUSH1 0x15 PUSH2 0x100 EXP DUP2 SLOAD DUP2 PUSH1 0xFF MUL NOT AND SWAP1 DUP4 PUSH1 0x3 DUP2 GT ISZERO PUSH2 0x409 JUMPI PUSH2 0x408 PUSH2 0x1A21 JUMP JUMPDEST JUMPDEST MUL OR SWAP1 SSTORE POP PUSH1 0x0 PUSH1 0x4 PUSH1 0x14 PUSH2 0x100 EXP DUP2 SLOAD DUP2 PUSH1 0xFF MUL NOT AND SWAP1 DUP4 PUSH1 0x4 DUP2 GT ISZERO PUSH2 0x434 JUMPI PUSH2 0x433 PUSH2 0x1A21 JUMP JUMPDEST JUMPDEST MUL OR SWAP1 SSTORE POP JUMP JUMPDEST PUSH1 0x0 DUP1 SLOAD SWAP1 PUSH2 0x100 EXP SWAP1 DIV PUSH20 0xFFFFFFFFFFFFFFFFFFFFFFFFFFFFFFFFFFFFFFFF AND PUSH20 0xFFFFFFFFFFFFFFFFFFFFFFFFFFFFFFFFFFFFFFFF AND CALLER PUSH20 0xFFFFFFFFFFFFFFFFFFFFFFFFFFFFFFFFFFFFFFFF AND EQ DUP1 PUSH2 0x4E2 JUMPI POP PUSH1 0x1 PUSH1 0x0 SWAP1 SLOAD SWAP1 PUSH2 0x100 EXP SWAP1 DIV PUSH20 0xFFFFFFFFFFFFFFFFFFFFFFFFFFFFFFFFFFFFFFFF AND PUSH20 0xFFFFFFFFFFFFFFFFFFFFFFFFFFFFFFFFFFFFFFFF AND CALLER PUSH20 0xFFFFFFFFFFFFFFFFFFFFFFFFFFFFFFFFFFFFFFFF AND EQ JUMPDEST PUSH2 0x521 JUMPI PUSH1 0x40 MLOAD PUSH32 0x8C379A000000000000000000000000000000000000000000000000000000000 DUP2 MSTORE PUSH1 0x4 ADD PUSH2 0x518 SWAP1 PUSH2 0x18A2 JUMP JUMPDEST PUSH1 0x40 MLOAD DUP1 SWAP2 SUB SWAP1 REVERT JUMPDEST PUSH1 0x4 DUP1 DUP2 GT ISZERO PUSH2 0x534 JUMPI PUSH2 0x533 PUSH2 0x1A21 JUMP JUMPDEST JUMPDEST PUSH1 0x4 PUSH1 0x14 SWAP1 SLOAD SWAP1 PUSH2 0x100 EXP SWAP1 DIV PUSH1 0xFF AND PUSH1 0x4 DUP2 GT ISZERO PUSH2 0x556 JUMPI PUSH2 0x555 PUSH2 0x1A21 JUMP JUMPDEST JUMPDEST EQ PUSH2 0x596 JUMPI PUSH1 0x40 MLOAD PUSH32 0x8C379A000000000000000000000000000000000000000000000000000000000 DUP2 MSTORE PUSH1 0x4 ADD PUSH2 0x58D SWAP1 PUSH2 0x1882 JUMP JUMPDEST PUSH1 0x40 MLOAD DUP1 SWAP2 SUB SWAP1 REVERT JUMPDEST PUSH1 0x0 PUSH1 0x5 PUSH1 0x0 PUSH1 0x1 PUSH1 0x14 SWAP1 SLOAD SWAP1 PUSH2 0x100 EXP SWAP1 DIV PUSH1 0xFF AND PUSH1 0x3 DUP2 GT ISZERO PUSH2 0x5BE JUMPI PUSH2 0x5BD PUSH2 0x1A21 JUMP JUMPDEST JUMPDEST PUSH1 0x3 DUP2 GT ISZERO PUSH2 0x5D0 JUMPI PUSH2 0x5CF PUSH2 0x1A21 JUMP JUMPDEST JUMPDEST DUP2 MSTORE PUSH1 0x20 ADD SWAP1 DUP2 MSTORE PUSH1 0x20 ADD PUSH1 0x0 KECCAK256 PUSH1 0x0 PUSH1 0x1 PUSH1 0x15 SWAP1 SLOAD SWAP1 PUSH2 0x100 EXP SWAP1 DIV PUSH1 0xFF AND PUSH1 0x3 DUP2 GT ISZERO PUSH2 0x602 JUMPI PUSH2 0x601 PUSH2 0x1A21 JUMP JUMPDEST JUMPDEST PUSH1 0x3 DUP2 GT ISZERO PUSH2 0x614 JUMPI PUSH2 0x613 PUSH2 0x1A21 JUMP JUMPDEST JUMPDEST DUP2 MSTORE PUSH1 0x20 ADD SWAP1 DUP2 MSTORE PUSH1 0x20 ADD PUSH1 0x0 KECCAK256 PUSH1 0x0 SWAP1 SLOAD SWAP1 PUSH2 0x100 EXP SWAP1 DIV PUSH1 0xFF AND SWAP1 POP PUSH1 0x0 DUP2 PUSH1 0x0 SIGNEXTEND EQ DUP1 PUSH2 0x647 JUMPI POP PUSH1 0x1 DUP2 PUSH1 0x0 SIGNEXTEND EQ JUMPDEST ISZERO PUSH2 0x6B2 JUMPI PUSH1 0x0 DUP1 SLOAD SWAP1 PUSH2 0x100 EXP SWAP1 DIV PUSH20 0xFFFFFFFFFFFFFFFFFFFFFFFFFFFFFFFFFFFFFFFF AND PUSH1 0x4 PUSH1 0x0 PUSH2 0x100 EXP DUP2 SLOAD DUP2 PUSH20 0xFFFFFFFFFFFFFFFFFFFFFFFFFFFFFFFFFFFFFFFF MUL NOT AND SWAP1 DUP4 PUSH20 0xFFFFFFFFFFFFFFFFFFFFFFFFFFFFFFFFFFFFFFFF AND MUL OR SWAP1 SSTORE POP PUSH2 0x716 JUMP JUMPDEST PUSH1 0x1 PUSH1 0x0 SWAP1 SLOAD SWAP1 PUSH2 0x100 EXP SWAP1 DIV PUSH20 0xFFFFFFFFFFFFFFFFFFFFFFFFFFFFFFFFFFFFFFFF AND PUSH1 0x4 PUSH1 0x0 PUSH2 0x100 EXP DUP2 SLOAD DUP2 PUSH20 0xFFFFFFFFFFFFFFFFFFFFFFFFFFFFFFFFFFFFFFFF MUL NOT AND SWAP1 DUP4 PUSH20 0xFFFFFFFFFFFFFFFFFFFFFFFFFFFFFFFFFFFFFFFF AND MUL OR SWAP1 SSTORE POP JUMPDEST POP JUMP JUMPDEST PUSH1 0x2 SLOAD DUP2 JUMP JUMPDEST PUSH1 0x0 DUP1 SLOAD SWAP1 PUSH2 0x100 EXP SWAP1 DIV PUSH20 0xFFFFFFFFFFFFFFFFFFFFFFFFFFFFFFFFFFFFFFFF AND PUSH20 0xFFFFFFFFFFFFFFFFFFFFFFFFFFFFFFFFFFFFFFFF AND CALLER PUSH20 0xFFFFFFFFFFFFFFFFFFFFFFFFFFFFFFFFFFFFFFFF AND EQ DUP1 PUSH2 0x7C6 JUMPI POP PUSH1 0x1 PUSH1 0x0 SWAP1 SLOAD SWAP1 PUSH2 0x100 EXP SWAP1 DIV PUSH20 0xFFFFFFFFFFFFFFFFFFFFFFFFFFFFFFFFFFFFFFFF AND PUSH20 0xFFFFFFFFFFFFFFFFFFFFFFFFFFFFFFFFFFFFFFFF AND CALLER PUSH20 0xFFFFFFFFFFFFFFFFFFFFFFFFFFFFFFFFFFFFFFFF AND EQ JUMPDEST PUSH2 0x805 JUMPI PUSH1 0x40 MLOAD PUSH32 0x8C379A000000000000000000000000000000000000000000000000000000000 DUP2 MSTORE PUSH1 0x4 ADD PUSH2 0x7FC SWAP1 PUSH2 0x18A2 JUMP JUMPDEST PUSH1 0x40 MLOAD DUP1 SWAP2 SUB SWAP1 REVERT JUMPDEST DUP2 PUSH1 0x1 PUSH1 0x3 DUP2 GT ISZERO PUSH2 0x81A JUMPI PUSH2 0x819 PUSH2 0x1A21 JUMP JUMPDEST JUMPDEST DUP2 PUSH1 0x3 DUP2 GT ISZERO PUSH2 0x82D JUMPI PUSH2 0x82C PUSH2 0x1A21 JUMP JUMPDEST JUMPDEST EQ DUP1 PUSH2 0x85D JUMPI POP PUSH1 0x2 PUSH1 0x3 DUP2 GT ISZERO PUSH2 0x848 JUMPI PUSH2 0x847 PUSH2 0x1A21 JUMP JUMPDEST JUMPDEST DUP2 PUSH1 0x3 DUP2 GT ISZERO PUSH2 0x85B JUMPI PUSH2 0x85A PUSH2 0x1A21 JUMP JUMPDEST JUMPDEST EQ JUMPDEST DUP1 PUSH2 0x88B JUMPI POP PUSH1 0x3 DUP1 DUP2 GT ISZERO PUSH2 0x876 JUMPI PUSH2 0x875 PUSH2 0x1A21 JUMP JUMPDEST JUMPDEST DUP2 PUSH1 0x3 DUP2 GT ISZERO PUSH2 0x889 JUMPI PUSH2 0x888 PUSH2 0x1A21 JUMP JUMPDEST JUMPDEST EQ JUMPDEST PUSH2 0x8CA JUMPI PUSH1 0x40 MLOAD PUSH32 0x8C379A000000000000000000000000000000000000000000000000000000000 DUP2 MSTORE PUSH1 0x4 ADD PUSH2 0x8C1 SWAP1 PUSH2 0x18E2 JUMP JUMPDEST PUSH1 0x40 MLOAD DUP1 SWAP2 SUB SWAP1 REVERT JUMPDEST PUSH1 0x2 PUSH1 0x4 DUP2 GT ISZERO PUSH2 0x8DE JUMPI PUSH2 0x8DD PUSH2 0x1A21 JUMP JUMPDEST JUMPDEST PUSH1 0x4 PUSH1 0x14 SWAP1 SLOAD SWAP1 PUSH2 0x100 EXP SWAP1 DIV PUSH1 0xFF AND PUSH1 0x4 DUP2 GT ISZERO PUSH2 0x900 JUMPI PUSH2 0x8FF PUSH2 0x1A21 JUMP JUMPDEST JUMPDEST EQ DUP1 PUSH2 0x93F JUMPI POP PUSH1 0x3 PUSH1 0x4 DUP2 GT ISZERO PUSH2 0x91B JUMPI PUSH2 0x91A PUSH2 0x1A21 JUMP JUMPDEST JUMPDEST PUSH1 0x4 PUSH1 0x14 SWAP1 SLOAD SWAP1 PUSH2 0x100 EXP SWAP1 DIV PUSH1 0xFF AND PUSH1 0x4 DUP2 GT ISZERO PUSH2 0x93D JUMPI PUSH2 0x93C PUSH2 0x1A21 JUMP JUMPDEST JUMPDEST EQ JUMPDEST PUSH2 0x97E JUMPI PUSH1 0x40 MLOAD PUSH32 0x8C379A000000000000000000000000000000000000000000000000000000000 DUP2 MSTORE PUSH1 0x4 ADD PUSH2 0x975 SWAP1 PUSH2 0x1882 JUMP JUMPDEST PUSH1 0x40 MLOAD DUP1 SWAP2 SUB SWAP1 REVERT JUMPDEST PUSH1 0x0 PUSH1 0x2 PUSH2 0x99D DUP6 PUSH1 0x3 DUP2 GT ISZERO PUSH2 0x998 JUMPI PUSH2 0x997 PUSH2 0x1A21 JUMP JUMPDEST JUMPDEST PUSH2 0x131A JUMP JUMPDEST PUSH2 0x9AC DUP6 PUSH4 0xFFFFFFFF AND PUSH2 0x131A JUMP JUMPDEST PUSH1 0x40 MLOAD PUSH1 0x20 ADD PUSH2 0x9BD SWAP3 SWAP2 SWAP1 PUSH2 0x1789 JUMP JUMPDEST PUSH1 0x40 MLOAD PUSH1 0x20 DUP2 DUP4 SUB SUB DUP2 MSTORE SWAP1 PUSH1 0x40 MSTORE PUSH1 0x40 MLOAD PUSH2 0x9D9 SWAP2 SWAP1 PUSH2 0x1772 JUMP JUMPDEST PUSH1 0x20 PUSH1 0x40 MLOAD DUP1 DUP4 SUB DUP2 DUP6 GAS STATICCALL ISZERO DUP1 ISZERO PUSH2 0x9F6 JUMPI RETURNDATASIZE PUSH1 0x0 DUP1 RETURNDATACOPY RETURNDATASIZE PUSH1 0x0 REVERT JUMPDEST POP POP POP PUSH1 0x40 MLOAD RETURNDATASIZE PUSH1 0x1F NOT PUSH1 0x1F DUP3 ADD AND DUP3 ADD DUP1 PUSH1 0x40 MSTORE POP DUP2 ADD SWAP1 PUSH2 0xA19 SWAP2 SWAP1 PUSH2 0x15C6 JUMP JUMPDEST SWAP1 POP PUSH1 0x0 PUSH1 0x3 DUP2 GT ISZERO PUSH2 0xA2F JUMPI PUSH2 0xA2E PUSH2 0x1A21 JUMP JUMPDEST JUMPDEST DUP5 PUSH1 0x3 DUP2 GT ISZERO PUSH2 0xA42 JUMPI PUSH2 0xA41 PUSH2 0x1A21 JUMP JUMPDEST JUMPDEST EQ ISZERO PUSH2 0xA83 JUMPI PUSH1 0x40 MLOAD PUSH32 0x8C379A000000000000000000000000000000000000000000000000000000000 DUP2 MSTORE PUSH1 0x4 ADD PUSH2 0xA7A SWAP1 PUSH2 0x1842 JUMP JUMPDEST PUSH1 0x40 MLOAD DUP1 SWAP2 SUB SWAP1 REVERT JUMPDEST PUSH1 0x0 DUP1 SLOAD SWAP1 PUSH2 0x100 EXP SWAP1 DIV PUSH20 0xFFFFFFFFFFFFFFFFFFFFFFFFFFFFFFFFFFFFFFFF AND PUSH20 0xFFFFFFFFFFFFFFFFFFFFFFFFFFFFFFFFFFFFFFFF AND CALLER PUSH20 0xFFFFFFFFFFFFFFFFFFFFFFFFFFFFFFFFFFFFFFFF AND EQ DUP1 ISZERO PUSH2 0xADF JUMPI POP PUSH1 0x2 SLOAD DUP2 EQ JUMPDEST ISZERO PUSH2 0xB77 JUMPI DUP4 PUSH1 0x1 PUSH1 0x14 PUSH2 0x100 EXP DUP2 SLOAD DUP2 PUSH1 0xFF MUL NOT AND SWAP1 DUP4 PUSH1 0x3 DUP2 GT ISZERO PUSH2 0xB09 JUMPI PUSH2 0xB08 PUSH2 0x1A21 JUMP JUMPDEST JUMPDEST MUL OR SWAP1 SSTORE POP PUSH32 0x79A7276BA83FEF4FE13F88DF855C8420D094DE7D84D1D4A3BC10554A841BD80B CALLER DUP6 PUSH1 0x40 MLOAD PUSH2 0xB3F SWAP3 SWAP2 SWAP1 PUSH2 0x17C8 JUMP JUMPDEST PUSH1 0x40 MLOAD DUP1 SWAP2 SUB SWAP1 LOG1 PUSH1 0x3 PUSH1 0x4 PUSH1 0x14 PUSH2 0x100 EXP DUP2 SLOAD DUP2 PUSH1 0xFF MUL NOT AND SWAP1 DUP4 PUSH1 0x4 DUP2 GT ISZERO PUSH2 0xB6D JUMPI PUSH2 0xB6C PUSH2 0x1A21 JUMP JUMPDEST JUMPDEST MUL OR SWAP1 SSTORE POP PUSH2 0xCA8 JUMP JUMPDEST PUSH1 0x1 PUSH1 0x0 SWAP1 SLOAD SWAP1 PUSH2 0x100 EXP SWAP1 DIV PUSH20 0xFFFFFFFFFFFFFFFFFFFFFFFFFFFFFFFFFFFFFFFF AND PUSH20 0xFFFFFFFFFFFFFFFFFFFFFFFFFFFFFFFFFFFFFFFF AND CALLER PUSH20 0xFFFFFFFFFFFFFFFFFFFFFFFFFFFFFFFFFFFFFFFF AND EQ DUP1 ISZERO PUSH2 0xBD5 JUMPI POP PUSH1 0x3 SLOAD DUP2 EQ JUMPDEST ISZERO PUSH2 0xC6C JUMPI DUP4 PUSH1 0x1 PUSH1 0x15 PUSH2 0x100 EXP DUP2 SLOAD DUP2 PUSH1 0xFF MUL NOT AND SWAP1 DUP4 PUSH1 0x3 DUP2 GT ISZERO PUSH2 0xBFF JUMPI PUSH2 0xBFE PUSH2 0x1A21 JUMP JUMPDEST JUMPDEST MUL OR SWAP1 SSTORE POP PUSH32 0x79A7276BA83FEF4FE13F88DF855C8420D094DE7D84D1D4A3BC10554A841BD80B CALLER DUP6 PUSH1 0x40 MLOAD PUSH2 0xC35 SWAP3 SWAP2 SWAP1 PUSH2 0x17C8 JUMP JUMPDEST PUSH1 0x40 MLOAD DUP1 SWAP2 SUB SWAP1 LOG1 PUSH1 0x4 DUP1 PUSH1 0x14 PUSH2 0x100 EXP DUP2 SLOAD DUP2 PUSH1 0xFF MUL NOT AND SWAP1 DUP4 PUSH1 0x4 DUP2 GT ISZERO PUSH2 0xC62 JUMPI PUSH2 0xC61 PUSH2 0x1A21 JUMP JUMPDEST JUMPDEST MUL OR SWAP1 SSTORE POP PUSH2 0xCA7 JUMP JUMPDEST PUSH1 0x40 MLOAD PUSH32 0x8C379A000000000000000000000000000000000000000000000000000000000 DUP2 MSTORE PUSH1 0x4 ADD PUSH2 0xC9E SWAP1 PUSH2 0x1842 JUMP JUMPDEST PUSH1 0x40 MLOAD DUP1 SWAP2 SUB SWAP1 REVERT JUMPDEST JUMPDEST POP POP POP POP JUMP JUMPDEST PUSH1 0x0 DUP1 SLOAD SWAP1 PUSH2 0x100 EXP SWAP1 DIV PUSH20 0xFFFFFFFFFFFFFFFFFFFFFFFFFFFFFFFFFFFFFFFF AND PUSH20 0xFFFFFFFFFFFFFFFFFFFFFFFFFFFFFFFFFFFFFFFF AND CALLER PUSH20 0xFFFFFFFFFFFFFFFFFFFFFFFFFFFFFFFFFFFFFFFF AND EQ ISZERO DUP1 ISZERO PUSH2 0xD58 JUMPI POP PUSH1 0x1 PUSH1 0x0 SWAP1 SLOAD SWAP1 PUSH2 0x100 EXP SWAP1 DIV PUSH20 0xFFFFFFFFFFFFFFFFFFFFFFFFFFFFFFFFFFFFFFFF AND PUSH20 0xFFFFFFFFFFFFFFFFFFFFFFFFFFFFFFFFFFFFFFFF AND CALLER PUSH20 0xFFFFFFFFFFFFFFFFFFFFFFFFFFFFFFFFFFFFFFFF AND EQ ISZERO JUMPDEST PUSH2 0xD61 JUMPI PUSH1 0x0 DUP1 REVERT JUMPDEST PUSH1 0x0 PUSH20 0xFFFFFFFFFFFFFFFFFFFFFFFFFFFFFFFFFFFFFFFF AND PUSH1 0x0 DUP1 SLOAD SWAP1 PUSH2 0x100 EXP SWAP1 DIV PUSH20 0xFFFFFFFFFFFFFFFFFFFFFFFFFFFFFFFFFFFFFFFF AND PUSH20 0xFFFFFFFFFFFFFFFFFFFFFFFFFFFFFFFFFFFFFFFF AND EQ DUP1 PUSH2 0xE0A JUMPI POP PUSH1 0x0 PUSH20 0xFFFFFFFFFFFFFFFFFFFFFFFFFFFFFFFFFFFFFFFF AND PUSH1 0x1 PUSH1 0x0 SWAP1 SLOAD SWAP1 PUSH2 0x100 EXP SWAP1 DIV PUSH20 0xFFFFFFFFFFFFFFFFFFFFFFFFFFFFFFFFFFFFFFFF AND PUSH20 0xFFFFFFFFFFFFFFFFFFFFFFFFFFFFFFFFFFFFFFFF AND EQ JUMPDEST PUSH2 0xE49 JUMPI PUSH1 0x40 MLOAD PUSH32 0x8C379A000000000000000000000000000000000000000000000000000000000 DUP2 MSTORE PUSH1 0x4 ADD PUSH2 0xE40 SWAP1 PUSH2 0x18C2 JUMP JUMPDEST PUSH1 0x40 MLOAD DUP1 SWAP2 SUB SWAP1 REVERT JUMPDEST PUSH1 0x0 PUSH20 0xFFFFFFFFFFFFFFFFFFFFFFFFFFFFFFFFFFFFFFFF AND PUSH1 0x0 DUP1 SLOAD SWAP1 PUSH2 0x100 EXP SWAP1 DIV PUSH20 0xFFFFFFFFFFFFFFFFFFFFFFFFFFFFFFFFFFFFFFFF AND PUSH20 0xFFFFFFFFFFFFFFFFFFFFFFFFFFFFFFFFFFFFFFFF AND EQ ISZERO PUSH2 0xEE3 JUMPI CALLER PUSH1 0x0 DUP1 PUSH2 0x100 EXP DUP2 SLOAD DUP2 PUSH20 0xFFFFFFFFFFFFFFFFFFFFFFFFFFFFFFFFFFFFFFFF MUL NOT AND SWAP1 DUP4 PUSH20 0xFFFFFFFFFFFFFFFFFFFFFFFFFFFFFFFFFFFFFFFF AND MUL OR SWAP1 SSTORE POP PUSH2 0xF25 JUMP JUMPDEST CALLER PUSH1 0x1 PUSH1 0x0 PUSH2 0x100 EXP DUP2 SLOAD DUP2 PUSH20 0xFFFFFFFFFFFFFFFFFFFFFFFFFFFFFFFFFFFFFFFF MUL NOT AND SWAP1 DUP4 PUSH20 0xFFFFFFFFFFFFFFFFFFFFFFFFFFFFFFFFFFFFFFFF AND MUL OR SWAP1 SSTORE POP JUMPDEST JUMP JUMPDEST PUSH1 0x4 PUSH1 0x14 SWAP1 SLOAD SWAP1 PUSH2 0x100 EXP SWAP1 DIV PUSH1 0xFF AND DUP2 JUMP JUMPDEST PUSH1 0x0 DUP1 SLOAD SWAP1 PUSH2 0x100 EXP SWAP1 DIV PUSH20 0xFFFFFFFFFFFFFFFFFFFFFFFFFFFFFFFFFFFFFFFF AND DUP2 JUMP JUMPDEST PUSH1 0x1 PUSH1 0x14 SWAP1 SLOAD SWAP1 PUSH2 0x100 EXP SWAP1 DIV PUSH1 0xFF AND DUP2 JUMP JUMPDEST PUSH1 0x4 PUSH1 0x0 SWAP1 SLOAD SWAP1 PUSH2 0x100 EXP SWAP1 DIV PUSH20 0xFFFFFFFFFFFFFFFFFFFFFFFFFFFFFFFFFFFFFFFF AND DUP2 JUMP JUMPDEST PUSH1 0x0 DUP1 PUSH1 0x0 SWAP1 SLOAD SWAP1 PUSH2 0x100 EXP SWAP1 DIV PUSH20 0xFFFFFFFFFFFFFFFFFFFFFFFFFFFFFFFFFFFFFFFF AND SWAP1 POP SWAP1 JUMP JUMPDEST PUSH1 0x3 SLOAD DUP2 JUMP JUMPDEST PUSH1 0x0 DUP1 SLOAD SWAP1 PUSH2 0x100 EXP SWAP1 DIV PUSH20 0xFFFFFFFFFFFFFFFFFFFFFFFFFFFFFFFFFFFFFFFF AND PUSH20 0xFFFFFFFFFFFFFFFFFFFFFFFFFFFFFFFFFFFFFFFF AND CALLER PUSH20 0xFFFFFFFFFFFFFFFFFFFFFFFFFFFFFFFFFFFFFFFF AND EQ DUP1 PUSH2 0x106D JUMPI POP PUSH1 0x1 PUSH1 0x0 SWAP1 SLOAD SWAP1 PUSH2 0x100 EXP SWAP1 DIV PUSH20 0xFFFFFFFFFFFFFFFFFFFFFFFFFFFFFFFFFFFFFFFF AND PUSH20 0xFFFFFFFFFFFFFFFFFFFFFFFFFFFFFFFFFFFFFFFF AND CALLER PUSH20 0xFFFFFFFFFFFFFFFFFFFFFFFFFFFFFFFFFFFFFFFF AND EQ JUMPDEST PUSH2 0x10AC JUMPI PUSH1 0x40 MLOAD PUSH32 0x8C379A000000000000000000000000000000000000000000000000000000000 DUP2 MSTORE PUSH1 0x4 ADD PUSH2 0x10A3 SWAP1 PUSH2 0x18A2 JUMP JUMPDEST PUSH1 0x40 MLOAD DUP1 SWAP2 SUB SWAP1 REVERT JUMPDEST PUSH1 0x0 PUSH1 0x4 DUP2 GT ISZERO PUSH2 0x10C0 JUMPI PUSH2 0x10BF PUSH2 0x1A21 JUMP JUMPDEST JUMPDEST PUSH1 0x4 PUSH1 0x14 SWAP1 SLOAD SWAP1 PUSH2 0x100 EXP SWAP1 DIV PUSH1 0xFF AND PUSH1 0x4 DUP2 GT ISZERO PUSH2 0x10E2 JUMPI PUSH2 0x10E1 PUSH2 0x1A21 JUMP JUMPDEST JUMPDEST EQ DUP1 PUSH2 0x1121 JUMPI POP PUSH1 0x1 PUSH1 0x4 DUP2 GT ISZERO PUSH2 0x10FD JUMPI PUSH2 0x10FC PUSH2 0x1A21 JUMP JUMPDEST JUMPDEST PUSH1 0x4 PUSH1 0x14 SWAP1 SLOAD SWAP1 PUSH2 0x100 EXP SWAP1 DIV PUSH1 0xFF AND PUSH1 0x4 DUP2 GT ISZERO PUSH2 0x111F JUMPI PUSH2 0x111E PUSH2 0x1A21 JUMP JUMPDEST JUMPDEST EQ JUMPDEST PUSH2 0x112A JUMPI PUSH1 0x0 DUP1 REVERT JUMPDEST PUSH1 0x0 DUP1 SLOAD SWAP1 PUSH2 0x100 EXP SWAP1 DIV PUSH20 0xFFFFFFFFFFFFFFFFFFFFFFFFFFFFFFFFFFFFFFFF AND PUSH20 0xFFFFFFFFFFFFFFFFFFFFFFFFFFFFFFFFFFFFFFFF AND CALLER PUSH20 0xFFFFFFFFFFFFFFFFFFFFFFFFFFFFFFFFFFFFFFFF AND EQ DUP1 ISZERO PUSH2 0x1189 JUMPI POP PUSH1 0x0 DUP1 SHL PUSH1 0x2 SLOAD EQ JUMPDEST ISZERO PUSH2 0x119A JUMPI DUP1 PUSH1 0x2 DUP2 SWAP1 SSTORE POP PUSH2 0x1248 JUMP JUMPDEST PUSH1 0x1 PUSH1 0x0 SWAP1 SLOAD SWAP1 PUSH2 0x100 EXP SWAP1 DIV PUSH20 0xFFFFFFFFFFFFFFFFFFFFFFFFFFFFFFFFFFFFFFFF AND PUSH20 0xFFFFFFFFFFFFFFFFFFFFFFFFFFFFFFFFFFFFFFFF AND CALLER PUSH20 0xFFFFFFFFFFFFFFFFFFFFFFFFFFFFFFFFFFFFFFFF AND EQ DUP1 ISZERO PUSH2 0x11FB JUMPI POP PUSH1 0x0 DUP1 SHL PUSH1 0x3 SLOAD EQ JUMPDEST ISZERO PUSH2 0x120C JUMPI DUP1 PUSH1 0x3 DUP2 SWAP1 SSTORE POP PUSH2 0x1247 JUMP JUMPDEST PUSH1 0x40 MLOAD PUSH32 0x8C379A000000000000000000000000000000000000000000000000000000000 DUP2 MSTORE PUSH1 0x4 ADD PUSH2 0x123E SWAP1 PUSH2 0x1862 JUMP JUMPDEST PUSH1 0x40 MLOAD DUP1 SWAP2 SUB SWAP1 REVERT JUMPDEST JUMPDEST PUSH32 0x599481BD81D46EA2372B7F45AB8900AC58961566F184806290D9EDE4E0FC7641 CALLER PUSH1 0x40 MLOAD PUSH2 0x1277 SWAP2 SWAP1 PUSH2 0x17AD JUMP JUMPDEST PUSH1 0x40 MLOAD DUP1 SWAP2 SUB SWAP1 LOG1 PUSH1 0x0 PUSH1 0x4 DUP2 GT ISZERO PUSH2 0x1293 JUMPI PUSH2 0x1292 PUSH2 0x1A21 JUMP JUMPDEST JUMPDEST PUSH1 0x4 PUSH1 0x14 SWAP1 SLOAD SWAP1 PUSH2 0x100 EXP SWAP1 DIV PUSH1 0xFF AND PUSH1 0x4 DUP2 GT ISZERO PUSH2 0x12B5 JUMPI PUSH2 0x12B4 PUSH2 0x1A21 JUMP JUMPDEST JUMPDEST EQ ISZERO PUSH2 0x12EB JUMPI PUSH1 0x1 PUSH1 0x4 PUSH1 0x14 PUSH2 0x100 EXP DUP2 SLOAD DUP2 PUSH1 0xFF MUL NOT AND SWAP1 DUP4 PUSH1 0x4 DUP2 GT ISZERO PUSH2 0x12E1 JUMPI PUSH2 0x12E0 PUSH2 0x1A21 JUMP JUMPDEST JUMPDEST MUL OR SWAP1 SSTORE POP PUSH2 0x1317 JUMP JUMPDEST PUSH1 0x2 PUSH1 0x4 PUSH1 0x14 PUSH2 0x100 EXP DUP2 SLOAD DUP2 PUSH1 0xFF MUL NOT AND SWAP1 DUP4 PUSH1 0x4 DUP2 GT ISZERO PUSH2 0x1311 JUMPI PUSH2 0x1310 PUSH2 0x1A21 JUMP JUMPDEST JUMPDEST MUL OR SWAP1 SSTORE POP JUMPDEST POP JUMP JUMPDEST PUSH1 0x60 PUSH1 0x0 PUSH1 0x1 PUSH2 0x1329 DUP5 PUSH2 0x13F2 JUMP JUMPDEST ADD SWAP1 POP PUSH1 0x0 DUP2 PUSH8 0xFFFFFFFFFFFFFFFF DUP2 GT ISZERO PUSH2 0x1348 JUMPI PUSH2 0x1347 PUSH2 0x1A50 JUMP JUMPDEST JUMPDEST PUSH1 0x40 MLOAD SWAP1 DUP1 DUP3 MSTORE DUP1 PUSH1 0x1F ADD PUSH1 0x1F NOT AND PUSH1 0x20 ADD DUP3 ADD PUSH1 0x40 MSTORE DUP1 ISZERO PUSH2 0x137A JUMPI DUP2 PUSH1 0x20 ADD PUSH1 0x1 DUP3 MUL DUP1 CALLDATASIZE DUP4 CALLDATACOPY DUP1 DUP3 ADD SWAP2 POP POP SWAP1 POP JUMPDEST POP SWAP1 POP PUSH1 0x0 DUP3 PUSH1 0x20 ADD DUP3 ADD SWAP1 POP JUMPDEST PUSH1 0x1 ISZERO PUSH2 0x13E7 JUMPI DUP1 DUP1 PUSH1 0x1 SWAP1 SUB SWAP2 POP POP PUSH32 0x3031323334353637383961626364656600000000000000000000000000000000 PUSH1 0xA DUP7 MOD BYTE DUP2 MSTORE8 PUSH1 0xA DUP6 DUP2 PUSH2 0x13D1 JUMPI PUSH2 0x13D0 PUSH2 0x19F2 JUMP JUMPDEST JUMPDEST DIV SWAP5 POP PUSH1 0x0 DUP6 EQ ISZERO PUSH2 0x13E2 JUMPI PUSH2 0x13E7 JUMP JUMPDEST PUSH2 0x1388 JUMP JUMPDEST DUP2 SWAP4 POP POP POP POP SWAP2 SWAP1 POP JUMP JUMPDEST PUSH1 0x0 DUP1 PUSH1 0x0 SWAP1 POP PUSH27 0x184F03E93FF9F4DAA797ED6E38ED64BF6A1F010000000000000000 DUP4 LT PUSH2 0x1450 JUMPI PUSH27 0x184F03E93FF9F4DAA797ED6E38ED64BF6A1F010000000000000000 DUP4 DUP2 PUSH2 0x1446 JUMPI PUSH2 0x1445 PUSH2 0x19F2 JUMP JUMPDEST JUMPDEST DIV SWAP3 POP PUSH1 0x40 DUP2 ADD SWAP1 POP JUMPDEST PUSH14 0x4EE2D6D415B85ACEF8100000000 DUP4 LT PUSH2 0x148D JUMPI PUSH14 0x4EE2D6D415B85ACEF8100000000 DUP4 DUP2 PUSH2 0x1483 JUMPI PUSH2 0x1482 PUSH2 0x19F2 JUMP JUMPDEST JUMPDEST DIV SWAP3 POP PUSH1 0x20 DUP2 ADD SWAP1 POP JUMPDEST PUSH7 0x2386F26FC10000 DUP4 LT PUSH2 0x14BC JUMPI PUSH7 0x2386F26FC10000 DUP4 DUP2 PUSH2 0x14B2 JUMPI PUSH2 0x14B1 PUSH2 0x19F2 JUMP JUMPDEST JUMPDEST DIV SWAP3 POP PUSH1 0x10 DUP2 ADD SWAP1 POP JUMPDEST PUSH4 0x5F5E100 DUP4 LT PUSH2 0x14E5 JUMPI PUSH4 0x5F5E100 DUP4 DUP2 PUSH2 0x14DB JUMPI PUSH2 0x14DA PUSH2 0x19F2 JUMP JUMPDEST JUMPDEST DIV SWAP3 POP PUSH1 0x8 DUP2 ADD SWAP1 POP JUMPDEST PUSH2 0x2710 DUP4 LT PUSH2 0x150A JUMPI PUSH2 0x2710 DUP4 DUP2 PUSH2 0x1500 JUMPI PUSH2 0x14FF PUSH2 0x19F2 JUMP JUMPDEST JUMPDEST DIV SWAP3 POP PUSH1 0x4 DUP2 ADD SWAP1 POP JUMPDEST PUSH1 0x64 DUP4 LT PUSH2 0x152D JUMPI PUSH1 0x64 DUP4 DUP2 PUSH2 0x1523 JUMPI PUSH2 0x1522 PUSH2 0x19F2 JUMP JUMPDEST JUMPDEST DIV SWAP3 POP PUSH1 0x2 DUP2 ADD SWAP1 POP JUMPDEST PUSH1 0xA DUP4 LT PUSH2 0x153C JUMPI PUSH1 0x1 DUP2 ADD SWAP1 POP JUMPDEST DUP1 SWAP2 POP POP SWAP2 SWAP1 POP JUMP JUMPDEST PUSH1 0x0 DUP2 CALLDATALOAD SWAP1 POP PUSH2 0x1554 DUP2 PUSH2 0x1BA2 JUMP JUMPDEST SWAP3 SWAP2 POP POP JUMP JUMPDEST PUSH1 0x0 DUP2 MLOAD SWAP1 POP PUSH2 0x1569 DUP2 PUSH2 0x1BA2 JUMP JUMPDEST SWAP3 SWAP2 POP POP JUMP JUMPDEST PUSH1 0x0 DUP2 CALLDATALOAD SWAP1 POP PUSH2 0x157E DUP2 PUSH2 0x1BB9 JUMP JUMPDEST SWAP3 SWAP2 POP POP JUMP JUMPDEST PUSH1 0x0 DUP2 CALLDATALOAD SWAP1 POP PUSH2 0x1593 DUP2 PUSH2 0x1BC9 JUMP JUMPDEST SWAP3 SWAP2 POP POP JUMP JUMPDEST PUSH1 0x0 PUSH1 0x20 DUP3 DUP5 SUB SLT ISZERO PUSH2 0x15AF JUMPI PUSH2 0x15AE PUSH2 0x1A7F JUMP JUMPDEST JUMPDEST PUSH1 0x0 PUSH2 0x15BD DUP5 DUP3 DUP6 ADD PUSH2 0x1545 JUMP JUMPDEST SWAP2 POP POP SWAP3 SWAP2 POP POP JUMP JUMPDEST PUSH1 0x0 PUSH1 0x20 DUP3 DUP5 SUB SLT ISZERO PUSH2 0x15DC JUMPI PUSH2 0x15DB PUSH2 0x1A7F JUMP JUMPDEST JUMPDEST PUSH1 0x0 PUSH2 0x15EA DUP5 DUP3 DUP6 ADD PUSH2 0x155A JUMP JUMPDEST SWAP2 POP POP SWAP3 SWAP2 POP POP JUMP JUMPDEST PUSH1 0x0 DUP1 PUSH1 0x40 DUP4 DUP6 SUB SLT ISZERO PUSH2 0x160A JUMPI PUSH2 0x1609 PUSH2 0x1A7F JUMP JUMPDEST JUMPDEST PUSH1 0x0 PUSH2 0x1618 DUP6 DUP3 DUP7 ADD PUSH2 0x156F JUMP JUMPDEST SWAP3 POP POP PUSH1 0x20 PUSH2 0x1629 DUP6 DUP3 DUP7 ADD PUSH2 0x1584 JUMP JUMPDEST SWAP2 POP POP SWAP3 POP SWAP3 SWAP1 POP JUMP JUMPDEST PUSH2 0x163C DUP2 PUSH2 0x1929 JUMP JUMPDEST DUP3 MSTORE POP POP JUMP JUMPDEST PUSH2 0x164B DUP2 PUSH2 0x193B JUMP JUMPDEST DUP3 MSTORE POP POP JUMP JUMPDEST PUSH1 0x0 PUSH2 0x165C DUP3 PUSH2 0x1902 JUMP JUMPDEST PUSH2 0x1666 DUP2 DUP6 PUSH2 0x190D JUMP JUMPDEST SWAP4 POP PUSH2 0x1676 DUP2 DUP6 PUSH1 0x20 DUP7 ADD PUSH2 0x19BF JUMP JUMPDEST DUP1 DUP5 ADD SWAP2 POP POP SWAP3 SWAP2 POP POP JUMP JUMPDEST PUSH2 0x168B DUP2 PUSH2 0x199B JUMP JUMPDEST DUP3 MSTORE POP POP JUMP JUMPDEST PUSH2 0x169A DUP2 PUSH2 0x19AD JUMP JUMPDEST DUP3 MSTORE POP POP JUMP JUMPDEST PUSH1 0x0 PUSH2 0x16AD PUSH1 0x10 DUP4 PUSH2 0x1918 JUMP JUMPDEST SWAP2 POP PUSH2 0x16B8 DUP3 PUSH2 0x1A84 JUMP JUMPDEST PUSH1 0x20 DUP3 ADD SWAP1 POP SWAP2 SWAP1 POP JUMP JUMPDEST PUSH1 0x0 PUSH2 0x16D0 PUSH1 0x1D DUP4 PUSH2 0x1918 JUMP JUMPDEST SWAP2 POP PUSH2 0x16DB DUP3 PUSH2 0x1AAD JUMP JUMPDEST PUSH1 0x20 DUP3 ADD SWAP1 POP SWAP2 SWAP1 POP JUMP JUMPDEST PUSH1 0x0 PUSH2 0x16F3 PUSH1 0xF DUP4 PUSH2 0x1918 JUMP JUMPDEST SWAP2 POP PUSH2 0x16FE DUP3 PUSH2 0x1AD6 JUMP JUMPDEST PUSH1 0x20 DUP3 ADD SWAP1 POP SWAP2 SWAP1 POP JUMP JUMPDEST PUSH1 0x0 PUSH2 0x1716 PUSH1 0x1E DUP4 PUSH2 0x1918 JUMP JUMPDEST SWAP2 POP PUSH2 0x1721 DUP3 PUSH2 0x1AFF JUMP JUMPDEST PUSH1 0x20 DUP3 ADD SWAP1 POP SWAP2 SWAP1 POP JUMP JUMPDEST PUSH1 0x0 PUSH2 0x1739 PUSH1 0x11 DUP4 PUSH2 0x1918 JUMP JUMPDEST SWAP2 POP PUSH2 0x1744 DUP3 PUSH2 0x1B28 JUMP JUMPDEST PUSH1 0x20 DUP3 ADD SWAP1 POP SWAP2 SWAP1 POP JUMP JUMPDEST PUSH1 0x0 PUSH2 0x175C PUSH1 0xE DUP4 PUSH2 0x1918 JUMP JUMPDEST SWAP2 POP PUSH2 0x1767 DUP3 PUSH2 0x1B51 JUMP JUMPDEST PUSH1 0x20 DUP3 ADD SWAP1 POP SWAP2 SWAP1 POP JUMP JUMPDEST PUSH1 0x0 PUSH2 0x177E DUP3 DUP5 PUSH2 0x1651 JUMP JUMPDEST SWAP2 POP DUP2 SWAP1 POP SWAP3 SWAP2 POP POP JUMP JUMPDEST PUSH1 0x0 PUSH2 0x1795 DUP3 DUP6 PUSH2 0x1651 JUMP JUMPDEST SWAP2 POP PUSH2 0x17A1 DUP3 DUP5 PUSH2 0x1651 JUMP JUMPDEST SWAP2 POP DUP2 SWAP1 POP SWAP4 SWAP3 POP POP POP JUMP JUMPDEST PUSH1 0x0 PUSH1 0x20 DUP3 ADD SWAP1 POP PUSH2 0x17C2 PUSH1 0x0 DUP4 ADD DUP5 PUSH2 0x1633 JUMP JUMPDEST SWAP3 SWAP2 POP POP JUMP JUMPDEST PUSH1 0x0 PUSH1 0x40 DUP3 ADD SWAP1 POP PUSH2 0x17DD PUSH1 0x0 DUP4 ADD DUP6 PUSH2 0x1633 JUMP JUMPDEST PUSH2 0x17EA PUSH1 0x20 DUP4 ADD DUP5 PUSH2 0x1691 JUMP JUMPDEST SWAP4 SWAP3 POP POP POP JUMP JUMPDEST PUSH1 0x0 PUSH1 0x20 DUP3 ADD SWAP1 POP PUSH2 0x1806 PUSH1 0x0 DUP4 ADD DUP5 PUSH2 0x1642 JUMP JUMPDEST SWAP3 SWAP2 POP POP JUMP JUMPDEST PUSH1 0x0 PUSH1 0x20 DUP3 ADD SWAP1 POP PUSH2 0x1821 PUSH1 0x0 DUP4 ADD DUP5 PUSH2 0x1682 JUMP JUMPDEST SWAP3 SWAP2 POP POP JUMP JUMPDEST PUSH1 0x0 PUSH1 0x20 DUP3 ADD SWAP1 POP PUSH2 0x183C PUSH1 0x0 DUP4 ADD DUP5 PUSH2 0x1691 JUMP JUMPDEST SWAP3 SWAP2 POP POP JUMP JUMPDEST PUSH1 0x0 PUSH1 0x20 DUP3 ADD SWAP1 POP DUP2 DUP2 SUB PUSH1 0x0 DUP4 ADD MSTORE PUSH2 0x185B DUP2 PUSH2 0x16A0 JUMP JUMPDEST SWAP1 POP SWAP2 SWAP1 POP JUMP JUMPDEST PUSH1 0x0 PUSH1 0x20 DUP3 ADD SWAP1 POP DUP2 DUP2 SUB PUSH1 0x0 DUP4 ADD MSTORE PUSH2 0x187B DUP2 PUSH2 0x16C3 JUMP JUMPDEST SWAP1 POP SWAP2 SWAP1 POP JUMP JUMPDEST PUSH1 0x0 PUSH1 0x20 DUP3 ADD SWAP1 POP DUP2 DUP2 SUB PUSH1 0x0 DUP4 ADD MSTORE PUSH2 0x189B DUP2 PUSH2 0x16E6 JUMP JUMPDEST SWAP1 POP SWAP2 SWAP1 POP JUMP JUMPDEST PUSH1 0x0 PUSH1 0x20 DUP3 ADD SWAP1 POP DUP2 DUP2 SUB PUSH1 0x0 DUP4 ADD MSTORE PUSH2 0x18BB DUP2 PUSH2 0x1709 JUMP JUMPDEST SWAP1 POP SWAP2 SWAP1 POP JUMP JUMPDEST PUSH1 0x0 PUSH1 0x20 DUP3 ADD SWAP1 POP DUP2 DUP2 SUB PUSH1 0x0 DUP4 ADD MSTORE PUSH2 0x18DB DUP2 PUSH2 0x172C JUMP JUMPDEST SWAP1 POP SWAP2 SWAP1 POP JUMP JUMPDEST PUSH1 0x0 PUSH1 0x20 DUP3 ADD SWAP1 POP DUP2 DUP2 SUB PUSH1 0x0 DUP4 ADD MSTORE PUSH2 0x18FB DUP2 PUSH2 0x174F JUMP JUMPDEST SWAP1 POP SWAP2 SWAP1 POP JUMP JUMPDEST PUSH1 0x0 DUP2 MLOAD SWAP1 POP SWAP2 SWAP1 POP JUMP JUMPDEST PUSH1 0x0 DUP2 SWAP1 POP SWAP3 SWAP2 POP POP JUMP JUMPDEST PUSH1 0x0 DUP3 DUP3 MSTORE PUSH1 0x20 DUP3 ADD SWAP1 POP SWAP3 SWAP2 POP POP JUMP JUMPDEST PUSH1 0x0 PUSH2 0x1934 DUP3 PUSH2 0x196B JUMP JUMPDEST SWAP1 POP SWAP2 SWAP1 POP JUMP JUMPDEST PUSH1 0x0 DUP2 SWAP1 POP SWAP2 SWAP1 POP JUMP JUMPDEST PUSH1 0x0 DUP2 SWAP1 POP PUSH2 0x1953 DUP3 PUSH2 0x1B7A JUMP JUMPDEST SWAP2 SWAP1 POP JUMP JUMPDEST PUSH1 0x0 DUP2 SWAP1 POP PUSH2 0x1966 DUP3 PUSH2 0x1B8E JUMP JUMPDEST SWAP2 SWAP1 POP JUMP JUMPDEST PUSH1 0x0 PUSH20 0xFFFFFFFFFFFFFFFFFFFFFFFFFFFFFFFFFFFFFFFF DUP3 AND SWAP1 POP SWAP2 SWAP1 POP JUMP JUMPDEST PUSH1 0x0 PUSH4 0xFFFFFFFF DUP3 AND SWAP1 POP SWAP2 SWAP1 POP JUMP JUMPDEST PUSH1 0x0 PUSH2 0x19A6 DUP3 PUSH2 0x1945 JUMP JUMPDEST SWAP1 POP SWAP2 SWAP1 POP JUMP JUMPDEST PUSH1 0x0 PUSH2 0x19B8 DUP3 PUSH2 0x1958 JUMP JUMPDEST SWAP1 POP SWAP2 SWAP1 POP JUMP JUMPDEST PUSH1 0x0 JUMPDEST DUP4 DUP2 LT ISZERO PUSH2 0x19DD JUMPI DUP1 DUP3 ADD MLOAD DUP2 DUP5 ADD MSTORE PUSH1 0x20 DUP2 ADD SWAP1 POP PUSH2 0x19C2 JUMP JUMPDEST DUP4 DUP2 GT ISZERO PUSH2 0x19EC JUMPI PUSH1 0x0 DUP5 DUP5 ADD MSTORE JUMPDEST POP POP POP POP JUMP JUMPDEST PUSH32 0x4E487B7100000000000000000000000000000000000000000000000000000000 PUSH1 0x0 MSTORE PUSH1 0x12 PUSH1 0x4 MSTORE PUSH1 0x24 PUSH1 0x0 REVERT JUMPDEST PUSH32 0x4E487B7100000000000000000000000000000000000000000000000000000000 PUSH1 0x0 MSTORE PUSH1 0x21 PUSH1 0x4 MSTORE PUSH1 0x24 PUSH1 0x0 REVERT JUMPDEST PUSH32 0x4E487B7100000000000000000000000000000000000000000000000000000000 PUSH1 0x0 MSTORE PUSH1 0x41 PUSH1 0x4 MSTORE PUSH1 0x24 PUSH1 0x0 REVERT JUMPDEST PUSH1 0x0 DUP1 REVERT JUMPDEST PUSH32 0x696E636F727265637420776561706F6E00000000000000000000000000000000 PUSH1 0x0 DUP3 ADD MSTORE POP JUMP JUMPDEST PUSH32 0x506C6179657273206861766520616C726561647920636F6D6D69746564000000 PUSH1 0x0 DUP3 ADD MSTORE POP JUMP JUMPDEST PUSH32 0x696E636F72726563742073746167650000000000000000000000000000000000 PUSH1 0x0 DUP3 ADD MSTORE POP JUMP JUMPDEST PUSH32 0x596F7520617265206E6F7420706C6179696E6720746869732067616D652E0000 PUSH1 0x0 DUP3 ADD MSTORE POP JUMP JUMPDEST PUSH32 0x54686520726F6F6D2069732066756C6C2E000000000000000000000000000000 PUSH1 0x0 DUP3 ADD MSTORE POP JUMP JUMPDEST PUSH32 0x696E76616C696420776561706F6E000000000000000000000000000000000000 PUSH1 0x0 DUP3 ADD MSTORE POP JUMP JUMPDEST PUSH1 0x5 DUP2 LT PUSH2 0x1B8B JUMPI PUSH2 0x1B8A PUSH2 0x1A21 JUMP JUMPDEST JUMPDEST POP JUMP JUMPDEST PUSH1 0x4 DUP2 LT PUSH2 0x1B9F JUMPI PUSH2 0x1B9E PUSH2 0x1A21 JUMP JUMPDEST JUMPDEST POP JUMP JUMPDEST PUSH2 0x1BAB DUP2 PUSH2 0x193B JUMP JUMPDEST DUP2 EQ PUSH2 0x1BB6 JUMPI PUSH1 0x0 DUP1 REVERT JUMPDEST POP JUMP JUMPDEST PUSH1 0x4 DUP2 LT PUSH2 0x1BC6 JUMPI PUSH1 0x0 DUP1 REVERT JUMPDEST POP JUMP JUMPDEST PUSH2 0x1BD2 DUP2 PUSH2 0x198B JUMP JUMPDEST DUP2 EQ PUSH2 0x1BDD JUMPI PUSH1 0x0 DUP1 REVERT JUMPDEST POP JUMP INVALID LOG2 PUSH5 0x6970667358 0x22 SLT KECCAK256 0xAA 0xDE 0xE1 0xE3 DELEGATECALL OR DUP1 0xB0 0xC3 SHR 0xE9 MSTORE8 0xD4 SLOAD 0x4A 0xDE 0xEE CREATE 0xC5 DELEGATECALL SWAP13 PUSH29 0x98D2E19AB58F684B4A7E64736F6C634300080700330000000000000000 "
				},
				"gasEstimates": {
					"creation": {
						"codeDepositCost": "1438000",
						"executionCost": "infinite",
						"totalCost": "infinite"
					},
					"external": {
						"endgame()": "40054",
						"getPlayer1Address()": "2566",
						"getWinnerAddress()": "2546",
						"join()": "35310",
						"makeChoice(bytes32)": "67957",
						"newGame()": "156019",
						"player1()": "2578",
						"player1Hash()": "2496",
						"player2()": "2582",
						"player2Hash()": "2495",
						"reveal(uint8,uint32)": "infinite",
						"stage()": "2655",
						"weaponOfPlayer1()": "2699",
						"weaponOfPlayer2()": "2656",
						"winner()": "2536"
					}
				},
				"methodIdentifiers": {
					"endgame()": "9dd63d6b",
					"getPlayer1Address()": "e9a6421f",
					"getWinnerAddress()": "10a37c26",
					"join()": "b688a363",
					"makeChoice(bytes32)": "fce55812",
					"newGame()": "7d03f5f3",
					"player1()": "d30895e4",
					"player1Hash()": "a45332a7",
					"player2()": "59a5f12d",
					"player2Hash()": "fb93247f",
					"reveal(uint8,uint32)": "ab4a6be1",
					"stage()": "c040e6b8",
					"weaponOfPlayer1()": "d8c4d9da",
					"weaponOfPlayer2()": "1884824c",
					"winner()": "dfbf53ae"
				}
			},
			"storageLayout": {
				"storage": [
					{
						"astId": 1066,
						"contract": "contracts/RPS.sol:RPS",
						"label": "player1",
						"offset": 0,
						"slot": "0",
						"type": "t_address"
					},
					{
						"astId": 1068,
						"contract": "contracts/RPS.sol:RPS",
						"label": "player2",
						"offset": 0,
						"slot": "1",
						"type": "t_address"
					},
					{
						"astId": 1071,
						"contract": "contracts/RPS.sol:RPS",
						"label": "weaponOfPlayer1",
						"offset": 20,
						"slot": "1",
						"type": "t_enum(Weapon)1064"
					},
					{
						"astId": 1074,
						"contract": "contracts/RPS.sol:RPS",
						"label": "weaponOfPlayer2",
						"offset": 21,
						"slot": "1",
						"type": "t_enum(Weapon)1064"
					},
					{
						"astId": 1076,
						"contract": "contracts/RPS.sol:RPS",
						"label": "player1Hash",
						"offset": 0,
						"slot": "2",
						"type": "t_bytes32"
					},
					{
						"astId": 1078,
						"contract": "contracts/RPS.sol:RPS",
						"label": "player2Hash",
						"offset": 0,
						"slot": "3",
						"type": "t_bytes32"
					},
					{
						"astId": 1080,
						"contract": "contracts/RPS.sol:RPS",
						"label": "winner",
						"offset": 0,
						"slot": "4",
						"type": "t_address"
					},
					{
						"astId": 1085,
						"contract": "contracts/RPS.sol:RPS",
						"label": "stage",
						"offset": 20,
						"slot": "4",
						"type": "t_enum(Stage)1059"
					},
					{
						"astId": 1093,
						"contract": "contracts/RPS.sol:RPS",
						"label": "map",
						"offset": 0,
						"slot": "5",
						"type": "t_mapping(t_enum(Weapon)1064,t_mapping(t_enum(Weapon)1064,t_uint8))"
					}
				],
				"types": {
					"t_address": {
						"encoding": "inplace",
						"label": "address",
						"numberOfBytes": "20"
					},
					"t_bytes32": {
						"encoding": "inplace",
						"label": "bytes32",
						"numberOfBytes": "32"
					},
					"t_enum(Stage)1059": {
						"encoding": "inplace",
						"label": "enum RPS.Stage",
						"numberOfBytes": "1"
					},
					"t_enum(Weapon)1064": {
						"encoding": "inplace",
						"label": "enum RPS.Weapon",
						"numberOfBytes": "1"
					},
					"t_mapping(t_enum(Weapon)1064,t_mapping(t_enum(Weapon)1064,t_uint8))": {
						"encoding": "mapping",
						"key": "t_enum(Weapon)1064",
						"label": "mapping(enum RPS.Weapon => mapping(enum RPS.Weapon => uint8))",
						"numberOfBytes": "32",
						"value": "t_mapping(t_enum(Weapon)1064,t_uint8)"
					},
					"t_mapping(t_enum(Weapon)1064,t_uint8)": {
						"encoding": "mapping",
						"key": "t_enum(Weapon)1064",
						"label": "mapping(enum RPS.Weapon => uint8)",
						"numberOfBytes": "32",
						"value": "t_uint8"
					},
					"t_uint8": {
						"encoding": "inplace",
						"label": "uint8",
						"numberOfBytes": "1"
					}
				}
			},
			"userdoc": {
				"kind": "user",
				"methods": {},
				"version": 1
			}
		}
	}
}